{"abi":[{"type":"constructor","inputs":[{"name":"asset_","type":"address","internalType":"contract IERC20"},{"name":"_centralRegistry","type":"address","internalType":"contract ICentralRegistry"},{"name":"_approvedCTokens","type":"address[]","internalType":"address[]"},{"name":"_allocationCapsBps","type":"uint256[]","internalType":"uint256[]"},{"name":"_feeBps","type":"uint256","internalType":"uint256"}],"stateMutability":"nonpayable"},{"type":"function","name":"DOMAIN_SEPARATOR","inputs":[],"outputs":[{"name":"result","type":"bytes32","internalType":"bytes32"}],"stateMutability":"view"},{"type":"function","name":"MAX_FEE_BPS","inputs":[],"outputs":[{"name":"","type":"uint256","internalType":"uint256"}],"stateMutability":"view"},{"type":"function","name":"MAX_MARKETS","inputs":[],"outputs":[{"name":"","type":"uint256","internalType":"uint256"}],"stateMutability":"view"},{"type":"function","name":"MIN_REALLOCATION_AMOUNT","inputs":[],"outputs":[{"name":"","type":"int256","internalType":"int256"}],"stateMutability":"view"},{"type":"function","name":"_asset","inputs":[],"outputs":[{"name":"","type":"address","internalType":"contract IERC20"}],"stateMutability":"view"},{"type":"function","name":"accrueIfNeeded","inputs":[],"outputs":[],"stateMutability":"nonpayable"},{"type":"function","name":"addApprovedAsset","inputs":[{"name":"newAsset","type":"address","internalType":"address"},{"name":"capBps","type":"uint256","internalType":"uint256"}],"outputs":[],"stateMutability":"nonpayable"},{"type":"function","name":"allocationCaps","inputs":[{"name":"","type":"address","internalType":"address"}],"outputs":[{"name":"","type":"uint256","internalType":"uint256"}],"stateMutability":"view"},{"type":"function","name":"allowance","inputs":[{"name":"owner","type":"address","internalType":"address"},{"name":"spender","type":"address","internalType":"address"}],"outputs":[{"name":"result","type":"uint256","internalType":"uint256"}],"stateMutability":"view"},{"type":"function","name":"approve","inputs":[{"name":"spender","type":"address","internalType":"address"},{"name":"amount","type":"uint256","internalType":"uint256"}],"outputs":[{"name":"","type":"bool","internalType":"bool"}],"stateMutability":"nonpayable"},{"type":"function","name":"approvedCTokensList","inputs":[{"name":"","type":"uint256","internalType":"uint256"}],"outputs":[{"name":"","type":"address","internalType":"address"}],"stateMutability":"view"},{"type":"function","name":"asset","inputs":[],"outputs":[{"name":"","type":"address","internalType":"address"}],"stateMutability":"view"},{"type":"function","name":"balanceOf","inputs":[{"name":"owner","type":"address","internalType":"address"}],"outputs":[{"name":"result","type":"uint256","internalType":"uint256"}],"stateMutability":"view"},{"type":"function","name":"centralRegistry","inputs":[],"outputs":[{"name":"","type":"address","internalType":"contract ICentralRegistry"}],"stateMutability":"view"},{"type":"function","name":"convertToAssets","inputs":[{"name":"shares","type":"uint256","internalType":"uint256"}],"outputs":[{"name":"assets","type":"uint256","internalType":"uint256"}],"stateMutability":"view"},{"type":"function","name":"convertToShares","inputs":[{"name":"assets","type":"uint256","internalType":"uint256"}],"outputs":[{"name":"shares","type":"uint256","internalType":"uint256"}],"stateMutability":"view"},{"type":"function","name":"decimals","inputs":[],"outputs":[{"name":"","type":"uint8","internalType":"uint8"}],"stateMutability":"view"},{"type":"function","name":"deposit","inputs":[{"name":"assets","type":"uint256","internalType":"uint256"},{"name":"receiver","type":"address","internalType":"address"}],"outputs":[{"name":"shares","type":"uint256","internalType":"uint256"}],"stateMutability":"nonpayable"},{"type":"function","name":"exchangeRate","inputs":[],"outputs":[{"name":"","type":"uint256","internalType":"uint256"}],"stateMutability":"view"},{"type":"function","name":"exchangeRateHighWatermark","inputs":[],"outputs":[{"name":"","type":"uint256","internalType":"uint256"}],"stateMutability":"view"},{"type":"function","name":"exchangeRateUpdated","inputs":[],"outputs":[{"name":"","type":"uint256","internalType":"uint256"}],"stateMutability":"nonpayable"},{"type":"function","name":"fee","inputs":[],"outputs":[{"name":"","type":"uint256","internalType":"uint256"}],"stateMutability":"view"},{"type":"function","name":"getApprovedMarkets","inputs":[],"outputs":[{"name":"","type":"address[]","internalType":"address[]"}],"stateMutability":"view"},{"type":"function","name":"initializeDeposits","inputs":[{"name":"targetMarket","type":"address","internalType":"address"}],"outputs":[],"stateMutability":"nonpayable"},{"type":"function","name":"maxDeposit","inputs":[{"name":"","type":"address","internalType":"address"}],"outputs":[{"name":"","type":"uint256","internalType":"uint256"}],"stateMutability":"view"},{"type":"function","name":"maxMint","inputs":[{"name":"","type":"address","internalType":"address"}],"outputs":[{"name":"","type":"uint256","internalType":"uint256"}],"stateMutability":"view"},{"type":"function","name":"maxRedeem","inputs":[{"name":"owner","type":"address","internalType":"address"}],"outputs":[{"name":"","type":"uint256","internalType":"uint256"}],"stateMutability":"view"},{"type":"function","name":"maxWithdraw","inputs":[{"name":"owner","type":"address","internalType":"address"}],"outputs":[{"name":"","type":"uint256","internalType":"uint256"}],"stateMutability":"view"},{"type":"function","name":"mint","inputs":[{"name":"shares","type":"uint256","internalType":"uint256"},{"name":"receiver","type":"address","internalType":"address"}],"outputs":[{"name":"assets","type":"uint256","internalType":"uint256"}],"stateMutability":"nonpayable"},{"type":"function","name":"mintPaused","inputs":[],"outputs":[{"name":"","type":"uint8","internalType":"uint8"}],"stateMutability":"view"},{"type":"function","name":"name","inputs":[],"outputs":[{"name":"","type":"string","internalType":"string"}],"stateMutability":"view"},{"type":"function","name":"nonces","inputs":[{"name":"owner","type":"address","internalType":"address"}],"outputs":[{"name":"result","type":"uint256","internalType":"uint256"}],"stateMutability":"view"},{"type":"function","name":"numApprovedMarkets","inputs":[],"outputs":[{"name":"","type":"uint256","internalType":"uint256"}],"stateMutability":"view"},{"type":"function","name":"permit","inputs":[{"name":"owner","type":"address","internalType":"address"},{"name":"spender","type":"address","internalType":"address"},{"name":"value","type":"uint256","internalType":"uint256"},{"name":"deadline","type":"uint256","internalType":"uint256"},{"name":"v","type":"uint8","internalType":"uint8"},{"name":"r","type":"bytes32","internalType":"bytes32"},{"name":"s","type":"bytes32","internalType":"bytes32"}],"outputs":[],"stateMutability":"nonpayable"},{"type":"function","name":"previewDeposit","inputs":[{"name":"assets","type":"uint256","internalType":"uint256"}],"outputs":[{"name":"shares","type":"uint256","internalType":"uint256"}],"stateMutability":"view"},{"type":"function","name":"previewMint","inputs":[{"name":"shares","type":"uint256","internalType":"uint256"}],"outputs":[{"name":"assets","type":"uint256","internalType":"uint256"}],"stateMutability":"view"},{"type":"function","name":"previewRedeem","inputs":[{"name":"shares","type":"uint256","internalType":"uint256"}],"outputs":[{"name":"assets","type":"uint256","internalType":"uint256"}],"stateMutability":"view"},{"type":"function","name":"previewWithdraw","inputs":[{"name":"assets","type":"uint256","internalType":"uint256"}],"outputs":[{"name":"shares","type":"uint256","internalType":"uint256"}],"stateMutability":"view"},{"type":"function","name":"rebalance","inputs":[{"name":"actions","type":"tuple[]","internalType":"struct LendingOptimizer.ReallocationAction[]","components":[{"name":"cToken","type":"address","internalType":"contract IBorrowableCToken"},{"name":"assetsOrBps","type":"int256","internalType":"int256"}]},{"name":"bounds","type":"tuple[]","internalType":"struct LendingOptimizer.AllocationBound[]","components":[{"name":"cToken","type":"address","internalType":"address"},{"name":"minBps","type":"uint256","internalType":"uint256"},{"name":"maxBps","type":"uint256","internalType":"uint256"}]}],"outputs":[],"stateMutability":"nonpayable"},{"type":"function","name":"redeem","inputs":[{"name":"shares","type":"uint256","internalType":"uint256"},{"name":"receiver","type":"address","internalType":"address"},{"name":"owner","type":"address","internalType":"address"}],"outputs":[{"name":"assets","type":"uint256","internalType":"uint256"}],"stateMutability":"nonpayable"},{"type":"function","name":"removeApprovedAsset","inputs":[{"name":"cTokenToRemove","type":"address","internalType":"address"},{"name":"removeActions","type":"tuple[]","internalType":"struct LendingOptimizer.ReallocationAction[]","components":[{"name":"cToken","type":"address","internalType":"contract IBorrowableCToken"},{"name":"assetsOrBps","type":"int256","internalType":"int256"}]},{"name":"bounds","type":"tuple[]","internalType":"struct LendingOptimizer.AllocationBound[]","components":[{"name":"cToken","type":"address","internalType":"address"},{"name":"minBps","type":"uint256","internalType":"uint256"},{"name":"maxBps","type":"uint256","internalType":"uint256"}]}],"outputs":[],"stateMutability":"nonpayable"},{"type":"function","name":"setFee","inputs":[{"name":"newFeeBps","type":"uint256","internalType":"uint256"}],"outputs":[],"stateMutability":"nonpayable"},{"type":"function","name":"setMintPaused","inputs":[{"name":"state","type":"bool","internalType":"bool"}],"outputs":[],"stateMutability":"nonpayable"},{"type":"function","name":"skim","inputs":[],"outputs":[],"stateMutability":"nonpayable"},{"type":"function","name":"skimAvailable","inputs":[],"outputs":[{"name":"excess","type":"uint256","internalType":"uint256"}],"stateMutability":"view"},{"type":"function","name":"supportsInterface","inputs":[{"name":"interfaceId","type":"bytes4","internalType":"bytes4"}],"outputs":[{"name":"result","type":"bool","internalType":"bool"}],"stateMutability":"view"},{"type":"function","name":"symbol","inputs":[],"outputs":[{"name":"","type":"string","internalType":"string"}],"stateMutability":"view"},{"type":"function","name":"totalAssets","inputs":[],"outputs":[{"name":"","type":"uint256","internalType":"uint256"}],"stateMutability":"view"},{"type":"function","name":"totalSupply","inputs":[],"outputs":[{"name":"result","type":"uint256","internalType":"uint256"}],"stateMutability":"view"},{"type":"function","name":"transfer","inputs":[{"name":"to","type":"address","internalType":"address"},{"name":"amount","type":"uint256","internalType":"uint256"}],"outputs":[{"name":"","type":"bool","internalType":"bool"}],"stateMutability":"nonpayable"},{"type":"function","name":"transferFrom","inputs":[{"name":"from","type":"address","internalType":"address"},{"name":"to","type":"address","internalType":"address"},{"name":"amount","type":"uint256","internalType":"uint256"}],"outputs":[{"name":"","type":"bool","internalType":"bool"}],"stateMutability":"nonpayable"},{"type":"function","name":"updateCap","inputs":[{"name":"cToken","type":"address","internalType":"address"},{"name":"newCapBps","type":"uint256","internalType":"uint256"}],"outputs":[],"stateMutability":"nonpayable"},{"type":"function","name":"withdraw","inputs":[{"name":"assets","type":"uint256","internalType":"uint256"},{"name":"receiver","type":"address","internalType":"address"},{"name":"owner","type":"address","internalType":"address"}],"outputs":[{"name":"shares","type":"uint256","internalType":"uint256"}],"stateMutability":"nonpayable"},{"type":"event","name":"ActionPaused","inputs":[{"name":"action","type":"string","indexed":false,"internalType":"string"},{"name":"state","type":"bool","indexed":false,"internalType":"bool"}],"anonymous":false},{"type":"event","name":"AllocationCapUpdated","inputs":[{"name":"cToken","type":"address","indexed":true,"internalType":"address"},{"name":"newCap","type":"uint256","indexed":false,"internalType":"uint256"}],"anonymous":false},{"type":"event","name":"Approval","inputs":[{"name":"owner","type":"address","indexed":true,"internalType":"address"},{"name":"spender","type":"address","indexed":true,"internalType":"address"},{"name":"amount","type":"uint256","indexed":false,"internalType":"uint256"}],"anonymous":false},{"type":"event","name":"Deposit","inputs":[{"name":"by","type":"address","indexed":true,"internalType":"address"},{"name":"owner","type":"address","indexed":true,"internalType":"address"},{"name":"assets","type":"uint256","indexed":false,"internalType":"uint256"},{"name":"shares","type":"uint256","indexed":false,"internalType":"uint256"}],"anonymous":false},{"type":"event","name":"ExcessRecovered","inputs":[{"name":"amount","type":"uint256","indexed":false,"internalType":"uint256"},{"name":"recipient","type":"address","indexed":true,"internalType":"address"}],"anonymous":false},{"type":"event","name":"FeeUpdated","inputs":[{"name":"newFee","type":"uint256","indexed":false,"internalType":"uint256"}],"anonymous":false},{"type":"event","name":"MarketAdded","inputs":[{"name":"cToken","type":"address","indexed":true,"internalType":"address"},{"name":"allocationCap","type":"uint256","indexed":false,"internalType":"uint256"}],"anonymous":false},{"type":"event","name":"MarketRemoved","inputs":[{"name":"cToken","type":"address","indexed":true,"internalType":"address"}],"anonymous":false},{"type":"event","name":"PerformanceFeeAccrued","inputs":[{"name":"feeShares","type":"uint256","indexed":false,"internalType":"uint256"},{"name":"recipient","type":"address","indexed":true,"internalType":"address"}],"anonymous":false},{"type":"event","name":"Rebalanced","inputs":[{"name":"totalAssets","type":"uint256","indexed":false,"internalType":"uint256"},{"name":"markets","type":"address[]","indexed":false,"internalType":"address[]"},{"name":"allocations","type":"uint256[]","indexed":false,"internalType":"uint256[]"}],"anonymous":false},{"type":"event","name":"Transfer","inputs":[{"name":"from","type":"address","indexed":true,"internalType":"address"},{"name":"to","type":"address","indexed":true,"internalType":"address"},{"name":"amount","type":"uint256","indexed":false,"internalType":"uint256"}],"anonymous":false},{"type":"event","name":"Withdraw","inputs":[{"name":"by","type":"address","indexed":true,"internalType":"address"},{"name":"to","type":"address","indexed":true,"internalType":"address"},{"name":"owner","type":"address","indexed":true,"internalType":"address"},{"name":"assets","type":"uint256","indexed":false,"internalType":"uint256"},{"name":"shares","type":"uint256","indexed":false,"internalType":"uint256"}],"anonymous":false},{"type":"error","name":"AllowanceOverflow","inputs":[]},{"type":"error","name":"AllowanceUnderflow","inputs":[]},{"type":"error","name":"DepositMoreThanMax","inputs":[]},{"type":"error","name":"InsufficientAllowance","inputs":[]},{"type":"error","name":"InsufficientBalance","inputs":[]},{"type":"error","name":"InvalidPermit","inputs":[]},{"type":"error","name":"LendingOptimizer__AllocationExceedsCap","inputs":[]},{"type":"error","name":"LendingOptimizer__AllocationOutOfBounds","inputs":[]},{"type":"error","name":"LendingOptimizer__AlreadyInitialized","inputs":[]},{"type":"error","name":"LendingOptimizer__ArrayLengthMismatch","inputs":[]},{"type":"error","name":"LendingOptimizer__AssetMismatch","inputs":[]},{"type":"error","name":"LendingOptimizer__FeeTooHigh","inputs":[]},{"type":"error","name":"LendingOptimizer__InsufficientAllocationCaps","inputs":[]},{"type":"error","name":"LendingOptimizer__InsufficientLiquidity","inputs":[]},{"type":"error","name":"LendingOptimizer__InvalidMarketManager","inputs":[]},{"type":"error","name":"LendingOptimizer__InvalidParameter","inputs":[]},{"type":"error","name":"LendingOptimizer__InvalidUnderlying","inputs":[]},{"type":"error","name":"LendingOptimizer__MarketAlreadyApproved","inputs":[]},{"type":"error","name":"LendingOptimizer__MarketNotApproved","inputs":[]},{"type":"error","name":"LendingOptimizer__MarketPaused","inputs":[]},{"type":"error","name":"LendingOptimizer__MintPaused","inputs":[]},{"type":"error","name":"LendingOptimizer__NotInitialized","inputs":[]},{"type":"error","name":"LendingOptimizer__TooManyMarkets","inputs":[]},{"type":"error","name":"LendingOptimizer__Unauthorized","inputs":[]},{"type":"error","name":"LendingOptimizer__ZeroAmount","inputs":[]},{"type":"error","name":"MintMoreThanMax","inputs":[]},{"type":"error","name":"PermitExpired","inputs":[]},{"type":"error","name":"RedeemMoreThanMax","inputs":[]},{"type":"error","name":"Reentrancy","inputs":[]},{"type":"error","name":"TotalSupplyOverflow","inputs":[]},{"type":"error","name":"WithdrawMoreThanMax","inputs":[]}],"bytecode":{"object":"0x60e060405234801561000f575f5ffd5b50604051615b28380380615b2883398101604081905261002e916107d3565b82516008811115610052576040516304a275ef60e41b815260040160405180910390fd5b805f0361007257604051631aaea09d60e01b815260040160405180910390fd5b8251811461009357604051630c6d3d5960e01b815260040160405180910390fd5b6113888211156100b5576040516277e57360e71b815260040160405180910390fd5b6001600160a01b0380861660c05286166080819052604080516306fdde0360e01b815290516306fdde03916004808201925f929091908290030181865afa158015610102573d5f5f3e3d5ffd5b505050506040513d5f823e601f3d908101601f1916820160405261012991908101906108c9565b6040516020016101399190610972565b6040516020818303038152906040525f90816101559190610a2d565b50856001600160a01b03166395d89b416040518163ffffffff1660e01b81526004015f60405180830381865afa158015610191573d5f5f3e3d5ffd5b505050506040513d5f823e601f3d908101601f191682016040526101b891908101906108c9565b6040516020016101c89190610ae7565b604051602081830303815290604052600190816101e59190610a2d565b50856001600160a01b031663313ce5676040518163ffffffff1660e01b8152600401602060405180830381865afa158015610222573d5f5f3e3d5ffd5b505050506040513d601f19601f820116820180604052508101906102469190610b0d565b60ff1660a05260048290555f805b828110156103825784818151811061026e5761026e610b34565b60200260200101515f148061029d575061271085828151811061029357610293610b34565b6020026020010151115b156102bb57604051631aaea09d60e01b815260040160405180910390fd5b5f8682815181106102ce576102ce610b34565b6020026020010151905060035f826001600160a01b03166001600160a01b031681526020019081526020015f20545f1461031b5760405163508d515960e11b815260040160405180910390fd5b610324816103d9565b5f61034d87848151811061033a5761033a610b34565b602002602001015161065e60201b60201c565b6001600160a01b0383165f90815260036020526040902081905590506103738185610b5c565b93505050806001019050610254565b50670de0b6b3a76400008110156103ac5760405163368c6f9760e01b815260040160405180910390fd5b84516103bf906002906020880190610675565b5050670de0b6b3a764000060055550610bc0945050505050565b6080516001600160a01b0316816001600160a01b03166338d52e0f6040518163ffffffff1660e01b8152600401602060405180830381865afa158015610421573d5f5f3e3d5ffd5b505050506040513d601f19601f820116820180604052508101906104459190610b6f565b6001600160a01b03161461046c5760405163574dd3e560e11b815260040160405180910390fd5b806001600160a01b03166345d7b97a6040518163ffffffff1660e01b8152600401602060405180830381865afa1580156104a8573d5f5f3e3d5ffd5b505050506040513d601f19601f820116820180604052508101906104cc9190610b8a565b6104e957604051631aaea09d60e01b815260040160405180910390fd5b5f816001600160a01b03166341ed2c126040518163ffffffff1660e01b8152600401602060405180830381865afa158015610526573d5f5f3e3d5ffd5b505050506040513d601f19601f8201168201806040525081019061054a9190610b6f565b60c051604051637d5528bd60e01b81526001600160a01b038084166004830152929350911690637d5528bd90602401602060405180830381865afa158015610594573d5f5f3e3d5ffd5b505050506040513d601f19601f820116820180604052508101906105b89190610b8a565b6105d557604051631d9f68ef60e01b815260040160405180910390fd5b604051637bca031760e11b81526001600160a01b03838116600483015282169063f794062e90602401602060405180830381865afa158015610619573d5f5f3e3d5ffd5b505050506040513d601f19601f8201168201806040525081019061063d9190610b8a565b61065a57604051631d9f68ef60e01b815260040160405180910390fd5b5050565b5f61066f82655af3107a4000610ba9565b92915050565b828054828255905f5260205f209081019282156106c8579160200282015b828111156106c857825182546001600160a01b0319166001600160a01b03909116178255602090920191600190910190610693565b506106d49291506106d8565b5090565b5b808211156106d4575f81556001016106d9565b6001600160a01b0381168114610700575f5ffd5b50565b634e487b7160e01b5f52604160045260245ffd5b604051601f8201601f191681016001600160401b038111828210171561073f5761073f610703565b604052919050565b5f6001600160401b0382111561075f5761075f610703565b5060051b60200190565b5f82601f830112610778575f5ffd5b815161078b61078682610747565b610717565b8082825260208201915060208360051b8601019250858311156107ac575f5ffd5b602085015b838110156107c95780518352602092830192016107b1565b5095945050505050565b5f5f5f5f5f60a086880312156107e7575f5ffd5b85516107f2816106ec565b6020870151909550610803816106ec565b60408701519094506001600160401b0381111561081e575f5ffd5b8601601f8101881361082e575f5ffd5b805161083c61078682610747565b8082825260208201915060208360051b85010192508a83111561085d575f5ffd5b6020840193505b82841015610888578351610877816106ec565b825260209384019390910190610864565b60608a0151909650925050506001600160401b038111156108a7575f5ffd5b6108b388828901610769565b6080979097015195989497509295949392505050565b5f602082840312156108d9575f5ffd5b81516001600160401b038111156108ee575f5ffd5b8201601f810184136108fe575f5ffd5b80516001600160401b0381111561091757610917610703565b61092a601f8201601f1916602001610717565b81815285602083850101111561093e575f5ffd5b8160208401602083015e5f91810160200191909152949350505050565b5f81518060208401855e5f93019283525090919050565b68021bab93b30b731b2960bd1b81525f61098f600983018461095b565b691027b83a34b6b4bd32b960b11b8152600a019392505050565b600181811c908216806109bd57607f821691505b6020821081036109db57634e487b7160e01b5f52602260045260245ffd5b50919050565b601f821115610a2857805f5260205f20601f840160051c81016020851015610a065750805b601f840160051c820191505b81811015610a25575f8155600101610a12565b50505b505050565b81516001600160401b03811115610a4657610a46610703565b610a5a81610a5484546109a9565b846109e1565b6020601f821160018114610a8c575f8315610a755750848201515b5f19600385901b1c1916600184901b178455610a25565b5f84815260208120601f198516915b82811015610abb5787850151825560209485019460019092019101610a9b565b5084821015610ad857868401515f19600387901b60f8161c191681555b50505050600190811b01905550565b606360f81b81525f610afc600183018461095b565b602b60f81b81526001019392505050565b5f60208284031215610b1d575f5ffd5b815160ff81168114610b2d575f5ffd5b9392505050565b634e487b7160e01b5f52603260045260245ffd5b634e487b7160e01b5f52601160045260245ffd5b8082018082111561066f5761066f610b48565b5f60208284031215610b7f575f5ffd5b8151610b2d816106ec565b5f60208284031215610b9a575f5ffd5b81518015158114610b2d575f5ffd5b808202811582820484141761066f5761066f610b48565b60805160a05160c051614eb2610c765f395f8181610554015281816108d9015281816123df015281816128d101528181612a6101528181612b3a015281816131a90152818161323701528181613fef01526141d701525f6103d401525f8181610410015281816106ff0152818161095e01528181610cee0152818161141a015281816116f701528181611a4301528181611c3d0152818161278101528181612ffe0152818161310001526140280152614eb25ff3fe608060405234801561000f575f5ffd5b5060043610610319575f3560e01c806385b2c14a116101af578063c6e6f592116100fe578063dd62ed3e1161009e578063f0c00c4111610079578063f0c00c41146106cb578063f4110291146106d3578063f4c4a613146106db578063fcea5e29146106fa575f5ffd5b8063dd62ed3e14610687578063ddca3f43146106af578063ef8b30f7146106b8575f5ffd5b8063d1b1eeba116100d9578063d1b1eeba14610645578063d505accf14610658578063d55be8c61461066b578063d905777e14610674575f5ffd5b8063c6e6f5921461060c578063c768ecce1461061f578063ce96cb7714610632575f5ffd5b80639765af8811610169578063b460af9411610144578063b460af94146105d3578063b6935501146105e6578063ba087652146105f9578063c63d75b614610450575f5ffd5b80639765af881461059a578063a9059cbb146105ad578063b3d7f6b9146105c0575f5ffd5b806385b2c14a14610534578063895996d3146105475780638f73dcfa1461054f57806394bf804d1461057657806395d89b4114610589578063974ad22e14610591575f5ffd5b8063402d267d1161026b5780636e553f6511610225578063793cc3f811610200578063793cc3f8146104dc5780637ada7a09146104ef5780637e4831d3146105025780637ecebe001461050f575f5ffd5b80636e553f65146104ae57806370a08231146104c1578063775a814a146104d4575f5ffd5b8063402d267d14610450578063410e36001461046357806347ceb1111461046b5780634cdad50614610473578063686126e01461048657806369fe0e2d1461049b575f5ffd5b806318160ddd116102d6578063313ce567116102b1578063313ce567146103d25780633644e5151461040657806338d52e0f1461040e5780633ba0b9a914610448575f5ffd5b806318160ddd146103a55780631dd19cb4146103b557806323b872dd146103bf575f5ffd5b806301e1d1141461031d57806301ffc9a71461033457806306fdde031461035757806307a2d13a1461036c578063095ea7b31461037f5780630a28a47714610392575b5f5ffd5b6006545b6040519081526020015b60405180910390f35b610347610342366004614756565b610721565b604051901515815260200161032b565b61035f610772565b60405161032b919061477d565b61032161037a3660046147b2565b610801565b61034761038d3660046147dd565b61080b565b6103216103a03660046147b2565b61085a565b6805345cdf77eb68f44c54610321565b6103bd610899565b005b6103476103cd366004614807565b6109d7565b7f00000000000000000000000000000000000000000000000000000000000000005b60405160ff909116815260200161032b565b610321610a83565b7f00000000000000000000000000000000000000000000000000000000000000005b6040516001600160a01b03909116815260200161032b565b610321610aff565b61032161045e366004614845565b610b08565b610321600881565b600254610321565b6103216104813660046147b2565b610b38565b61048e610b42565b60405161032b9190614860565b6103bd6104a93660046147b2565b610ba1565b6103216104bc3660046148ab565b610c8e565b6103216104cf366004614845565b610f10565b6103bd610f29565b6103bd6104ea366004614960565b610f69565b6103bd6104fd366004614845565b611377565b6007546103f49060ff1681565b61032161051d366004614845565b6338377508600c9081525f91909152602090205490565b6103bd6105423660046147dd565b6114ee565b61032161161c565b6104307f000000000000000000000000000000000000000000000000000000000000000081565b6103216105843660046148ab565b61162e565b61035f6118b3565b61032160055481565b6104306105a83660046147b2565b6118c2565b6103476105bb3660046147dd565b6118ea565b6103216105ce3660046147b2565b61194e565b6103216105e13660046149ca565b61197c565b6103bd6105f4366004614a16565b611aca565b6103216106073660046149ca565b611b9a565b61032161061a3660046147b2565b611cc1565b6103bd61062d3660046147dd565b611cf2565b610321610640366004614845565b611e73565b6103bd610653366004614a31565b611e95565b6103bd610666366004614abf565b6125bf565b61032161138881565b610321610682366004614845565b612741565b610321610695366004614b2b565b602052637f5e9f20600c9081525f91909152603490205490565b61032160045481565b6103216106c63660046147b2565b612760565b61032161276a565b610321612816565b6103216106e9366004614845565b60036020525f908152604090205481565b6104307f000000000000000000000000000000000000000000000000000000000000000081565b5f6001600160e01b03198216634a17459160e11b148061075157506001600160e01b0319821663b6e300c760e01b145b8061076c57506301ffc9a760e01b6001600160e01b03198316145b92915050565b60605f805461078090614b57565b80601f01602080910402602001604051908101604052809291908181526020018280546107ac90614b57565b80156107f75780601f106107ce576101008083540402835291602001916107f7565b820191905f5260205f20905b8154815290600101906020018083116107da57829003601f168201915b5050505050905090565b5f61076c82612862565b5f82602052637f5e9f20600c52335f52816034600c2055815f52602c5160601c337f8c5be1e5ebec7d5bd14f71427d1e84f3dd0314c0f7b2291e5b200ac8c7c3b92560205fa350600192915050565b5f5f61086d6805345cdf77eb68f44c5490565b905080158315176108905761088b838261088660065490565b612890565b610892565b825b9392505050565b3068929eee149b4bd2126854036108b75763ab143c065f526004601cfd5b3068929eee149b4bd21268556108cb6128bc565b5f6108d461276a565b90505f7f00000000000000000000000000000000000000000000000000000000000000006001600160a01b0316632131c68c6040518163ffffffff1660e01b8152600401602060405180830381865afa158015610933573d5f5f3e3d5ffd5b505050506040513d601f19601f820116820180604052508101906109579190614bf5565b90506109847f00000000000000000000000000000000000000000000000000000000000000008284612962565b806001600160a01b03167f88fc2578c4b534418a67792f942c22deab48988e8f00bf87d4f8b0d0a8655772836040516109bf91815260200190565b60405180910390a250503868929eee149b4bd2126855565b5f8360601b33602052637f5e9f208117600c526034600c2080546001810115610a155780851115610a0f576313be252b5f526004601cfd5b84810382555b50506387a211a28117600c526020600c20805480851115610a3d5763f4d678b85f526004601cfd5b84810382555050835f526020600c208381540181555082602052600c5160601c8160601c5f516020614e5d5f395f51905f52602080a3505060019392505050565b905090565b5f80610a8d610772565b8051906020012090506040517f8b73c3c69bb8fe3d512ecc4cf759cc79239f7b179b0ffacaa9a75d522b39400f81528160208201527fc89efdaa54c0f20c7adf612882df0950f5a951637e0307cdcb4c672f298b8bc6604082015246606082015230608082015260a081209250505090565b5f610a7e6129a7565b6007545f9060ff166001148015610b265750610b2460016129ed565b155b610b30575f61076c565b5f1992915050565b5f61076c82610801565b606060028054806020026020016040519081016040528092919081815260200182805480156107f757602002820191905f5260205f20905b81546001600160a01b03168152600190910190602001808311610b7a575050505050905090565b3068929eee149b4bd212685403610bbf5763ab143c065f526004601cfd5b3068929eee149b4bd2126855610bd3612a4c565b611388811115610bf5576040516277e57360e71b815260040160405180910390fd5b610bfd612a98565b600454158015610c0c57505f81115b15610c46575f610c236805345cdf77eb68f44c5490565b1115610c46575f610c326129a7565b9050600554811115610c445760058190555b505b60048190556040518181527f8c4d35e54a3f2ef1134138fd8ea3daee6a3c89e10d2665996babdf70261e2c76906020015b60405180910390a13868929eee149b4bd212685550565b5f3068929eee149b4bd212685403610cad5763ab143c065f526004601cfd5b3068929eee149b4bd2126855825f03610cd957604051631aaea09d60e01b815260040160405180910390fd5b610ce1612c34565b610ce9612a98565b610d157f0000000000000000000000000000000000000000000000000000000000000000333086612ca5565b5f610d20845f612cf4565b6002549091505f90815b81811015610e6857838181518110610d4457610d44614c10565b60200260200101515f1480610dff575060028181548110610d6757610d67614c10565b5f9182526020909120015484516001600160a01b039091169063c6e6f59290869084908110610d9857610d98614c10565b60200260200101516040518263ffffffff1660e01b8152600401610dbe91815260200190565b602060405180830381865afa158015610dd9573d5f5f3e3d5ffd5b505050506040513d601f19601f82011682018060405250810190610dfd9190614c24565b155b610e6057610e5360028281548110610e1957610e19614c10565b905f5260205f20015f9054906101000a90046001600160a01b0316858381518110610e4657610e46614c10565b6020026020010151612ff8565b610e5d9084614ba3565b92505b600101610d2a565b50610e7282611cc1565b9350835f03610e935760405162fdfd9360e21b815260040160405180910390fd5b8160065f828254610ea49190614ba3565b90915550610eb49050858561312c565b60408051878152602081018690526001600160a01b0387169133917fdcbc1c05240f31ff3ad067ef1ee35ce4997762752e3a095284754544f4c709d791015b60405180910390a35050503868929eee149b4bd212685592915050565b6387a211a2600c9081525f82815260209091205461076c565b3068929eee149b4bd212685403610f475763ab143c065f526004601cfd5b3068929eee149b4bd2126855610f5b612a98565b3868929eee149b4bd2126855565b3068929eee149b4bd212685403610f875763ab143c065f526004601cfd5b3068929eee149b4bd2126855610f9b613196565b610fa3612a98565b600254838114610fc657604051630c6d3d5960e01b815260040160405180910390fd5b818114610fe657604051630c6d3d5960e01b815260040160405180910390fd5b5f5f5b82811015611201576002818154811061100457611004614c10565b5f918252602090912001546001600160a01b031687878381811061102a5761102a614c10565b6110409260206040909202019081019150614845565b6001600160a01b03161461106757604051631aaea09d60e01b815260040160405180910390fd5b5f87878381811061107a5761107a614c10565b9050604002016020013512156111f957611099600160ff1b6001614c3b565b8787838181106110ab576110ab614c10565b9050604002016020013512156110d457604051631aaea09d60e01b815260040160405180910390fd5b6111058787838181106110e9576110e9614c10565b6110ff9260206040909202019081019150614845565b5f6132c8565b156111235760405163502fe3c960e01b815260040160405180910390fd5b5f87878381811061113657611136614c10565b9050604002016020013561114990614c62565b90506111558184614ba3565b925087878381811061116957611169614c10565b61117f9260206040909202019081019150614845565b604051632d182be560e21b815260048101839052306024820181905260448201526001600160a01b03919091169063b460af94906064016020604051808303815f875af11580156111d2573d5f5f3e3d5ffd5b505050506040513d601f19601f820116820180604052508101906111f69190614c24565b50505b600101610fe9565b505f5f5b838110156112e7575f88888381811061122057611220614c10565b9050604002016020013513156112df5761126288888381811061124557611245614c10565b61125b9260206040909202019081019150614845565b60016132c8565b156112805760405163502fe3c960e01b815260040160405180910390fd5b5f88888381811061129357611293614c10565b9050604002016020013590506112d08989848181106112b4576112b4614c10565b6112ca9260206040909202019081019150614845565b82612ff8565b506112db8184614ba3565b9250505b600101611205565b50808214611308576040516303d987d960e41b815260040160405180910390fd5b6113628585808060200260200160405190810160405280939291908181526020015f905b828210156113585761134960608302860136819003810190614c90565b8152602001906001019061132c565b5050505050613418565b5050503868929eee149b4bd212685550505050565b3068929eee149b4bd2126854036113955763ab143c065f526004601cfd5b3068929eee149b4bd21268556113a9612a4c565b60075460ff16156113cd576040516305bd24df60e01b815260040160405180910390fd5b6001600160a01b0381165f908152600360205260409020546114025760405163027e48c760e01b815260040160405180910390fd5b6002546114109082906137c3565b5062012fd16114417f0000000000000000000000000000000000000000000000000000000000000000333084612ca5565b5f61144c8383612ff8565b905062012fca81101561147257604051631aaea09d60e01b815260040160405180910390fd5b8060065f8282546114839190614ba3565b9091555061149390505f8261312c565b6007805460ff1916600117905560408051838152602081018390525f9133917fdcbc1c05240f31ff3ad067ef1ee35ce4997762752e3a095284754544f4c709d7910160405180910390a350503868929eee149b4bd212685550565b3068929eee149b4bd21268540361150c5763ab143c065f526004601cfd5b3068929eee149b4bd2126855611520612a4c565b6001600160a01b0382165f908152600360205260409020546115555760405163027e48c760e01b815260040160405180910390fd5b612710811180611563575080155b1561158157604051631aaea09d60e01b815260040160405180910390fd5b5f61158b8261382d565b6001600160a01b0384165f908152600360205260409020549091508110156115b7576115b7838261383e565b6001600160a01b0383165f8181526003602052604090819020839055517f347acdb09455db7b35316d0c6a3a0a90a8036cc4e375d227b13e807fe21522a5906116039085815260200190565b60405180910390a2503868929eee149b4bd21268555050565b61162b600160ff1b6001614c3b565b81565b5f3068929eee149b4bd21268540361164d5763ab143c065f526004601cfd5b3068929eee149b4bd2126855611661612c34565b611669612a98565b825f0361168957604051631aaea09d60e01b815260040160405180910390fd5b6116a1836006546108866805345cdf77eb68f44c5490565b90505f6116af826001612cf4565b6002545f9350909150825b818110156116f1578281815181106116d4576116d4614c10565b6020026020010151846116e79190614ba3565b93506001016116ba565b5061171e7f0000000000000000000000000000000000000000000000000000000000000000333086612ca5565b5f5f5b828110156118255783818151811061173b5761173b614c10565b60200260200101515f14806117f657506002818154811061175e5761175e614c10565b5f9182526020909120015484516001600160a01b039091169063c6e6f5929086908490811061178f5761178f614c10565b60200260200101516040518263ffffffff1660e01b81526004016117b591815260200190565b602060405180830381865afa1580156117d0573d5f5f3e3d5ffd5b505050506040513d601f19601f820116820180604052508101906117f49190614c24565b155b61181d5761181060028281548110610e1957610e19614c10565b61181a9083614ba3565b91505b600101611721565b508561183082611cc1565b101561184f576040516303d987d960e41b815260040160405180910390fd5b8060065f8282546118609190614ba3565b909155506118709050858761312c565b60408051858152602081018890526001600160a01b0387169133917fdcbc1c05240f31ff3ad067ef1ee35ce4997762752e3a095284754544f4c709d79101610ef3565b60606001805461078090614b57565b600281815481106118d1575f80fd5b5f918252602090912001546001600160a01b0316905081565b5f6387a211a2600c52335f526020600c208054808411156119125763f4d678b85f526004601cfd5b83810382555050825f526020600c208281540181555081602052600c5160601c335f516020614e5d5f395f51905f52602080a350600192915050565b5f5f6119616805345cdf77eb68f44c5490565b905080156108905761088b8361197660065490565b83612890565b5f3068929eee149b4bd21268540361199b5763ab143c065f526004601cfd5b3068929eee149b4bd2126855835f036119c757604051631aaea09d60e01b815260040160405180910390fd5b6119cf6138ea565b6119d7612a98565b6006545f6119ec6805345cdf77eb68f44c5490565b90506119f8865f613911565b5060068190555f90611a0a9084614cfd565b9050611a17818385612890565b9350336001600160a01b03861614611a3457611a34853386613e9b565b611a3e8585613edc565b611a697f00000000000000000000000000000000000000000000000000000000000000008789612962565b60408051888152602081018690526001600160a01b03808816929089169133917ffbde797d201c681b91056529119e0b02407c7bb96a4a2c75c01fc9667232c8db910160405180910390a45050503868929eee149b4bd21268559392505050565b3068929eee149b4bd212685403611ae85763ab143c065f526004601cfd5b3068929eee149b4bd2126855611afc612a4c565b60075460ff165f03611b215760405163509d825b60e11b815260040160405180910390fd5b80611b2d576001611b30565b60025b6007805460ff191660ff9290921691909117905560408051818152600b918101919091526a135a5b9d0814185d5cd95960aa1b606082015281151560208201527fef159d9a32b2472e32b098f954f3ce62d232939f1c207070b584df1814de2de090608001610c77565b5f3068929eee149b4bd212685403611bb95763ab143c065f526004601cfd5b3068929eee149b4bd2126855611bcd6138ea565b611bd5612a98565b611bde84610801565b9050805f03611c0057604051631aaea09d60e01b815260040160405180910390fd5b611c0b816001613911565b6006919091559050336001600160a01b03831614611c2e57611c2e823386613e9b565b611c388285613edc565b611c637f00000000000000000000000000000000000000000000000000000000000000008483612962565b60408051828152602081018690526001600160a01b03808516929086169133917ffbde797d201c681b91056529119e0b02407c7bb96a4a2c75c01fc9667232c8db910160405180910390a43868929eee149b4bd21268559392505050565b5f5f611cd46805345cdf77eb68f44c5490565b905080158315176108905761088b8382611ced60065490565b613f3e565b3068929eee149b4bd212685403611d105763ab143c065f526004601cfd5b3068929eee149b4bd2126855611d24613fda565b6001600160a01b038216611d4b57604051631aaea09d60e01b815260040160405180910390fd5b801580611d59575061271081115b15611d7757604051631aaea09d60e01b815260040160405180910390fd5b6001600160a01b0382165f9081526003602052604090205415611dad5760405163508d515960e11b815260040160405180910390fd5b600254600811611dd0576040516304a275ef60e41b815260040160405180910390fd5b611dd982614026565b5f611de38261382d565b60028054600181019091557f405787fa12a823e0f2b7631cc41b3ba8828b3321ca811111fa75cd3aa3bb5ace0180546001600160a01b0386166001600160a01b031990911681179091555f818152600360205260409081902083905551919250907fa64754291535175942be6f35fba8deab36d97ea608b17d06cc5efb985e17215f906116039085815260200190565b5f611e7d5f6129ed565b15611e8957505f919050565b61076c61037a83610f10565b3068929eee149b4bd212685403611eb35763ab143c065f526004601cfd5b3068929eee149b4bd2126855611ec7612a4c565b6002546001819003611eec57604051631aaea09d60e01b815260040160405180910390fd5b5f849003611f0d57604051631aaea09d60e01b815260040160405180910390fd5b611f18600182614cfd565b8214611f3757604051630c6d3d5960e01b815260040160405180910390fd5b506001600160a01b0385165f90815260036020526040902054611f6d5760405163027e48c760e01b815260040160405180910390fd5b611f77855f6132c8565b15611f955760405163502fe3c960e01b815260040160405180910390fd5b611f9f855f61383e565b611fa7612a98565b6001600160a01b0385165f81815260036020526040808220829055516370a0823160e01b81523060048201528792906370a0823190602401602060405180830381865afa158015611ffa573d5f5f3e3d5ffd5b505050506040513d601f19601f8201168201806040525081019061201e9190614c24565b90505f5f821161202e575f612095565b6040516303d1689d60e11b8152600481018390526001600160a01b038416906307a2d13a90602401602060405180830381865afa158015612071573d5f5f3e3d5ffd5b505050506040513d601f19601f820116820180604052508101906120959190614c24565b905080156123d357604051635d043b2960e11b815260048101839052306024820181905260448201525f906001600160a01b0385169063ba087652906064016020604051808303815f875af11580156120f0573d5f5f3e3d5ffd5b505050506040513d601f19601f820116820180604052508101906121149190614c24565b90505f808061212460018b614cfd565b90505f5b8181116123a7575f8c8c8381811061214257612142614c10565b6121589260206040909202019081019150614845565b90505f8d8d8481811061216d5761216d614c10565b9050604002016020013590505f811361219957604051631aaea09d60e01b815260040160405180910390fd5b8e6001600160a01b0316826001600160a01b0316036121cb57604051631aaea09d60e01b815260040160405180910390fd5b6001600160a01b0382165f908152600360205260409020546122005760405163027e48c760e01b815260040160405180910390fd5b60025461220e9083906137c3565b505f5b8381101561227a57826001600160a01b03168f8f8381811061223557612235614c10565b61224b9260206040909202019081019150614845565b6001600160a01b03160361227257604051631aaea09d60e01b815260040160405180910390fd5b600101612211565b506122868260016132c8565b156122a45760405163502fe3c960e01b815260040160405180910390fd5b6122ae8187614ba3565b9550505f8383036122ca576122c38588614cfd565b9050612301565b6122f2878f8f868181106122e0576122e0614c10565b90506040020160200135612710613f3e565b90506122fe8186614ba3565b94505b6040516363737ac960e11b8152600481018290525f906001600160a01b0384169063c6e6f59290602401602060405180830381865afa158015612346573d5f5f3e3d5ffd5b505050506040513d601f19601f8201168201806040525081019061236a9190614c24565b11156123805761237a8282612ff8565b50612394565b838314612394576123918186614cfd565b94505b5050806123a090614d10565b9050612128565b5061271083146123ca57604051631aaea09d60e01b815260040160405180910390fd5b50505050612463565b811561246357612463887f00000000000000000000000000000000000000000000000000000000000000006001600160a01b0316632131c68c6040518163ffffffff1660e01b8152600401602060405180830381865afa158015612439573d5f5f3e3d5ffd5b505050506040513d601f19601f8201168201806040525081019061245d9190614bf5565b84612962565b505060025490505f61247587836137c3565b90505f612483600184614cfd565b90508082146124f6576002818154811061249f5761249f614c10565b5f91825260209091200154600280546001600160a01b0390921691849081106124ca576124ca614c10565b905f5260205f20015f6101000a8154816001600160a01b0302191690836001600160a01b031602179055505b600280548061250757612507614d28565b5f828152602080822083015f1990810180546001600160a01b03191690559092019092556040805187830281018301909152868152612579955093508692508591829185015b828210156113585761256a60608302860136819003810190614c90565b8152602001906001019061254d565b6040516001600160a01b038616907f59d7b1e52008dc342c9421dadfc773114b914a65682a4e4b53cf60a970df0d77905f90a23868929eee149b4bd21268555050505050565b5f6125c8610772565b805190602001209050844211156125e657631a15a3cc5f526004601cfd5b6040518860601b60601c98508760601b60601c975065383775081901600e52885f526020600c2080547f8b73c3c69bb8fe3d512ecc4cf759cc79239f7b179b0ffacaa9a75d522b39400f83528360208401527fc89efdaa54c0f20c7adf612882df0950f5a951637e0307cdcb4c672f298b8bc6604084015246606084015230608084015260a08320602e527f6e71edae12b1b97f4d1f60370fef10105fa2faae0126114a169c64845d6126c983528a60208401528960408401528860608401528060808401528760a084015260c08320604e526042602c205f528660ff16602052856040528460605260208060805f60015afa8b3d51146126ee5763ddafbaef5f526004601cfd5b0190556303faf4f960a51b88176040526034602c2087905587897f8c5be1e5ebec7d5bd14f71427d1e84f3dd0314c0f7b2291e5b200ac8c7c3b925602060608501a360405250505f606052505050505050565b5f61274b5f6129ed565b1561275757505f919050565b61076c82610f10565b5f61076c82611cc1565b6040516370a0823160e01b81523060048201525f907f00000000000000000000000000000000000000000000000000000000000000006001600160a01b0316906370a0823190602401602060405180830381865afa1580156127ce573d5f5f3e3d5ffd5b505050506040513d601f19601f820116820180604052508101906127f29190614c24565b9050805f036128135760405162fdfd9360e21b815260040160405180910390fd5b90565b5f3068929eee149b4bd2126854036128355763ab143c065f526004601cfd5b3068929eee149b4bd2126855612849612a98565b6128516129a7565b90503868929eee149b4bd212685590565b5f5f6128756805345cdf77eb68f44c5490565b905080156108905761088b8361288a60065490565b83613f3e565b5f61289c848484613f3e565b9050818385091561089257600101806108925763ae47f7025f526004601cfd5b6040516355eaece960e11b81523360048201527f00000000000000000000000000000000000000000000000000000000000000006001600160a01b03169063abd5d9d2906024015b602060405180830381865afa15801561291f573d5f5f3e3d5ffd5b505050506040513d601f19601f820116820180604052508101906129439190614d3c565b61296057604051634853fb3d60e11b815260040160405180910390fd5b565b816014528060345263a9059cbb60601b5f5260205f604460105f875af13d1560015f51141716612999576390b8ec185f526004601cfd5b5f603452505050565b505050565b5f5f6129ba6805345cdf77eb68f44c5490565b9050805f036129d257670de0b6b3a764000091505090565b6129e7670de0b6b3a764000061288a60065490565b91505090565b6002545f90815b81811015612a4357612a2c60028281548110612a1257612a12614c10565b5f918252602090912001546001600160a01b0316856132c8565b15612a3b575060019392505050565b6001016129f4565b505f9392505050565b604051630225e24360e01b81523360048201527f00000000000000000000000000000000000000000000000000000000000000006001600160a01b031690630225e24390602401612904565b5f612aa16142e4565b600681905560045490915015612c31575f612ac36805345cdf77eb68f44c5490565b90508015612c2f575f612adf670de0b6b3a76400008484613f3e565b60055490915080821115612c2c575f612b018285670de0b6b3a7640000612890565b612b0b9086614cfd565b90505f612b1d82600454612710613f3e565b90508015612c23575f612b358287611ced828b614cfd565b90505f7f00000000000000000000000000000000000000000000000000000000000000006001600160a01b0316632131c68c6040518163ffffffff1660e01b8152600401602060405180830381865afa158015612b94573d5f5f3e3d5ffd5b505050506040513d601f19601f82011682018060405250810190612bb89190614bf5565b9050612bc4818361312c565b612bdb670de0b6b3a764000089611ced858b614ba3565b6005556040518281526001600160a01b038216907fcc4d4dd0c74958cceb28c9784b3440926a405b0d3db9b6a8b8d57746c9a3e0a39060200160405180910390a25050612c29565b60058490555b50505b50505b505b50565b60075460ff165f819003612c5b5760405163509d825b60e11b815260040160405180910390fd5b6001811115612c7d57604051637d48ae3d60e11b815260040160405180910390fd5b612c8760016129ed565b15612c315760405163502fe3c960e01b815260040160405180910390fd5b60405181606052826040528360601b602c526323b872dd60601b600c5260205f6064601c5f895af13d1560015f51141716612ce757637939f4245f526004601cfd5b5f60605260405250505050565b600254606090806001600160401b03811115612d1257612d12614c7c565b604051908082528060200260200182016040528015612d3b578160200160208202803683370190505b5091505f816001600160401b03811115612d5757612d57614c7c565b604051908082528060200260200182016040528015612d80578160200160208202803683370190505b5090505f5f5f5b84811015612e3057612dbe60028281548110612da557612da5614c10565b5f918252602090912001546001600160a01b0316614389565b848281518110612dd057612dd0614c10565b602002602001018181525050838181518110612dee57612dee614c10565b602002602001015183612e019190614ba3565b92505f848281518110612e1657612e16614c10565b60200260200101511115612e28578091505b600101612d87565b50815f03612e505760405162fdfd9360e21b815260040160405180910390fd5b5f5f5b85811015612fec575f838203612e7457612e6d838b614cfd565b9050612ea7565b612e988a878481518110612e8a57612e8a614c10565b602002602001015187613f3e565b9050612ea48184614ba3565b92505b8815612fc55760028281548110612ec057612ec0614c10565b5f91825260209091200154600280546001600160a01b039092169163b3d7f6b9919085908110612ef257612ef2614c10565b5f91825260209091200154604051630a28a47760e01b8152600481018590526001600160a01b0390911690630a28a47790602401602060405180830381865afa158015612f41573d5f5f3e3d5ffd5b505050506040513d601f19601f82011682018060405250810190612f659190614c24565b6040518263ffffffff1660e01b8152600401612f8391815260200190565b602060405180830381865afa158015612f9e573d5f5f3e3d5ffd5b505050506040513d601f19601f82011682018060405250810190612fc29190614c24565b90505b80888381518110612fd857612fd8614c10565b602090810291909101015250600101612e53565b50505050505092915050565b5f6130247f00000000000000000000000000000000000000000000000000000000000000008484614458565b604051636e553f6560e01b81526004810183905230602482015283906001600160a01b038216906307a2d13a908290636e553f65906044016020604051808303815f875af1158015613078573d5f5f3e3d5ffd5b505050506040513d601f19601f8201168201806040525081019061309c9190614c24565b6040518263ffffffff1660e01b81526004016130ba91815260200190565b602060405180830381865afa1580156130d5573d5f5f3e3d5ffd5b505050506040513d601f19601f820116820180604052508101906130f99190614c24565b91506131257f000000000000000000000000000000000000000000000000000000000000000085614470565b5092915050565b6805345cdf77eb68f44c548181018181101561314f5763e5cfe9575f526004601cfd5b806805345cdf77eb68f44c5550506387a211a2600c52815f526020600c208181540181555080602052600c5160601c5f5f516020614e5d5f395f51905f52602080a3612c2f565b6040516143bb60ee1b81523360048201527f00000000000000000000000000000000000000000000000000000000000000006001600160a01b0316906310eec00090602401602060405180830381865afa1580156131f6573d5f5f3e3d5ffd5b505050506040513d601f19601f8201168201806040525081019061321a9190614d3c565b1580156132aa5750604051630225e24360e01b81523360048201527f00000000000000000000000000000000000000000000000000000000000000006001600160a01b031690630225e24390602401602060405180830381865afa158015613284573d5f5f3e3d5ffd5b505050506040513d601f19601f820116820180604052508101906132a89190614d3c565b155b1561296057604051634853fb3d60e11b815260040160405180910390fd5b5f5f836001600160a01b03166341ed2c126040518163ffffffff1660e01b8152600401602060405180830381865afa158015613306573d5f5f3e3d5ffd5b505050506040513d601f19601f8201168201806040525081019061332a9190614bf5565b905082156133aa5760405163699ba8b360e01b81526001600160a01b0385811660048301525f919083169063699ba8b390602401606060405180830381865afa158015613379573d5f5f3e3d5ffd5b505050506040513d601f19601f8201168201806040525081019061339d9190614d57565b5090935061076c92505050565b806001600160a01b031663b235d4686040518163ffffffff1660e01b8152600401602060405180830381865afa1580156133e6573d5f5f3e3d5ffd5b505050506040513d601f19601f8201168201806040525081019061340a9190614d96565b60ff1660021491505061076c565b6002545f816001600160401b0381111561343457613434614c7c565b60405190808252806020026020018201604052801561345d578160200160208202803683370190505b5083519091505f901515815b848110156135a55761348760028281548110612da557612da5614c10565b84828151811061349957613499614c10565b6020026020010181815250508381815181106134b7576134b7614c10565b6020026020010151836134ca9190614ba3565b9250811561359d57600281815481106134e5576134e5614c10565b5f9182526020909120015486516001600160a01b039091169087908390811061351057613510614c10565b60200260200101515f01516001600160a01b03161461354257604051631aaea09d60e01b815260040160405180910390fd5b85818151811061355457613554614c10565b60200260200101516040015186828151811061357257613572614c10565b602002602001015160200151111561359d57604051631aaea09d60e01b815260040160405180910390fd5b600101613469565b5060068290558115613728575f5b84811015613722575f6135e88583815181106135d1576135d1614c10565b6020026020010151670de0b6b3a764000086613f3e565b905060035f6002848154811061360057613600614c10565b5f9182526020808320909101546001600160a01b03168352820192909252604001902054811115613644576040516355016d3f60e01b815260040160405180910390fd5b8215613719575f61367186848151811061366057613660614c10565b602002602001015161271087613f3e565b905087838151811061368557613685614c10565b6020026020010151602001518110156136b15760405163898defe160e01b815260040160405180910390fd5b6136d78684815181106136c6576136c6614c10565b602002602001015161271087612890565b90508783815181106136eb576136eb614c10565b6020026020010151604001518111156137175760405163898defe160e01b815260040160405180910390fd5b505b506001016135b3565b50613780565b8015613780575f5b8481101561377e575f86828151811061374b5761374b614c10565b60200260200101516020015111156137765760405163898defe160e01b815260040160405180910390fd5b600101613730565b505b7f41ecb504f02ae2a359f54c897144c830733cec385a8afdb139269dedcda6e39f826002856040516137b493929190614db1565b60405180910390a15050505050565b5f5f5b8281101561381357836001600160a01b0316600282815481106137eb576137eb614c10565b5f918252602090912001546001600160a01b03160361380b57905061076c565b6001016137c6565b5060405163027e48c760e01b815260040160405180910390fd5b5f61076c82655af3107a4000614e45565b6002545f90815b818110156138c0575f6002828154811061386157613861614c10565b5f918252602090912001546001600160a01b039081169150861681036138925761388b8585614ba3565b93506138b7565b6001600160a01b0381165f908152600360205260409020546138b49085614ba3565b93505b50600101613845565b50670de0b6b3a7640000821015612c2c5760405163368c6f9760e01b815260040160405180910390fd5b6138f35f6129ed565b156129605760405163502fe3c960e01b815260040160405180910390fd5b6002545f90819081816001600160401b0381111561393157613931614c7c565b60405190808252806020026020018201604052801561395a578160200160208202803683370190505b5090505f826001600160401b0381111561397657613976614c7c565b60405190808252806020026020018201604052801561399f578160200160208202803683370190505b5090505f5f5b84811015613b64575f600282815481106139c1576139c1614c10565b5f9182526020822001546040516370a0823160e01b81523060048201526001600160a01b03909116925082906307a2d13a9082906370a0823190602401602060405180830381865afa158015613a19573d5f5f3e3d5ffd5b505050506040513d601f19601f82011682018060405250810190613a3d9190614c24565b6040518263ffffffff1660e01b8152600401613a5b91815260200190565b602060405180830381865afa158015613a76573d5f5f3e3d5ffd5b505050506040513d601f19601f82011682018060405250810190613a9a9190614c24565b90505f826001600160a01b03166387367d716040518163ffffffff1660e01b8152600401602060405180830381865afa158015613ad9573d5f5f3e3d5ffd5b505050506040513d601f19601f82011682018060405250810190613afd9190614c24565b905081878581518110613b1257613b12614c10565b602002602001018181525050808210613b2b5780613b2d565b815b868581518110613b3f57613b3f614c10565b6020908102919091010152613b548286614ba3565b94505050508060010190506139a5565b505f613b72898585856144ff565b90505f5f5b86811015613d3257828181518110613b9157613b91614c10565b602002602001015182613ba49190614ba3565b91508915613d035760028181548110613bbf57613bbf614c10565b5f91825260209091200154600280546001600160a01b0390921691634cdad506919084908110613bf157613bf1614c10565b5f9182526020909120015485516001600160a01b039091169063ef8b30f790879086908110613c2257613c22614c10565b60200260200101516040518263ffffffff1660e01b8152600401613c4891815260200190565b602060405180830381865afa158015613c63573d5f5f3e3d5ffd5b505050506040513d601f19601f82011682018060405250810190613c879190614c24565b6040518263ffffffff1660e01b8152600401613ca591815260200190565b602060405180830381865afa158015613cc0573d5f5f3e3d5ffd5b505050506040513d601f19601f82011682018060405250810190613ce49190614c24565b838281518110613cf657613cf6614c10565b6020026020010181815250505b828181518110613d1557613d15614c10565b602002602001015188613d289190614ba3565b9750600101613b77565b50888015613d3e575086155b15613d5b5760405162fdfd9360e21b815260040160405180910390fd5b89811015613d7b5760405162c4fd0560e51b815260040160405180910390fd5b5f5b86811015613e8d575f838281518110613d9857613d98614c10565b60200260200101511115613e635760028181548110613db957613db9614c10565b5f9182526020909120015483516001600160a01b039091169063b460af9490859084908110613dea57613dea614c10565b60209081029190910101516040516001600160e01b031960e084901b1681526004810191909152306024820181905260448201526064016020604051808303815f875af1158015613e3d573d5f5f3e3d5ffd5b505050506040513d601f19601f82011682018060405250810190613e619190614c24565b505b613e7960028281548110612da557612da5614c10565b613e83908a614ba3565b9850600101613d7d565b505050505050509250929050565b81602052637f5e9f20600c52825f526034600c2080546001810115613ed55780831115613ecf576313be252b5f526004601cfd5b82810382555b5050505050565b6387a211a2600c52815f526020600c20805480831115613f035763f4d678b85f526004601cfd5b82900390556805345cdf77eb68f44c805482900390555f8181526001600160a01b0383165f516020614e5d5f395f51905f52602083a3612c2f565b8282025f198385098181108201900380613f6d5782613f645763ae47f7025f526004601cfd5b50819004610892565b808311613f815763ae47f7025f526004601cfd5b828486095f84810385169485900494848311909303908390038390046001010292030417600260038302811880840282030280840282030280840282030280840282030280840282030280840290910302029392505050565b60405163de0c7a7160e01b81523360048201527f00000000000000000000000000000000000000000000000000000000000000006001600160a01b03169063de0c7a7190602401612904565b7f00000000000000000000000000000000000000000000000000000000000000006001600160a01b0316816001600160a01b03166338d52e0f6040518163ffffffff1660e01b8152600401602060405180830381865afa15801561408c573d5f5f3e3d5ffd5b505050506040513d601f19601f820116820180604052508101906140b09190614bf5565b6001600160a01b0316146140d75760405163574dd3e560e11b815260040160405180910390fd5b806001600160a01b03166345d7b97a6040518163ffffffff1660e01b8152600401602060405180830381865afa158015614113573d5f5f3e3d5ffd5b505050506040513d601f19601f820116820180604052508101906141379190614d3c565b61415457604051631aaea09d60e01b815260040160405180910390fd5b5f816001600160a01b03166341ed2c126040518163ffffffff1660e01b8152600401602060405180830381865afa158015614191573d5f5f3e3d5ffd5b505050506040513d601f19601f820116820180604052508101906141b59190614bf5565b604051637d5528bd60e01b81526001600160a01b0380831660048301529192507f000000000000000000000000000000000000000000000000000000000000000090911690637d5528bd90602401602060405180830381865afa15801561421e573d5f5f3e3d5ffd5b505050506040513d601f19601f820116820180604052508101906142429190614d3c565b61425f57604051631d9f68ef60e01b815260040160405180910390fd5b604051637bca031760e11b81526001600160a01b03838116600483015282169063f794062e90602401602060405180830381865afa1580156142a3573d5f5f3e3d5ffd5b505050506040513d601f19601f820116820180604052508101906142c79190614d3c565b612c2f57604051631d9f68ef60e01b815260040160405180910390fd5b6002545f90815b81811015614384575f6002828154811061430757614307614c10565b5f91825260208220015460408051633bad40a560e11b815290516001600160a01b039092169350839263775a814a9260048084019382900301818387803b158015614350575f5ffd5b505af1158015614362573d5f5f3e3d5ffd5b5050505061436f81614389565b6143799085614ba3565b9350506001016142eb565b505090565b6040516370a0823160e01b81523060048201525f9082906001600160a01b038216906307a2d13a9082906370a0823190602401602060405180830381865afa1580156143d7573d5f5f3e3d5ffd5b505050506040513d601f19601f820116820180604052508101906143fb9190614c24565b6040518263ffffffff1660e01b815260040161441991815260200190565b602060405180830381865afa158015614434573d5f5f3e3d5ffd5b505050506040513d601f19601f820116820180604052508101906108929190614c24565b614461836146ea565b6129a2576129a283838361471f565b614479826146ea565b612c2f57604051636eb1769f60e11b81523060048201526001600160a01b0382811660248301525f919084169063dd62ed3e90604401602060405180830381865afa1580156144ca573d5f5f3e3d5ffd5b505050506040513d601f19601f820116820180604052508101906144ee9190614c24565b1115612c2f57612c2f82825f61471f565b8251606090806001600160401b0381111561451c5761451c614c7c565b604051908082528060200260200182016040528015614545578160200160208202803683370190505b5091505f5f5b82811015614609575f6145788989848151811061456a5761456a614c10565b602002602001015188613f3e565b905086828151811061458c5761458c614c10565b602002602001015181106145b9578682815181106145ac576145ac614c10565b60200260200101516145bb565b805b8583815181106145cd576145cd614c10565b6020026020010181815250508482815181106145eb576145eb614c10565b6020026020010151836145fe9190614ba3565b92505060010161454b565b50868110156146e0575f61461d8289614cfd565b90505f5b838110801561462f57505f82115b156146dd575f85828151811061464757614647614c10565b602002602001015188838151811061466157614661614c10565b60200260200101516146739190614cfd565b9050805f0361468257506146cd565b5f8184106146905781614692565b835b9050808784815181106146a7576146a7614c10565b602002602001018181516146bb9190614ba3565b9052506146c88185614cfd565b935050505b6146d681614d10565b9050614621565b50505b5050949350505050565b5f6001600160a01b038216158061076c5750506001600160a01b031673eeeeeeeeeeeeeeeeeeeeeeeeeeeeeeeeeeeeeeee1490565b816014528060345263095ea7b360601b5f5260205f604460105f875af13d1560015f5114171661299957633e3f8f735f526004601cfd5b5f60208284031215614766575f5ffd5b81356001600160e01b031981168114610892575f5ffd5b602081525f82518060208401528060208501604085015e5f604082850101526040601f19601f83011684010191505092915050565b5f602082840312156147c2575f5ffd5b5035919050565b6001600160a01b0381168114612c31575f5ffd5b5f5f604083850312156147ee575f5ffd5b82356147f9816147c9565b946020939093013593505050565b5f5f5f60608486031215614819575f5ffd5b8335614824816147c9565b92506020840135614834816147c9565b929592945050506040919091013590565b5f60208284031215614855575f5ffd5b8135610892816147c9565b602080825282518282018190525f918401906040840190835b818110156148a05783516001600160a01b0316835260209384019390920191600101614879565b509095945050505050565b5f5f604083850312156148bc575f5ffd5b8235915060208301356148ce816147c9565b809150509250929050565b5f5f83601f8401126148e9575f5ffd5b5081356001600160401b038111156148ff575f5ffd5b6020830191508360208260061b8501011115614919575f5ffd5b9250929050565b5f5f83601f840112614930575f5ffd5b5081356001600160401b03811115614946575f5ffd5b602083019150836020606083028501011115614919575f5ffd5b5f5f5f5f60408587031215614973575f5ffd5b84356001600160401b03811115614988575f5ffd5b614994878288016148d9565b90955093505060208501356001600160401b038111156149b2575f5ffd5b6149be87828801614920565b95989497509550505050565b5f5f5f606084860312156149dc575f5ffd5b8335925060208401356149ee816147c9565b915060408401356149fe816147c9565b809150509250925092565b8015158114612c31575f5ffd5b5f60208284031215614a26575f5ffd5b813561089281614a09565b5f5f5f5f5f60608688031215614a45575f5ffd5b8535614a50816147c9565b945060208601356001600160401b03811115614a6a575f5ffd5b614a76888289016148d9565b90955093505060408601356001600160401b03811115614a94575f5ffd5b614aa088828901614920565b969995985093965092949392505050565b60ff81168114612c31575f5ffd5b5f5f5f5f5f5f5f60e0888a031215614ad5575f5ffd5b8735614ae0816147c9565b96506020880135614af0816147c9565b955060408801359450606088013593506080880135614b0e81614ab1565b9699959850939692959460a0840135945060c09093013592915050565b5f5f60408385031215614b3c575f5ffd5b8235614b47816147c9565b915060208301356148ce816147c9565b600181811c90821680614b6b57607f821691505b602082108103614b8957634e487b7160e01b5f52602260045260245ffd5b50919050565b634e487b7160e01b5f52601160045260245ffd5b8082018082111561076c5761076c614b8f565b6001841115614bed57808504811115614bd157614bd1614b8f565b6001841615614bdf57908102905b60019390931c928002614bb6565b935093915050565b5f60208284031215614c05575f5ffd5b8151610892816147c9565b634e487b7160e01b5f52603260045260245ffd5b5f60208284031215614c34575f5ffd5b5051919050565b8082018281125f831280158216821582161715614c5a57614c5a614b8f565b505092915050565b5f600160ff1b8201614c7657614c76614b8f565b505f0390565b634e487b7160e01b5f52604160045260245ffd5b5f6060828403128015614ca1575f5ffd5b50604051606081016001600160401b0381118282101715614cd057634e487b7160e01b5f52604160045260245ffd5b6040528235614cde816147c9565b8152602083810135908201526040928301359281019290925250919050565b8181038181111561076c5761076c614b8f565b5f60018201614d2157614d21614b8f565b5060010190565b634e487b7160e01b5f52603160045260245ffd5b5f60208284031215614d4c575f5ffd5b815161089281614a09565b5f5f5f60608486031215614d69575f5ffd5b8351614d7481614a09565b6020850151909350614d8581614a09565b60408501519092506149fe81614a09565b5f60208284031215614da6575f5ffd5b815161089281614ab1565b5f6060820185835260606020840152808554808352608085019150865f5260205f2092505f5b81811015614dfe5783546001600160a01b0316835260019384019360209093019201614dd7565b50508381036040850152845180825260209182019250908501905f5b81811015614e38578251845260209384019390920191600101614e1a565b5091979650505050505050565b808202811582820484141761076c5761076c614b8f56feddf252ad1be2c89b69c2b068fc378daa952ba7f163c4a11628f55a4df523b3efa26469706673582212201eb75db0167e12c05eee9948e06d7d6fc855a8129367ef604e734e305ec7f8c364736f6c634300081c0033","linkReferences":{}},"methodIdentifiers":{"DOMAIN_SEPARATOR()":"3644e515","MAX_FEE_BPS()":"d55be8c6","MAX_MARKETS()":"410e3600","MIN_REALLOCATION_AMOUNT()":"895996d3","_asset()":"fcea5e29","accrueIfNeeded()":"775a814a","addApprovedAsset(address,uint256)":"c768ecce","allocationCaps(address)":"f4c4a613","allowance(address,address)":"dd62ed3e","approve(address,uint256)":"095ea7b3","approvedCTokensList(uint256)":"9765af88","asset()":"38d52e0f","balanceOf(address)":"70a08231","centralRegistry()":"8f73dcfa","convertToAssets(uint256)":"07a2d13a","convertToShares(uint256)":"c6e6f592","decimals()":"313ce567","deposit(uint256,address)":"6e553f65","exchangeRate()":"3ba0b9a9","exchangeRateHighWatermark()":"974ad22e","exchangeRateUpdated()":"f4110291","fee()":"ddca3f43","getApprovedMarkets()":"686126e0","initializeDeposits(address)":"7ada7a09","maxDeposit(address)":"402d267d","maxMint(address)":"c63d75b6","maxRedeem(address)":"d905777e","maxWithdraw(address)":"ce96cb77","mint(uint256,address)":"94bf804d","mintPaused()":"7e4831d3","name()":"06fdde03","nonces(address)":"7ecebe00","numApprovedMarkets()":"47ceb111","permit(address,address,uint256,uint256,uint8,bytes32,bytes32)":"d505accf","previewDeposit(uint256)":"ef8b30f7","previewMint(uint256)":"b3d7f6b9","previewRedeem(uint256)":"4cdad506","previewWithdraw(uint256)":"0a28a477","rebalance((address,int256)[],(address,uint256,uint256)[])":"793cc3f8","redeem(uint256,address,address)":"ba087652","removeApprovedAsset(address,(address,int256)[],(address,uint256,uint256)[])":"d1b1eeba","setFee(uint256)":"69fe0e2d","setMintPaused(bool)":"b6935501","skim()":"1dd19cb4","skimAvailable()":"f0c00c41","supportsInterface(bytes4)":"01ffc9a7","symbol()":"95d89b41","totalAssets()":"01e1d114","totalSupply()":"18160ddd","transfer(address,uint256)":"a9059cbb","transferFrom(address,address,uint256)":"23b872dd","updateCap(address,uint256)":"85b2c14a","withdraw(uint256,address,address)":"b460af94"},"id":160}