{"abi":[{"type":"constructor","inputs":[{"name":"_centralRegistry","type":"address","internalType":"contract ICentralRegistry"},{"name":"_stalenessMultiplier","type":"uint256","internalType":"uint256"}],"stateMutability":"nonpayable"},{"type":"function","name":"CAP_BUFFER_BPS","inputs":[],"outputs":[{"name":"","type":"uint256","internalType":"uint256"}],"stateMutability":"view"},{"type":"function","name":"ORACLE_MANAGER","inputs":[],"outputs":[{"name":"","type":"address","internalType":"contract IOracleManager"}],"stateMutability":"view"},{"type":"function","name":"USD_THRESHOLD","inputs":[],"outputs":[{"name":"","type":"uint256","internalType":"uint256"}],"stateMutability":"view"},{"type":"function","name":"centralRegistry","inputs":[],"outputs":[{"name":"","type":"address","internalType":"contract ICentralRegistry"}],"stateMutability":"view"},{"type":"function","name":"getOptimizerAPY","inputs":[{"name":"optimizer","type":"address","internalType":"address"}],"outputs":[{"name":"apy","type":"uint256","internalType":"uint256"}],"stateMutability":"nonpayable"},{"type":"function","name":"getOptimizerMarketData","inputs":[{"name":"optimizers","type":"address[]","internalType":"address[]"}],"outputs":[{"name":"data","type":"tuple[]","internalType":"struct OptimizerReader.OptimizerMarketData[]","components":[{"name":"_address","type":"address","internalType":"address"},{"name":"asset","type":"address","internalType":"address"},{"name":"totalAssets","type":"uint256","internalType":"uint256"},{"name":"markets","type":"tuple[]","internalType":"struct OptimizerReader.OptimizerCTokenData[]","components":[{"name":"_address","type":"address","internalType":"address"},{"name":"allocatedAssets","type":"uint256","internalType":"uint256"},{"name":"liquidity","type":"uint256","internalType":"uint256"},{"name":"allocationCap","type":"uint256","internalType":"uint256"},{"name":"allocationCapUtilizationBps","type":"uint256","internalType":"uint256"}]},{"name":"totalLiquidity","type":"uint256","internalType":"uint256"},{"name":"sharePrice","type":"uint256","internalType":"uint256"},{"name":"exchangeRateHighWatermark","type":"uint256","internalType":"uint256"},{"name":"performanceFee","type":"uint256","internalType":"uint256"},{"name":"numApprovedMarkets","type":"uint256","internalType":"uint256"},{"name":"apy","type":"uint256","internalType":"uint256"}]}],"stateMutability":"nonpayable"},{"type":"function","name":"getOptimizerUserData","inputs":[{"name":"optimizers","type":"address[]","internalType":"address[]"},{"name":"account","type":"address","internalType":"address"}],"outputs":[{"name":"data","type":"tuple[]","internalType":"struct OptimizerReader.OptimizerUserData[]","components":[{"name":"_address","type":"address","internalType":"address"},{"name":"shareBalance","type":"uint256","internalType":"uint256"},{"name":"redeemable","type":"uint256","internalType":"uint256"}]}],"stateMutability":"nonpayable"},{"type":"function","name":"isBad","inputs":[{"name":"optimizer","type":"address","internalType":"address"}],"outputs":[{"name":"bad","type":"address[]","internalType":"address[]"}],"stateMutability":"view"},{"type":"function","name":"multiIsBadCheck","inputs":[{"name":"optimizers","type":"address[]","internalType":"address[]"}],"outputs":[{"name":"badOptimizers","type":"address[][]","internalType":"address[][]"}],"stateMutability":"view"},{"type":"function","name":"optimalRebalance","inputs":[{"name":"optimizer","type":"address","internalType":"address"},{"name":"slippageBps","type":"uint256","internalType":"uint256"},{"name":"rebalanceChunks","type":"uint256","internalType":"uint256"}],"outputs":[{"name":"actions","type":"tuple[]","internalType":"struct LendingOptimizer.ReallocationAction[]","components":[{"name":"cToken","type":"address","internalType":"contract IBorrowableCToken"},{"name":"assetsOrBps","type":"int256","internalType":"int256"}]},{"name":"bounds","type":"tuple[]","internalType":"struct LendingOptimizer.AllocationBound[]","components":[{"name":"cToken","type":"address","internalType":"address"},{"name":"minBps","type":"uint256","internalType":"uint256"},{"name":"maxBps","type":"uint256","internalType":"uint256"}]}],"stateMutability":"nonpayable"},{"type":"function","name":"optimalRebalanceWithIncentives","inputs":[{"name":"optimizer","type":"address","internalType":"address"},{"name":"slippageBps","type":"uint256","internalType":"uint256"},{"name":"rebalanceChunks","type":"uint256","internalType":"uint256"},{"name":"marketIncentiveAPYsBps","type":"uint256[]","internalType":"uint256[]"}],"outputs":[{"name":"actions","type":"tuple[]","internalType":"struct LendingOptimizer.ReallocationAction[]","components":[{"name":"cToken","type":"address","internalType":"contract IBorrowableCToken"},{"name":"assetsOrBps","type":"int256","internalType":"int256"}]},{"name":"bounds","type":"tuple[]","internalType":"struct LendingOptimizer.AllocationBound[]","components":[{"name":"cToken","type":"address","internalType":"address"},{"name":"minBps","type":"uint256","internalType":"uint256"},{"name":"maxBps","type":"uint256","internalType":"uint256"}]}],"stateMutability":"nonpayable"},{"type":"function","name":"setStalenessMultiplier","inputs":[{"name":"newMultiplierBps","type":"uint256","internalType":"uint256"}],"outputs":[],"stateMutability":"nonpayable"},{"type":"function","name":"stalenessMultiplierBps","inputs":[],"outputs":[{"name":"","type":"uint256","internalType":"uint256"}],"stateMutability":"view"},{"type":"event","name":"StalenessMultiplierUpdated","inputs":[{"name":"oldMultiplier","type":"uint256","indexed":false,"internalType":"uint256"},{"name":"newMultiplier","type":"uint256","indexed":false,"internalType":"uint256"}],"anonymous":false},{"type":"error","name":"OptimizerReader__InvalidIncentiveData","inputs":[]},{"type":"error","name":"OptimizerReader__InvalidMultiplier","inputs":[]},{"type":"error","name":"OptimizerReader__InvalidRebalanceChunks","inputs":[]},{"type":"error","name":"OptimizerReader__Unauthorized","inputs":[]}],"bytecode":{"object":"0x60c060405234801561000f575f5ffd5b506040516143b03803806143b083398101604081905261002e916100c5565b6001600160a01b03821660a08190526040805163159761e360e21b8152905163565d878c916004808201926020929091908290030181865afa158015610076573d5f5f3e3d5ffd5b505050506040513d601f19601f8201168201806040525081019061009a91906100f1565b6001600160a01b03166080525f5550610113565b6001600160a01b03811681146100c2575f5ffd5b50565b5f5f604083850312156100d6575f5ffd5b82516100e1816100ae565b6020939093015192949293505050565b5f60208284031215610101575f5ffd5b815161010c816100ae565b9392505050565b60805160a0516142606101505f395f8181610194015261123801525f8181610213015281816114570152818161160c0152611a3101526142605ff3fe608060405234801561000f575f5ffd5b50600436106100cb575f3560e01c80638f73dcfa11610088578063c04fe89011610063578063c04fe890146101e9578063c1a0a952146101fe578063d24bc1a41461020e578063d2f00c8814610235575f5ffd5b80638f73dcfa1461018f5780639e26ba99146101ce578063acc77ad3146101e1575f5ffd5b806307600536146100cf57806317c39e16146100f857806345a7a9b3146101185780634a5aa3341461012e5780634be8ed5a1461014f5780636197cadb1461016f575b5f5ffd5b6100e26100dd366004613850565b610248565b6040516100ef919061386b565b60405180910390f35b61010b6101063660046138fd565b6105bd565b6040516100ef919061393b565b610120600581565b6040519081526020016100ef565b61014161013c3660046139d0565b6106da565b6040516100ef929190613a34565b61016261015d3660046138fd565b610797565b6040516100ef9190613b61565b61018261017d366004613c45565b610f7f565b6040516100ef9190613c97565b6101b67f000000000000000000000000000000000000000000000000000000000000000081565b6040516001600160a01b0390911681526020016100ef565b6101206101dc366004613850565b6111c5565b6101205f5481565b6101fc6101f7366004613cf6565b611223565b005b61012068056bc75e2d6310000081565b6101b67f000000000000000000000000000000000000000000000000000000000000000081565b610141610243366004613d0d565b611338565b60605f826001600160a01b031663686126e06040518163ffffffff1660e01b81526004015f60405180830381865afa158015610286573d5f5f3e3d5ffd5b505050506040513d5f823e601f3d908101601f191682016040526102ad9190810190613d83565b80519091505f816001600160401b038111156102cb576102cb613d3f565b6040519080825280602002602001820160405280156102f4578160200160208202803683370190505b505f805491925090815b84811015610517575f61032987838151811061031c5761031c613e35565b60200260200101516113d3565b90505f816001600160a01b031663afbe407a6040518163ffffffff1660e01b81526004015f60405180830381865afa158015610367573d5f5f3e3d5ffd5b505050506040513d5f823e601f3d908101601f1916820160405261038e9190810190613d83565b90505f5f5b82518110156104a9578985815181106103ae576103ae613e35565b60200260200101516001600160a01b03168382815181106103d1576103d1613e35565b60200260200101516001600160a01b031603156104a1575f8382815181106103fb576103fb613e35565b60200260200101516001600160a01b03166338d52e0f6040518163ffffffff1660e01b8152600401602060405180830381865afa15801561043e573d5f5f3e3d5ffd5b505050506040513d601f19601f820116820180604052508101906104629190613e49565b90505f8711801561047857506104788188611434565b156104875760019250506104a9565b610490816115e9565b1561049f5760019250506104a9565b505b600101610393565b508015610509578884815181106104c2576104c2613e35565b60200260200101518787806104d690613e78565b9850815181106104e8576104e8613e35565b60200260200101906001600160a01b031690816001600160a01b0316815250505b5050508060010190506102fe565b50816001600160401b0381111561053057610530613d3f565b604051908082528060200260200182016040528015610559578160200160208202803683370190505b5095505f5b828110156105b25783818151811061057857610578613e35565b602002602001015187828151811061059257610592613e35565b6001600160a01b039092166020928302919091019091015260010161055e565b505050505050919050565b606081806001600160401b038111156105d8576105d8613d3f565b60405190808252806020026020018201604052801561060b57816020015b60608152602001906001900390816105f65790505b5091505f5b818110156106d25730630760053686868481811061063057610630613e35565b90506020020160208101906106459190613850565b6040516001600160e01b031960e084901b1681526001600160a01b0390911660048201526024015f60405180830381865afa158015610686573d5f5f3e3d5ffd5b505050506040513d5f823e601f3d908101601f191682016040526106ad9190810190613d83565b8382815181106106bf576106bf613e35565b6020908102919091010152600101610610565b505092915050565b606080845f036106fd57604051631e25928160e21b815260040160405180910390fd5b866001600160a01b031663775a814a6040518163ffffffff1660e01b81526004015f604051808303815f87803b158015610735575f5ffd5b505af1158015610747573d5f5f3e3d5ffd5b505050506107898787878787808060200260200160405190810160405280939291908181526020018383602002808284375f9201919091525061171892505050565b915091509550959350505050565b606081806001600160401b038111156107b2576107b2613d3f565b60405190808252806020026020018201604052801561084257816020015b61082f6040518061014001604052805f6001600160a01b031681526020015f6001600160a01b031681526020015f8152602001606081526020015f81526020015f81526020015f81526020015f81526020015f81526020015f81525090565b8152602001906001900390816107d05790505b5091505f5b818110156106d2575f85858381811061086257610862613e35565b90506020020160208101906108779190613850565b905085858381811061088b5761088b613e35565b90506020020160208101906108a09190613850565b8483815181106108b2576108b2613e35565b60200260200101515f01906001600160a01b031690816001600160a01b031681525050806001600160a01b03166338d52e0f6040518163ffffffff1660e01b8152600401602060405180830381865afa158015610911573d5f5f3e3d5ffd5b505050506040513d601f19601f820116820180604052508101906109359190613e49565b84838151811061094757610947613e35565b6020026020010151602001906001600160a01b031690816001600160a01b031681525050806001600160a01b031663f41102916040518163ffffffff1660e01b81526004016020604051808303815f875af11580156109a8573d5f5f3e3d5ffd5b505050506040513d601f19601f820116820180604052508101906109cc9190613e90565b8483815181106109de576109de613e35565b602002602001015160a0018181525050806001600160a01b03166301e1d1146040518163ffffffff1660e01b8152600401602060405180830381865afa158015610a2a573d5f5f3e3d5ffd5b505050506040513d601f19601f82011682018060405250810190610a4e9190613e90565b848381518110610a6057610a60613e35565b60200260200101516040018181525050806001600160a01b031663974ad22e6040518163ffffffff1660e01b8152600401602060405180830381865afa158015610aac573d5f5f3e3d5ffd5b505050506040513d601f19601f82011682018060405250810190610ad09190613e90565b848381518110610ae257610ae2613e35565b602002602001015160c0018181525050806001600160a01b031663ddca3f436040518163ffffffff1660e01b8152600401602060405180830381865afa158015610b2e573d5f5f3e3d5ffd5b505050506040513d601f19601f82011682018060405250810190610b529190613e90565b848381518110610b6457610b64613e35565b602002602001015160e0018181525050610ba3868684818110610b8957610b89613e35565b9050602002016020810190610b9e9190613850565b611c5f565b848381518110610bb557610bb5613e35565b60200260200101516101200181815250505f816001600160a01b031663686126e06040518163ffffffff1660e01b81526004015f60405180830381865afa158015610c02573d5f5f3e3d5ffd5b505050506040513d5f823e601f3d908101601f19168201604052610c299190810190613d83565b90505f8151905080868581518110610c4357610c43613e35565b6020026020010151610100018181525050806001600160401b03811115610c6c57610c6c613d3f565b604051908082528060200260200182016040528015610cd357816020015b610cc06040518060a001604052805f6001600160a01b031681526020015f81526020015f81526020015f81526020015f81525090565b815260200190600190039081610c8a5790505b50868581518110610ce657610ce6613e35565b6020026020010151606001819052505f5b81811015610f70575f838281518110610d1257610d12613e35565b602002602001015190505f816001600160a01b03166307a2d13a610d5c848e8e8c818110610d4257610d42613e35565b9050602002016020810190610d579190613850565b611ebc565b6040518263ffffffff1660e01b8152600401610d7a91815260200190565b602060405180830381865afa158015610d95573d5f5f3e3d5ffd5b505050506040513d601f19601f82011682018060405250810190610db99190613e90565b90505f610dc583611f2e565b90505f876001600160a01b031663f4c4a613888781518110610de957610de9613e35565b60200260200101516040518263ffffffff1660e01b8152600401610e1c91906001600160a01b0391909116815260200190565b602060405180830381865afa158015610e37573d5f5f3e3d5ffd5b505050506040513d601f19601f82011682018060405250810190610e5b9190613e90565b90505f610e8e8c8b81518110610e7357610e73613e35565b60200260200101516040015183670de0b6b3a7640000611f8f565b90505f8115610ea957610ea48561271084611f8f565b610eab565b5f5b90506040518060a001604052808a8981518110610eca57610eca613e35565b60200260200101516001600160a01b03168152602001868152602001858152602001848152602001828152508d8c81518110610f0857610f08613e35565b6020026020010151606001518881518110610f2557610f25613e35565b6020026020010181905250838d8c81518110610f4357610f43613e35565b6020026020010151608001818151610f5b9190613ea7565b9052505060019095019450610cf79350505050565b50505050806001019050610847565b606082806001600160401b03811115610f9a57610f9a613d3f565b604051908082528060200260200182016040528015610ff557816020015b610fe260405180606001604052805f6001600160a01b031681526020015f81526020015f81525090565b815260200190600190039081610fb85790505b5091505f5b818110156111bc575f86868381811061101557611015613e35565b905060200201602081019061102a9190613850565b9050806001600160a01b031663775a814a6040518163ffffffff1660e01b81526004015f604051808303815f87803b158015611064575f5ffd5b505af1158015611076573d5f5f3e3d5ffd5b505050505f6110ab88888581811061109057611090613e35565b90506020020160208101906110a59190613850565b87611ebc565b90508787848181106110bf576110bf613e35565b90506020020160208101906110d49190613850565b8584815181106110e6576110e6613e35565b60200260200101515f01906001600160a01b031690816001600160a01b0316815250508085848151811061111c5761111c613e35565b60209081029190910181015101526040516303d1689d60e11b8152600481018290526001600160a01b038316906307a2d13a90602401602060405180830381865afa15801561116d573d5f5f3e3d5ffd5b505050506040513d601f19601f820116820180604052508101906111919190613e90565b8584815181106111a3576111a3613e35565b6020908102919091010151604001525050600101610ffa565b50509392505050565b5f816001600160a01b031663775a814a6040518163ffffffff1660e01b81526004015f604051808303815f87803b1580156111fe575f5ffd5b505af1158015611210573d5f5f3e3d5ffd5b5050505061121d82611c5f565b92915050565b60405163de0c7a7160e01b81523360048201527f00000000000000000000000000000000000000000000000000000000000000006001600160a01b03169063de0c7a7190602401602060405180830381865afa158015611285573d5f5f3e3d5ffd5b505050506040513d601f19601f820116820180604052508101906112a99190613ece565b6112c6576040516348b7eb3b60e11b815260040160405180910390fd5b80158015906112d6575061271081105b156112f45760405163014576d960e11b815260040160405180910390fd5b5f80549082905560408051828152602081018490527f45743f1778a40227cb785331fb7d115a568ee8655b31f131a8b62decdb93f249910160405180910390a15050565b606080825f0361135b57604051631e25928160e21b815260040160405180910390fd5b846001600160a01b031663775a814a6040518163ffffffff1660e01b81526004015f604051808303815f87803b158015611393575f5ffd5b505af11580156113a5573d5f5f3e3d5ffd5b5050604080515f8152602081019091526113c6925087915086908690611718565b915091505b935093915050565b5f816001600160a01b03166341ed2c126040518163ffffffff1660e01b8152600401602060405180830381865afa158015611410573d5f5f3e3d5ffd5b505050506040513d601f19601f8201168201806040525081019061121d9190613e49565b6040516346b7ddcf60e11b81526001600160a01b0383811660048301525f9182917f00000000000000000000000000000000000000000000000000000000000000001690638d6fbb9e906024015f60405180830381865afa15801561149b573d5f5f3e3d5ffd5b505050506040513d5f823e601f3d908101601f191682016040526114c29190810190613d83565b90505f5f825f815181106114d8576114d8613e35565b60209081029190910101516040516305145fb560e31b81526001600160a01b03888116600483015260016024830152909116906328a2fda890604401608060405180830381865afa15801561152f573d5f5f3e3d5ffd5b505050506040513d601f19601f820116820180604052508101906115539190613ef7565b9350509250505f826001600160a01b031663feaf968c6040518163ffffffff1660e01b815260040160a060405180830381865afa158015611596573d5f5f3e3d5ffd5b505050506040513d601f19601f820116820180604052508101906115ba9190613f6c565b509350505050612710868362ffffff1602816115d8576115d8613fba565b048142031194505050505092915050565b6040516346b7ddcf60e11b81526001600160a01b0382811660048301525f9182917f00000000000000000000000000000000000000000000000000000000000000001690638d6fbb9e906024015f60405180830381865afa158015611650573d5f5f3e3d5ffd5b505050506040513d5f823e601f3d908101601f191682016040526116779190810190613d83565b90505f815f8151811061168c5761168c613e35565b6020908102919091010151604051635ae6916360e01b81526001600160a01b038681166004830152600160248301819052604483015290911690635ae6916390606401606060405180830381865afa1580156116ea573d5f5f3e3d5ffd5b505050506040513d601f19601f8201168201806040525081019061170e9190613fce565b5115949350505050565b6060805f866001600160a01b031663686126e06040518163ffffffff1660e01b81526004015f60405180830381865afa158015611757573d5f5f3e3d5ffd5b505050506040513d5f823e601f3d908101601f1916820160405261177e9190810190613d83565b905083515f1415801561179357508051845114155b156117b15760405163e6713d9960e01b815260040160405180910390fd5b80515f036117bf5750611c56565b6040516303b0029b60e11b81526001600160a01b03881660048201525f9030906307600536906024015f60405180830381865afa158015611802573d5f5f3e3d5ffd5b505050506040513d5f823e601f3d908101601f191682016040526118299190810190613d83565b90506060805f61183c8b86868c8c611fb3565b5090935091505f5b825181101561187c5782818151811061185f5761185f613e35565b6020026020010151826118729190613ea7565b9150600101611844565b5061188783826122b9565b611895575050505050611c56565b6118a0858484612300565b6118ae575050505050611c56565b84516001600160401b038111156118c7576118c7613d3f565b60405190808252806020026020018201604052801561190b57816020015b604080518082019091525f80825260208201528152602001906001900390816118e55790505b50965084516001600160401b0381111561192757611927613d3f565b60405190808252806020026020018201604052801561198257816020015b61196f60405180606001604052805f6001600160a01b031681526020015f81526020015f81525090565b8152602001906001900390816119455790505b509550611994858484848e8c8c61292f565b83515f03611c50575f8b6001600160a01b03166338d52e0f6040518163ffffffff1660e01b8152600401602060405180830381865afa1580156119d9573d5f5f3e3d5ffd5b505050506040513d601f19601f820116820180604052508101906119fd9190613e49565b604051635ae6916360e01b81526001600160a01b03828116600483015260016024830181905260448301529192505f9182917f000000000000000000000000000000000000000000000000000000000000000090911690635ae69163906064016040805180830381865afa158015611a77573d5f5f3e3d5ffd5b505050506040513d601f19601f82011682018060405250810190611a9b9190614032565b91509150805f148015611aad57505f82115b15611c4c575f836001600160a01b031663313ce5676040518163ffffffff1660e01b8152600401602060405180830381865afa158015611aef573d5f5f3e3d5ffd5b505050506040513d601f19601f82011682018060405250810190611b139190614054565b60ff1690505f5f5b8c51811015611b71575f8d8281518110611b3757611b37613e35565b60200260200101516020015190505f8113611b5a57611b558161406d565b611b5c565b805b611b669084613ea7565b925050600101611b1b565b505f611b92611b81600284614087565b86611b8d86600a614181565b611f8f565b905068056bc75e2d63100000811015611c4857604080515f8082526020820190925290611be0565b604080518082019091525f8082526020820152815260200190600190039081611bba5790505b50604080515f8082526020820190925290611c33565b611c2060405180606001604052805f6001600160a01b031681526020015f81526020015f81525090565b815260200190600190039081611bf65790505b509c509c505050505050505050505050611c56565b5050505b5050505b50505050505b94509492505050565b5f5f8290505f816001600160a01b03166301e1d1146040518163ffffffff1660e01b8152600401602060405180830381865afa158015611ca1573d5f5f3e3d5ffd5b505050506040513d601f19601f82011682018060405250810190611cc59190613e90565b9050805f03611cd757505f9392505050565b5f826001600160a01b031663686126e06040518163ffffffff1660e01b81526004015f60405180830381865afa158015611d13573d5f5f3e3d5ffd5b505050506040513d5f823e601f3d908101601f19168201604052611d3a9190810190613d83565b90505f5f5b8251811015611ea3575f838281518110611d5b57611d5b613e35565b602002602001015190505f816001600160a01b03166307a2d13a611d7f848c611ebc565b6040518263ffffffff1660e01b8152600401611d9d91815260200190565b602060405180830381865afa158015611db8573d5f5f3e3d5ffd5b505050506040513d601f19601f82011682018060405250810190611ddc9190613e90565b90505f611de883612c4b565b6001600160a01b031663c0b36044611dff85611f2e565b611e0886612c88565b611e1187612cc5565b6040516001600160e01b031960e086901b168152600481019390935260248301919091526044820152606401602060405180830381865afa158015611e58573d5f5f3e3d5ffd5b505050506040513d601f19601f82011682018060405250810190611e7c9190613e90565b9050611e89828289611f8f565b611e939086613ea7565b9450505050806001019050611d3f565b50611eb26301e133808261418c565b9695505050505050565b6040516370a0823160e01b81526001600160a01b0382811660048301525f91908416906370a0823190602401602060405180830381865afa158015611f03573d5f5f3e3d5ffd5b505050506040513d601f19601f82011682018060405250810190611f279190613e90565b9392505050565b5f816001600160a01b03166387367d716040518163ffffffff1660e01b8152600401602060405180830381865afa158015611f6b573d5f5f3e3d5ffd5b505050506040513d601f19601f8201168201806040525081019061121d9190613e90565b5f825f190484118302158202611fac5763ad251c275f526004601cfd5b5091020490565b60608060605f87519050806001600160401b03811115611fd557611fd5613d3f565b604051908082528060200260200182016040528015611ffe578160200160208202803683370190505b509350806001600160401b0381111561201957612019613d3f565b604051908082528060200260200182016040528015612042578160200160208202803683370190505b509250806001600160401b0381111561205d5761205d613d3f565b6040519080825280602002602001820160405280156120ca57816020015b6120b76040518060c001604052805f81526020015f81526020015f81526020015f81526020015f81526020015f6001600160a01b031681525090565b81526020019060019003908161207b5790505b5091505f6120db8a8a888787612d02565b9050805f036120eb5750506122ae565b5f6120fb8b8b8b88868b8a612f19565b905061210781836141a3565b91505f6121148984614087565b90505f5b8981101561229d575f61212c60018c6141a3565b82146121385782612157565b61214360018c6141a3565b61214d908461418c565b61215790866141a3565b9050805f036121665750612295565b5f5f5f5f5b8981101561222e578a818151811061218557612185613e35565b602002602001015160600151858e83815181106121a4576121a4613e35565b60200260200101516121b69190613ea7565b11612226575f6122068c83815181106121d1576121d1613e35565b6020026020010151878e85815181106121ec576121ec613e35565b60200260200101515f01516122019190613ea7565b613178565b905082158061221457508481115b1561222457809450819350600192505b505b60010161216b565b50801561229057838c838151811061224857612248613e35565b6020026020010181815161225c9190613ea7565b905250895184908b908490811061227557612275613e35565b60200260200101515f0181815161228c9190613ea7565b9052505b505050505b600101612118565b506122a987868561321e565b505050505b955095509592505050565b5f5f5f5b84518110156122f5578481815181106122d8576122d8613e35565b6020026020010151826122eb9190613ea7565b91506001016122bd565b509091111592915050565b82515f9081805b828110156124fa5784818151811061232157612321613e35565b602002602001015186828151811061233b5761233b613e35565b602002602001015103156124f2575f85828151811061235c5761235c613e35565b602002602001015187838151811061237657612376613e35565b60200260200101511190505f816123ca5787838151811061239957612399613e35565b60200260200101518784815181106123b3576123b3613e35565b60200260200101516123c591906141a3565b612408565b8683815181106123dc576123dc613e35565b60200260200101518884815181106123f6576123f6613e35565b602002602001015161240891906141a3565b905088838151811061241c5761241c613e35565b60200260200101516001600160a01b031663c6e6f592826040518263ffffffff1660e01b815260040161245191815260200190565b602060405180830381865afa15801561246c573d5f5f3e3d5ffd5b505050506040513d601f19601f820116820180604052508101906124909190613e90565b5f036124ef57816124a157806124aa565b6124aa8161406d565b6124b490856141b6565b93508683815181106124c8576124c8613e35565b60200260200101518884815181106124e2576124e2613e35565b6020026020010181815250505b50505b600101612307565b5080156128cc575f5f8213612517576125128261406d565b612519565b815b90505f82135b81156128c9575f5f1981805b8781101561265d5789818151811061254557612545613e35565b60200260200101518b828151811061255f5761255f613e35565b60200260200101510315612655575f8a828151811061258057612580613e35565b60200260200101518c838151811061259a5761259a613e35565b6020026020010151119050851515811515146125b65750612655565b5f816125ff578c83815181106125ce576125ce613e35565b60200260200101518c84815181106125e8576125e8613e35565b60200260200101516125fa91906141a3565b61263d565b8b838151811061261157612611613e35565b60200260200101518d848151811061262b5761262b613e35565b602002602001015161263d91906141a3565b90508481101561265257809450829550600193505b50505b60010161252b565b50806126b5575f5b878110156126ac5789818151811061267f5761267f613e35565b60200260200101518b828151811061269957612699613e35565b6020908102919091010152600101612665565b505050506128c9565b818510612704578883815181106126ce576126ce613e35565b60200260200101518a84815181106126e8576126e8613e35565b60209081029190910101526126fd82866141a3565b94506128c1565b831561273957848a848151811061271d5761271d613e35565b6020026020010181815161273191906141a3565b905250612764565b848a848151811061274c5761274c613e35565b602002602001018181516127609190613ea7565b9052505b5f846127ad578a848151811061277c5761277c613e35565b60200260200101518a858151811061279657612796613e35565b60200260200101516127a891906141a3565b6127eb565b8984815181106127bf576127bf613e35565b60200260200101518b85815181106127d9576127d9613e35565b60200260200101516127eb91906141a3565b90508b84815181106127ff576127ff613e35565b60200260200101516001600160a01b031663c6e6f592826040518263ffffffff1660e01b815260040161283491815260200190565b602060405180830381865afa15801561284f573d5f5f3e3d5ffd5b505050506040513d601f19601f820116820180604052508101906128739190613e90565b5f036128bb5789848151811061288b5761288b613e35565b60200260200101518b85815181106128a5576128a5613e35565b60209081029190910101529450921592846128bf565b5f95505b505b50505061251f565b50505b5f5b82811015612923578481815181106128e8576128e8613e35565b602002602001015186828151811061290257612902613e35565b60200260200101511461291b5760019350505050611f27565b6001016128ce565b505f9695505050505050565b5f5b8751811015612c415785818151811061294c5761294c613e35565b602002602001015187828151811061296657612966613e35565b60200260200101511115612a0a57604051806040016040528089838151811061299157612991613e35565b60200260200101516001600160a01b031681526020018783815181106129b9576129b9613e35565b60200260200101518984815181106129d3576129d3613e35565b60200260200101516129e591906141a3565b8152508382815181106129fa576129fa613e35565b6020026020010181905250612b13565b868181518110612a1c57612a1c613e35565b6020026020010151868281518110612a3657612a36613e35565b60200260200101511115612abe576040518060400160405280898381518110612a6157612a61613e35565b60200260200101516001600160a01b03168152602001888381518110612a8957612a89613e35565b6020026020010151888481518110612aa357612aa3613e35565b6020026020010151612ab591906141a3565b6129e59061406d565b6040518060400160405280898381518110612adb57612adb613e35565b60200260200101516001600160a01b031681526020015f815250838281518110612b0757612b07613e35565b60200260200101819052505b8415612bdc575f612b40888381518110612b2f57612b2f613e35565b602002602001015161271088611f8f565b905060405180606001604052808a8481518110612b5f57612b5f613e35565b60200260200101516001600160a01b03168152602001868311612b82575f612b8c565b612b8c87846141a3565b8152602001612710612b9e8885613ea7565b11612bb257612bad8784613ea7565b612bb6565b6127105b815250838381518110612bcb57612bcb613e35565b602002602001018190525050612c39565b6040518060600160405280898381518110612bf957612bf9613e35565b60200260200101516001600160a01b031681526020015f8152602001612710815250828281518110612c2d57612c2d613e35565b60200260200101819052505b600101612931565b5050505050505050565b5f816001600160a01b0316631e75db166040518163ffffffff1660e01b8152600401602060405180830381865afa158015611410573d5f5f3e3d5ffd5b5f816001600160a01b031663635d97716040518163ffffffff1660e01b8152600401602060405180830381865afa158015611f6b573d5f5f3e3d5ffd5b5f816001600160a01b031663a75df4986040518163ffffffff1660e01b8152600401602060405180830381865afa158015611f6b573d5f5f3e3d5ffd5b82515f901515815b8651811015612f0e575f878281518110612d2657612d26613e35565b602002602001015190505f816001600160a01b03166307a2d13a612d4a848d611ebc565b6040518263ffffffff1660e01b8152600401612d6891815260200190565b602060405180830381865afa158015612d83573d5f5f3e3d5ffd5b505050506040513d601f19601f82011682018060405250810190612da79190613e90565b905080878481518110612dbc57612dbc613e35565b6020908102919091010152612dd18186613ea7565b94505f612ddd83611f2e565b9050818111612dec575f612df6565b612df682826141a3565b878581518110612e0857612e08613e35565b602090810291909101015152612e1d83612c88565b878581518110612e2f57612e2f613e35565b60200260200101516020018181525050612e4883612cc5565b878581518110612e5a57612e5a613e35565b60200260200101516040018181525050612e7383612c4b565b878581518110612e8557612e85613e35565b602002602001015160a001906001600160a01b031690816001600160a01b0316815250508415612f0057612edd898581518110612ec457612ec4613e35565b6020026020010151670de0b6b3a7640000612710611f8f565b878581518110612eef57612eef613e35565b602002602001015160800181815250505b505050806001019050612d0a565b505095945050505050565b5f5f612f288989898989613430565b90505f5b885181101561316b575f878281518110612f4857612f48613e35565b60200260200101519050612f778b8b8481518110612f6857612f68613e35565b60200260200101518986613477565b858381518110612f8957612f89613e35565b602002602001015160600181815250505f612faf8b848151811061031c5761031c613e35565b90505f612fd58c8581518110612fc757612fc7613e35565b60200260200101518c613532565b80612ffe5750612ffe8c8581518110612ff057612ff0613e35565b60200260200101518361358b565b90505f826001600160a01b031663b235d4686040518163ffffffff1660e01b8152600401602060405180830381865afa15801561303d573d5f5f3e3d5ffd5b505050506040513d601f19601f820116820180604052508101906130619190614054565b60ff1660021490508015613132578388868151811061308257613082613e35565b60200260200101515f018181516130999190613ea7565b9052506130a68488613ea7565b9650838986815181106130bb576130bb613e35565b60200260200101818152505081156130f557838886815181106130e0576130e0613e35565b6020026020010151606001818152505061315c565b8388868151811061310857613108613e35565b602002602001015160600151101561312d57838886815181106130e0576130e0613e35565b61315c565b811561315c575f88868151811061314b5761314b613e35565b602002602001015160600181815250505b50505050806001019050612f2c565b5050979650505050505050565b608082015160a08301516020840151604080860151905163302cd81160e21b815260048101869052602481019290925260448201525f92916301e13380916001600160a01b039091169063c0b3604490606401602060405180830381865afa1580156131e6573d5f5f3e3d5ffd5b505050506040513d601f19601f8201168201806040525081019061320a9190613e90565b613214919061418c565b611f279190613ea7565b5f5f5b84518110156132595784818151811061323c5761323c613e35565b60200260200101518261324f9190613ea7565b9150600101613221565b508181106132675750505050565b5f61327282846141a3565b90505b8015613409575f5f5f5f5f5b895181101561338b5788818151811061329c5761329c613e35565b6020026020010151606001518a82815181106132ba576132ba613e35565b60200260200101511015613383575f8a82815181106132db576132db613e35565b60200260200101518a83815181106132f5576132f5613e35565b60200260200101516060015161330b91906141a3565b90505f87821061331b578761331d565b815b9050805f0361332d575050613383565b5f61335e8c858151811061334357613343613e35565b6020026020010151838e87815181106121ec576121ec613e35565b905084158061336c57508781115b1561337f57809750839650819550600194505b5050505b600101613281565b508061339a5750505050613409565b818984815181106133ad576133ad613e35565b602002602001018181516133c19190613ea7565b905250875182908990859081106133da576133da613e35565b60200260200101515f018181516133f19190613ea7565b9052506133fe82866141a3565b945050505050613275565b5f81118015613419575084518111155b1561342957613429858583613600565b5050505050565b5f60055b6134428787878787866136d0565b1561344e57905061346e565b805f0361345e575f91505061346e565b613467816141d5565b9050613434565b95945050505050565b60405163f4c4a61360e01b81526001600160a01b0384811660048301525f91829187169063f4c4a61390602401602060405180830381865afa1580156134bf573d5f5f3e3d5ffd5b505050506040513d601f19601f820116820180604052508101906134e39190613e90565b90505f6134f684655af3107a400061418c565b9050808211613509575f9250505061352a565b6135258561351783856141a3565b670de0b6b3a7640000611f8f565b925050505b949350505050565b5f5f5b825181101561358257836001600160a01b031683828151811061355a5761355a613e35565b60200260200101516001600160a01b03160361357a57600191505061121d565b600101613535565b505f9392505050565b60405163699ba8b360e01b81526001600160a01b0383811660048301525f919083169063699ba8b390602401606060405180830381865afa1580156135d2573d5f5f3e3d5ffd5b505050506040513d601f19601f820116820180604052508101906135f691906141ea565b5090949350505050565b5f5f5f5f5b8651811015613666575f61363f87838151811061362457613624613e35565b6020026020010151878985815181106121ec576121ec613e35565b905082158061364d57508481115b1561365d57809450819350600192505b50600101613605565b5080156136c8578386838151811061368057613680613e35565b602002602001018181516136949190613ea7565b905250845184908690849081106136ad576136ad613e35565b60200260200101515f018181516136c49190613ea7565b9052505b505050505050565b5f5f5f5b875181101561382b575f6136f389838151811061031c5761031c613e35565b90505f6137198a848151811061370b5761370b613e35565b60200260200101518a613532565b8061373457506137348a8481518110612ff057612ff0613e35565b90505f826001600160a01b031663b235d4686040518163ffffffff1660e01b8152600401602060405180830381865afa158015613773573d5f5f3e3d5ffd5b505050506040513d601f19601f820116820180604052508101906137979190614054565b60ff16600214905080156137d1578884815181106137b7576137b7613e35565b6020026020010151856137ca9190613ea7565b9450613808565b81613808576137fb8c8c86815181106137ec576137ec613e35565b60200260200101518a8a613477565b6138059086613ea7565b94505b87851061381d57600195505050505050611eb2565b5050508060010190506136d4565b505f98975050505050505050565b6001600160a01b038116811461384d575f5ffd5b50565b5f60208284031215613860575f5ffd5b8135611f2781613839565b602080825282518282018190525f918401906040840190835b818110156138ab5783516001600160a01b0316835260209384019390920191600101613884565b509095945050505050565b5f5f83601f8401126138c6575f5ffd5b5081356001600160401b038111156138dc575f5ffd5b6020830191508360208260051b85010111156138f6575f5ffd5b9250929050565b5f5f6020838503121561390e575f5ffd5b82356001600160401b03811115613923575f5ffd5b61392f858286016138b6565b90969095509350505050565b5f602082016020835280845180835260408501915060408160051b8601019250602086015f5b828110156139c457868503603f19018452815180518087526020918201918701905f5b818110156139ab5783516001600160a01b0316835260209384019390920191600101613984565b5090965050506020938401939190910190600101613961565b50929695505050505050565b5f5f5f5f5f608086880312156139e4575f5ffd5b85356139ef81613839565b9450602086013593506040860135925060608601356001600160401b03811115613a17575f5ffd5b613a23888289016138b6565b969995985093965092949392505050565b604080825283519082018190525f9060208501906060840190835b81811015613a8257835180516001600160a01b031684526020908101518185015290930192604090920191600101613a4f565b5050838103602080860191909152855180835291810192508501905f5b81811015613ae557613acf84845180516001600160a01b0316825260208082015190830152604090810151910152565b6060939093019260209290920191600101613a9f565b50919695505050505050565b5f8151808452602084019350602083015f5b82811015613b5757815180516001600160a01b031687526020808201518189015260408083015190890152606080830151908901526080918201519188019190915260a09096019590910190600101613b03565b5093949350505050565b5f602082016020835280845180835260408501915060408160051b8601019250602086015f5b828110156139c457868503603f19018452815180516001600160a01b031686526020810151613bc160208801826001600160a01b03169052565b506040810151604087015260608101516101406060880152613be7610140880182613af1565b90506080820151608088015260a082015160a088015260c082015160c088015260e082015160e08801526101008201516101008801526101208201516101208801528096505050602082019150602084019350600181019050613b87565b5f5f5f60408486031215613c57575f5ffd5b83356001600160401b03811115613c6c575f5ffd5b613c78868287016138b6565b9094509250506020840135613c8c81613839565b809150509250925092565b602080825282518282018190525f918401906040840190835b818110156138ab57613ce083855180516001600160a01b0316825260208082015190830152604090810151910152565b6020939093019260609290920191600101613cb0565b5f60208284031215613d06575f5ffd5b5035919050565b5f5f5f60608486031215613d1f575f5ffd5b8335613d2a81613839565b95602085013595506040909401359392505050565b634e487b7160e01b5f52604160045260245ffd5b604051601f8201601f191681016001600160401b0381118282101715613d7b57613d7b613d3f565b604052919050565b5f60208284031215613d93575f5ffd5b81516001600160401b03811115613da8575f5ffd5b8201601f81018413613db8575f5ffd5b80516001600160401b03811115613dd157613dd1613d3f565b8060051b613de160208201613d53565b91825260208184018101929081019087841115613dfc575f5ffd5b6020850194505b83851015613e2a5784519250613e1883613839565b82825260209485019490910190613e03565b979650505050505050565b634e487b7160e01b5f52603260045260245ffd5b5f60208284031215613e59575f5ffd5b8151611f2781613839565b634e487b7160e01b5f52601160045260245ffd5b5f60018201613e8957613e89613e64565b5060010190565b5f60208284031215613ea0575f5ffd5b5051919050565b8082018082111561121d5761121d613e64565b80518015158114613ec9575f5ffd5b919050565b5f60208284031215613ede575f5ffd5b611f2782613eba565b805160ff81168114613ec9575f5ffd5b5f5f5f5f60808587031215613f0a575f5ffd5b613f1385613eba565b93506020850151613f2381613839565b9250613f3160408601613ee7565b9150606085015162ffffff81168114613f48575f5ffd5b939692955090935050565b805169ffffffffffffffffffff81168114613ec9575f5ffd5b5f5f5f5f5f60a08688031215613f80575f5ffd5b613f8986613f53565b60208701516040880151606089015192975090955093509150613fae60808701613f53565b90509295509295909350565b634e487b7160e01b5f52601260045260245ffd5b5f6060828403128015613fdf575f5ffd5b50604051606081016001600160401b038111828210171561400257614002613d3f565b6040528251815261401560208401613eba565b602082015261402660408401613eba565b60408201529392505050565b5f5f60408385031215614043575f5ffd5b505080516020909101519092909150565b5f60208284031215614064575f5ffd5b611f2782613ee7565b5f600160ff1b820161408157614081613e64565b505f0390565b5f826140a157634e487b7160e01b5f52601260045260245ffd5b500490565b6001815b60018411156113cb578085048111156140c5576140c5613e64565b60018416156140d357908102905b60019390931c9280026140aa565b5f826140ef5750600161121d565b816140fb57505f61121d565b8160018114614111576002811461411b57614137565b600191505061121d565b60ff84111561412c5761412c613e64565b50506001821b61121d565b5060208310610133831016604e8410600b841016171561415a575081810a61121d565b6141665f1984846140a6565b805f190482111561417957614179613e64565b029392505050565b5f611f2783836140e1565b808202811582820484141761121d5761121d613e64565b8181038181111561121d5761121d613e64565b8082018281125f8312801582168215821617156106d2576106d2613e64565b5f816141e3576141e3613e64565b505f190190565b5f5f5f606084860312156141fc575f5ffd5b61420584613eba565b925061421360208501613eba565b915061422160408501613eba565b9050925092509256fea2646970667358221220e207ed717ae0e73982e9c138bfce06abcea2057b9ebe4d79b9586c45e498e7b864736f6c634300081c0033","linkReferences":{}},"methodIdentifiers":{"CAP_BUFFER_BPS()":"45a7a9b3","ORACLE_MANAGER()":"d24bc1a4","USD_THRESHOLD()":"c1a0a952","centralRegistry()":"8f73dcfa","getOptimizerAPY(address)":"9e26ba99","getOptimizerMarketData(address[])":"4be8ed5a","getOptimizerUserData(address[],address)":"6197cadb","isBad(address)":"07600536","multiIsBadCheck(address[])":"17c39e16","optimalRebalance(address,uint256,uint256)":"d2f00c88","optimalRebalanceWithIncentives(address,uint256,uint256,uint256[])":"4a5aa334","setStalenessMultiplier(uint256)":"c04fe890","stalenessMultiplierBps()":"acc77ad3"},"id":131}