{"abi":[{"type":"function","name":"getOptimizerAPY","inputs":[{"name":"optimizer","type":"address","internalType":"address"}],"outputs":[{"name":"apy","type":"uint256","internalType":"uint256"}],"stateMutability":"view"},{"type":"function","name":"getOptimizerMarketData","inputs":[{"name":"optimizers","type":"address[]","internalType":"address[]"}],"outputs":[{"name":"data","type":"tuple[]","internalType":"struct OptimizerReader.OptimizerMarketData[]","components":[{"name":"_address","type":"address","internalType":"address"},{"name":"asset","type":"address","internalType":"address"},{"name":"totalAssets","type":"uint256","internalType":"uint256"},{"name":"markets","type":"tuple[]","internalType":"struct OptimizerReader.OptimizerCTokenData[]","components":[{"name":"_address","type":"address","internalType":"address"},{"name":"allocatedAssets","type":"uint256","internalType":"uint256"},{"name":"liquidity","type":"uint256","internalType":"uint256"}]},{"name":"totalLiquidity","type":"uint256","internalType":"uint256"},{"name":"sharePrice","type":"uint256","internalType":"uint256"},{"name":"performanceFee","type":"uint256","internalType":"uint256"}]}],"stateMutability":"nonpayable"},{"type":"function","name":"getOptimizerUserData","inputs":[{"name":"optimizers","type":"address[]","internalType":"address[]"},{"name":"account","type":"address","internalType":"address"}],"outputs":[{"name":"data","type":"tuple[]","internalType":"struct OptimizerReader.OptimizerUserData[]","components":[{"name":"_address","type":"address","internalType":"address"},{"name":"shareBalance","type":"uint256","internalType":"uint256"},{"name":"redeemable","type":"uint256","internalType":"uint256"}]}],"stateMutability":"view"},{"type":"function","name":"optimalRebalance","inputs":[{"name":"optimizer","type":"address","internalType":"address"},{"name":"slippageBps","type":"uint256","internalType":"uint256"}],"outputs":[{"name":"actions","type":"tuple[]","internalType":"struct LendingOptimizer.ReallocationAction[]","components":[{"name":"cToken","type":"address","internalType":"contract IBorrowableCToken"},{"name":"assetsOrBps","type":"int256","internalType":"int256"}]},{"name":"bounds","type":"tuple[]","internalType":"struct LendingOptimizer.AllocationBound[]","components":[{"name":"cToken","type":"address","internalType":"address"},{"name":"minBps","type":"uint256","internalType":"uint256"},{"name":"maxBps","type":"uint256","internalType":"uint256"}]}],"stateMutability":"view"}],"bytecode":{"object":"0x6080604052348015600e575f5ffd5b506120178061001c5f395ff3fe608060405234801561000f575f5ffd5b506004361061004a575f3560e01c80634be8ed5a1461004e5780636197cadb146100775780639e26ba9914610097578063bd5ee7f2146100b8575b5f5ffd5b61006161005c366004611a96565b6100d9565b60405161006e9190611ad4565b60405180910390f35b61008a610085366004611bf8565b6106bb565b60405161006e9190611c4a565b6100aa6100a5366004611cb4565b6108b3565b60405190815260200161006e565b6100cb6100c6366004611ccf565b610b10565b60405161006e929190611cf9565b606081806001600160401b038111156100f4576100f4611db6565b60405190808252806020026020018201604052801561017157816020015b61015e6040518060e001604052805f6001600160a01b031681526020015f6001600160a01b031681526020015f8152602001606081526020015f81526020015f81526020015f81525090565b8152602001906001900390816101125790505b5091505f5b818110156106b3575f85858381811061019157610191611dca565b90506020020160208101906101a69190611cb4565b90508585838181106101ba576101ba611dca565b90506020020160208101906101cf9190611cb4565b8483815181106101e1576101e1611dca565b60200260200101515f01906001600160a01b031690816001600160a01b031681525050806001600160a01b03166338d52e0f6040518163ffffffff1660e01b8152600401602060405180830381865afa158015610240573d5f5f3e3d5ffd5b505050506040513d601f19601f820116820180604052508101906102649190611dee565b84838151811061027657610276611dca565b6020026020010151602001906001600160a01b031690816001600160a01b031681525050806001600160a01b03166301e1d1146040518163ffffffff1660e01b8152600401602060405180830381865afa1580156102d6573d5f5f3e3d5ffd5b505050506040513d601f19601f820116820180604052508101906102fa9190611e09565b84838151811061030c5761030c611dca565b60200260200101516040018181525050806001600160a01b031663f41102916040518163ffffffff1660e01b81526004016020604051808303815f875af1158015610359573d5f5f3e3d5ffd5b505050506040513d601f19601f8201168201806040525081019061037d9190611e09565b84838151811061038f5761038f611dca565b602002602001015160a0018181525050806001600160a01b031663ddca3f436040518163ffffffff1660e01b8152600401602060405180830381865afa1580156103db573d5f5f3e3d5ffd5b505050506040513d601f19601f820116820180604052508101906103ff9190611e09565b84838151811061041157610411611dca565b602002602001015160c00181815250505f816001600160a01b031663686126e06040518163ffffffff1660e01b81526004015f60405180830381865afa15801561045d573d5f5f3e3d5ffd5b505050506040513d5f823e601f3d908101601f191682016040526104849190810190611e20565b8051909150806001600160401b038111156104a1576104a1611db6565b6040519080825280602002602001820160405280156104fc57816020015b6104e960405180606001604052805f6001600160a01b031681526020015f81526020015f81525090565b8152602001906001900390816104bf5790505b5086858151811061050f5761050f611dca565b6020026020010151606001819052505f5b818110156106a4575f83828151811061053b5761053b611dca565b602002602001015190505f816001600160a01b03166307a2d13a610585848e8e8c81811061056b5761056b611dca565b90506020020160208101906105809190611cb4565b610ffb565b6040518263ffffffff1660e01b81526004016105a391815260200190565b602060405180830381865afa1580156105be573d5f5f3e3d5ffd5b505050506040513d601f19601f820116820180604052508101906105e29190611e09565b90505f6105ee8361106d565b9050604051806060016040528087868151811061060d5761060d611dca565b60200260200101516001600160a01b03168152602001838152602001828152508a898151811061063f5761063f611dca565b602002602001015160600151858151811061065c5761065c611dca565b6020026020010181905250808a898151811061067a5761067a611dca565b60200260200101516080018181516106929190611efc565b90525050600190920191506105209050565b50505050806001019050610176565b505092915050565b606082806001600160401b038111156106d6576106d6611db6565b60405190808252806020026020018201604052801561073157816020015b61071e60405180606001604052805f6001600160a01b031681526020015f81526020015f81525090565b8152602001906001900390816106f45790505b5091505f5b818110156108aa575f86868381811061075157610751611dca565b90506020020160208101906107669190611cb4565b90505f61079988888581811061077e5761077e611dca565b90506020020160208101906107939190611cb4565b87610ffb565b90508787848181106107ad576107ad611dca565b90506020020160208101906107c29190611cb4565b8584815181106107d4576107d4611dca565b60200260200101515f01906001600160a01b031690816001600160a01b0316815250508085848151811061080a5761080a611dca565b60209081029190910181015101526040516303d1689d60e11b8152600481018290526001600160a01b038316906307a2d13a90602401602060405180830381865afa15801561085b573d5f5f3e3d5ffd5b505050506040513d601f19601f8201168201806040525081019061087f9190611e09565b85848151811061089157610891611dca565b6020908102919091010151604001525050600101610736565b50509392505050565b5f5f8290505f816001600160a01b03166301e1d1146040518163ffffffff1660e01b8152600401602060405180830381865afa1580156108f5573d5f5f3e3d5ffd5b505050506040513d601f19601f820116820180604052508101906109199190611e09565b9050805f0361092b57505f9392505050565b5f826001600160a01b031663686126e06040518163ffffffff1660e01b81526004015f60405180830381865afa158015610967573d5f5f3e3d5ffd5b505050506040513d5f823e601f3d908101601f1916820160405261098e9190810190611e20565b90505f5f5b8251811015610af7575f8382815181106109af576109af611dca565b602002602001015190505f816001600160a01b03166307a2d13a6109d3848c610ffb565b6040518263ffffffff1660e01b81526004016109f191815260200190565b602060405180830381865afa158015610a0c573d5f5f3e3d5ffd5b505050506040513d601f19601f82011682018060405250810190610a309190611e09565b90505f610a3c836110d4565b6001600160a01b031663c0b36044610a538561106d565b610a5c86611135565b610a6587611172565b6040516001600160e01b031960e086901b168152600481019390935260248301919091526044820152606401602060405180830381865afa158015610aac573d5f5f3e3d5ffd5b505050506040513d601f19601f82011682018060405250810190610ad09190611e09565b9050610add8282896111af565b610ae79086611efc565b9450505050806001019050610993565b50610b06816301e13380611f0f565b9695505050505050565b6060805f846001600160a01b031663686126e06040518163ffffffff1660e01b81526004015f60405180830381865afa158015610b4f573d5f5f3e3d5ffd5b505050506040513d5f823e601f3d908101601f19168201604052610b769190810190611e20565b905080516001600160401b03811115610b9157610b91611db6565b604051908082528060200260200182016040528015610bd557816020015b604080518082019091525f8082526020820152815260200190600190039081610baf5790505b50925080516001600160401b03811115610bf157610bf1611db6565b604051908082528060200260200182016040528015610c4c57816020015b610c3960405180606001604052805f6001600160a01b031681526020015f81526020015f81525090565b815260200190600190039081610c0f5790505b50915080515f03610c5d5750610ff4565b6060806060610c6c88856111d3565b8095508193508294505050505f886001600160a01b03166301e1d1146040518163ffffffff1660e01b8152600401602060405180830381865afa158015610cb5573d5f5f3e3d5ffd5b505050506040513d601f19601f82011682018060405250810190610cd99190611e09565b90505f5b8551811015610fed57828181518110610cf857610cf8611dca565b6020026020010151848281518110610d1257610d12611dca565b60200260200101511115610db6576040518060400160405280878381518110610d3d57610d3d611dca565b60200260200101516001600160a01b03168152602001848381518110610d6557610d65611dca565b6020026020010151868481518110610d7f57610d7f611dca565b6020026020010151610d919190611f26565b815250888281518110610da657610da6611dca565b6020026020010181905250610ebf565b838181518110610dc857610dc8611dca565b6020026020010151838281518110610de257610de2611dca565b60200260200101511115610e6a576040518060400160405280878381518110610e0d57610e0d611dca565b60200260200101516001600160a01b03168152602001858381518110610e3557610e35611dca565b6020026020010151858481518110610e4f57610e4f611dca565b6020026020010151610e619190611f26565b610d9190611f39565b6040518060400160405280878381518110610e8757610e87611dca565b60200260200101516001600160a01b031681526020015f815250888281518110610eb357610eb3611dca565b60200260200101819052505b8115610f88575f610eec858381518110610edb57610edb611dca565b6020026020010151612710856111af565b90506040518060600160405280888481518110610f0b57610f0b611dca565b60200260200101516001600160a01b031681526020018b8311610f2e575f610f38565b610f388c84611f26565b8152602001612710610f4a8d85611efc565b11610f5e57610f598c84611efc565b610f62565b6127105b815250888381518110610f7757610f77611dca565b602002602001018190525050610fe5565b6040518060600160405280878381518110610fa557610fa5611dca565b60200260200101516001600160a01b031681526020015f8152602001612710815250878281518110610fd957610fd9611dca565b60200260200101819052505b600101610cdd565b5050505050505b9250929050565b6040516370a0823160e01b81526001600160a01b0382811660048301525f91908416906370a0823190602401602060405180830381865afa158015611042573d5f5f3e3d5ffd5b505050506040513d601f19601f820116820180604052508101906110669190611e09565b9392505050565b5f816001600160a01b03166387367d716040518163ffffffff1660e01b8152600401602060405180830381865afa1580156110aa573d5f5f3e3d5ffd5b505050506040513d601f19601f820116820180604052508101906110ce9190611e09565b92915050565b5f816001600160a01b0316631e75db166040518163ffffffff1660e01b8152600401602060405180830381865afa158015611111573d5f5f3e3d5ffd5b505050506040513d601f19601f820116820180604052508101906110ce9190611dee565b5f816001600160a01b031663635d97716040518163ffffffff1660e01b8152600401602060405180830381865afa1580156110aa573d5f5f3e3d5ffd5b5f816001600160a01b031663a75df4986040518163ffffffff1660e01b8152600401602060405180830381865afa1580156110aa573d5f5f3e3d5ffd5b5f825f1904841183021582026111cc5763ad251c275f526004601cfd5b5091020490565b60608060605f84519050806001600160401b038111156111f5576111f5611db6565b60405190808252806020026020018201604052801561121e578160200160208202803683370190505b509350806001600160401b0381111561123957611239611db6565b604051908082528060200260200182016040528015611262578160200160208202803683370190505b509250806001600160401b0381111561127d5761127d611db6565b6040519080825280602002602001820160405280156112e457816020015b6112d16040518060a001604052805f81526020015f81526020015f81526020015f81526020015f6001600160a01b031681525090565b81526020019060019003908161129b5790505b5091505f5f5b82811015611496575f87828151811061130557611305611dca565b602002602001015190505f816001600160a01b03166307a2d13a611329848d610ffb565b6040518263ffffffff1660e01b815260040161134791815260200190565b602060405180830381865afa158015611362573d5f5f3e3d5ffd5b505050506040513d601f19601f820116820180604052508101906113869190611e09565b90508087848151811061139b5761139b611dca565b60209081029190910101526113b08185611efc565b93505f6113bc8361106d565b90508181116113cb575f6113d5565b6113d58282611f26565b8785815181106113e7576113e7611dca565b6020908102919091010151526113fc83611135565b87858151811061140e5761140e611dca565b6020026020010151602001818152505061142783611172565b87858151811061143957611439611dca565b60200260200101516040018181525050611452836110d4565b87858151811061146457611464611dca565b6020026020010151608001906001600160a01b031690816001600160a01b0316815250505050508060010190506112ea565b50805f036114a557505061199d565b5f87815b84811015611751575f8782815181106114c4576114c4611dca565b6020026020010151905061157385846001600160a01b031663f4c4a6138d86815181106114f3576114f3611dca565b60200260200101516040518263ffffffff1660e01b815260040161152691906001600160a01b0391909116815260200190565b602060405180830381865afa158015611541573d5f5f3e3d5ffd5b505050506040513d601f19601f820116820180604052508101906115659190611e09565b670de0b6b3a76400006111af565b87838151811061158557611585611dca565b602002602001015160600181815250505f6115b88b84815181106115ab576115ab611dca565b60200260200101516119a4565b9050806001600160a01b031663b235d4686040518163ffffffff1660e01b8152600401602060405180830381865afa1580156115f6573d5f5f3e3d5ffd5b505050506040513d601f19601f8201168201806040525081019061161a9190611f53565b60ff16600203611709578188848151811061163757611637611dca565b60200260200101515f0181815161164e9190611efc565b90525061165b8286611efc565b9450818a848151811061167057611670611dca565b60200260200101818152505061169f8b848151811061169157611691611dca565b6020026020010151826119e1565b156116cc57818884815181106116b7576116b7611dca565b60200260200101516060018181525050611747565b818884815181106116df576116df611dca565b602002602001015160600151101561170457818884815181106116b7576116b7611dca565b611747565b61171e8b848151811061169157611691611dca565b15611747575f88848151811061173657611736611dca565b602002602001015160600181815250505b50506001016114a9565b5061175e90508183611f26565b91505f61176c601484611f73565b90505f5b6014811015611997575f81601314611788578261179d565b611793836013611f0f565b61179d9086611f26565b9050805f036117ac575061198f565b5f5f5f5f5b89811015611928578a81815181106117cb576117cb611dca565b602002602001015160600151858e83815181106117ea576117ea611dca565b60200260200101516117fc9190611efc565b11611920575f8b828151811061181457611814611dca565b6020026020010151608001516001600160a01b031663c0b36044878e858151811061184157611841611dca565b60200260200101515f01516118569190611efc565b8e858151811061186857611868611dca565b6020026020010151602001518f868151811061188657611886611dca565b6020026020010151604001516040518463ffffffff1660e01b81526004016118c1939291909283526020830191909152604082015260600190565b602060405180830381865afa1580156118dc573d5f5f3e3d5ffd5b505050506040513d601f19601f820116820180604052508101906119009190611e09565b905082158061190e57508481115b1561191e57809450819350600192505b505b6001016117b1565b50801561198a57838c838151811061194257611942611dca565b602002602001018181516119569190611efc565b905250895184908b908490811061196f5761196f611dca565b60200260200101515f018181516119869190611efc565b9052505b505050505b600101611770565b50505050505b9250925092565b5f816001600160a01b03166341ed2c126040518163ffffffff1660e01b8152600401602060405180830381865afa158015611111573d5f5f3e3d5ffd5b60405163699ba8b360e01b81526001600160a01b0383811660048301525f919083169063699ba8b390602401606060405180830381865afa158015611a28573d5f5f3e3d5ffd5b505050506040513d601f19601f82011682018060405250810190611a4c9190611fa1565b5090949350505050565b5f5f83601f840112611a66575f5ffd5b5081356001600160401b03811115611a7c575f5ffd5b6020830191508360208260051b8501011115610ff4575f5ffd5b5f5f60208385031215611aa7575f5ffd5b82356001600160401b03811115611abc575f5ffd5b611ac885828601611a56565b90969095509350505050565b5f602082016020835280845180835260408501915060408160051b8601019250602086015f5b82811015611bd557868503603f19018452815180516001600160a01b039081168752602080830151909116818801526040808301519088015260608083015160e09189018290528051918901829052909101905f906101008901905b80831015611b9d57611b8682855180516001600160a01b0316825260208082015190830152604090810151910152565b606082019150602084019350600183019250611b56565b50608084810151908a015260a080850151908a015260c093840151939098019290925250506020938401939190910190600101611afa565b50929695505050505050565b6001600160a01b0381168114611bf5575f5ffd5b50565b5f5f5f60408486031215611c0a575f5ffd5b83356001600160401b03811115611c1f575f5ffd5b611c2b86828701611a56565b9094509250506020840135611c3f81611be1565b809150509250925092565b602080825282518282018190525f918401906040840190835b81811015611ca957611c9383855180516001600160a01b0316825260208082015190830152604090810151910152565b6020939093019260609290920191600101611c63565b509095945050505050565b5f60208284031215611cc4575f5ffd5b813561106681611be1565b5f5f60408385031215611ce0575f5ffd5b8235611ceb81611be1565b946020939093013593505050565b604080825283519082018190525f9060208501906060840190835b81811015611d4757835180516001600160a01b031684526020908101518185015290930192604090920191600101611d14565b5050838103602080860191909152855180835291810192508501905f5b81811015611daa57611d9484845180516001600160a01b0316825260208082015190830152604090810151910152565b6060939093019260209290920191600101611d64565b50919695505050505050565b634e487b7160e01b5f52604160045260245ffd5b634e487b7160e01b5f52603260045260245ffd5b8051611de981611be1565b919050565b5f60208284031215611dfe575f5ffd5b815161106681611be1565b5f60208284031215611e19575f5ffd5b5051919050565b5f60208284031215611e30575f5ffd5b81516001600160401b03811115611e45575f5ffd5b8201601f81018413611e55575f5ffd5b80516001600160401b03811115611e6e57611e6e611db6565b8060051b604051601f19603f83011681018181106001600160401b0382111715611e9a57611e9a611db6565b604052918252602081840181019290810187841115611eb7575f5ffd5b6020850194505b83851015611edd57611ecf85611dde565b815260209485019401611ebe565b509695505050505050565b634e487b7160e01b5f52601160045260245ffd5b808201808211156110ce576110ce611ee8565b80820281158282048414176110ce576110ce611ee8565b818103818111156110ce576110ce611ee8565b5f600160ff1b8201611f4d57611f4d611ee8565b505f0390565b5f60208284031215611f63575f5ffd5b815160ff81168114611066575f5ffd5b5f82611f8d57634e487b7160e01b5f52601260045260245ffd5b500490565b80518015158114611de9575f5ffd5b5f5f5f60608486031215611fb3575f5ffd5b611fbc84611f92565b9250611fca60208501611f92565b9150611fd860408501611f92565b9050925092509256fea26469706673582212201150f954fc03b020963948c3a15237d0e4e843db4ff4512f4f74463750ec445364736f6c634300081c0033","linkReferences":{}},"methodIdentifiers":{"getOptimizerAPY(address)":"9e26ba99","getOptimizerMarketData(address[])":"4be8ed5a","getOptimizerUserData(address[],address)":"6197cadb","optimalRebalance(address,uint256)":"bd5ee7f2"},"id":209}