{"abi":[{"type":"constructor","inputs":[{"name":"_centralRegistry","type":"address","internalType":"contract ICentralRegistry"},{"name":"_stalenessMultiplier","type":"uint256","internalType":"uint256"}],"stateMutability":"nonpayable"},{"type":"function","name":"CAP_BUFFER_BPS","inputs":[],"outputs":[{"name":"","type":"uint256","internalType":"uint256"}],"stateMutability":"view"},{"type":"function","name":"ORACLE_MANAGER","inputs":[],"outputs":[{"name":"","type":"address","internalType":"contract IOracleManager"}],"stateMutability":"view"},{"type":"function","name":"REBALANCE_CHUNKS","inputs":[],"outputs":[{"name":"","type":"uint256","internalType":"uint256"}],"stateMutability":"view"},{"type":"function","name":"USD_THRESHOLD","inputs":[],"outputs":[{"name":"","type":"uint256","internalType":"uint256"}],"stateMutability":"view"},{"type":"function","name":"assetsAtTimestamp","inputs":[{"name":"account","type":"address","internalType":"address"},{"name":"cToken","type":"address","internalType":"address"},{"name":"timestamp","type":"uint256","internalType":"uint256"}],"outputs":[{"name":"assets","type":"uint256","internalType":"uint256"}],"stateMutability":"view"},{"type":"function","name":"centralRegistry","inputs":[],"outputs":[{"name":"","type":"address","internalType":"contract ICentralRegistry"}],"stateMutability":"view"},{"type":"function","name":"getOptimizerAPY","inputs":[{"name":"optimizer","type":"address","internalType":"address"}],"outputs":[{"name":"apy","type":"uint256","internalType":"uint256"}],"stateMutability":"view"},{"type":"function","name":"getOptimizerMarketData","inputs":[{"name":"optimizers","type":"address[]","internalType":"address[]"}],"outputs":[{"name":"data","type":"tuple[]","internalType":"struct OptimizerReader.OptimizerMarketData[]","components":[{"name":"_address","type":"address","internalType":"address"},{"name":"asset","type":"address","internalType":"address"},{"name":"totalAssets","type":"uint256","internalType":"uint256"},{"name":"markets","type":"tuple[]","internalType":"struct OptimizerReader.OptimizerCTokenData[]","components":[{"name":"_address","type":"address","internalType":"address"},{"name":"allocatedAssets","type":"uint256","internalType":"uint256"},{"name":"liquidity","type":"uint256","internalType":"uint256"},{"name":"allocationCap","type":"uint256","internalType":"uint256"},{"name":"allocationCapUtilizationBps","type":"uint256","internalType":"uint256"}]},{"name":"totalLiquidity","type":"uint256","internalType":"uint256"},{"name":"sharePrice","type":"uint256","internalType":"uint256"},{"name":"performanceFee","type":"uint256","internalType":"uint256"},{"name":"apy","type":"uint256","internalType":"uint256"}]}],"stateMutability":"view"},{"type":"function","name":"getOptimizerUserData","inputs":[{"name":"optimizers","type":"address[]","internalType":"address[]"},{"name":"account","type":"address","internalType":"address"}],"outputs":[{"name":"data","type":"tuple[]","internalType":"struct OptimizerReader.OptimizerUserData[]","components":[{"name":"_address","type":"address","internalType":"address"},{"name":"shareBalance","type":"uint256","internalType":"uint256"},{"name":"redeemable","type":"uint256","internalType":"uint256"}]}],"stateMutability":"view"},{"type":"function","name":"isBad","inputs":[{"name":"optimizer","type":"address","internalType":"address"}],"outputs":[{"name":"bad","type":"address[]","internalType":"address[]"}],"stateMutability":"view"},{"type":"function","name":"multiIsBadCheck","inputs":[{"name":"optimizers","type":"address[]","internalType":"address[]"}],"outputs":[{"name":"badOptimizers","type":"address[][]","internalType":"address[][]"}],"stateMutability":"view"},{"type":"function","name":"optimalRebalance","inputs":[{"name":"optimizer","type":"address","internalType":"address"},{"name":"slippageBps","type":"uint256","internalType":"uint256"}],"outputs":[{"name":"actions","type":"tuple[]","internalType":"struct LendingOptimizer.ReallocationAction[]","components":[{"name":"cToken","type":"address","internalType":"contract IBorrowableCToken"},{"name":"assetsOrBps","type":"int256","internalType":"int256"}]},{"name":"bounds","type":"tuple[]","internalType":"struct LendingOptimizer.AllocationBound[]","components":[{"name":"cToken","type":"address","internalType":"address"},{"name":"minBps","type":"uint256","internalType":"uint256"},{"name":"maxBps","type":"uint256","internalType":"uint256"}]}],"stateMutability":"view"},{"type":"function","name":"optimalRebalanceAt","inputs":[{"name":"optimizer","type":"address","internalType":"address"},{"name":"slippageBps","type":"uint256","internalType":"uint256"},{"name":"timestamp","type":"uint256","internalType":"uint256"}],"outputs":[{"name":"actions","type":"tuple[]","internalType":"struct LendingOptimizer.ReallocationAction[]","components":[{"name":"cToken","type":"address","internalType":"contract IBorrowableCToken"},{"name":"assetsOrBps","type":"int256","internalType":"int256"}]},{"name":"bounds","type":"tuple[]","internalType":"struct LendingOptimizer.AllocationBound[]","components":[{"name":"cToken","type":"address","internalType":"address"},{"name":"minBps","type":"uint256","internalType":"uint256"},{"name":"maxBps","type":"uint256","internalType":"uint256"}]}],"stateMutability":"view"},{"type":"function","name":"setStalenessMultiplier","inputs":[{"name":"newMultiplierBps","type":"uint256","internalType":"uint256"}],"outputs":[],"stateMutability":"nonpayable"},{"type":"function","name":"stalenessMultiplierBps","inputs":[],"outputs":[{"name":"","type":"uint256","internalType":"uint256"}],"stateMutability":"view"},{"type":"event","name":"StalenessMultiplierUpdated","inputs":[{"name":"oldMultiplier","type":"uint256","indexed":false,"internalType":"uint256"},{"name":"newMultiplier","type":"uint256","indexed":false,"internalType":"uint256"}],"anonymous":false},{"type":"error","name":"OptimizerReader__InvalidMultiplier","inputs":[]},{"type":"error","name":"OptimizerReader__Unauthorized","inputs":[]}],"bytecode":{"object":"0x60c060405234801561000f575f5ffd5b5060405161476e38038061476e83398101604081905261002e916100c5565b6001600160a01b03821660a08190526040805163159761e360e21b8152905163565d878c916004808201926020929091908290030181865afa158015610076573d5f5f3e3d5ffd5b505050506040513d601f19601f8201168201806040525081019061009a91906100f1565b6001600160a01b03166080525f5550610113565b6001600160a01b03811681146100c2575f5ffd5b50565b5f5f604083850312156100d6575f5ffd5b82516100e1816100ae565b6020939093015192949293505050565b5f60208284031215610101575f5ffd5b815161010c816100ae565b9392505050565b60805160a0516146176101575f395f81816101d40152818161109701526113e901525f818161026601528181611573015281816117280152611b0301526146175ff3fe608060405234801561000f575f5ffd5b50600436106100f0575f3560e01c806377518b4411610093578063bd5ee7f211610063578063bd5ee7f214610229578063c04fe8901461023c578063c1a0a95214610251578063d24bc1a414610261575f5ffd5b806377518b44146101bc5780638f73dcfa146101cf5780639e26ba991461020e578063acc77ad314610221575f5ffd5b80633efa4d72116100ce5780633efa4d721461015357806345a7a9b3146101745780634be8ed5a1461017c5780636197cadb1461019c575f5ffd5b806307600536146100f4578063137c1b9f1461011d57806317c39e1614610133575b5f5ffd5b610107610102366004613c0f565b610288565b6040516101149190613c2a565b60405180910390f35b610125606481565b604051908152602001610114565b610146610141366004613cbc565b6105fd565b6040516101149190613cee565b610166610161366004613d83565b61071a565b604051610114929190613db5565b610125600581565b61018f61018a366004613cbc565b610734565b6040516101149190613ee2565b6101af6101aa366004613f9e565b610e61565b6040516101149190613ff0565b6101256101ca36600461404f565b611059565b6101f67f000000000000000000000000000000000000000000000000000000000000000081565b6040516001600160a01b039091168152602001610114565b61012561021c366004613c0f565b61115e565b6101255f5481565b61016661023736600461408d565b6113bb565b61024f61024a3660046140b7565b6113d4565b005b61012568056bc75e2d6310000081565b6101f67f000000000000000000000000000000000000000000000000000000000000000081565b60605f826001600160a01b031663686126e06040518163ffffffff1660e01b81526004015f60405180830381865afa1580156102c6573d5f5f3e3d5ffd5b505050506040513d5f823e601f3d908101601f191682016040526102ed9190810190614112565b80519091505f816001600160401b0381111561030b5761030b6140ce565b604051908082528060200260200182016040528015610334578160200160208202803683370190505b505f805491925090815b84811015610557575f61036987838151811061035c5761035c6141b9565b60200260200101516114e9565b90505f816001600160a01b031663afbe407a6040518163ffffffff1660e01b81526004015f60405180830381865afa1580156103a7573d5f5f3e3d5ffd5b505050506040513d5f823e601f3d908101601f191682016040526103ce9190810190614112565b90505f5f5b82518110156104e9578985815181106103ee576103ee6141b9565b60200260200101516001600160a01b0316838281518110610411576104116141b9565b60200260200101516001600160a01b031603156104e1575f83828151811061043b5761043b6141b9565b60200260200101516001600160a01b03166338d52e0f6040518163ffffffff1660e01b8152600401602060405180830381865afa15801561047e573d5f5f3e3d5ffd5b505050506040513d601f19601f820116820180604052508101906104a291906141cd565b90505f871180156104b857506104b88188611550565b156104c75760019250506104e9565b6104d081611705565b156104df5760019250506104e9565b505b6001016103d3565b50801561054957888481518110610502576105026141b9565b6020026020010151878780610516906141fc565b985081518110610528576105286141b9565b60200260200101906001600160a01b031690816001600160a01b0316815250505b50505080600101905061033e565b50816001600160401b03811115610570576105706140ce565b604051908082528060200260200182016040528015610599578160200160208202803683370190505b5095505f5b828110156105f2578381815181106105b8576105b86141b9565b60200260200101518782815181106105d2576105d26141b9565b6001600160a01b039092166020928302919091019091015260010161059e565b505050505050919050565b606081806001600160401b03811115610618576106186140ce565b60405190808252806020026020018201604052801561064b57816020015b60608152602001906001900390816106365790505b5091505f5b8181101561071257306307600536868684818110610670576106706141b9565b90506020020160208101906106859190613c0f565b6040516001600160e01b031960e084901b1681526001600160a01b0390911660048201526024015f60405180830381865afa1580156106c6573d5f5f3e3d5ffd5b505050506040513d5f823e601f3d908101601f191682016040526106ed9190810190614112565b8382815181106106ff576106ff6141b9565b6020908102919091010152600101610650565b505092915050565b606080610728858585611834565b90969095509350505050565b606081806001600160401b0381111561074f5761074f6140ce565b6040519080825280602002602001820160405280156107d357816020015b6107c06040518061010001604052805f6001600160a01b031681526020015f6001600160a01b031681526020015f8152602001606081526020015f81526020015f81526020015f81526020015f81525090565b81526020019060019003908161076d5790505b5091505f5b81811015610712575f8585838181106107f3576107f36141b9565b90506020020160208101906108089190613c0f565b905085858381811061081c5761081c6141b9565b90506020020160208101906108319190613c0f565b848381518110610843576108436141b9565b60200260200101515f01906001600160a01b031690816001600160a01b031681525050806001600160a01b03166338d52e0f6040518163ffffffff1660e01b8152600401602060405180830381865afa1580156108a2573d5f5f3e3d5ffd5b505050506040513d601f19601f820116820180604052508101906108c691906141cd565b8483815181106108d8576108d86141b9565b6020026020010151602001906001600160a01b031690816001600160a01b031681525050806001600160a01b03166301e1d1146040518163ffffffff1660e01b8152600401602060405180830381865afa158015610938573d5f5f3e3d5ffd5b505050506040513d601f19601f8201168201806040525081019061095c9190614214565b84838151811061096e5761096e6141b9565b60200260200101516040018181525050806001600160a01b0316633ba0b9a96040518163ffffffff1660e01b8152600401602060405180830381865afa1580156109ba573d5f5f3e3d5ffd5b505050506040513d601f19601f820116820180604052508101906109de9190614214565b8483815181106109f0576109f06141b9565b602002602001015160a0018181525050806001600160a01b031663ddca3f436040518163ffffffff1660e01b8152600401602060405180830381865afa158015610a3c573d5f5f3e3d5ffd5b505050506040513d601f19601f82011682018060405250810190610a609190614214565b848381518110610a7257610a726141b9565b602002602001015160c0018181525050610aac868684818110610a9757610a976141b9565b905060200201602081019061021c9190613c0f565b848381518110610abe57610abe6141b9565b602002602001015160e00181815250505f816001600160a01b031663686126e06040518163ffffffff1660e01b81526004015f60405180830381865afa158015610b0a573d5f5f3e3d5ffd5b505050506040513d5f823e601f3d908101601f19168201604052610b319190810190614112565b8051909150806001600160401b03811115610b4e57610b4e6140ce565b604051908082528060200260200182016040528015610bb557816020015b610ba26040518060a001604052805f6001600160a01b031681526020015f81526020015f81526020015f81526020015f81525090565b815260200190600190039081610b6c5790505b50868581518110610bc857610bc86141b9565b6020026020010151606001819052505f5b81811015610e52575f838281518110610bf457610bf46141b9565b602002602001015190505f816001600160a01b03166307a2d13a610c3e848e8e8c818110610c2457610c246141b9565b9050602002016020810190610c399190613c0f565b611d30565b6040518263ffffffff1660e01b8152600401610c5c91815260200190565b602060405180830381865afa158015610c77573d5f5f3e3d5ffd5b505050506040513d601f19601f82011682018060405250810190610c9b9190614214565b90505f610ca783611d9b565b90505f876001600160a01b031663f4c4a613888781518110610ccb57610ccb6141b9565b60200260200101516040518263ffffffff1660e01b8152600401610cfe91906001600160a01b0391909116815260200190565b602060405180830381865afa158015610d19573d5f5f3e3d5ffd5b505050506040513d601f19601f82011682018060405250810190610d3d9190614214565b90505f610d708c8b81518110610d5557610d556141b9565b60200260200101516040015183670de0b6b3a7640000611dfc565b90505f8115610d8b57610d868561271084611dfc565b610d8d565b5f5b90506040518060a001604052808a8981518110610dac57610dac6141b9565b60200260200101516001600160a01b03168152602001868152602001858152602001848152602001828152508d8c81518110610dea57610dea6141b9565b6020026020010151606001518881518110610e0757610e076141b9565b6020026020010181905250838d8c81518110610e2557610e256141b9565b6020026020010151608001818151610e3d919061422b565b9052505060019095019450610bd99350505050565b505050508060010190506107d8565b606082806001600160401b03811115610e7c57610e7c6140ce565b604051908082528060200260200182016040528015610ed757816020015b610ec460405180606001604052805f6001600160a01b031681526020015f81526020015f81525090565b815260200190600190039081610e9a5790505b5091505f5b81811015611050575f868683818110610ef757610ef76141b9565b9050602002016020810190610f0c9190613c0f565b90505f610f3f888885818110610f2457610f246141b9565b9050602002016020810190610f399190613c0f565b87611d30565b9050878784818110610f5357610f536141b9565b9050602002016020810190610f689190613c0f565b858481518110610f7a57610f7a6141b9565b60200260200101515f01906001600160a01b031690816001600160a01b03168152505080858481518110610fb057610fb06141b9565b60209081029190910181015101526040516303d1689d60e11b8152600481018290526001600160a01b038316906307a2d13a90602401602060405180830381865afa158015611001573d5f5f3e3d5ffd5b505050506040513d601f19601f820116820180604052508101906110259190614214565b858481518110611037576110376141b9565b6020908102919091010151604001525050600101610edc565b50509392505050565b5f82816110668285611e20565b90505f6110738688611d30565b90508015801561108557506080820151155b15611095575f9350505050611157565b7f00000000000000000000000000000000000000000000000000000000000000006001600160a01b0316632131c68c6040518163ffffffff1660e01b8152600401602060405180830381865afa1580156110f1573d5f5f3e3d5ffd5b505050506040513d601f19601f8201168201806040525081019061111591906141cd565b6001600160a01b0316876001600160a01b03160361113f57608082015161113c908261422b565b90505b61115181835f01518460200151612180565b93505050505b9392505050565b5f5f8290505f816001600160a01b03166301e1d1146040518163ffffffff1660e01b8152600401602060405180830381865afa1580156111a0573d5f5f3e3d5ffd5b505050506040513d601f19601f820116820180604052508101906111c49190614214565b9050805f036111d657505f9392505050565b5f826001600160a01b031663686126e06040518163ffffffff1660e01b81526004015f60405180830381865afa158015611212573d5f5f3e3d5ffd5b505050506040513d5f823e601f3d908101601f191682016040526112399190810190614112565b90505f5f5b82518110156113a2575f83828151811061125a5761125a6141b9565b602002602001015190505f816001600160a01b03166307a2d13a61127e848c611d30565b6040518263ffffffff1660e01b815260040161129c91815260200190565b602060405180830381865afa1580156112b7573d5f5f3e3d5ffd5b505050506040513d601f19601f820116820180604052508101906112db9190614214565b90505f6112e7836121a1565b6001600160a01b031663c0b360446112fe85611d9b565b611307866121de565b6113108761221b565b6040516001600160e01b031960e086901b168152600481019390935260248301919091526044820152606401602060405180830381865afa158015611357573d5f5f3e3d5ffd5b505050506040513d601f19601f8201168201806040525081019061137b9190614214565b9050611388828289611dfc565b611392908661422b565b945050505080600101905061123e565b506113b1816301e1338061423e565b9695505050505050565b6060806113c9848442611834565b909590945092505050565b60405163de0c7a7160e01b81523360048201527f00000000000000000000000000000000000000000000000000000000000000006001600160a01b03169063de0c7a7190602401602060405180830381865afa158015611436573d5f5f3e3d5ffd5b505050506040513d601f19601f8201168201806040525081019061145a9190614269565b611477576040516348b7eb3b60e11b815260040160405180910390fd5b8015801590611487575061271081105b156114a55760405163014576d960e11b815260040160405180910390fd5b5f80549082905560408051828152602081018490527f45743f1778a40227cb785331fb7d115a568ee8655b31f131a8b62decdb93f249910160405180910390a15050565b5f816001600160a01b03166341ed2c126040518163ffffffff1660e01b8152600401602060405180830381865afa158015611526573d5f5f3e3d5ffd5b505050506040513d601f19601f8201168201806040525081019061154a91906141cd565b92915050565b6040516346b7ddcf60e11b81526001600160a01b0383811660048301525f9182917f00000000000000000000000000000000000000000000000000000000000000001690638d6fbb9e906024015f60405180830381865afa1580156115b7573d5f5f3e3d5ffd5b505050506040513d5f823e601f3d908101601f191682016040526115de9190810190614112565b90505f5f825f815181106115f4576115f46141b9565b60209081029190910101516040516305145fb560e31b81526001600160a01b03888116600483015260016024830152909116906328a2fda890604401608060405180830381865afa15801561164b573d5f5f3e3d5ffd5b505050506040513d601f19601f8201168201806040525081019061166f9190614292565b9350509250505f826001600160a01b031663feaf968c6040518163ffffffff1660e01b815260040160a060405180830381865afa1580156116b2573d5f5f3e3d5ffd5b505050506040513d601f19601f820116820180604052508101906116d69190614307565b509350505050612710868362ffffff1602816116f4576116f4614355565b048142031194505050505092915050565b6040516346b7ddcf60e11b81526001600160a01b0382811660048301525f9182917f00000000000000000000000000000000000000000000000000000000000000001690638d6fbb9e906024015f60405180830381865afa15801561176c573d5f5f3e3d5ffd5b505050506040513d5f823e601f3d908101601f191682016040526117939190810190614112565b90505f815f815181106117a8576117a86141b9565b6020908102919091010151604051635ae6916360e01b81526001600160a01b038681166004830152600160248301819052604483015290911690635ae6916390606401606060405180830381865afa158015611806573d5f5f3e3d5ffd5b505050506040513d601f19601f8201168201806040525081019061182a9190614369565b5115949350505050565b6060805f856001600160a01b031663686126e06040518163ffffffff1660e01b81526004015f60405180830381865afa158015611873573d5f5f3e3d5ffd5b505050506040513d5f823e601f3d908101601f1916820160405261189a9190810190614112565b905080515f036118aa5750611d28565b6040516303b0029b60e11b81526001600160a01b03871660048201525f9030906307600536906024015f60405180830381865afa1580156118ed573d5f5f3e3d5ffd5b505050506040513d5f823e601f3d908101601f191682016040526119149190810190614112565b90506060805f6119268a86868b612258565b5090935091505f5b825181101561196657828181518110611949576119496141b9565b60200260200101518261195c919061422b565b915060010161192e565b5061197285848461299e565b611980575050505050611d28565b84516001600160401b03811115611999576119996140ce565b6040519080825280602002602001820160405280156119dd57816020015b604080518082019091525f80825260208201528152602001906001900390816119b75790505b50965084516001600160401b038111156119f9576119f96140ce565b604051908082528060200260200182016040528015611a5457816020015b611a4160405180606001604052805f6001600160a01b031681526020015f81526020015f81525090565b815260200190600190039081611a175790505b509550611a66858484848d8c8c612fcd565b83515f03611d22575f8a6001600160a01b03166338d52e0f6040518163ffffffff1660e01b8152600401602060405180830381865afa158015611aab573d5f5f3e3d5ffd5b505050506040513d601f19601f82011682018060405250810190611acf91906141cd565b604051635ae6916360e01b81526001600160a01b03828116600483015260016024830181905260448301529192505f9182917f000000000000000000000000000000000000000000000000000000000000000090911690635ae69163906064016040805180830381865afa158015611b49573d5f5f3e3d5ffd5b505050506040513d601f19601f82011682018060405250810190611b6d91906143cd565b91509150805f148015611b7f57505f82115b15611d1e575f836001600160a01b031663313ce5676040518163ffffffff1660e01b8152600401602060405180830381865afa158015611bc1573d5f5f3e3d5ffd5b505050506040513d601f19601f82011682018060405250810190611be591906143ef565b60ff1690505f5f5b8c51811015611c43575f8d8281518110611c0957611c096141b9565b60200260200101516020015190505f8113611c2c57611c2781614408565b611c2e565b805b611c38908461422b565b925050600101611bed565b505f611c64611c53600284614422565b86611c5f86600a61451c565b611dfc565b905068056bc75e2d63100000811015611d1a57604080515f8082526020820190925290611cb2565b604080518082019091525f8082526020820152815260200190600190039081611c8c5790505b50604080515f8082526020820190925290611d05565b611cf260405180606001604052805f6001600160a01b031681526020015f81526020015f81525090565b815260200190600190039081611cc85790505b509c509c505050505050505050505050611d28565b5050505b5050505b50505050505b935093915050565b6040516370a0823160e01b81526001600160a01b0382811660048301525f91908416906370a0823190602401602060405180830381865afa158015611d77573d5f5f3e3d5ffd5b505050506040513d601f19601f820116820180604052508101906111579190614214565b5f816001600160a01b03166387367d716040518163ffffffff1660e01b8152600401602060405180830381865afa158015611dd8573d5f5f3e3d5ffd5b505050506040513d601f19601f8201168201806040525081019061154a9190614214565b5f825f190484118302158202611e195763ad251c275f526004601cfd5b5091020490565b611e4d6040518060a001604052805f81526020015f81526020015f81526020015f81526020015f81525090565b5f428310611e5b5782611e5d565b425b9050611e6884611d9b565b60408301525f611e77856121de565b90505f62012fd1828560400151611e8e919061422b565b611e98919061422b565b9050856001600160a01b03166318160ddd6040518163ffffffff1660e01b8152600401602060405180830381865afa158015611ed6573d5f5f3e3d5ffd5b505050506040513d601f19601f82011682018060405250810190611efa9190614214565b8460200181815250505f5f5f886001600160a01b0316637c0e0c8c6040518163ffffffff1660e01b8152600401608060405180830381865afa158015611f42573d5f5f3e3d5ffd5b505050506040513d601f19601f82011682018060405250810190611f669190614527565b509250925092505f611f7b848785858b6132e9565b90508287106120d3575f611f8f828861422b565b90505f611f9b8c6121a1565b90505f816001600160a01b03166367e860cd6040518163ffffffff1660e01b8152600401602060405180830381865afa158015611fda573d5f5f3e3d5ffd5b505050506040513d601f19601f82011682018060405250810190611ffe9190614214565b6040808d015190516356ac239360e11b81529192506001600160a01b0384169163ad5847269161203b918790600401918252602082015260400190565b602060405180830381865afa158015612056573d5f5f3e3d5ffd5b505050506040513d601f19601f8201168201806040525081019061207a9190614214565b965085945080808061208c888e61455a565b6120969190614422565b6120a0919061423e565b6120aa919061422b565b6120b4908761422b565b95506120c3878488888e6132e9565b6120cd908561422b565b93505050505b801561215e575f6120ef826120e78d61221b565b612710613358565b90505f8111801561210357505f8960200151115b156121495761212d818a6020015183858a61211e919061422b565b612128919061455a565b613384565b60808a0181905260208a01805161214590839061422b565b9052505b612153828861422b565b60608a015250612166565b606088018690525b612170818661422b565b8852509598975050505050505050565b5f8115612197576121928484846133b0565b612199565b835b949350505050565b5f816001600160a01b0316631e75db166040518163ffffffff1660e01b8152600401602060405180830381865afa158015611526573d5f5f3e3d5ffd5b5f816001600160a01b031663635d97716040518163ffffffff1660e01b8152600401602060405180830381865afa158015611dd8573d5f5f3e3d5ffd5b5f816001600160a01b031663a75df4986040518163ffffffff1660e01b8152600401602060405180830381865afa158015611dd8573d5f5f3e3d5ffd5b60608060605f86519050806001600160401b0381111561227a5761227a6140ce565b6040519080825280602002602001820160405280156122a3578160200160208202803683370190505b509350806001600160401b038111156122be576122be6140ce565b6040519080825280602002602001820160405280156122e7578160200160208202803683370190505b509250806001600160401b03811115612302576123026140ce565b60405190808252806020026020018201604052801561236957816020015b6123566040518060a001604052805f81526020015f81526020015f81526020015f81526020015f6001600160a01b031681525090565b8152602001906001900390816123205790505b5091505f5f5b828110156124c5575f89828151811061238a5761238a6141b9565b602002602001015190505f61239f828a611e20565b90505f6123bb6123af848f611d30565b83516020850151612180565b9050808885815181106123d0576123d06141b9565b60209081029190910101526123e5818661422b565b60408301519095508181116123fa575f612404565b612404828261455a565b888681518110612416576124166141b9565b60200260200101515f018181525050826060015188868151811061243c5761243c6141b9565b602002602001015160200181815250506124558461221b565b888681518110612467576124676141b9565b60200260200101516040018181525050612480846121a1565b888681518110612492576124926141b9565b6020026020010151608001906001600160a01b031690816001600160a01b0316815250505050505080600101905061236f565b50805f036124d4575050612994565b5f89816124e4828c8c8a8861344c565b90505f5b85811015612726575f888281518110612503576125036141b9565b60200260200101519050612532848e8481518110612523576125236141b9565b6020026020010151888661348a565b888381518110612544576125446141b9565b602002602001015160600181815250505f61256a8e848151811061035c5761035c6141b9565b90505f6125908f8581518110612582576125826141b9565b60200260200101518f613543565b806125b957506125b98f85815181106125ab576125ab6141b9565b60200260200101518361359c565b90505f826001600160a01b031663b235d4686040518163ffffffff1660e01b8152600401602060405180830381865afa1580156125f8573d5f5f3e3d5ffd5b505050506040513d601f19601f8201168201806040525081019061261c91906143ef565b60ff16600214905080156126ed57838b868151811061263d5761263d6141b9565b60200260200101515f01818151612654919061422b565b905250612661848961422b565b9750838d8681518110612676576126766141b9565b60200260200101818152505081156126b057838b868151811061269b5761269b6141b9565b60200260200101516060018181525050612717565b838b86815181106126c3576126c36141b9565b60200260200101516060015110156126e857838b868151811061269b5761269b6141b9565b612717565b8115612717575f8b8681518110612706576127066141b9565b602002602001015160600181815250505b505050508060010190506124e8565b5050508082612735919061455a565b91505f612743606484614422565b90505f5b6064811015612983575f61275d6001606461455a565b82146127695782612789565b6127756001606461455a565b61277f908461423e565b612789908661455a565b9050805f03612798575061297b565b5f5f5f5f5b89811015612914578a81815181106127b7576127b76141b9565b602002602001015160600151858e83815181106127d6576127d66141b9565b60200260200101516127e8919061422b565b1161290c575f8b8281518110612800576128006141b9565b6020026020010151608001516001600160a01b031663c0b36044878e858151811061282d5761282d6141b9565b60200260200101515f0151612842919061422b565b8e8581518110612854576128546141b9565b6020026020010151602001518f8681518110612872576128726141b9565b6020026020010151604001516040518463ffffffff1660e01b81526004016128ad939291909283526020830191909152604082015260600190565b602060405180830381865afa1580156128c8573d5f5f3e3d5ffd5b505050506040513d601f19601f820116820180604052508101906128ec9190614214565b90508215806128fa57508481115b1561290a57809450819350600192505b505b60010161279d565b50801561297657838c838151811061292e5761292e6141b9565b60200260200101818151612942919061422b565b905250895184908b908490811061295b5761295b6141b9565b60200260200101515f01818151612972919061422b565b9052505b505050505b600101612747565b5061298f878685613611565b505050505b9450945094915050565b82515f9081805b82811015612b98578481815181106129bf576129bf6141b9565b60200260200101518682815181106129d9576129d96141b9565b60200260200101510315612b90575f8582815181106129fa576129fa6141b9565b6020026020010151878381518110612a1457612a146141b9565b60200260200101511190505f81612a6857878381518110612a3757612a376141b9565b6020026020010151878481518110612a5157612a516141b9565b6020026020010151612a63919061455a565b612aa6565b868381518110612a7a57612a7a6141b9565b6020026020010151888481518110612a9457612a946141b9565b6020026020010151612aa6919061455a565b9050888381518110612aba57612aba6141b9565b60200260200101516001600160a01b031663c6e6f592826040518263ffffffff1660e01b8152600401612aef91815260200190565b602060405180830381865afa158015612b0a573d5f5f3e3d5ffd5b505050506040513d601f19601f82011682018060405250810190612b2e9190614214565b5f03612b8d5781612b3f5780612b48565b612b4881614408565b612b52908561456d565b9350868381518110612b6657612b666141b9565b6020026020010151888481518110612b8057612b806141b9565b6020026020010181815250505b50505b6001016129a5565b508015612f6a575f5f8213612bb557612bb082614408565b612bb7565b815b90505f82135b8115612f67575f5f1981805b87811015612cfb57898181518110612be357612be36141b9565b60200260200101518b8281518110612bfd57612bfd6141b9565b60200260200101510315612cf3575f8a8281518110612c1e57612c1e6141b9565b60200260200101518c8381518110612c3857612c386141b9565b602002602001015111905085151581151514612c545750612cf3565b5f81612c9d578c8381518110612c6c57612c6c6141b9565b60200260200101518c8481518110612c8657612c866141b9565b6020026020010151612c98919061455a565b612cdb565b8b8381518110612caf57612caf6141b9565b60200260200101518d8481518110612cc957612cc96141b9565b6020026020010151612cdb919061455a565b905084811015612cf057809450829550600193505b50505b600101612bc9565b5080612d53575f5b87811015612d4a57898181518110612d1d57612d1d6141b9565b60200260200101518b8281518110612d3757612d376141b9565b6020908102919091010152600101612d03565b50505050612f67565b818510612da257888381518110612d6c57612d6c6141b9565b60200260200101518a8481518110612d8657612d866141b9565b6020908102919091010152612d9b828661455a565b9450612f5f565b8315612dd757848a8481518110612dbb57612dbb6141b9565b60200260200101818151612dcf919061455a565b905250612e02565b848a8481518110612dea57612dea6141b9565b60200260200101818151612dfe919061422b565b9052505b5f84612e4b578a8481518110612e1a57612e1a6141b9565b60200260200101518a8581518110612e3457612e346141b9565b6020026020010151612e46919061455a565b612e89565b898481518110612e5d57612e5d6141b9565b60200260200101518b8581518110612e7757612e776141b9565b6020026020010151612e89919061455a565b90508b8481518110612e9d57612e9d6141b9565b60200260200101516001600160a01b031663c6e6f592826040518263ffffffff1660e01b8152600401612ed291815260200190565b602060405180830381865afa158015612eed573d5f5f3e3d5ffd5b505050506040513d601f19601f82011682018060405250810190612f119190614214565b5f03612f5957898481518110612f2957612f296141b9565b60200260200101518b8581518110612f4357612f436141b9565b6020908102919091010152945092159284612f5d565b5f95505b505b505050612bbd565b50505b5f5b82811015612fc157848181518110612f8657612f866141b9565b6020026020010151868281518110612fa057612fa06141b9565b602002602001015114612fb95760019350505050611157565b600101612f6c565b505f9695505050505050565b5f5b87518110156132df57858181518110612fea57612fea6141b9565b6020026020010151878281518110613004576130046141b9565b602002602001015111156130a857604051806040016040528089838151811061302f5761302f6141b9565b60200260200101516001600160a01b03168152602001878381518110613057576130576141b9565b6020026020010151898481518110613071576130716141b9565b6020026020010151613083919061455a565b815250838281518110613098576130986141b9565b60200260200101819052506131b1565b8681815181106130ba576130ba6141b9565b60200260200101518682815181106130d4576130d46141b9565b6020026020010151111561315c5760405180604001604052808983815181106130ff576130ff6141b9565b60200260200101516001600160a01b03168152602001888381518110613127576131276141b9565b6020026020010151888481518110613141576131416141b9565b6020026020010151613153919061455a565b61308390614408565b6040518060400160405280898381518110613179576131796141b9565b60200260200101516001600160a01b031681526020015f8152508382815181106131a5576131a56141b9565b60200260200101819052505b841561327a575f6131de8883815181106131cd576131cd6141b9565b602002602001015161271088611dfc565b905060405180606001604052808a84815181106131fd576131fd6141b9565b60200260200101516001600160a01b03168152602001868311613220575f61322a565b61322a878461455a565b815260200161271061323c888561422b565b116132505761324b878461422b565b613254565b6127105b815250838381518110613269576132696141b9565b6020026020010181905250506132d7565b6040518060600160405280898381518110613297576132976141b9565b60200260200101516001600160a01b031681526020015f81526020016127108152508282815181106132cb576132cb6141b9565b60200260200101819052505b600101612fcf565b5050505050505050565b5f8515806132f75750838310155b1561330357505f61334f565b5f8483106133115784613313565b825b9050838111613325575f91505061334f565b61334b613332858361455a565b61333c908961423e565b87670de0b6b3a7640000611dfc565b9150505b95945050505050565b5f825f1904841183021582026133755763ad251c275f526004601cfd5b50910281810615159190040190565b5f6133908484846133b0565b9050818385091561115757600101806111575763ae47f7025f526004601cfd5b8282025f1983850981811082019003806133df57826133d65763ae47f7025f526004601cfd5b50819004611157565b8083116133f35763ae47f7025f526004601cfd5b828486095f84810385169485900494848311909303908390038390046001010292030417600260038302811880840282030280840282030280840282030280840282030280840282030280840290910302029392505050565b5f60055b61345e8787878787866138f1565b1561346a57905061334f565b805f0361347a575f91505061334f565b6134838161458c565b9050613450565b60405163f4c4a61360e01b81526001600160a01b0384811660048301525f91829187169063f4c4a61390602401602060405180830381865afa1580156134d2573d5f5f3e3d5ffd5b505050506040513d601f19601f820116820180604052508101906134f69190614214565b90505f61350984655af3107a400061423e565b905080821161351c575f92505050612199565b6135388561352a838561455a565b670de0b6b3a7640000611dfc565b979650505050505050565b5f5f5b825181101561359357836001600160a01b031683828151811061356b5761356b6141b9565b60200260200101516001600160a01b03160361358b57600191505061154a565b600101613546565b505f9392505050565b60405163699ba8b360e01b81526001600160a01b0383811660048301525f919083169063699ba8b390602401606060405180830381865afa1580156135e3573d5f5f3e3d5ffd5b505050506040513d601f19601f8201168201806040525081019061360791906145a1565b5090949350505050565b5f5f5b845181101561364c5784818151811061362f5761362f6141b9565b602002602001015182613642919061422b565b9150600101613614565b5081811061365a5750505050565b5f613665828461455a565b90505b80156138ca575f5f5f5f5f5b895181101561384c5788818151811061368f5761368f6141b9565b6020026020010151606001518a82815181106136ad576136ad6141b9565b60200260200101511015613844575f8a82815181106136ce576136ce6141b9565b60200260200101518a83815181106136e8576136e86141b9565b6020026020010151606001516136fe919061455a565b90505f87821061370e5787613710565b815b9050805f03613720575050613844565b5f8b8481518110613733576137336141b9565b6020026020010151608001516001600160a01b031663c0b36044838e8781518110613760576137606141b9565b60200260200101515f0151613775919061422b565b8e8781518110613787576137876141b9565b6020026020010151602001518f88815181106137a5576137a56141b9565b6020026020010151604001516040518463ffffffff1660e01b81526004016137e0939291909283526020830191909152604082015260600190565b602060405180830381865afa1580156137fb573d5f5f3e3d5ffd5b505050506040513d601f19601f8201168201806040525081019061381f9190614214565b905084158061382d57508781115b1561384057809750839650819550600194505b5050505b600101613674565b508061385b57505050506138ca565b8189848151811061386e5761386e6141b9565b60200260200101818151613882919061422b565b9052508751829089908590811061389b5761389b6141b9565b60200260200101515f018181516138b2919061422b565b9052506138bf828661455a565b945050505050613668565b5f811180156138da575084518111155b156138ea576138ea858583613a5a565b5050505050565b5f5f5f5b8751811015613a4c575f61391489838151811061035c5761035c6141b9565b90505f61393a8a848151811061392c5761392c6141b9565b60200260200101518a613543565b8061395557506139558a84815181106125ab576125ab6141b9565b90505f826001600160a01b031663b235d4686040518163ffffffff1660e01b8152600401602060405180830381865afa158015613994573d5f5f3e3d5ffd5b505050506040513d601f19601f820116820180604052508101906139b891906143ef565b60ff16600214905080156139f2578884815181106139d8576139d86141b9565b6020026020010151856139eb919061422b565b9450613a29565b81613a2957613a1c8c8c8681518110613a0d57613a0d6141b9565b60200260200101518a8a61348a565b613a26908661422b565b94505b878510613a3e576001955050505050506113b1565b5050508060010190506138f5565b505f98975050505050505050565b5f5f5f5f5b8651811015613b8e575f868281518110613a7b57613a7b6141b9565b6020026020010151608001516001600160a01b031663c0b3604487898581518110613aa857613aa86141b9565b60200260200101515f0151613abd919061422b565b898581518110613acf57613acf6141b9565b6020026020010151602001518a8681518110613aed57613aed6141b9565b6020026020010151604001516040518463ffffffff1660e01b8152600401613b28939291909283526020830191909152604082015260600190565b602060405180830381865afa158015613b43573d5f5f3e3d5ffd5b505050506040513d601f19601f82011682018060405250810190613b679190614214565b9050821580613b7557508481115b15613b8557809450819350600192505b50600101613a5f565b508015613bf05783868381518110613ba857613ba86141b9565b60200260200101818151613bbc919061422b565b90525084518490869084908110613bd557613bd56141b9565b60200260200101515f01818151613bec919061422b565b9052505b505050505050565b6001600160a01b0381168114613c0c575f5ffd5b50565b5f60208284031215613c1f575f5ffd5b813561115781613bf8565b602080825282518282018190525f918401906040840190835b81811015613c6a5783516001600160a01b0316835260209384019390920191600101613c43565b509095945050505050565b5f5f83601f840112613c85575f5ffd5b5081356001600160401b03811115613c9b575f5ffd5b6020830191508360208260051b8501011115613cb5575f5ffd5b9250929050565b5f5f60208385031215613ccd575f5ffd5b82356001600160401b03811115613ce2575f5ffd5b61072885828601613c75565b5f602082016020835280845180835260408501915060408160051b8601019250602086015f5b82811015613d7757868503603f19018452815180518087526020918201918701905f5b81811015613d5e5783516001600160a01b0316835260209384019390920191600101613d37565b5090965050506020938401939190910190600101613d14565b50929695505050505050565b5f5f5f60608486031215613d95575f5ffd5b8335613da081613bf8565b95602085013595506040909401359392505050565b604080825283519082018190525f9060208501906060840190835b81811015613e0357835180516001600160a01b031684526020908101518185015290930192604090920191600101613dd0565b5050838103602080860191909152855180835291810192508501905f5b81811015613e6657613e5084845180516001600160a01b0316825260208082015190830152604090810151910152565b6060939093019260209290920191600101613e20565b50919695505050505050565b5f8151808452602084019350602083015f5b82811015613ed857815180516001600160a01b031687526020808201518189015260408083015190890152606080830151908901526080918201519188019190915260a09096019590910190600101613e84565b5093949350505050565b5f602082016020835280845180835260408501915060408160051b8601019250602086015f5b82811015613d7757603f19878603018452815160018060a01b03815116865260018060a01b0360208201511660208701526040810151604087015260608101516101006060880152613f5e610100880182613e72565b6080838101519089015260a0808401519089015260c0808401519089015260e0928301519290970191909152506020938401939190910190600101613f08565b5f5f5f60408486031215613fb0575f5ffd5b83356001600160401b03811115613fc5575f5ffd5b613fd186828701613c75565b9094509250506020840135613fe581613bf8565b809150509250925092565b602080825282518282018190525f918401906040840190835b81811015613c6a5761403983855180516001600160a01b0316825260208082015190830152604090810151910152565b6020939093019260609290920191600101614009565b5f5f5f60608486031215614061575f5ffd5b833561406c81613bf8565b9250602084013561407c81613bf8565b929592945050506040919091013590565b5f5f6040838503121561409e575f5ffd5b82356140a981613bf8565b946020939093013593505050565b5f602082840312156140c7575f5ffd5b5035919050565b634e487b7160e01b5f52604160045260245ffd5b604051601f8201601f191681016001600160401b038111828210171561410a5761410a6140ce565b604052919050565b5f60208284031215614122575f5ffd5b81516001600160401b03811115614137575f5ffd5b8201601f81018413614147575f5ffd5b80516001600160401b03811115614160576141606140ce565b8060051b614170602082016140e2565b9182526020818401810192908101908784111561418b575f5ffd5b6020850194505b8385101561353857845192506141a783613bf8565b82825260209485019490910190614192565b634e487b7160e01b5f52603260045260245ffd5b5f602082840312156141dd575f5ffd5b815161115781613bf8565b634e487b7160e01b5f52601160045260245ffd5b5f6001820161420d5761420d6141e8565b5060010190565b5f60208284031215614224575f5ffd5b5051919050565b8082018082111561154a5761154a6141e8565b808202811582820484141761154a5761154a6141e8565b80518015158114614264575f5ffd5b919050565b5f60208284031215614279575f5ffd5b61115782614255565b805160ff81168114614264575f5ffd5b5f5f5f5f608085870312156142a5575f5ffd5b6142ae85614255565b935060208501516142be81613bf8565b92506142cc60408601614282565b9150606085015162ffffff811681146142e3575f5ffd5b939692955090935050565b805169ffffffffffffffffffff81168114614264575f5ffd5b5f5f5f5f5f60a0868803121561431b575f5ffd5b614324866142ee565b60208701516040880151606089015192975090955093509150614349608087016142ee565b90509295509295909350565b634e487b7160e01b5f52601260045260245ffd5b5f606082840312801561437a575f5ffd5b50604051606081016001600160401b038111828210171561439d5761439d6140ce565b604052825181526143b060208401614255565b60208201526143c160408401614255565b60408201529392505050565b5f5f604083850312156143de575f5ffd5b505080516020909101519092909150565b5f602082840312156143ff575f5ffd5b61115782614282565b5f600160ff1b820161441c5761441c6141e8565b505f0390565b5f8261443c57634e487b7160e01b5f52601260045260245ffd5b500490565b6001815b6001841115611d2857808504811115614460576144606141e8565b600184161561446e57908102905b60019390931c928002614445565b5f8261448a5750600161154a565b8161449657505f61154a565b81600181146144ac57600281146144b6576144d2565b600191505061154a565b60ff8411156144c7576144c76141e8565b50506001821b61154a565b5060208310610133831016604e8410600b84101617156144f5575081810a61154a565b6145015f198484614441565b805f1904821115614514576145146141e8565b029392505050565b5f611157838361447c565b5f5f5f5f6080858703121561453a575f5ffd5b505082516020840151604085015160609095015191969095509092509050565b8181038181111561154a5761154a6141e8565b8082018281125f831280158216821582161715610712576107126141e8565b5f8161459a5761459a6141e8565b505f190190565b5f5f5f606084860312156145b3575f5ffd5b6145bc84614255565b92506145ca60208501614255565b91506145d860408501614255565b9050925092509256fea26469706673582212208bb209badea6ded830af008c7c54f28ec2bb04b137f1dc117047ebd83540d80b64736f6c634300081c0033","linkReferences":{}},"methodIdentifiers":{"CAP_BUFFER_BPS()":"45a7a9b3","ORACLE_MANAGER()":"d24bc1a4","REBALANCE_CHUNKS()":"137c1b9f","USD_THRESHOLD()":"c1a0a952","assetsAtTimestamp(address,address,uint256)":"77518b44","centralRegistry()":"8f73dcfa","getOptimizerAPY(address)":"9e26ba99","getOptimizerMarketData(address[])":"4be8ed5a","getOptimizerUserData(address[],address)":"6197cadb","isBad(address)":"07600536","multiIsBadCheck(address[])":"17c39e16","optimalRebalance(address,uint256)":"bd5ee7f2","optimalRebalanceAt(address,uint256,uint256)":"3efa4d72","setStalenessMultiplier(uint256)":"c04fe890","stalenessMultiplierBps()":"acc77ad3"},"id":131}