{"abi":[{"type":"constructor","inputs":[{"name":"_centralRegistry","type":"address","internalType":"contract ICentralRegistry"},{"name":"_stalenessMultiplier","type":"uint256","internalType":"uint256"}],"stateMutability":"nonpayable"},{"type":"function","name":"CAP_BUFFER_BPS","inputs":[],"outputs":[{"name":"","type":"uint256","internalType":"uint256"}],"stateMutability":"view"},{"type":"function","name":"ORACLE_MANAGER","inputs":[],"outputs":[{"name":"","type":"address","internalType":"contract IOracleManager"}],"stateMutability":"view"},{"type":"function","name":"USD_THRESHOLD","inputs":[],"outputs":[{"name":"","type":"uint256","internalType":"uint256"}],"stateMutability":"view"},{"type":"function","name":"centralRegistry","inputs":[],"outputs":[{"name":"","type":"address","internalType":"contract ICentralRegistry"}],"stateMutability":"view"},{"type":"function","name":"getOptimizerAPY","inputs":[{"name":"optimizer","type":"address","internalType":"address"}],"outputs":[{"name":"apy","type":"uint256","internalType":"uint256"}],"stateMutability":"nonpayable"},{"type":"function","name":"getOptimizerMarketData","inputs":[{"name":"optimizers","type":"address[]","internalType":"address[]"}],"outputs":[{"name":"data","type":"tuple[]","internalType":"struct OptimizerReader.OptimizerMarketData[]","components":[{"name":"_address","type":"address","internalType":"address"},{"name":"asset","type":"address","internalType":"address"},{"name":"totalAssets","type":"uint256","internalType":"uint256"},{"name":"markets","type":"tuple[]","internalType":"struct OptimizerReader.OptimizerCTokenData[]","components":[{"name":"_address","type":"address","internalType":"address"},{"name":"allocatedAssets","type":"uint256","internalType":"uint256"},{"name":"liquidity","type":"uint256","internalType":"uint256"},{"name":"allocationCap","type":"uint256","internalType":"uint256"},{"name":"allocationCapUtilizationBps","type":"uint256","internalType":"uint256"}]},{"name":"totalLiquidity","type":"uint256","internalType":"uint256"},{"name":"sharePrice","type":"uint256","internalType":"uint256"},{"name":"exchangeRateHighWatermark","type":"uint256","internalType":"uint256"},{"name":"performanceFee","type":"uint256","internalType":"uint256"},{"name":"numApprovedMarkets","type":"uint256","internalType":"uint256"},{"name":"apy","type":"uint256","internalType":"uint256"}]}],"stateMutability":"nonpayable"},{"type":"function","name":"getOptimizerUserData","inputs":[{"name":"optimizers","type":"address[]","internalType":"address[]"},{"name":"account","type":"address","internalType":"address"}],"outputs":[{"name":"data","type":"tuple[]","internalType":"struct OptimizerReader.OptimizerUserData[]","components":[{"name":"_address","type":"address","internalType":"address"},{"name":"shareBalance","type":"uint256","internalType":"uint256"},{"name":"redeemable","type":"uint256","internalType":"uint256"}]}],"stateMutability":"nonpayable"},{"type":"function","name":"isBad","inputs":[{"name":"optimizer","type":"address","internalType":"address"}],"outputs":[{"name":"bad","type":"address[]","internalType":"address[]"}],"stateMutability":"view"},{"type":"function","name":"multiIsBadCheck","inputs":[{"name":"optimizers","type":"address[]","internalType":"address[]"}],"outputs":[{"name":"badOptimizers","type":"address[][]","internalType":"address[][]"}],"stateMutability":"view"},{"type":"function","name":"optimalRebalance","inputs":[{"name":"optimizer","type":"address","internalType":"address"},{"name":"slippageBps","type":"uint256","internalType":"uint256"},{"name":"rebalanceChunks","type":"uint256","internalType":"uint256"}],"outputs":[{"name":"actions","type":"tuple[]","internalType":"struct LendingOptimizer.ReallocationAction[]","components":[{"name":"cToken","type":"address","internalType":"contract IBorrowableCToken"},{"name":"assetsOrBps","type":"int256","internalType":"int256"}]},{"name":"bounds","type":"tuple[]","internalType":"struct LendingOptimizer.AllocationBound[]","components":[{"name":"cToken","type":"address","internalType":"address"},{"name":"minBps","type":"uint256","internalType":"uint256"},{"name":"maxBps","type":"uint256","internalType":"uint256"}]}],"stateMutability":"nonpayable"},{"type":"function","name":"optimalRebalanceWithIncentives","inputs":[{"name":"optimizer","type":"address","internalType":"address"},{"name":"slippageBps","type":"uint256","internalType":"uint256"},{"name":"rebalanceChunks","type":"uint256","internalType":"uint256"},{"name":"marketIncentives","type":"tuple[]","internalType":"struct OptimizerReader.MarketIncentiveAPYBps[]","components":[{"name":"cToken","type":"address","internalType":"address"},{"name":"incentiveAPYBps","type":"uint256","internalType":"uint256"}]}],"outputs":[{"name":"actions","type":"tuple[]","internalType":"struct LendingOptimizer.ReallocationAction[]","components":[{"name":"cToken","type":"address","internalType":"contract IBorrowableCToken"},{"name":"assetsOrBps","type":"int256","internalType":"int256"}]},{"name":"bounds","type":"tuple[]","internalType":"struct LendingOptimizer.AllocationBound[]","components":[{"name":"cToken","type":"address","internalType":"address"},{"name":"minBps","type":"uint256","internalType":"uint256"},{"name":"maxBps","type":"uint256","internalType":"uint256"}]}],"stateMutability":"nonpayable"},{"type":"function","name":"setStalenessMultiplier","inputs":[{"name":"newMultiplierBps","type":"uint256","internalType":"uint256"}],"outputs":[],"stateMutability":"nonpayable"},{"type":"function","name":"stalenessMultiplierBps","inputs":[],"outputs":[{"name":"","type":"uint256","internalType":"uint256"}],"stateMutability":"view"},{"type":"event","name":"StalenessMultiplierUpdated","inputs":[{"name":"oldMultiplier","type":"uint256","indexed":false,"internalType":"uint256"},{"name":"newMultiplier","type":"uint256","indexed":false,"internalType":"uint256"}],"anonymous":false},{"type":"error","name":"OptimizerReader__DuplicateIncentiveMarket","inputs":[{"name":"cToken","type":"address","internalType":"address"}]},{"type":"error","name":"OptimizerReader__InvalidIncentiveData","inputs":[]},{"type":"error","name":"OptimizerReader__InvalidIncentiveMarket","inputs":[{"name":"cToken","type":"address","internalType":"address"}]},{"type":"error","name":"OptimizerReader__InvalidMultiplier","inputs":[]},{"type":"error","name":"OptimizerReader__InvalidRebalanceChunks","inputs":[]},{"type":"error","name":"OptimizerReader__Unauthorized","inputs":[]}],"bytecode":{"object":"0x60c060405234801561000f575f5ffd5b5060405161461d38038061461d83398101604081905261002e916100c5565b6001600160a01b03821660a08190526040805163159761e360e21b8152905163565d878c916004808201926020929091908290030181865afa158015610076573d5f5f3e3d5ffd5b505050506040513d601f19601f8201168201806040525081019061009a91906100f1565b6001600160a01b03166080525f5550610113565b6001600160a01b03811681146100c2575f5ffd5b50565b5f5f604083850312156100d6575f5ffd5b82516100e1816100ae565b6020939093015192949293505050565b5f60208284031215610101575f5ffd5b815161010c816100ae565b9392505050565b60805160a0516144cd6101505f395f8181610173015261117b01525f81816101f20152818161151c015281816116d10152611ddc01526144cd5ff3fe608060405234801561000f575f5ffd5b50600436106100cb575f3560e01c80639e26ba9911610088578063c1a0a95211610063578063c1a0a952146101dd578063d24bc1a4146101ed578063d2f00c8814610214578063d5b479ac14610235575f5ffd5b80639e26ba99146101ad578063acc77ad3146101c0578063c04fe890146101c8575f5ffd5b806307600536146100cf57806317c39e16146100f857806345a7a9b3146101185780634be8ed5a1461012e5780636197cadb1461014e5780638f73dcfa1461016e575b5f5ffd5b6100e26100dd366004613a90565b610248565b6040516100ef9190613aab565b60405180910390f35b61010b610106366004613b3d565b6105bd565b6040516100ef9190613b7b565b610120600581565b6040519081526020016100ef565b61014161013c366004613b3d565b6106da565b6040516100ef9190613c80565b61016161015c366004613d64565b610ec2565b6040516100ef9190613db6565b6101957f000000000000000000000000000000000000000000000000000000000000000081565b6040516001600160a01b0390911681526020016100ef565b6101206101bb366004613a90565b611108565b6101205f5481565b6101db6101d6366004613e15565b611166565b005b61012068056bc75e2d6310000081565b6101957f000000000000000000000000000000000000000000000000000000000000000081565b610227610222366004613e2c565b61127b565b6040516100ef929190613e5e565b610227610243366004613f1b565b611396565b60605f826001600160a01b031663686126e06040518163ffffffff1660e01b81526004015f60405180830381865afa158015610286573d5f5f3e3d5ffd5b505050506040513d5f823e601f3d908101601f191682016040526102ad9190810190613ff0565b80519091505f816001600160401b038111156102cb576102cb613fac565b6040519080825280602002602001820160405280156102f4578160200160208202803683370190505b505f805491925090815b84811015610517575f61032987838151811061031c5761031c6140a2565b6020026020010151611498565b90505f816001600160a01b031663afbe407a6040518163ffffffff1660e01b81526004015f60405180830381865afa158015610367573d5f5f3e3d5ffd5b505050506040513d5f823e601f3d908101601f1916820160405261038e9190810190613ff0565b90505f5f5b82518110156104a9578985815181106103ae576103ae6140a2565b60200260200101516001600160a01b03168382815181106103d1576103d16140a2565b60200260200101516001600160a01b031603156104a1575f8382815181106103fb576103fb6140a2565b60200260200101516001600160a01b03166338d52e0f6040518163ffffffff1660e01b8152600401602060405180830381865afa15801561043e573d5f5f3e3d5ffd5b505050506040513d601f19601f8201168201806040525081019061046291906140b6565b90505f87118015610478575061047881886114f9565b156104875760019250506104a9565b610490816116ae565b1561049f5760019250506104a9565b505b600101610393565b508015610509578884815181106104c2576104c26140a2565b60200260200101518787806104d6906140e5565b9850815181106104e8576104e86140a2565b60200260200101906001600160a01b031690816001600160a01b0316815250505b5050508060010190506102fe565b50816001600160401b0381111561053057610530613fac565b604051908082528060200260200182016040528015610559578160200160208202803683370190505b5095505f5b828110156105b257838181518110610578576105786140a2565b6020026020010151878281518110610592576105926140a2565b6001600160a01b039092166020928302919091019091015260010161055e565b505050505050919050565b606081806001600160401b038111156105d8576105d8613fac565b60405190808252806020026020018201604052801561060b57816020015b60608152602001906001900390816105f65790505b5091505f5b818110156106d257306307600536868684818110610630576106306140a2565b90506020020160208101906106459190613a90565b6040516001600160e01b031960e084901b1681526001600160a01b0390911660048201526024015f60405180830381865afa158015610686573d5f5f3e3d5ffd5b505050506040513d5f823e601f3d908101601f191682016040526106ad9190810190613ff0565b8382815181106106bf576106bf6140a2565b6020908102919091010152600101610610565b505092915050565b606081806001600160401b038111156106f5576106f5613fac565b60405190808252806020026020018201604052801561078557816020015b6107726040518061014001604052805f6001600160a01b031681526020015f6001600160a01b031681526020015f8152602001606081526020015f81526020015f81526020015f81526020015f81526020015f81526020015f81525090565b8152602001906001900390816107135790505b5091505f5b818110156106d2575f8585838181106107a5576107a56140a2565b90506020020160208101906107ba9190613a90565b90508585838181106107ce576107ce6140a2565b90506020020160208101906107e39190613a90565b8483815181106107f5576107f56140a2565b60200260200101515f01906001600160a01b031690816001600160a01b031681525050806001600160a01b03166338d52e0f6040518163ffffffff1660e01b8152600401602060405180830381865afa158015610854573d5f5f3e3d5ffd5b505050506040513d601f19601f8201168201806040525081019061087891906140b6565b84838151811061088a5761088a6140a2565b6020026020010151602001906001600160a01b031690816001600160a01b031681525050806001600160a01b031663f41102916040518163ffffffff1660e01b81526004016020604051808303815f875af11580156108eb573d5f5f3e3d5ffd5b505050506040513d601f19601f8201168201806040525081019061090f91906140fd565b848381518110610921576109216140a2565b602002602001015160a0018181525050806001600160a01b03166301e1d1146040518163ffffffff1660e01b8152600401602060405180830381865afa15801561096d573d5f5f3e3d5ffd5b505050506040513d601f19601f8201168201806040525081019061099191906140fd565b8483815181106109a3576109a36140a2565b60200260200101516040018181525050806001600160a01b031663974ad22e6040518163ffffffff1660e01b8152600401602060405180830381865afa1580156109ef573d5f5f3e3d5ffd5b505050506040513d601f19601f82011682018060405250810190610a1391906140fd565b848381518110610a2557610a256140a2565b602002602001015160c0018181525050806001600160a01b031663ddca3f436040518163ffffffff1660e01b8152600401602060405180830381865afa158015610a71573d5f5f3e3d5ffd5b505050506040513d601f19601f82011682018060405250810190610a9591906140fd565b848381518110610aa757610aa76140a2565b602002602001015160e0018181525050610ae6868684818110610acc57610acc6140a2565b9050602002016020810190610ae19190613a90565b6117dd565b848381518110610af857610af86140a2565b60200260200101516101200181815250505f816001600160a01b031663686126e06040518163ffffffff1660e01b81526004015f60405180830381865afa158015610b45573d5f5f3e3d5ffd5b505050506040513d5f823e601f3d908101601f19168201604052610b6c9190810190613ff0565b90505f8151905080868581518110610b8657610b866140a2565b6020026020010151610100018181525050806001600160401b03811115610baf57610baf613fac565b604051908082528060200260200182016040528015610c1657816020015b610c036040518060a001604052805f6001600160a01b031681526020015f81526020015f81526020015f81526020015f81525090565b815260200190600190039081610bcd5790505b50868581518110610c2957610c296140a2565b6020026020010151606001819052505f5b81811015610eb3575f838281518110610c5557610c556140a2565b602002602001015190505f816001600160a01b03166307a2d13a610c9f848e8e8c818110610c8557610c856140a2565b9050602002016020810190610c9a9190613a90565b611a3a565b6040518263ffffffff1660e01b8152600401610cbd91815260200190565b602060405180830381865afa158015610cd8573d5f5f3e3d5ffd5b505050506040513d601f19601f82011682018060405250810190610cfc91906140fd565b90505f610d0883611aac565b90505f876001600160a01b031663f4c4a613888781518110610d2c57610d2c6140a2565b60200260200101516040518263ffffffff1660e01b8152600401610d5f91906001600160a01b0391909116815260200190565b602060405180830381865afa158015610d7a573d5f5f3e3d5ffd5b505050506040513d601f19601f82011682018060405250810190610d9e91906140fd565b90505f610dd18c8b81518110610db657610db66140a2565b60200260200101516040015183670de0b6b3a7640000611b0d565b90505f8115610dec57610de78561271084611b0d565b610dee565b5f5b90506040518060a001604052808a8981518110610e0d57610e0d6140a2565b60200260200101516001600160a01b03168152602001868152602001858152602001848152602001828152508d8c81518110610e4b57610e4b6140a2565b6020026020010151606001518881518110610e6857610e686140a2565b6020026020010181905250838d8c81518110610e8657610e866140a2565b6020026020010151608001818151610e9e9190614114565b9052505060019095019450610c3a9350505050565b5050505080600101905061078a565b606082806001600160401b03811115610edd57610edd613fac565b604051908082528060200260200182016040528015610f3857816020015b610f2560405180606001604052805f6001600160a01b031681526020015f81526020015f81525090565b815260200190600190039081610efb5790505b5091505f5b818110156110ff575f868683818110610f5857610f586140a2565b9050602002016020810190610f6d9190613a90565b9050806001600160a01b031663775a814a6040518163ffffffff1660e01b81526004015f604051808303815f87803b158015610fa7575f5ffd5b505af1158015610fb9573d5f5f3e3d5ffd5b505050505f610fee888885818110610fd357610fd36140a2565b9050602002016020810190610fe89190613a90565b87611a3a565b9050878784818110611002576110026140a2565b90506020020160208101906110179190613a90565b858481518110611029576110296140a2565b60200260200101515f01906001600160a01b031690816001600160a01b0316815250508085848151811061105f5761105f6140a2565b60209081029190910181015101526040516303d1689d60e11b8152600481018290526001600160a01b038316906307a2d13a90602401602060405180830381865afa1580156110b0573d5f5f3e3d5ffd5b505050506040513d601f19601f820116820180604052508101906110d491906140fd565b8584815181106110e6576110e66140a2565b6020908102919091010151604001525050600101610f3d565b50509392505050565b5f816001600160a01b031663775a814a6040518163ffffffff1660e01b81526004015f604051808303815f87803b158015611141575f5ffd5b505af1158015611153573d5f5f3e3d5ffd5b50505050611160826117dd565b92915050565b60405163de0c7a7160e01b81523360048201527f00000000000000000000000000000000000000000000000000000000000000006001600160a01b03169063de0c7a7190602401602060405180830381865afa1580156111c8573d5f5f3e3d5ffd5b505050506040513d601f19601f820116820180604052508101906111ec919061413b565b611209576040516348b7eb3b60e11b815260040160405180910390fd5b8015801590611219575061271081105b156112375760405163014576d960e11b815260040160405180910390fd5b5f80549082905560408051828152602081018490527f45743f1778a40227cb785331fb7d115a568ee8655b31f131a8b62decdb93f249910160405180910390a15050565b606080825f0361129e57604051631e25928160e21b815260040160405180910390fd5b846001600160a01b031663775a814a6040518163ffffffff1660e01b81526004015f604051808303815f87803b1580156112d6575f5ffd5b505af11580156112e8573d5f5f3e3d5ffd5b505050505f856001600160a01b031663686126e06040518163ffffffff1660e01b81526004015f60405180830381865afa158015611328573d5f5f3e3d5ffd5b505050506040513d5f823e601f3d908101601f1916820160405261134f9190810190613ff0565b9050611388868686845f604051908082528060200260200182016040528015611382578160200160208202803683370190505b50611b31565b92509250505b935093915050565b606080845f036113b957604051631e25928160e21b815260040160405180910390fd5b866001600160a01b031663775a814a6040518163ffffffff1660e01b81526004015f604051808303815f87803b1580156113f1575f5ffd5b505af1158015611403573d5f5f3e3d5ffd5b505050505f876001600160a01b031663686126e06040518163ffffffff1660e01b81526004015f60405180830381865afa158015611443573d5f5f3e3d5ffd5b505050506040513d5f823e601f3d908101601f1916820160405261146a9190810190613ff0565b90505f611478828787612008565b90506114878989898585611b31565b9350935050505b9550959350505050565b5f816001600160a01b03166341ed2c126040518163ffffffff1660e01b8152600401602060405180830381865afa1580156114d5573d5f5f3e3d5ffd5b505050506040513d601f19601f8201168201806040525081019061116091906140b6565b6040516346b7ddcf60e11b81526001600160a01b0383811660048301525f9182917f00000000000000000000000000000000000000000000000000000000000000001690638d6fbb9e906024015f60405180830381865afa158015611560573d5f5f3e3d5ffd5b505050506040513d5f823e601f3d908101601f191682016040526115879190810190613ff0565b90505f5f825f8151811061159d5761159d6140a2565b60209081029190910101516040516305145fb560e31b81526001600160a01b03888116600483015260016024830152909116906328a2fda890604401608060405180830381865afa1580156115f4573d5f5f3e3d5ffd5b505050506040513d601f19601f820116820180604052508101906116189190614164565b9350509250505f826001600160a01b031663feaf968c6040518163ffffffff1660e01b815260040160a060405180830381865afa15801561165b573d5f5f3e3d5ffd5b505050506040513d601f19601f8201168201806040525081019061167f91906141d9565b509350505050612710868362ffffff16028161169d5761169d614227565b048142031194505050505092915050565b6040516346b7ddcf60e11b81526001600160a01b0382811660048301525f9182917f00000000000000000000000000000000000000000000000000000000000000001690638d6fbb9e906024015f60405180830381865afa158015611715573d5f5f3e3d5ffd5b505050506040513d5f823e601f3d908101601f1916820160405261173c9190810190613ff0565b90505f815f81518110611751576117516140a2565b6020908102919091010151604051635ae6916360e01b81526001600160a01b038681166004830152600160248301819052604483015290911690635ae6916390606401606060405180830381865afa1580156117af573d5f5f3e3d5ffd5b505050506040513d601f19601f820116820180604052508101906117d3919061423b565b5115949350505050565b5f5f8290505f816001600160a01b03166301e1d1146040518163ffffffff1660e01b8152600401602060405180830381865afa15801561181f573d5f5f3e3d5ffd5b505050506040513d601f19601f8201168201806040525081019061184391906140fd565b9050805f0361185557505f9392505050565b5f826001600160a01b031663686126e06040518163ffffffff1660e01b81526004015f60405180830381865afa158015611891573d5f5f3e3d5ffd5b505050506040513d5f823e601f3d908101601f191682016040526118b89190810190613ff0565b90505f5f5b8251811015611a21575f8382815181106118d9576118d96140a2565b602002602001015190505f816001600160a01b03166307a2d13a6118fd848c611a3a565b6040518263ffffffff1660e01b815260040161191b91815260200190565b602060405180830381865afa158015611936573d5f5f3e3d5ffd5b505050506040513d601f19601f8201168201806040525081019061195a91906140fd565b90505f611966836121f3565b6001600160a01b031663c0b3604461197d85611aac565b61198686612230565b61198f8761226d565b6040516001600160e01b031960e086901b168152600481019390935260248301919091526044820152606401602060405180830381865afa1580156119d6573d5f5f3e3d5ffd5b505050506040513d601f19601f820116820180604052508101906119fa91906140fd565b9050611a07828289611b0d565b611a119086614114565b94505050508060010190506118bd565b50611a306301e133808261429f565b9695505050505050565b6040516370a0823160e01b81526001600160a01b0382811660048301525f91908416906370a0823190602401602060405180830381865afa158015611a81573d5f5f3e3d5ffd5b505050506040513d601f19601f82011682018060405250810190611aa591906140fd565b9392505050565b5f816001600160a01b03166387367d716040518163ffffffff1660e01b8152600401602060405180830381865afa158015611ae9573d5f5f3e3d5ffd5b505050506040513d601f19601f8201168201806040525081019061116091906140fd565b5f825f190484118302158202611b2a5763ad251c275f526004601cfd5b5091020490565b60608082515f14158015611b4757508351835114155b15611b655760405163e6713d9960e01b815260040160405180910390fd5b83511561148e576040516303b0029b60e11b81526001600160a01b03881660048201525f9030906307600536906024015f60405180830381865afa158015611baf573d5f5f3e3d5ffd5b505050506040513d5f823e601f3d908101601f19168201604052611bd69190810190613ff0565b90506060805f611be98b89868c8b6122aa565b5090935091505f5b8251811015611c2957828181518110611c0c57611c0c6140a2565b602002602001015182611c1f9190614114565b9150600101611bf1565b50611c3483826125b0565b611c41575050505061148e565b611c4c8884846125f7565b611c59575050505061148e565b87516001600160401b03811115611c7257611c72613fac565b604051908082528060200260200182016040528015611cb657816020015b604080518082019091525f8082526020820152815260200190600190039081611c905790505b50955087516001600160401b03811115611cd257611cd2613fac565b604051908082528060200260200182016040528015611d2d57816020015b611d1a60405180606001604052805f6001600160a01b031681526020015f81526020015f81525090565b815260200190600190039081611cf05790505b509450611d3f888484848e8b8b612c26565b83515f03611ffa575f8b6001600160a01b03166338d52e0f6040518163ffffffff1660e01b8152600401602060405180830381865afa158015611d84573d5f5f3e3d5ffd5b505050506040513d601f19601f82011682018060405250810190611da891906140b6565b604051635ae6916360e01b81526001600160a01b03828116600483015260016024830181905260448301529192505f9182917f000000000000000000000000000000000000000000000000000000000000000090911690635ae69163906064016040805180830381865afa158015611e22573d5f5f3e3d5ffd5b505050506040513d601f19601f82011682018060405250810190611e4691906142b6565b91509150805f148015611e5857505f82115b15611ff6575f836001600160a01b031663313ce5676040518163ffffffff1660e01b8152600401602060405180830381865afa158015611e9a573d5f5f3e3d5ffd5b505050506040513d601f19601f82011682018060405250810190611ebe91906142d8565b60ff1690505f5f5b8b51811015611f1c575f8c8281518110611ee257611ee26140a2565b60200260200101516020015190505f8113611f0557611f00816142f1565b611f07565b805b611f119084614114565b925050600101611ec6565b505f611f3d611f2c60028461430b565b86611f3886600a614405565b611b0d565b905068056bc75e2d63100000811015611ff257604080515f8082526020820190925290611f8b565b604080518082019091525f8082526020820152815260200190600190039081611f655790505b50604080515f8082526020820190925290611fde565b611fcb60405180606001604052805f6001600160a01b031681526020015f81526020015f81525090565b815260200190600190039081611fa15790505b509b509b505050505050505050505061148e565b5050505b5050505b505050509550959350505050565b606083516001600160401b0381111561202357612023613fac565b60405190808252806020026020018201604052801561204c578160200160208202803683370190505b5090505f84516001600160401b0381111561206957612069613fac565b604051908082528060200260200182016040528015612092578160200160208202803683370190505b5090505f5b838110156110ff575f8585838181106120b2576120b26140a2565b6120c89260206040909202019081019150613a90565b90505f5f5b88518110156121bf578881815181106120e8576120e86140a2565b60200260200101516001600160a01b0316836001600160a01b0316036121b75784818151811061211a5761211a6140a2565b602002602001015115612150576040516349377bbb60e01b81526001600160a01b03841660048201526024015b60405180910390fd5b6001858281518110612164576121646140a2565b91151560209283029190910190910152878785818110612186576121866140a2565b905060400201602001358682815181106121a2576121a26140a2565b602002602001018181525050600191506121bf565b6001016120cd565b50806121e9576040516395d915f360e01b81526001600160a01b0383166004820152602401612147565b5050600101612097565b5f816001600160a01b0316631e75db166040518163ffffffff1660e01b8152600401602060405180830381865afa1580156114d5573d5f5f3e3d5ffd5b5f816001600160a01b031663635d97716040518163ffffffff1660e01b8152600401602060405180830381865afa158015611ae9573d5f5f3e3d5ffd5b5f816001600160a01b031663a75df4986040518163ffffffff1660e01b8152600401602060405180830381865afa158015611ae9573d5f5f3e3d5ffd5b60608060605f87519050806001600160401b038111156122cc576122cc613fac565b6040519080825280602002602001820160405280156122f5578160200160208202803683370190505b509350806001600160401b0381111561231057612310613fac565b604051908082528060200260200182016040528015612339578160200160208202803683370190505b509250806001600160401b0381111561235457612354613fac565b6040519080825280602002602001820160405280156123c157816020015b6123ae6040518060c001604052805f81526020015f81526020015f81526020015f81526020015f81526020015f6001600160a01b031681525090565b8152602001906001900390816123725790505b5091505f6123d28a8a888787612f42565b9050805f036123e25750506125a5565b5f6123f28b8b8b88868b8a613159565b90506123fe8183614410565b91505f61240b898461430b565b90505f5b89811015612594575f61242360018c614410565b821461242f578261244e565b61243a60018c614410565b612444908461429f565b61244e9086614410565b9050805f0361245d575061258c565b5f5f5f5f5b89811015612525578a818151811061247c5761247c6140a2565b602002602001015160600151858e838151811061249b5761249b6140a2565b60200260200101516124ad9190614114565b1161251d575f6124fd8c83815181106124c8576124c86140a2565b6020026020010151878e85815181106124e3576124e36140a2565b60200260200101515f01516124f89190614114565b6133b8565b905082158061250b57508481115b1561251b57809450819350600192505b505b600101612462565b50801561258757838c838151811061253f5761253f6140a2565b602002602001018181516125539190614114565b905250895184908b908490811061256c5761256c6140a2565b60200260200101515f018181516125839190614114565b9052505b505050505b60010161240f565b506125a087868561345e565b505050505b955095509592505050565b5f5f5f5b84518110156125ec578481815181106125cf576125cf6140a2565b6020026020010151826125e29190614114565b91506001016125b4565b509091111592915050565b82515f9081805b828110156127f157848181518110612618576126186140a2565b6020026020010151868281518110612632576126326140a2565b602002602001015103156127e9575f858281518110612653576126536140a2565b602002602001015187838151811061266d5761266d6140a2565b60200260200101511190505f816126c157878381518110612690576126906140a2565b60200260200101518784815181106126aa576126aa6140a2565b60200260200101516126bc9190614410565b6126ff565b8683815181106126d3576126d36140a2565b60200260200101518884815181106126ed576126ed6140a2565b60200260200101516126ff9190614410565b9050888381518110612713576127136140a2565b60200260200101516001600160a01b031663c6e6f592826040518263ffffffff1660e01b815260040161274891815260200190565b602060405180830381865afa158015612763573d5f5f3e3d5ffd5b505050506040513d601f19601f8201168201806040525081019061278791906140fd565b5f036127e6578161279857806127a1565b6127a1816142f1565b6127ab9085614423565b93508683815181106127bf576127bf6140a2565b60200260200101518884815181106127d9576127d96140a2565b6020026020010181815250505b50505b6001016125fe565b508015612bc3575f5f821361280e57612809826142f1565b612810565b815b90505f82135b8115612bc0575f5f1981805b878110156129545789818151811061283c5761283c6140a2565b60200260200101518b8281518110612856576128566140a2565b6020026020010151031561294c575f8a8281518110612877576128776140a2565b60200260200101518c8381518110612891576128916140a2565b6020026020010151119050851515811515146128ad575061294c565b5f816128f6578c83815181106128c5576128c56140a2565b60200260200101518c84815181106128df576128df6140a2565b60200260200101516128f19190614410565b612934565b8b8381518110612908576129086140a2565b60200260200101518d8481518110612922576129226140a2565b60200260200101516129349190614410565b90508481101561294957809450829550600193505b50505b600101612822565b50806129ac575f5b878110156129a357898181518110612976576129766140a2565b60200260200101518b8281518110612990576129906140a2565b602090810291909101015260010161295c565b50505050612bc0565b8185106129fb578883815181106129c5576129c56140a2565b60200260200101518a84815181106129df576129df6140a2565b60209081029190910101526129f48286614410565b9450612bb8565b8315612a3057848a8481518110612a1457612a146140a2565b60200260200101818151612a289190614410565b905250612a5b565b848a8481518110612a4357612a436140a2565b60200260200101818151612a579190614114565b9052505b5f84612aa4578a8481518110612a7357612a736140a2565b60200260200101518a8581518110612a8d57612a8d6140a2565b6020026020010151612a9f9190614410565b612ae2565b898481518110612ab657612ab66140a2565b60200260200101518b8581518110612ad057612ad06140a2565b6020026020010151612ae29190614410565b90508b8481518110612af657612af66140a2565b60200260200101516001600160a01b031663c6e6f592826040518263ffffffff1660e01b8152600401612b2b91815260200190565b602060405180830381865afa158015612b46573d5f5f3e3d5ffd5b505050506040513d601f19601f82011682018060405250810190612b6a91906140fd565b5f03612bb257898481518110612b8257612b826140a2565b60200260200101518b8581518110612b9c57612b9c6140a2565b6020908102919091010152945092159284612bb6565b5f95505b505b505050612816565b50505b5f5b82811015612c1a57848181518110612bdf57612bdf6140a2565b6020026020010151868281518110612bf957612bf96140a2565b602002602001015114612c125760019350505050611aa5565b600101612bc5565b505f9695505050505050565b5f5b8751811015612f3857858181518110612c4357612c436140a2565b6020026020010151878281518110612c5d57612c5d6140a2565b60200260200101511115612d01576040518060400160405280898381518110612c8857612c886140a2565b60200260200101516001600160a01b03168152602001878381518110612cb057612cb06140a2565b6020026020010151898481518110612cca57612cca6140a2565b6020026020010151612cdc9190614410565b815250838281518110612cf157612cf16140a2565b6020026020010181905250612e0a565b868181518110612d1357612d136140a2565b6020026020010151868281518110612d2d57612d2d6140a2565b60200260200101511115612db5576040518060400160405280898381518110612d5857612d586140a2565b60200260200101516001600160a01b03168152602001888381518110612d8057612d806140a2565b6020026020010151888481518110612d9a57612d9a6140a2565b6020026020010151612dac9190614410565b612cdc906142f1565b6040518060400160405280898381518110612dd257612dd26140a2565b60200260200101516001600160a01b031681526020015f815250838281518110612dfe57612dfe6140a2565b60200260200101819052505b8415612ed3575f612e37888381518110612e2657612e266140a2565b602002602001015161271088611b0d565b905060405180606001604052808a8481518110612e5657612e566140a2565b60200260200101516001600160a01b03168152602001868311612e79575f612e83565b612e838784614410565b8152602001612710612e958885614114565b11612ea957612ea48784614114565b612ead565b6127105b815250838381518110612ec257612ec26140a2565b602002602001018190525050612f30565b6040518060600160405280898381518110612ef057612ef06140a2565b60200260200101516001600160a01b031681526020015f8152602001612710815250828281518110612f2457612f246140a2565b60200260200101819052505b600101612c28565b5050505050505050565b82515f901515815b865181101561314e575f878281518110612f6657612f666140a2565b602002602001015190505f816001600160a01b03166307a2d13a612f8a848d611a3a565b6040518263ffffffff1660e01b8152600401612fa891815260200190565b602060405180830381865afa158015612fc3573d5f5f3e3d5ffd5b505050506040513d601f19601f82011682018060405250810190612fe791906140fd565b905080878481518110612ffc57612ffc6140a2565b60209081029190910101526130118186614114565b94505f61301d83611aac565b905081811161302c575f613036565b6130368282614410565b878581518110613048576130486140a2565b60209081029190910101515261305d83612230565b87858151811061306f5761306f6140a2565b602002602001015160200181815250506130888361226d565b87858151811061309a5761309a6140a2565b602002602001015160400181815250506130b3836121f3565b8785815181106130c5576130c56140a2565b602002602001015160a001906001600160a01b031690816001600160a01b03168152505084156131405761311d898581518110613104576131046140a2565b6020026020010151670de0b6b3a7640000612710611b0d565b87858151811061312f5761312f6140a2565b602002602001015160800181815250505b505050806001019050612f4a565b505095945050505050565b5f5f6131688989898989613670565b90505f5b88518110156133ab575f878281518110613188576131886140a2565b602002602001015190506131b78b8b84815181106131a8576131a86140a2565b602002602001015189866136b7565b8583815181106131c9576131c96140a2565b602002602001015160600181815250505f6131ef8b848151811061031c5761031c6140a2565b90505f6132158c8581518110613207576132076140a2565b60200260200101518c613772565b8061323e575061323e8c8581518110613230576132306140a2565b6020026020010151836137cb565b90505f826001600160a01b031663b235d4686040518163ffffffff1660e01b8152600401602060405180830381865afa15801561327d573d5f5f3e3d5ffd5b505050506040513d601f19601f820116820180604052508101906132a191906142d8565b60ff166002149050801561337257838886815181106132c2576132c26140a2565b60200260200101515f018181516132d99190614114565b9052506132e68488614114565b9650838986815181106132fb576132fb6140a2565b60200260200101818152505081156133355783888681518110613320576133206140a2565b6020026020010151606001818152505061339c565b83888681518110613348576133486140a2565b602002602001015160600151101561336d5783888681518110613320576133206140a2565b61339c565b811561339c575f88868151811061338b5761338b6140a2565b602002602001015160600181815250505b5050505080600101905061316c565b5050979650505050505050565b608082015160a08301516020840151604080860151905163302cd81160e21b815260048101869052602481019290925260448201525f92916301e13380916001600160a01b039091169063c0b3604490606401602060405180830381865afa158015613426573d5f5f3e3d5ffd5b505050506040513d601f19601f8201168201806040525081019061344a91906140fd565b613454919061429f565b611aa59190614114565b5f5f5b84518110156134995784818151811061347c5761347c6140a2565b60200260200101518261348f9190614114565b9150600101613461565b508181106134a75750505050565b5f6134b28284614410565b90505b8015613649575f5f5f5f5f5b89518110156135cb578881815181106134dc576134dc6140a2565b6020026020010151606001518a82815181106134fa576134fa6140a2565b602002602001015110156135c3575f8a828151811061351b5761351b6140a2565b60200260200101518a8381518110613535576135356140a2565b60200260200101516060015161354b9190614410565b90505f87821061355b578761355d565b815b9050805f0361356d5750506135c3565b5f61359e8c8581518110613583576135836140a2565b6020026020010151838e87815181106124e3576124e36140a2565b90508415806135ac57508781115b156135bf57809750839650819550600194505b5050505b6001016134c1565b50806135da5750505050613649565b818984815181106135ed576135ed6140a2565b602002602001018181516136019190614114565b9052508751829089908590811061361a5761361a6140a2565b60200260200101515f018181516136319190614114565b90525061363e8286614410565b9450505050506134b5565b5f81118015613659575084518111155b1561366957613669858583613840565b5050505050565b5f60055b613682878787878786613910565b1561368e5790506136ae565b805f0361369e575f9150506136ae565b6136a781614442565b9050613674565b95945050505050565b60405163f4c4a61360e01b81526001600160a01b0384811660048301525f91829187169063f4c4a61390602401602060405180830381865afa1580156136ff573d5f5f3e3d5ffd5b505050506040513d601f19601f8201168201806040525081019061372391906140fd565b90505f61373684655af3107a400061429f565b9050808211613749575f9250505061376a565b613765856137578385614410565b670de0b6b3a7640000611b0d565b925050505b949350505050565b5f5f5b82518110156137c257836001600160a01b031683828151811061379a5761379a6140a2565b60200260200101516001600160a01b0316036137ba576001915050611160565b600101613775565b505f9392505050565b60405163699ba8b360e01b81526001600160a01b0383811660048301525f919083169063699ba8b390602401606060405180830381865afa158015613812573d5f5f3e3d5ffd5b505050506040513d601f19601f820116820180604052508101906138369190614457565b5090949350505050565b5f5f5f5f5b86518110156138a6575f61387f878381518110613864576138646140a2565b6020026020010151878985815181106124e3576124e36140a2565b905082158061388d57508481115b1561389d57809450819350600192505b50600101613845565b50801561390857838683815181106138c0576138c06140a2565b602002602001018181516138d49190614114565b905250845184908690849081106138ed576138ed6140a2565b60200260200101515f018181516139049190614114565b9052505b505050505050565b5f5f5f5b8751811015613a6b575f61393389838151811061031c5761031c6140a2565b90505f6139598a848151811061394b5761394b6140a2565b60200260200101518a613772565b8061397457506139748a8481518110613230576132306140a2565b90505f826001600160a01b031663b235d4686040518163ffffffff1660e01b8152600401602060405180830381865afa1580156139b3573d5f5f3e3d5ffd5b505050506040513d601f19601f820116820180604052508101906139d791906142d8565b60ff1660021490508015613a11578884815181106139f7576139f76140a2565b602002602001015185613a0a9190614114565b9450613a48565b81613a4857613a3b8c8c8681518110613a2c57613a2c6140a2565b60200260200101518a8a6136b7565b613a459086614114565b94505b878510613a5d57600195505050505050611a30565b505050806001019050613914565b505f98975050505050505050565b6001600160a01b0381168114613a8d575f5ffd5b50565b5f60208284031215613aa0575f5ffd5b8135611aa581613a79565b602080825282518282018190525f918401906040840190835b81811015613aeb5783516001600160a01b0316835260209384019390920191600101613ac4565b509095945050505050565b5f5f83601f840112613b06575f5ffd5b5081356001600160401b03811115613b1c575f5ffd5b6020830191508360208260051b8501011115613b36575f5ffd5b9250929050565b5f5f60208385031215613b4e575f5ffd5b82356001600160401b03811115613b63575f5ffd5b613b6f85828601613af6565b90969095509350505050565b5f602082016020835280845180835260408501915060408160051b8601019250602086015f5b82811015613c0457868503603f19018452815180518087526020918201918701905f5b81811015613beb5783516001600160a01b0316835260209384019390920191600101613bc4565b5090965050506020938401939190910190600101613ba1565b50929695505050505050565b5f8151808452602084019350602083015f5b82811015613c7657815180516001600160a01b031687526020808201518189015260408083015190890152606080830151908901526080918201519188019190915260a09096019590910190600101613c22565b5093949350505050565b5f602082016020835280845180835260408501915060408160051b8601019250602086015f5b82811015613c0457868503603f19018452815180516001600160a01b031686526020810151613ce060208801826001600160a01b03169052565b506040810151604087015260608101516101406060880152613d06610140880182613c10565b90506080820151608088015260a082015160a088015260c082015160c088015260e082015160e08801526101008201516101008801526101208201516101208801528096505050602082019150602084019350600181019050613ca6565b5f5f5f60408486031215613d76575f5ffd5b83356001600160401b03811115613d8b575f5ffd5b613d9786828701613af6565b9094509250506020840135613dab81613a79565b809150509250925092565b602080825282518282018190525f918401906040840190835b81811015613aeb57613dff83855180516001600160a01b0316825260208082015190830152604090810151910152565b6020939093019260609290920191600101613dcf565b5f60208284031215613e25575f5ffd5b5035919050565b5f5f5f60608486031215613e3e575f5ffd5b8335613e4981613a79565b95602085013595506040909401359392505050565b604080825283519082018190525f9060208501906060840190835b81811015613eac57835180516001600160a01b031684526020908101518185015290930192604090920191600101613e79565b5050838103602080860191909152855180835291810192508501905f5b81811015613f0f57613ef984845180516001600160a01b0316825260208082015190830152604090810151910152565b6060939093019260209290920191600101613ec9565b50919695505050505050565b5f5f5f5f5f60808688031215613f2f575f5ffd5b8535613f3a81613a79565b9450602086013593506040860135925060608601356001600160401b03811115613f62575f5ffd5b8601601f81018813613f72575f5ffd5b80356001600160401b03811115613f87575f5ffd5b8860208260061b8401011115613f9b575f5ffd5b959894975092955050506020019190565b634e487b7160e01b5f52604160045260245ffd5b604051601f8201601f191681016001600160401b0381118282101715613fe857613fe8613fac565b604052919050565b5f60208284031215614000575f5ffd5b81516001600160401b03811115614015575f5ffd5b8201601f81018413614025575f5ffd5b80516001600160401b0381111561403e5761403e613fac565b8060051b61404e60208201613fc0565b91825260208184018101929081019087841115614069575f5ffd5b6020850194505b83851015614097578451925061408583613a79565b82825260209485019490910190614070565b979650505050505050565b634e487b7160e01b5f52603260045260245ffd5b5f602082840312156140c6575f5ffd5b8151611aa581613a79565b634e487b7160e01b5f52601160045260245ffd5b5f600182016140f6576140f66140d1565b5060010190565b5f6020828403121561410d575f5ffd5b5051919050565b80820180821115611160576111606140d1565b80518015158114614136575f5ffd5b919050565b5f6020828403121561414b575f5ffd5b611aa582614127565b805160ff81168114614136575f5ffd5b5f5f5f5f60808587031215614177575f5ffd5b61418085614127565b9350602085015161419081613a79565b925061419e60408601614154565b9150606085015162ffffff811681146141b5575f5ffd5b939692955090935050565b805169ffffffffffffffffffff81168114614136575f5ffd5b5f5f5f5f5f60a086880312156141ed575f5ffd5b6141f6866141c0565b6020870151604088015160608901519297509095509350915061421b608087016141c0565b90509295509295909350565b634e487b7160e01b5f52601260045260245ffd5b5f606082840312801561424c575f5ffd5b50604051606081016001600160401b038111828210171561426f5761426f613fac565b6040528251815261428260208401614127565b602082015261429360408401614127565b60408201529392505050565b8082028115828204841417611160576111606140d1565b5f5f604083850312156142c7575f5ffd5b505080516020909101519092909150565b5f602082840312156142e8575f5ffd5b611aa582614154565b5f600160ff1b8201614305576143056140d1565b505f0390565b5f8261432557634e487b7160e01b5f52601260045260245ffd5b500490565b6001815b600184111561138e57808504811115614349576143496140d1565b600184161561435757908102905b60019390931c92800261432e565b5f8261437357506001611160565b8161437f57505f611160565b8160018114614395576002811461439f576143bb565b6001915050611160565b60ff8411156143b0576143b06140d1565b50506001821b611160565b5060208310610133831016604e8410600b84101617156143de575081810a611160565b6143ea5f19848461432a565b805f19048211156143fd576143fd6140d1565b029392505050565b5f611aa58383614365565b81810381811115611160576111606140d1565b8082018281125f8312801582168215821617156106d2576106d26140d1565b5f81614450576144506140d1565b505f190190565b5f5f5f60608486031215614469575f5ffd5b61447284614127565b925061448060208501614127565b915061448e60408501614127565b9050925092509256fea2646970667358221220c6adffad5278d2e27338e5872e9ec6be6429be97900646acc0f4d6983a9d91d764736f6c634300081c0033","linkReferences":{}},"methodIdentifiers":{"CAP_BUFFER_BPS()":"45a7a9b3","ORACLE_MANAGER()":"d24bc1a4","USD_THRESHOLD()":"c1a0a952","centralRegistry()":"8f73dcfa","getOptimizerAPY(address)":"9e26ba99","getOptimizerMarketData(address[])":"4be8ed5a","getOptimizerUserData(address[],address)":"6197cadb","isBad(address)":"07600536","multiIsBadCheck(address[])":"17c39e16","optimalRebalance(address,uint256,uint256)":"d2f00c88","optimalRebalanceWithIncentives(address,uint256,uint256,(address,uint256)[])":"d5b479ac","setStalenessMultiplier(uint256)":"c04fe890","stalenessMultiplierBps()":"acc77ad3"},"id":131}