{"abi":[{"type":"constructor","inputs":[{"name":"_centralRegistry","type":"address","internalType":"contract ICentralRegistry"},{"name":"_stalenessMultiplier","type":"uint256","internalType":"uint256"}],"stateMutability":"nonpayable"},{"type":"function","name":"CAP_BUFFER_BPS","inputs":[],"outputs":[{"name":"","type":"uint256","internalType":"uint256"}],"stateMutability":"view"},{"type":"function","name":"ORACLE_MANAGER","inputs":[],"outputs":[{"name":"","type":"address","internalType":"contract IOracleManager"}],"stateMutability":"view"},{"type":"function","name":"REBALANCE_CHUNKS","inputs":[],"outputs":[{"name":"","type":"uint256","internalType":"uint256"}],"stateMutability":"view"},{"type":"function","name":"USD_THRESHOLD","inputs":[],"outputs":[{"name":"","type":"uint256","internalType":"uint256"}],"stateMutability":"view"},{"type":"function","name":"centralRegistry","inputs":[],"outputs":[{"name":"","type":"address","internalType":"contract ICentralRegistry"}],"stateMutability":"view"},{"type":"function","name":"getOptimizerAPY","inputs":[{"name":"optimizer","type":"address","internalType":"address"}],"outputs":[{"name":"apy","type":"uint256","internalType":"uint256"}],"stateMutability":"nonpayable"},{"type":"function","name":"getOptimizerMarketData","inputs":[{"name":"optimizers","type":"address[]","internalType":"address[]"}],"outputs":[{"name":"data","type":"tuple[]","internalType":"struct OptimizerReader.OptimizerMarketData[]","components":[{"name":"_address","type":"address","internalType":"address"},{"name":"asset","type":"address","internalType":"address"},{"name":"totalAssets","type":"uint256","internalType":"uint256"},{"name":"markets","type":"tuple[]","internalType":"struct OptimizerReader.OptimizerCTokenData[]","components":[{"name":"_address","type":"address","internalType":"address"},{"name":"allocatedAssets","type":"uint256","internalType":"uint256"},{"name":"liquidity","type":"uint256","internalType":"uint256"},{"name":"allocationCap","type":"uint256","internalType":"uint256"},{"name":"allocationCapUtilizationBps","type":"uint256","internalType":"uint256"}]},{"name":"totalLiquidity","type":"uint256","internalType":"uint256"},{"name":"sharePrice","type":"uint256","internalType":"uint256"},{"name":"exchangeRateHighWatermark","type":"uint256","internalType":"uint256"},{"name":"performanceFee","type":"uint256","internalType":"uint256"},{"name":"numApprovedMarkets","type":"uint256","internalType":"uint256"},{"name":"apy","type":"uint256","internalType":"uint256"}]}],"stateMutability":"nonpayable"},{"type":"function","name":"getOptimizerUserData","inputs":[{"name":"optimizers","type":"address[]","internalType":"address[]"},{"name":"account","type":"address","internalType":"address"}],"outputs":[{"name":"data","type":"tuple[]","internalType":"struct OptimizerReader.OptimizerUserData[]","components":[{"name":"_address","type":"address","internalType":"address"},{"name":"shareBalance","type":"uint256","internalType":"uint256"},{"name":"redeemable","type":"uint256","internalType":"uint256"}]}],"stateMutability":"nonpayable"},{"type":"function","name":"isBad","inputs":[{"name":"optimizer","type":"address","internalType":"address"}],"outputs":[{"name":"bad","type":"address[]","internalType":"address[]"}],"stateMutability":"view"},{"type":"function","name":"multiIsBadCheck","inputs":[{"name":"optimizers","type":"address[]","internalType":"address[]"}],"outputs":[{"name":"badOptimizers","type":"address[][]","internalType":"address[][]"}],"stateMutability":"view"},{"type":"function","name":"optimalRebalance","inputs":[{"name":"optimizer","type":"address","internalType":"address"},{"name":"slippageBps","type":"uint256","internalType":"uint256"}],"outputs":[{"name":"actions","type":"tuple[]","internalType":"struct LendingOptimizer.ReallocationAction[]","components":[{"name":"cToken","type":"address","internalType":"contract IBorrowableCToken"},{"name":"assetsOrBps","type":"int256","internalType":"int256"}]},{"name":"bounds","type":"tuple[]","internalType":"struct LendingOptimizer.AllocationBound[]","components":[{"name":"cToken","type":"address","internalType":"address"},{"name":"minBps","type":"uint256","internalType":"uint256"},{"name":"maxBps","type":"uint256","internalType":"uint256"}]}],"stateMutability":"nonpayable"},{"type":"function","name":"setStalenessMultiplier","inputs":[{"name":"newMultiplierBps","type":"uint256","internalType":"uint256"}],"outputs":[],"stateMutability":"nonpayable"},{"type":"function","name":"stalenessMultiplierBps","inputs":[],"outputs":[{"name":"","type":"uint256","internalType":"uint256"}],"stateMutability":"view"},{"type":"event","name":"StalenessMultiplierUpdated","inputs":[{"name":"oldMultiplier","type":"uint256","indexed":false,"internalType":"uint256"},{"name":"newMultiplier","type":"uint256","indexed":false,"internalType":"uint256"}],"anonymous":false},{"type":"error","name":"OptimizerReader__InvalidMultiplier","inputs":[]},{"type":"error","name":"OptimizerReader__Unauthorized","inputs":[]}],"bytecode":{"object":"0x60c060405260145f55348015610013575f5ffd5b506040516142d73803806142d7833981016040819052610032916100ca565b6001600160a01b03821660a08190526040805163159761e360e21b8152905163565d878c916004808201926020929091908290030181865afa15801561007a573d5f5f3e3d5ffd5b505050506040513d601f19601f8201168201806040525081019061009e91906100f6565b6001600160a01b031660805260015550610118565b6001600160a01b03811681146100c7575f5ffd5b50565b5f5f604083850312156100db575f5ffd5b82516100e6816100b3565b6020939093015192949293505050565b5f60208284031215610106575f5ffd5b8151610111816100b3565b9392505050565b60805160a0516141826101555f395f818161017b01526111d901525f818161021c0152818161135e015281816115130152611c4101526141825ff3fe608060405234801561000f575f5ffd5b50600436106100cb575f3560e01c80638f73dcfa11610088578063bd5ee7f211610063578063bd5ee7f2146101d1578063c04fe890146101f2578063c1a0a95214610207578063d24bc1a414610217575f5ffd5b80638f73dcfa146101765780639e26ba99146101b5578063acc77ad3146101c8575f5ffd5b806307600536146100cf578063137c1b9f146100f857806317c39e161461010e57806345a7a9b31461012e5780634be8ed5a146101365780636197cadb14610156575b5f5ffd5b6100e26100dd3660046137dd565b61023e565b6040516100ef91906137f8565b60405180910390f35b6101005f5481565b6040519081526020016100ef565b61012161011c366004613883565b6105b4565b6040516100ef91906138c1565b610100600581565b610149610144366004613883565b6106d1565b6040516100ef91906139c6565b610169610164366004613aaa565b610eb9565b6040516100ef9190613afc565b61019d7f000000000000000000000000000000000000000000000000000000000000000081565b6040516001600160a01b0390911681526020016100ef565b6101006101c33660046137dd565b6110ff565b61010060015481565b6101e46101df366004613b5b565b61115d565b6040516100ef929190613b85565b610205610200366004613c42565b6111c4565b005b61010068056bc75e2d6310000081565b61019d7f000000000000000000000000000000000000000000000000000000000000000081565b60605f826001600160a01b031663686126e06040518163ffffffff1660e01b81526004015f60405180830381865afa15801561027c573d5f5f3e3d5ffd5b505050506040513d5f823e601f3d908101601f191682016040526102a39190810190613c9d565b80519091505f816001600160401b038111156102c1576102c1613c59565b6040519080825280602002602001820160405280156102ea578160200160208202803683370190505b506001549091505f90815b8481101561050e575f61032087838151811061031357610313613d4f565b60200260200101516112da565b90505f816001600160a01b031663afbe407a6040518163ffffffff1660e01b81526004015f60405180830381865afa15801561035e573d5f5f3e3d5ffd5b505050506040513d5f823e601f3d908101601f191682016040526103859190810190613c9d565b90505f5f5b82518110156104a0578985815181106103a5576103a5613d4f565b60200260200101516001600160a01b03168382815181106103c8576103c8613d4f565b60200260200101516001600160a01b03160315610498575f8382815181106103f2576103f2613d4f565b60200260200101516001600160a01b03166338d52e0f6040518163ffffffff1660e01b8152600401602060405180830381865afa158015610435573d5f5f3e3d5ffd5b505050506040513d601f19601f820116820180604052508101906104599190613d63565b90505f8711801561046f575061046f818861133b565b1561047e5760019250506104a0565b610487816114f0565b156104965760019250506104a0565b505b60010161038a565b508015610500578884815181106104b9576104b9613d4f565b60200260200101518787806104cd90613d92565b9850815181106104df576104df613d4f565b60200260200101906001600160a01b031690816001600160a01b0316815250505b5050508060010190506102f5565b50816001600160401b0381111561052757610527613c59565b604051908082528060200260200182016040528015610550578160200160208202803683370190505b5095505f5b828110156105a95783818151811061056f5761056f613d4f565b602002602001015187828151811061058957610589613d4f565b6001600160a01b0390921660209283029190910190910152600101610555565b505050505050919050565b606081806001600160401b038111156105cf576105cf613c59565b60405190808252806020026020018201604052801561060257816020015b60608152602001906001900390816105ed5790505b5091505f5b818110156106c95730630760053686868481811061062757610627613d4f565b905060200201602081019061063c91906137dd565b6040516001600160e01b031960e084901b1681526001600160a01b0390911660048201526024015f60405180830381865afa15801561067d573d5f5f3e3d5ffd5b505050506040513d5f823e601f3d908101601f191682016040526106a49190810190613c9d565b8382815181106106b6576106b6613d4f565b6020908102919091010152600101610607565b505092915050565b606081806001600160401b038111156106ec576106ec613c59565b60405190808252806020026020018201604052801561077c57816020015b6107696040518061014001604052805f6001600160a01b031681526020015f6001600160a01b031681526020015f8152602001606081526020015f81526020015f81526020015f81526020015f81526020015f81526020015f81525090565b81526020019060019003908161070a5790505b5091505f5b818110156106c9575f85858381811061079c5761079c613d4f565b90506020020160208101906107b191906137dd565b90508585838181106107c5576107c5613d4f565b90506020020160208101906107da91906137dd565b8483815181106107ec576107ec613d4f565b60200260200101515f01906001600160a01b031690816001600160a01b031681525050806001600160a01b03166338d52e0f6040518163ffffffff1660e01b8152600401602060405180830381865afa15801561084b573d5f5f3e3d5ffd5b505050506040513d601f19601f8201168201806040525081019061086f9190613d63565b84838151811061088157610881613d4f565b6020026020010151602001906001600160a01b031690816001600160a01b031681525050806001600160a01b031663f41102916040518163ffffffff1660e01b81526004016020604051808303815f875af11580156108e2573d5f5f3e3d5ffd5b505050506040513d601f19601f820116820180604052508101906109069190613daa565b84838151811061091857610918613d4f565b602002602001015160a0018181525050806001600160a01b03166301e1d1146040518163ffffffff1660e01b8152600401602060405180830381865afa158015610964573d5f5f3e3d5ffd5b505050506040513d601f19601f820116820180604052508101906109889190613daa565b84838151811061099a5761099a613d4f565b60200260200101516040018181525050806001600160a01b031663974ad22e6040518163ffffffff1660e01b8152600401602060405180830381865afa1580156109e6573d5f5f3e3d5ffd5b505050506040513d601f19601f82011682018060405250810190610a0a9190613daa565b848381518110610a1c57610a1c613d4f565b602002602001015160c0018181525050806001600160a01b031663ddca3f436040518163ffffffff1660e01b8152600401602060405180830381865afa158015610a68573d5f5f3e3d5ffd5b505050506040513d601f19601f82011682018060405250810190610a8c9190613daa565b848381518110610a9e57610a9e613d4f565b602002602001015160e0018181525050610add868684818110610ac357610ac3613d4f565b9050602002016020810190610ad891906137dd565b61161f565b848381518110610aef57610aef613d4f565b60200260200101516101200181815250505f816001600160a01b031663686126e06040518163ffffffff1660e01b81526004015f60405180830381865afa158015610b3c573d5f5f3e3d5ffd5b505050506040513d5f823e601f3d908101601f19168201604052610b639190810190613c9d565b90505f8151905080868581518110610b7d57610b7d613d4f565b6020026020010151610100018181525050806001600160401b03811115610ba657610ba6613c59565b604051908082528060200260200182016040528015610c0d57816020015b610bfa6040518060a001604052805f6001600160a01b031681526020015f81526020015f81526020015f81526020015f81525090565b815260200190600190039081610bc45790505b50868581518110610c2057610c20613d4f565b6020026020010151606001819052505f5b81811015610eaa575f838281518110610c4c57610c4c613d4f565b602002602001015190505f816001600160a01b03166307a2d13a610c96848e8e8c818110610c7c57610c7c613d4f565b9050602002016020810190610c9191906137dd565b61187c565b6040518263ffffffff1660e01b8152600401610cb491815260200190565b602060405180830381865afa158015610ccf573d5f5f3e3d5ffd5b505050506040513d601f19601f82011682018060405250810190610cf39190613daa565b90505f610cff836118ee565b90505f876001600160a01b031663f4c4a613888781518110610d2357610d23613d4f565b60200260200101516040518263ffffffff1660e01b8152600401610d5691906001600160a01b0391909116815260200190565b602060405180830381865afa158015610d71573d5f5f3e3d5ffd5b505050506040513d601f19601f82011682018060405250810190610d959190613daa565b90505f610dc88c8b81518110610dad57610dad613d4f565b60200260200101516040015183670de0b6b3a764000061194f565b90505f8115610de357610dde856127108461194f565b610de5565b5f5b90506040518060a001604052808a8981518110610e0457610e04613d4f565b60200260200101516001600160a01b03168152602001868152602001858152602001848152602001828152508d8c81518110610e4257610e42613d4f565b6020026020010151606001518881518110610e5f57610e5f613d4f565b6020026020010181905250838d8c81518110610e7d57610e7d613d4f565b6020026020010151608001818151610e959190613dc1565b9052505060019095019450610c319350505050565b50505050806001019050610781565b606082806001600160401b03811115610ed457610ed4613c59565b604051908082528060200260200182016040528015610f2f57816020015b610f1c60405180606001604052805f6001600160a01b031681526020015f81526020015f81525090565b815260200190600190039081610ef25790505b5091505f5b818110156110f6575f868683818110610f4f57610f4f613d4f565b9050602002016020810190610f6491906137dd565b9050806001600160a01b031663775a814a6040518163ffffffff1660e01b81526004015f604051808303815f87803b158015610f9e575f5ffd5b505af1158015610fb0573d5f5f3e3d5ffd5b505050505f610fe5888885818110610fca57610fca613d4f565b9050602002016020810190610fdf91906137dd565b8761187c565b9050878784818110610ff957610ff9613d4f565b905060200201602081019061100e91906137dd565b85848151811061102057611020613d4f565b60200260200101515f01906001600160a01b031690816001600160a01b0316815250508085848151811061105657611056613d4f565b60209081029190910181015101526040516303d1689d60e11b8152600481018290526001600160a01b038316906307a2d13a90602401602060405180830381865afa1580156110a7573d5f5f3e3d5ffd5b505050506040513d601f19601f820116820180604052508101906110cb9190613daa565b8584815181106110dd576110dd613d4f565b6020908102919091010151604001525050600101610f34565b50509392505050565b5f816001600160a01b031663775a814a6040518163ffffffff1660e01b81526004015f604051808303815f87803b158015611138575f5ffd5b505af115801561114a573d5f5f3e3d5ffd5b505050506111578261161f565b92915050565b606080836001600160a01b031663775a814a6040518163ffffffff1660e01b81526004015f604051808303815f87803b158015611198575f5ffd5b505af11580156111aa573d5f5f3e3d5ffd5b505050506111b88484611973565b915091505b9250929050565b60405163de0c7a7160e01b81523360048201527f00000000000000000000000000000000000000000000000000000000000000006001600160a01b03169063de0c7a7190602401602060405180830381865afa158015611226573d5f5f3e3d5ffd5b505050506040513d601f19601f8201168201806040525081019061124a9190613de8565b611267576040516348b7eb3b60e11b815260040160405180910390fd5b8015801590611277575061271081105b156112955760405163014576d960e11b815260040160405180910390fd5b600180549082905560408051828152602081018490527f45743f1778a40227cb785331fb7d115a568ee8655b31f131a8b62decdb93f249910160405180910390a15050565b5f816001600160a01b03166341ed2c126040518163ffffffff1660e01b8152600401602060405180830381865afa158015611317573d5f5f3e3d5ffd5b505050506040513d601f19601f820116820180604052508101906111579190613d63565b6040516346b7ddcf60e11b81526001600160a01b0383811660048301525f9182917f00000000000000000000000000000000000000000000000000000000000000001690638d6fbb9e906024015f60405180830381865afa1580156113a2573d5f5f3e3d5ffd5b505050506040513d5f823e601f3d908101601f191682016040526113c99190810190613c9d565b90505f5f825f815181106113df576113df613d4f565b60209081029190910101516040516305145fb560e31b81526001600160a01b03888116600483015260016024830152909116906328a2fda890604401608060405180830381865afa158015611436573d5f5f3e3d5ffd5b505050506040513d601f19601f8201168201806040525081019061145a9190613e11565b9350509250505f826001600160a01b031663feaf968c6040518163ffffffff1660e01b815260040160a060405180830381865afa15801561149d573d5f5f3e3d5ffd5b505050506040513d601f19601f820116820180604052508101906114c19190613e86565b509350505050612710868362ffffff1602816114df576114df613ed4565b048142031194505050505092915050565b6040516346b7ddcf60e11b81526001600160a01b0382811660048301525f9182917f00000000000000000000000000000000000000000000000000000000000000001690638d6fbb9e906024015f60405180830381865afa158015611557573d5f5f3e3d5ffd5b505050506040513d5f823e601f3d908101601f1916820160405261157e9190810190613c9d565b90505f815f8151811061159357611593613d4f565b6020908102919091010151604051635ae6916360e01b81526001600160a01b038681166004830152600160248301819052604483015290911690635ae6916390606401606060405180830381865afa1580156115f1573d5f5f3e3d5ffd5b505050506040513d601f19601f820116820180604052508101906116159190613ee8565b5115949350505050565b5f5f8290505f816001600160a01b03166301e1d1146040518163ffffffff1660e01b8152600401602060405180830381865afa158015611661573d5f5f3e3d5ffd5b505050506040513d601f19601f820116820180604052508101906116859190613daa565b9050805f0361169757505f9392505050565b5f826001600160a01b031663686126e06040518163ffffffff1660e01b81526004015f60405180830381865afa1580156116d3573d5f5f3e3d5ffd5b505050506040513d5f823e601f3d908101601f191682016040526116fa9190810190613c9d565b90505f5f5b8251811015611863575f83828151811061171b5761171b613d4f565b602002602001015190505f816001600160a01b03166307a2d13a61173f848c61187c565b6040518263ffffffff1660e01b815260040161175d91815260200190565b602060405180830381865afa158015611778573d5f5f3e3d5ffd5b505050506040513d601f19601f8201168201806040525081019061179c9190613daa565b90505f6117a883611e6c565b6001600160a01b031663c0b360446117bf856118ee565b6117c886611ea9565b6117d187611ee6565b6040516001600160e01b031960e086901b168152600481019390935260248301919091526044820152606401602060405180830381865afa158015611818573d5f5f3e3d5ffd5b505050506040513d601f19601f8201168201806040525081019061183c9190613daa565b905061184982828961194f565b6118539086613dc1565b94505050508060010190506116ff565b50611872816301e13380613f4c565b9695505050505050565b6040516370a0823160e01b81526001600160a01b0382811660048301525f91908416906370a0823190602401602060405180830381865afa1580156118c3573d5f5f3e3d5ffd5b505050506040513d601f19601f820116820180604052508101906118e79190613daa565b9392505050565b5f816001600160a01b03166387367d716040518163ffffffff1660e01b8152600401602060405180830381865afa15801561192b573d5f5f3e3d5ffd5b505050506040513d601f19601f820116820180604052508101906111579190613daa565b5f825f19048411830215820261196c5763ad251c275f526004601cfd5b5091020490565b6060805f846001600160a01b031663686126e06040518163ffffffff1660e01b81526004015f60405180830381865afa1580156119b2573d5f5f3e3d5ffd5b505050506040513d5f823e601f3d908101601f191682016040526119d99190810190613c9d565b905080515f036119e957506111bd565b6040516303b0029b60e11b81526001600160a01b03861660048201525f9030906307600536906024015f60405180830381865afa158015611a2c573d5f5f3e3d5ffd5b505050506040513d5f823e601f3d908101601f19168201604052611a539190810190613c9d565b90506060805f611a64898686611f23565b5090935091505f5b8251811015611aa457828181518110611a8757611a87613d4f565b602002602001015182611a9a9190613dc1565b9150600101611a6c565b50611ab08584846126c4565b611abe5750505050506111bd565b84516001600160401b03811115611ad757611ad7613c59565b604051908082528060200260200182016040528015611b1b57816020015b604080518082019091525f8082526020820152815260200190600190039081611af55790505b50965084516001600160401b03811115611b3757611b37613c59565b604051908082528060200260200182016040528015611b9257816020015b611b7f60405180606001604052805f6001600160a01b031681526020015f81526020015f81525090565b815260200190600190039081611b555790505b509550611ba4858484848c8c8c612cf3565b83515f03611e60575f896001600160a01b03166338d52e0f6040518163ffffffff1660e01b8152600401602060405180830381865afa158015611be9573d5f5f3e3d5ffd5b505050506040513d601f19601f82011682018060405250810190611c0d9190613d63565b604051635ae6916360e01b81526001600160a01b03828116600483015260016024830181905260448301529192505f9182917f000000000000000000000000000000000000000000000000000000000000000090911690635ae69163906064016040805180830381865afa158015611c87573d5f5f3e3d5ffd5b505050506040513d601f19601f82011682018060405250810190611cab9190613f63565b91509150805f148015611cbd57505f82115b15611e5c575f836001600160a01b031663313ce5676040518163ffffffff1660e01b8152600401602060405180830381865afa158015611cff573d5f5f3e3d5ffd5b505050506040513d601f19601f82011682018060405250810190611d239190613f85565b60ff1690505f5f5b8c51811015611d81575f8d8281518110611d4757611d47613d4f565b60200260200101516020015190505f8113611d6a57611d6581613f9e565b611d6c565b805b611d769084613dc1565b925050600101611d2b565b505f611da2611d91600284613fb8565b86611d9d86600a6140ba565b61194f565b905068056bc75e2d63100000811015611e5857604080515f8082526020820190925290611df0565b604080518082019091525f8082526020820152815260200190600190039081611dca5790505b50604080515f8082526020820190925290611e43565b611e3060405180606001604052805f6001600160a01b031681526020015f81526020015f81525090565b815260200190600190039081611e065790505b509c509c5050505050505050505050506111bd565b5050505b5050505b50505050509250929050565b5f816001600160a01b0316631e75db166040518163ffffffff1660e01b8152600401602060405180830381865afa158015611317573d5f5f3e3d5ffd5b5f816001600160a01b031663635d97716040518163ffffffff1660e01b8152600401602060405180830381865afa15801561192b573d5f5f3e3d5ffd5b5f816001600160a01b031663a75df4986040518163ffffffff1660e01b8152600401602060405180830381865afa15801561192b573d5f5f3e3d5ffd5b60608060605f85519050806001600160401b03811115611f4557611f45613c59565b604051908082528060200260200182016040528015611f6e578160200160208202803683370190505b509350806001600160401b03811115611f8957611f89613c59565b604051908082528060200260200182016040528015611fb2578160200160208202803683370190505b509250806001600160401b03811115611fcd57611fcd613c59565b60405190808252806020026020018201604052801561203457816020015b6120216040518060a001604052805f81526020015f81526020015f81526020015f81526020015f6001600160a01b031681525090565b815260200190600190039081611feb5790505b5091505f5f5b828110156121e6575f88828151811061205557612055613d4f565b602002602001015190505f816001600160a01b03166307a2d13a612079848e61187c565b6040518263ffffffff1660e01b815260040161209791815260200190565b602060405180830381865afa1580156120b2573d5f5f3e3d5ffd5b505050506040513d601f19601f820116820180604052508101906120d69190613daa565b9050808784815181106120eb576120eb613d4f565b60209081029190910101526121008185613dc1565b93505f61210c836118ee565b905081811161211b575f612125565b61212582826140c5565b87858151811061213757612137613d4f565b60209081029190910101515261214c83611ea9565b87858151811061215e5761215e613d4f565b6020026020010151602001818152505061217783611ee6565b87858151811061218957612189613d4f565b602002602001015160400181815250506121a283611e6c565b8785815181106121b4576121b4613d4f565b6020026020010151608001906001600160a01b031690816001600160a01b03168152505050505080600101905061203a565b50805f036121f55750506126bb565b5f8881612205828b8b8a8861300f565b90505f5b85811015612447575f88828151811061222457612224613d4f565b60200260200101519050612253848d848151811061224457612244613d4f565b60200260200101518886613056565b88838151811061226557612265613d4f565b602002602001015160600181815250505f61228b8d848151811061031357610313613d4f565b90505f6122b18e85815181106122a3576122a3613d4f565b60200260200101518e613111565b806122da57506122da8e85815181106122cc576122cc613d4f565b60200260200101518361316a565b90505f826001600160a01b031663b235d4686040518163ffffffff1660e01b8152600401602060405180830381865afa158015612319573d5f5f3e3d5ffd5b505050506040513d601f19601f8201168201806040525081019061233d9190613f85565b60ff166002149050801561240e57838b868151811061235e5761235e613d4f565b60200260200101515f018181516123759190613dc1565b9052506123828489613dc1565b9750838d868151811061239757612397613d4f565b60200260200101818152505081156123d157838b86815181106123bc576123bc613d4f565b60200260200101516060018181525050612438565b838b86815181106123e4576123e4613d4f565b602002602001015160600151101561240957838b86815181106123bc576123bc613d4f565b612438565b8115612438575f8b868151811061242757612427613d4f565b602002602001015160600181815250505b50505050806001019050612209565b505050808261245691906140c5565b91505f5f54836124669190613fb8565b90505f5b5f548110156126aa575f60015f5461248291906140c5565b821461248e57826124b0565b60015f5461249c91906140c5565b6124a69084613f4c565b6124b090866140c5565b9050805f036124bf57506126a2565b5f5f5f5f5b8981101561263b578a81815181106124de576124de613d4f565b602002602001015160600151858e83815181106124fd576124fd613d4f565b602002602001015161250f9190613dc1565b11612633575f8b828151811061252757612527613d4f565b6020026020010151608001516001600160a01b031663c0b36044878e858151811061255457612554613d4f565b60200260200101515f01516125699190613dc1565b8e858151811061257b5761257b613d4f565b6020026020010151602001518f868151811061259957612599613d4f565b6020026020010151604001516040518463ffffffff1660e01b81526004016125d4939291909283526020830191909152604082015260600190565b602060405180830381865afa1580156125ef573d5f5f3e3d5ffd5b505050506040513d601f19601f820116820180604052508101906126139190613daa565b905082158061262157508481115b1561263157809450819350600192505b505b6001016124c4565b50801561269d57838c838151811061265557612655613d4f565b602002602001018181516126699190613dc1565b905250895184908b908490811061268257612682613d4f565b60200260200101515f018181516126999190613dc1565b9052505b505050505b60010161246a565b506126b68786856131df565b505050505b93509350939050565b82515f9081805b828110156128be578481815181106126e5576126e5613d4f565b60200260200101518682815181106126ff576126ff613d4f565b602002602001015103156128b6575f85828151811061272057612720613d4f565b602002602001015187838151811061273a5761273a613d4f565b60200260200101511190505f8161278e5787838151811061275d5761275d613d4f565b602002602001015187848151811061277757612777613d4f565b602002602001015161278991906140c5565b6127cc565b8683815181106127a0576127a0613d4f565b60200260200101518884815181106127ba576127ba613d4f565b60200260200101516127cc91906140c5565b90508883815181106127e0576127e0613d4f565b60200260200101516001600160a01b031663c6e6f592826040518263ffffffff1660e01b815260040161281591815260200190565b602060405180830381865afa158015612830573d5f5f3e3d5ffd5b505050506040513d601f19601f820116820180604052508101906128549190613daa565b5f036128b35781612865578061286e565b61286e81613f9e565b61287890856140d8565b935086838151811061288c5761288c613d4f565b60200260200101518884815181106128a6576128a6613d4f565b6020026020010181815250505b50505b6001016126cb565b508015612c90575f5f82136128db576128d682613f9e565b6128dd565b815b90505f82135b8115612c8d575f5f1981805b87811015612a215789818151811061290957612909613d4f565b60200260200101518b828151811061292357612923613d4f565b60200260200101510315612a19575f8a828151811061294457612944613d4f565b60200260200101518c838151811061295e5761295e613d4f565b60200260200101511190508515158115151461297a5750612a19565b5f816129c3578c838151811061299257612992613d4f565b60200260200101518c84815181106129ac576129ac613d4f565b60200260200101516129be91906140c5565b612a01565b8b83815181106129d5576129d5613d4f565b60200260200101518d84815181106129ef576129ef613d4f565b6020026020010151612a0191906140c5565b905084811015612a1657809450829550600193505b50505b6001016128ef565b5080612a79575f5b87811015612a7057898181518110612a4357612a43613d4f565b60200260200101518b8281518110612a5d57612a5d613d4f565b6020908102919091010152600101612a29565b50505050612c8d565b818510612ac857888381518110612a9257612a92613d4f565b60200260200101518a8481518110612aac57612aac613d4f565b6020908102919091010152612ac182866140c5565b9450612c85565b8315612afd57848a8481518110612ae157612ae1613d4f565b60200260200101818151612af591906140c5565b905250612b28565b848a8481518110612b1057612b10613d4f565b60200260200101818151612b249190613dc1565b9052505b5f84612b71578a8481518110612b4057612b40613d4f565b60200260200101518a8581518110612b5a57612b5a613d4f565b6020026020010151612b6c91906140c5565b612baf565b898481518110612b8357612b83613d4f565b60200260200101518b8581518110612b9d57612b9d613d4f565b6020026020010151612baf91906140c5565b90508b8481518110612bc357612bc3613d4f565b60200260200101516001600160a01b031663c6e6f592826040518263ffffffff1660e01b8152600401612bf891815260200190565b602060405180830381865afa158015612c13573d5f5f3e3d5ffd5b505050506040513d601f19601f82011682018060405250810190612c379190613daa565b5f03612c7f57898481518110612c4f57612c4f613d4f565b60200260200101518b8581518110612c6957612c69613d4f565b6020908102919091010152945092159284612c83565b5f95505b505b5050506128e3565b50505b5f5b82811015612ce757848181518110612cac57612cac613d4f565b6020026020010151868281518110612cc657612cc6613d4f565b602002602001015114612cdf57600193505050506118e7565b600101612c92565b505f9695505050505050565b5f5b875181101561300557858181518110612d1057612d10613d4f565b6020026020010151878281518110612d2a57612d2a613d4f565b60200260200101511115612dce576040518060400160405280898381518110612d5557612d55613d4f565b60200260200101516001600160a01b03168152602001878381518110612d7d57612d7d613d4f565b6020026020010151898481518110612d9757612d97613d4f565b6020026020010151612da991906140c5565b815250838281518110612dbe57612dbe613d4f565b6020026020010181905250612ed7565b868181518110612de057612de0613d4f565b6020026020010151868281518110612dfa57612dfa613d4f565b60200260200101511115612e82576040518060400160405280898381518110612e2557612e25613d4f565b60200260200101516001600160a01b03168152602001888381518110612e4d57612e4d613d4f565b6020026020010151888481518110612e6757612e67613d4f565b6020026020010151612e7991906140c5565b612da990613f9e565b6040518060400160405280898381518110612e9f57612e9f613d4f565b60200260200101516001600160a01b031681526020015f815250838281518110612ecb57612ecb613d4f565b60200260200101819052505b8415612fa0575f612f04888381518110612ef357612ef3613d4f565b60200260200101516127108861194f565b905060405180606001604052808a8481518110612f2357612f23613d4f565b60200260200101516001600160a01b03168152602001868311612f46575f612f50565b612f5087846140c5565b8152602001612710612f628885613dc1565b11612f7657612f718784613dc1565b612f7a565b6127105b815250838381518110612f8f57612f8f613d4f565b602002602001018190525050612ffd565b6040518060600160405280898381518110612fbd57612fbd613d4f565b60200260200101516001600160a01b031681526020015f8152602001612710815250828281518110612ff157612ff1613d4f565b60200260200101819052505b600101612cf5565b5050505050505050565b5f60055b6130218787878787866134bf565b1561302d57905061304d565b805f0361303d575f91505061304d565b613046816140f7565b9050613013565b95945050505050565b60405163f4c4a61360e01b81526001600160a01b0384811660048301525f91829187169063f4c4a61390602401602060405180830381865afa15801561309e573d5f5f3e3d5ffd5b505050506040513d601f19601f820116820180604052508101906130c29190613daa565b90505f6130d584655af3107a4000613f4c565b90508082116130e8575f92505050613109565b613104856130f683856140c5565b670de0b6b3a764000061194f565b925050505b949350505050565b5f5f5b825181101561316157836001600160a01b031683828151811061313957613139613d4f565b60200260200101516001600160a01b031603613159576001915050611157565b600101613114565b505f9392505050565b60405163699ba8b360e01b81526001600160a01b0383811660048301525f919083169063699ba8b390602401606060405180830381865afa1580156131b1573d5f5f3e3d5ffd5b505050506040513d601f19601f820116820180604052508101906131d5919061410c565b5090949350505050565b5f5f5b845181101561321a578481815181106131fd576131fd613d4f565b6020026020010151826132109190613dc1565b91506001016131e2565b508181106132285750505050565b5f61323382846140c5565b90505b8015613498575f5f5f5f5f5b895181101561341a5788818151811061325d5761325d613d4f565b6020026020010151606001518a828151811061327b5761327b613d4f565b60200260200101511015613412575f8a828151811061329c5761329c613d4f565b60200260200101518a83815181106132b6576132b6613d4f565b6020026020010151606001516132cc91906140c5565b90505f8782106132dc57876132de565b815b9050805f036132ee575050613412565b5f8b848151811061330157613301613d4f565b6020026020010151608001516001600160a01b031663c0b36044838e878151811061332e5761332e613d4f565b60200260200101515f01516133439190613dc1565b8e878151811061335557613355613d4f565b6020026020010151602001518f888151811061337357613373613d4f565b6020026020010151604001516040518463ffffffff1660e01b81526004016133ae939291909283526020830191909152604082015260600190565b602060405180830381865afa1580156133c9573d5f5f3e3d5ffd5b505050506040513d601f19601f820116820180604052508101906133ed9190613daa565b90508415806133fb57508781115b1561340e57809750839650819550600194505b5050505b600101613242565b50806134295750505050613498565b8189848151811061343c5761343c613d4f565b602002602001018181516134509190613dc1565b9052508751829089908590811061346957613469613d4f565b60200260200101515f018181516134809190613dc1565b90525061348d82866140c5565b945050505050613236565b5f811180156134a8575084518111155b156134b8576134b8858583613628565b5050505050565b5f5f5f5b875181101561361a575f6134e289838151811061031357610313613d4f565b90505f6135088a84815181106134fa576134fa613d4f565b60200260200101518a613111565b8061352357506135238a84815181106122cc576122cc613d4f565b90505f826001600160a01b031663b235d4686040518163ffffffff1660e01b8152600401602060405180830381865afa158015613562573d5f5f3e3d5ffd5b505050506040513d601f19601f820116820180604052508101906135869190613f85565b60ff16600214905080156135c0578884815181106135a6576135a6613d4f565b6020026020010151856135b99190613dc1565b94506135f7565b816135f7576135ea8c8c86815181106135db576135db613d4f565b60200260200101518a8a613056565b6135f49086613dc1565b94505b87851061360c57600195505050505050611872565b5050508060010190506134c3565b505f98975050505050505050565b5f5f5f5f5b865181101561375c575f86828151811061364957613649613d4f565b6020026020010151608001516001600160a01b031663c0b360448789858151811061367657613676613d4f565b60200260200101515f015161368b9190613dc1565b89858151811061369d5761369d613d4f565b6020026020010151602001518a86815181106136bb576136bb613d4f565b6020026020010151604001516040518463ffffffff1660e01b81526004016136f6939291909283526020830191909152604082015260600190565b602060405180830381865afa158015613711573d5f5f3e3d5ffd5b505050506040513d601f19601f820116820180604052508101906137359190613daa565b905082158061374357508481115b1561375357809450819350600192505b5060010161362d565b5080156137be578386838151811061377657613776613d4f565b6020026020010181815161378a9190613dc1565b905250845184908690849081106137a3576137a3613d4f565b60200260200101515f018181516137ba9190613dc1565b9052505b505050505050565b6001600160a01b03811681146137da575f5ffd5b50565b5f602082840312156137ed575f5ffd5b81356118e7816137c6565b602080825282518282018190525f918401906040840190835b818110156138385783516001600160a01b0316835260209384019390920191600101613811565b509095945050505050565b5f5f83601f840112613853575f5ffd5b5081356001600160401b03811115613869575f5ffd5b6020830191508360208260051b85010111156111bd575f5ffd5b5f5f60208385031215613894575f5ffd5b82356001600160401b038111156138a9575f5ffd5b6138b585828601613843565b90969095509350505050565b5f602082016020835280845180835260408501915060408160051b8601019250602086015f5b8281101561394a57868503603f19018452815180518087526020918201918701905f5b818110156139315783516001600160a01b031683526020938401939092019160010161390a565b50909650505060209384019391909101906001016138e7565b50929695505050505050565b5f8151808452602084019350602083015f5b828110156139bc57815180516001600160a01b031687526020808201518189015260408083015190890152606080830151908901526080918201519188019190915260a09096019590910190600101613968565b5093949350505050565b5f602082016020835280845180835260408501915060408160051b8601019250602086015f5b8281101561394a57868503603f19018452815180516001600160a01b031686526020810151613a2660208801826001600160a01b03169052565b506040810151604087015260608101516101406060880152613a4c610140880182613956565b90506080820151608088015260a082015160a088015260c082015160c088015260e082015160e088015261010082015161010088015261012082015161012088015280965050506020820191506020840193506001810190506139ec565b5f5f5f60408486031215613abc575f5ffd5b83356001600160401b03811115613ad1575f5ffd5b613add86828701613843565b9094509250506020840135613af1816137c6565b809150509250925092565b602080825282518282018190525f918401906040840190835b8181101561383857613b4583855180516001600160a01b0316825260208082015190830152604090810151910152565b6020939093019260609290920191600101613b15565b5f5f60408385031215613b6c575f5ffd5b8235613b77816137c6565b946020939093013593505050565b604080825283519082018190525f9060208501906060840190835b81811015613bd357835180516001600160a01b031684526020908101518185015290930192604090920191600101613ba0565b5050838103602080860191909152855180835291810192508501905f5b81811015613c3657613c2084845180516001600160a01b0316825260208082015190830152604090810151910152565b6060939093019260209290920191600101613bf0565b50919695505050505050565b5f60208284031215613c52575f5ffd5b5035919050565b634e487b7160e01b5f52604160045260245ffd5b604051601f8201601f191681016001600160401b0381118282101715613c9557613c95613c59565b604052919050565b5f60208284031215613cad575f5ffd5b81516001600160401b03811115613cc2575f5ffd5b8201601f81018413613cd2575f5ffd5b80516001600160401b03811115613ceb57613ceb613c59565b8060051b613cfb60208201613c6d565b91825260208184018101929081019087841115613d16575f5ffd5b6020850194505b83851015613d445784519250613d32836137c6565b82825260209485019490910190613d1d565b979650505050505050565b634e487b7160e01b5f52603260045260245ffd5b5f60208284031215613d73575f5ffd5b81516118e7816137c6565b634e487b7160e01b5f52601160045260245ffd5b5f60018201613da357613da3613d7e565b5060010190565b5f60208284031215613dba575f5ffd5b5051919050565b8082018082111561115757611157613d7e565b80518015158114613de3575f5ffd5b919050565b5f60208284031215613df8575f5ffd5b6118e782613dd4565b805160ff81168114613de3575f5ffd5b5f5f5f5f60808587031215613e24575f5ffd5b613e2d85613dd4565b93506020850151613e3d816137c6565b9250613e4b60408601613e01565b9150606085015162ffffff81168114613e62575f5ffd5b939692955090935050565b805169ffffffffffffffffffff81168114613de3575f5ffd5b5f5f5f5f5f60a08688031215613e9a575f5ffd5b613ea386613e6d565b60208701516040880151606089015192975090955093509150613ec860808701613e6d565b90509295509295909350565b634e487b7160e01b5f52601260045260245ffd5b5f6060828403128015613ef9575f5ffd5b50604051606081016001600160401b0381118282101715613f1c57613f1c613c59565b60405282518152613f2f60208401613dd4565b6020820152613f4060408401613dd4565b60408201529392505050565b808202811582820484141761115757611157613d7e565b5f5f60408385031215613f74575f5ffd5b505080516020909101519092909150565b5f60208284031215613f95575f5ffd5b6118e782613e01565b5f600160ff1b8201613fb257613fb2613d7e565b505f0390565b5f82613fd257634e487b7160e01b5f52601260045260245ffd5b500490565b6001815b600184111561401257808504811115613ff657613ff6613d7e565b600184161561400457908102905b60019390931c928002613fdb565b935093915050565b5f8261402857506001611157565b8161403457505f611157565b816001811461404a576002811461405457614070565b6001915050611157565b60ff84111561406557614065613d7e565b50506001821b611157565b5060208310610133831016604e8410600b8410161715614093575081810a611157565b61409f5f198484613fd7565b805f19048211156140b2576140b2613d7e565b029392505050565b5f6118e7838361401a565b8181038181111561115757611157613d7e565b8082018281125f8312801582168215821617156106c9576106c9613d7e565b5f8161410557614105613d7e565b505f190190565b5f5f5f6060848603121561411e575f5ffd5b61412784613dd4565b925061413560208501613dd4565b915061414360408501613dd4565b9050925092509256fea2646970667358221220fb921fc1ef2f195fc8f24e7d2bca11dcec8f17a30a192d17daa5a2a47e0bef7164736f6c634300081c0033","linkReferences":{}},"methodIdentifiers":{"CAP_BUFFER_BPS()":"45a7a9b3","ORACLE_MANAGER()":"d24bc1a4","REBALANCE_CHUNKS()":"137c1b9f","USD_THRESHOLD()":"c1a0a952","centralRegistry()":"8f73dcfa","getOptimizerAPY(address)":"9e26ba99","getOptimizerMarketData(address[])":"4be8ed5a","getOptimizerUserData(address[],address)":"6197cadb","isBad(address)":"07600536","multiIsBadCheck(address[])":"17c39e16","optimalRebalance(address,uint256)":"bd5ee7f2","setStalenessMultiplier(uint256)":"c04fe890","stalenessMultiplierBps()":"acc77ad3"},"id":132}