{"abi":[{"type":"constructor","inputs":[{"name":"_centralRegistry","type":"address","internalType":"contract ICentralRegistry"},{"name":"_stalenessMultiplier","type":"uint256","internalType":"uint256"}],"stateMutability":"nonpayable"},{"type":"function","name":"CAP_BUFFER_BPS","inputs":[],"outputs":[{"name":"","type":"uint256","internalType":"uint256"}],"stateMutability":"view"},{"type":"function","name":"ORACLE_MANAGER","inputs":[],"outputs":[{"name":"","type":"address","internalType":"contract IOracleManager"}],"stateMutability":"view"},{"type":"function","name":"REBALANCE_CHUNKS","inputs":[],"outputs":[{"name":"","type":"uint256","internalType":"uint256"}],"stateMutability":"view"},{"type":"function","name":"USD_THRESHOLD","inputs":[],"outputs":[{"name":"","type":"uint256","internalType":"uint256"}],"stateMutability":"view"},{"type":"function","name":"assetsAtTimestamp","inputs":[{"name":"account","type":"address","internalType":"address"},{"name":"cToken","type":"address","internalType":"address"},{"name":"timestamp","type":"uint256","internalType":"uint256"}],"outputs":[{"name":"assets","type":"uint256","internalType":"uint256"}],"stateMutability":"view"},{"type":"function","name":"centralRegistry","inputs":[],"outputs":[{"name":"","type":"address","internalType":"contract ICentralRegistry"}],"stateMutability":"view"},{"type":"function","name":"getOptimizerAPY","inputs":[{"name":"optimizer","type":"address","internalType":"address"}],"outputs":[{"name":"apy","type":"uint256","internalType":"uint256"}],"stateMutability":"view"},{"type":"function","name":"getOptimizerMarketData","inputs":[{"name":"optimizers","type":"address[]","internalType":"address[]"}],"outputs":[{"name":"data","type":"tuple[]","internalType":"struct OptimizerReader.OptimizerMarketData[]","components":[{"name":"_address","type":"address","internalType":"address"},{"name":"asset","type":"address","internalType":"address"},{"name":"totalAssets","type":"uint256","internalType":"uint256"},{"name":"markets","type":"tuple[]","internalType":"struct OptimizerReader.OptimizerCTokenData[]","components":[{"name":"_address","type":"address","internalType":"address"},{"name":"allocatedAssets","type":"uint256","internalType":"uint256"},{"name":"liquidity","type":"uint256","internalType":"uint256"},{"name":"allocationCap","type":"uint256","internalType":"uint256"},{"name":"allocationCapUtilizationBps","type":"uint256","internalType":"uint256"}]},{"name":"totalLiquidity","type":"uint256","internalType":"uint256"},{"name":"sharePrice","type":"uint256","internalType":"uint256"},{"name":"exchangeRateHighWatermark","type":"uint256","internalType":"uint256"},{"name":"performanceFee","type":"uint256","internalType":"uint256"},{"name":"numApprovedMarkets","type":"uint256","internalType":"uint256"},{"name":"apy","type":"uint256","internalType":"uint256"}]}],"stateMutability":"view"},{"type":"function","name":"getOptimizerUserData","inputs":[{"name":"optimizers","type":"address[]","internalType":"address[]"},{"name":"account","type":"address","internalType":"address"}],"outputs":[{"name":"data","type":"tuple[]","internalType":"struct OptimizerReader.OptimizerUserData[]","components":[{"name":"_address","type":"address","internalType":"address"},{"name":"shareBalance","type":"uint256","internalType":"uint256"},{"name":"redeemable","type":"uint256","internalType":"uint256"}]}],"stateMutability":"view"},{"type":"function","name":"isBad","inputs":[{"name":"optimizer","type":"address","internalType":"address"}],"outputs":[{"name":"bad","type":"address[]","internalType":"address[]"}],"stateMutability":"view"},{"type":"function","name":"multiIsBadCheck","inputs":[{"name":"optimizers","type":"address[]","internalType":"address[]"}],"outputs":[{"name":"badOptimizers","type":"address[][]","internalType":"address[][]"}],"stateMutability":"view"},{"type":"function","name":"optimalRebalance","inputs":[{"name":"optimizer","type":"address","internalType":"address"},{"name":"slippageBps","type":"uint256","internalType":"uint256"}],"outputs":[{"name":"actions","type":"tuple[]","internalType":"struct LendingOptimizer.ReallocationAction[]","components":[{"name":"cToken","type":"address","internalType":"contract IBorrowableCToken"},{"name":"assetsOrBps","type":"int256","internalType":"int256"}]},{"name":"bounds","type":"tuple[]","internalType":"struct LendingOptimizer.AllocationBound[]","components":[{"name":"cToken","type":"address","internalType":"address"},{"name":"minBps","type":"uint256","internalType":"uint256"},{"name":"maxBps","type":"uint256","internalType":"uint256"}]}],"stateMutability":"view"},{"type":"function","name":"optimalRebalanceAt","inputs":[{"name":"optimizer","type":"address","internalType":"address"},{"name":"slippageBps","type":"uint256","internalType":"uint256"},{"name":"timestamp","type":"uint256","internalType":"uint256"}],"outputs":[{"name":"actions","type":"tuple[]","internalType":"struct LendingOptimizer.ReallocationAction[]","components":[{"name":"cToken","type":"address","internalType":"contract IBorrowableCToken"},{"name":"assetsOrBps","type":"int256","internalType":"int256"}]},{"name":"bounds","type":"tuple[]","internalType":"struct LendingOptimizer.AllocationBound[]","components":[{"name":"cToken","type":"address","internalType":"address"},{"name":"minBps","type":"uint256","internalType":"uint256"},{"name":"maxBps","type":"uint256","internalType":"uint256"}]}],"stateMutability":"view"},{"type":"function","name":"setStalenessMultiplier","inputs":[{"name":"newMultiplierBps","type":"uint256","internalType":"uint256"}],"outputs":[],"stateMutability":"nonpayable"},{"type":"function","name":"stalenessMultiplierBps","inputs":[],"outputs":[{"name":"","type":"uint256","internalType":"uint256"}],"stateMutability":"view"},{"type":"event","name":"StalenessMultiplierUpdated","inputs":[{"name":"oldMultiplier","type":"uint256","indexed":false,"internalType":"uint256"},{"name":"newMultiplier","type":"uint256","indexed":false,"internalType":"uint256"}],"anonymous":false},{"type":"error","name":"OptimizerReader__InvalidMultiplier","inputs":[]},{"type":"error","name":"OptimizerReader__Unauthorized","inputs":[]}],"bytecode":{"object":"0x60c060405234801561000f575f5ffd5b5060405161484b38038061484b83398101604081905261002e916100c5565b6001600160a01b03821660a08190526040805163159761e360e21b8152905163565d878c916004808201926020929091908290030181865afa158015610076573d5f5f3e3d5ffd5b505050506040513d601f19601f8201168201806040525081019061009a91906100f1565b6001600160a01b03166080525f5550610113565b6001600160a01b03811681146100c2575f5ffd5b50565b5f5f604083850312156100d6575f5ffd5b82516100e1816100ae565b6020939093015192949293505050565b5f60208284031215610101575f5ffd5b815161010c816100ae565b9392505050565b60805160a0516146f46101575f395f81816101d40152818161114c015261149e01525f818161026601528181611628015281816117dd0152611bb801526146f45ff3fe608060405234801561000f575f5ffd5b50600436106100f0575f3560e01c806377518b4411610093578063bd5ee7f211610063578063bd5ee7f214610229578063c04fe8901461023c578063c1a0a95214610251578063d24bc1a414610261575f5ffd5b806377518b44146101bc5780638f73dcfa146101cf5780639e26ba991461020e578063acc77ad314610221575f5ffd5b80633efa4d72116100ce5780633efa4d721461015357806345a7a9b3146101745780634be8ed5a1461017c5780636197cadb1461019c575f5ffd5b806307600536146100f4578063137c1b9f1461011d57806317c39e1614610133575b5f5ffd5b610107610102366004613cc4565b610288565b6040516101149190613cdf565b60405180910390f35b610125606481565b604051908152602001610114565b610146610141366004613d71565b6105fd565b6040516101149190613da3565b610166610161366004613e38565b61071a565b604051610114929190613e6a565b610125600581565b61018f61018a366004613d71565b610734565b6040516101149190613f97565b6101af6101aa36600461407b565b610f16565b60405161011491906140cd565b6101256101ca36600461412c565b61110e565b6101f67f000000000000000000000000000000000000000000000000000000000000000081565b6040516001600160a01b039091168152602001610114565b61012561021c366004613cc4565b611213565b6101255f5481565b61016661023736600461416a565b611470565b61024f61024a366004614194565b611489565b005b61012568056bc75e2d6310000081565b6101f67f000000000000000000000000000000000000000000000000000000000000000081565b60605f826001600160a01b031663686126e06040518163ffffffff1660e01b81526004015f60405180830381865afa1580156102c6573d5f5f3e3d5ffd5b505050506040513d5f823e601f3d908101601f191682016040526102ed91908101906141ef565b80519091505f816001600160401b0381111561030b5761030b6141ab565b604051908082528060200260200182016040528015610334578160200160208202803683370190505b505f805491925090815b84811015610557575f61036987838151811061035c5761035c614296565b602002602001015161159e565b90505f816001600160a01b031663afbe407a6040518163ffffffff1660e01b81526004015f60405180830381865afa1580156103a7573d5f5f3e3d5ffd5b505050506040513d5f823e601f3d908101601f191682016040526103ce91908101906141ef565b90505f5f5b82518110156104e9578985815181106103ee576103ee614296565b60200260200101516001600160a01b031683828151811061041157610411614296565b60200260200101516001600160a01b031603156104e1575f83828151811061043b5761043b614296565b60200260200101516001600160a01b03166338d52e0f6040518163ffffffff1660e01b8152600401602060405180830381865afa15801561047e573d5f5f3e3d5ffd5b505050506040513d601f19601f820116820180604052508101906104a291906142aa565b90505f871180156104b857506104b88188611605565b156104c75760019250506104e9565b6104d0816117ba565b156104df5760019250506104e9565b505b6001016103d3565b5080156105495788848151811061050257610502614296565b6020026020010151878780610516906142d9565b98508151811061052857610528614296565b60200260200101906001600160a01b031690816001600160a01b0316815250505b50505080600101905061033e565b50816001600160401b03811115610570576105706141ab565b604051908082528060200260200182016040528015610599578160200160208202803683370190505b5095505f5b828110156105f2578381815181106105b8576105b8614296565b60200260200101518782815181106105d2576105d2614296565b6001600160a01b039092166020928302919091019091015260010161059e565b505050505050919050565b606081806001600160401b03811115610618576106186141ab565b60405190808252806020026020018201604052801561064b57816020015b60608152602001906001900390816106365790505b5091505f5b818110156107125730630760053686868481811061067057610670614296565b90506020020160208101906106859190613cc4565b6040516001600160e01b031960e084901b1681526001600160a01b0390911660048201526024015f60405180830381865afa1580156106c6573d5f5f3e3d5ffd5b505050506040513d5f823e601f3d908101601f191682016040526106ed91908101906141ef565b8382815181106106ff576106ff614296565b6020908102919091010152600101610650565b505092915050565b6060806107288585856118e9565b90969095509350505050565b606081806001600160401b0381111561074f5761074f6141ab565b6040519080825280602002602001820160405280156107df57816020015b6107cc6040518061014001604052805f6001600160a01b031681526020015f6001600160a01b031681526020015f8152602001606081526020015f81526020015f81526020015f81526020015f81526020015f81526020015f81525090565b81526020019060019003908161076d5790505b5091505f5b81811015610712575f8585838181106107ff576107ff614296565b90506020020160208101906108149190613cc4565b905085858381811061082857610828614296565b905060200201602081019061083d9190613cc4565b84838151811061084f5761084f614296565b60200260200101515f01906001600160a01b031690816001600160a01b031681525050806001600160a01b03166338d52e0f6040518163ffffffff1660e01b8152600401602060405180830381865afa1580156108ae573d5f5f3e3d5ffd5b505050506040513d601f19601f820116820180604052508101906108d291906142aa565b8483815181106108e4576108e4614296565b6020026020010151602001906001600160a01b031690816001600160a01b031681525050806001600160a01b03166301e1d1146040518163ffffffff1660e01b8152600401602060405180830381865afa158015610944573d5f5f3e3d5ffd5b505050506040513d601f19601f8201168201806040525081019061096891906142f1565b84838151811061097a5761097a614296565b60200260200101516040018181525050806001600160a01b0316633ba0b9a96040518163ffffffff1660e01b8152600401602060405180830381865afa1580156109c6573d5f5f3e3d5ffd5b505050506040513d601f19601f820116820180604052508101906109ea91906142f1565b8483815181106109fc576109fc614296565b602002602001015160a0018181525050806001600160a01b031663974ad22e6040518163ffffffff1660e01b8152600401602060405180830381865afa158015610a48573d5f5f3e3d5ffd5b505050506040513d601f19601f82011682018060405250810190610a6c91906142f1565b848381518110610a7e57610a7e614296565b602002602001015160c0018181525050806001600160a01b031663ddca3f436040518163ffffffff1660e01b8152600401602060405180830381865afa158015610aca573d5f5f3e3d5ffd5b505050506040513d601f19601f82011682018060405250810190610aee91906142f1565b848381518110610b0057610b00614296565b602002602001015160e0018181525050610b3a868684818110610b2557610b25614296565b905060200201602081019061021c9190613cc4565b848381518110610b4c57610b4c614296565b60200260200101516101200181815250505f816001600160a01b031663686126e06040518163ffffffff1660e01b81526004015f60405180830381865afa158015610b99573d5f5f3e3d5ffd5b505050506040513d5f823e601f3d908101601f19168201604052610bc091908101906141ef565b90505f8151905080868581518110610bda57610bda614296565b6020026020010151610100018181525050806001600160401b03811115610c0357610c036141ab565b604051908082528060200260200182016040528015610c6a57816020015b610c576040518060a001604052805f6001600160a01b031681526020015f81526020015f81526020015f81526020015f81525090565b815260200190600190039081610c215790505b50868581518110610c7d57610c7d614296565b6020026020010151606001819052505f5b81811015610f07575f838281518110610ca957610ca9614296565b602002602001015190505f816001600160a01b03166307a2d13a610cf3848e8e8c818110610cd957610cd9614296565b9050602002016020810190610cee9190613cc4565b611de5565b6040518263ffffffff1660e01b8152600401610d1191815260200190565b602060405180830381865afa158015610d2c573d5f5f3e3d5ffd5b505050506040513d601f19601f82011682018060405250810190610d5091906142f1565b90505f610d5c83611e50565b90505f876001600160a01b031663f4c4a613888781518110610d8057610d80614296565b60200260200101516040518263ffffffff1660e01b8152600401610db391906001600160a01b0391909116815260200190565b602060405180830381865afa158015610dce573d5f5f3e3d5ffd5b505050506040513d601f19601f82011682018060405250810190610df291906142f1565b90505f610e258c8b81518110610e0a57610e0a614296565b60200260200101516040015183670de0b6b3a7640000611eb1565b90505f8115610e4057610e3b8561271084611eb1565b610e42565b5f5b90506040518060a001604052808a8981518110610e6157610e61614296565b60200260200101516001600160a01b03168152602001868152602001858152602001848152602001828152508d8c81518110610e9f57610e9f614296565b6020026020010151606001518881518110610ebc57610ebc614296565b6020026020010181905250838d8c81518110610eda57610eda614296565b6020026020010151608001818151610ef29190614308565b9052505060019095019450610c8e9350505050565b505050508060010190506107e4565b606082806001600160401b03811115610f3157610f316141ab565b604051908082528060200260200182016040528015610f8c57816020015b610f7960405180606001604052805f6001600160a01b031681526020015f81526020015f81525090565b815260200190600190039081610f4f5790505b5091505f5b81811015611105575f868683818110610fac57610fac614296565b9050602002016020810190610fc19190613cc4565b90505f610ff4888885818110610fd957610fd9614296565b9050602002016020810190610fee9190613cc4565b87611de5565b905087878481811061100857611008614296565b905060200201602081019061101d9190613cc4565b85848151811061102f5761102f614296565b60200260200101515f01906001600160a01b031690816001600160a01b0316815250508085848151811061106557611065614296565b60209081029190910181015101526040516303d1689d60e11b8152600481018290526001600160a01b038316906307a2d13a90602401602060405180830381865afa1580156110b6573d5f5f3e3d5ffd5b505050506040513d601f19601f820116820180604052508101906110da91906142f1565b8584815181106110ec576110ec614296565b6020908102919091010151604001525050600101610f91565b50509392505050565b5f828161111b8285611ed5565b90505f6111288688611de5565b90508015801561113a57506080820151155b1561114a575f935050505061120c565b7f00000000000000000000000000000000000000000000000000000000000000006001600160a01b0316632131c68c6040518163ffffffff1660e01b8152600401602060405180830381865afa1580156111a6573d5f5f3e3d5ffd5b505050506040513d601f19601f820116820180604052508101906111ca91906142aa565b6001600160a01b0316876001600160a01b0316036111f45760808201516111f19082614308565b90505b61120681835f01518460200151612235565b93505050505b9392505050565b5f5f8290505f816001600160a01b03166301e1d1146040518163ffffffff1660e01b8152600401602060405180830381865afa158015611255573d5f5f3e3d5ffd5b505050506040513d601f19601f8201168201806040525081019061127991906142f1565b9050805f0361128b57505f9392505050565b5f826001600160a01b031663686126e06040518163ffffffff1660e01b81526004015f60405180830381865afa1580156112c7573d5f5f3e3d5ffd5b505050506040513d5f823e601f3d908101601f191682016040526112ee91908101906141ef565b90505f5f5b8251811015611457575f83828151811061130f5761130f614296565b602002602001015190505f816001600160a01b03166307a2d13a611333848c611de5565b6040518263ffffffff1660e01b815260040161135191815260200190565b602060405180830381865afa15801561136c573d5f5f3e3d5ffd5b505050506040513d601f19601f8201168201806040525081019061139091906142f1565b90505f61139c83612256565b6001600160a01b031663c0b360446113b385611e50565b6113bc86612293565b6113c5876122d0565b6040516001600160e01b031960e086901b168152600481019390935260248301919091526044820152606401602060405180830381865afa15801561140c573d5f5f3e3d5ffd5b505050506040513d601f19601f8201168201806040525081019061143091906142f1565b905061143d828289611eb1565b6114479086614308565b94505050508060010190506112f3565b50611466816301e1338061431b565b9695505050505050565b60608061147e8484426118e9565b909590945092505050565b60405163de0c7a7160e01b81523360048201527f00000000000000000000000000000000000000000000000000000000000000006001600160a01b03169063de0c7a7190602401602060405180830381865afa1580156114eb573d5f5f3e3d5ffd5b505050506040513d601f19601f8201168201806040525081019061150f9190614346565b61152c576040516348b7eb3b60e11b815260040160405180910390fd5b801580159061153c575061271081105b1561155a5760405163014576d960e11b815260040160405180910390fd5b5f80549082905560408051828152602081018490527f45743f1778a40227cb785331fb7d115a568ee8655b31f131a8b62decdb93f249910160405180910390a15050565b5f816001600160a01b03166341ed2c126040518163ffffffff1660e01b8152600401602060405180830381865afa1580156115db573d5f5f3e3d5ffd5b505050506040513d601f19601f820116820180604052508101906115ff91906142aa565b92915050565b6040516346b7ddcf60e11b81526001600160a01b0383811660048301525f9182917f00000000000000000000000000000000000000000000000000000000000000001690638d6fbb9e906024015f60405180830381865afa15801561166c573d5f5f3e3d5ffd5b505050506040513d5f823e601f3d908101601f1916820160405261169391908101906141ef565b90505f5f825f815181106116a9576116a9614296565b60209081029190910101516040516305145fb560e31b81526001600160a01b03888116600483015260016024830152909116906328a2fda890604401608060405180830381865afa158015611700573d5f5f3e3d5ffd5b505050506040513d601f19601f82011682018060405250810190611724919061436f565b9350509250505f826001600160a01b031663feaf968c6040518163ffffffff1660e01b815260040160a060405180830381865afa158015611767573d5f5f3e3d5ffd5b505050506040513d601f19601f8201168201806040525081019061178b91906143e4565b509350505050612710868362ffffff1602816117a9576117a9614432565b048142031194505050505092915050565b6040516346b7ddcf60e11b81526001600160a01b0382811660048301525f9182917f00000000000000000000000000000000000000000000000000000000000000001690638d6fbb9e906024015f60405180830381865afa158015611821573d5f5f3e3d5ffd5b505050506040513d5f823e601f3d908101601f1916820160405261184891908101906141ef565b90505f815f8151811061185d5761185d614296565b6020908102919091010151604051635ae6916360e01b81526001600160a01b038681166004830152600160248301819052604483015290911690635ae6916390606401606060405180830381865afa1580156118bb573d5f5f3e3d5ffd5b505050506040513d601f19601f820116820180604052508101906118df9190614446565b5115949350505050565b6060805f856001600160a01b031663686126e06040518163ffffffff1660e01b81526004015f60405180830381865afa158015611928573d5f5f3e3d5ffd5b505050506040513d5f823e601f3d908101601f1916820160405261194f91908101906141ef565b905080515f0361195f5750611ddd565b6040516303b0029b60e11b81526001600160a01b03871660048201525f9030906307600536906024015f60405180830381865afa1580156119a2573d5f5f3e3d5ffd5b505050506040513d5f823e601f3d908101601f191682016040526119c991908101906141ef565b90506060805f6119db8a86868b61230d565b5090935091505f5b8251811015611a1b578281815181106119fe576119fe614296565b602002602001015182611a119190614308565b91506001016119e3565b50611a27858484612a53565b611a35575050505050611ddd565b84516001600160401b03811115611a4e57611a4e6141ab565b604051908082528060200260200182016040528015611a9257816020015b604080518082019091525f8082526020820152815260200190600190039081611a6c5790505b50965084516001600160401b03811115611aae57611aae6141ab565b604051908082528060200260200182016040528015611b0957816020015b611af660405180606001604052805f6001600160a01b031681526020015f81526020015f81525090565b815260200190600190039081611acc5790505b509550611b1b858484848d8c8c613082565b83515f03611dd7575f8a6001600160a01b03166338d52e0f6040518163ffffffff1660e01b8152600401602060405180830381865afa158015611b60573d5f5f3e3d5ffd5b505050506040513d601f19601f82011682018060405250810190611b8491906142aa565b604051635ae6916360e01b81526001600160a01b03828116600483015260016024830181905260448301529192505f9182917f000000000000000000000000000000000000000000000000000000000000000090911690635ae69163906064016040805180830381865afa158015611bfe573d5f5f3e3d5ffd5b505050506040513d601f19601f82011682018060405250810190611c2291906144aa565b91509150805f148015611c3457505f82115b15611dd3575f836001600160a01b031663313ce5676040518163ffffffff1660e01b8152600401602060405180830381865afa158015611c76573d5f5f3e3d5ffd5b505050506040513d601f19601f82011682018060405250810190611c9a91906144cc565b60ff1690505f5f5b8c51811015611cf8575f8d8281518110611cbe57611cbe614296565b60200260200101516020015190505f8113611ce157611cdc816144e5565b611ce3565b805b611ced9084614308565b925050600101611ca2565b505f611d19611d086002846144ff565b86611d1486600a6145f9565b611eb1565b905068056bc75e2d63100000811015611dcf57604080515f8082526020820190925290611d67565b604080518082019091525f8082526020820152815260200190600190039081611d415790505b50604080515f8082526020820190925290611dba565b611da760405180606001604052805f6001600160a01b031681526020015f81526020015f81525090565b815260200190600190039081611d7d5790505b509c509c505050505050505050505050611ddd565b5050505b5050505b50505050505b935093915050565b6040516370a0823160e01b81526001600160a01b0382811660048301525f91908416906370a0823190602401602060405180830381865afa158015611e2c573d5f5f3e3d5ffd5b505050506040513d601f19601f8201168201806040525081019061120c91906142f1565b5f816001600160a01b03166387367d716040518163ffffffff1660e01b8152600401602060405180830381865afa158015611e8d573d5f5f3e3d5ffd5b505050506040513d601f19601f820116820180604052508101906115ff91906142f1565b5f825f190484118302158202611ece5763ad251c275f526004601cfd5b5091020490565b611f026040518060a001604052805f81526020015f81526020015f81526020015f81526020015f81525090565b5f428310611f105782611f12565b425b9050611f1d84611e50565b60408301525f611f2c85612293565b90505f62012fd1828560400151611f439190614308565b611f4d9190614308565b9050856001600160a01b03166318160ddd6040518163ffffffff1660e01b8152600401602060405180830381865afa158015611f8b573d5f5f3e3d5ffd5b505050506040513d601f19601f82011682018060405250810190611faf91906142f1565b8460200181815250505f5f5f886001600160a01b0316637c0e0c8c6040518163ffffffff1660e01b8152600401608060405180830381865afa158015611ff7573d5f5f3e3d5ffd5b505050506040513d601f19601f8201168201806040525081019061201b9190614604565b509250925092505f612030848785858b61339e565b9050828710612188575f6120448288614308565b90505f6120508c612256565b90505f816001600160a01b03166367e860cd6040518163ffffffff1660e01b8152600401602060405180830381865afa15801561208f573d5f5f3e3d5ffd5b505050506040513d601f19601f820116820180604052508101906120b391906142f1565b6040808d015190516356ac239360e11b81529192506001600160a01b0384169163ad584726916120f0918790600401918252602082015260400190565b602060405180830381865afa15801561210b573d5f5f3e3d5ffd5b505050506040513d601f19601f8201168201806040525081019061212f91906142f1565b9650859450808080612141888e614637565b61214b91906144ff565b612155919061431b565b61215f9190614308565b6121699087614308565b9550612178878488888e61339e565b6121829085614308565b93505050505b8015612213575f6121a48261219c8d6122d0565b61271061340d565b90505f811180156121b857505f8960200151115b156121fe576121e2818a6020015183858a6121d39190614308565b6121dd9190614637565b613439565b60808a0181905260208a0180516121fa908390614308565b9052505b6122088288614308565b60608a01525061221b565b606088018690525b6122258186614308565b8852509598975050505050505050565b5f811561224c57612247848484613465565b61224e565b835b949350505050565b5f816001600160a01b0316631e75db166040518163ffffffff1660e01b8152600401602060405180830381865afa1580156115db573d5f5f3e3d5ffd5b5f816001600160a01b031663635d97716040518163ffffffff1660e01b8152600401602060405180830381865afa158015611e8d573d5f5f3e3d5ffd5b5f816001600160a01b031663a75df4986040518163ffffffff1660e01b8152600401602060405180830381865afa158015611e8d573d5f5f3e3d5ffd5b60608060605f86519050806001600160401b0381111561232f5761232f6141ab565b604051908082528060200260200182016040528015612358578160200160208202803683370190505b509350806001600160401b03811115612373576123736141ab565b60405190808252806020026020018201604052801561239c578160200160208202803683370190505b509250806001600160401b038111156123b7576123b76141ab565b60405190808252806020026020018201604052801561241e57816020015b61240b6040518060a001604052805f81526020015f81526020015f81526020015f81526020015f6001600160a01b031681525090565b8152602001906001900390816123d55790505b5091505f5f5b8281101561257a575f89828151811061243f5761243f614296565b602002602001015190505f612454828a611ed5565b90505f612470612464848f611de5565b83516020850151612235565b90508088858151811061248557612485614296565b602090810291909101015261249a8186614308565b60408301519095508181116124af575f6124b9565b6124b98282614637565b8886815181106124cb576124cb614296565b60200260200101515f01818152505082606001518886815181106124f1576124f1614296565b6020026020010151602001818152505061250a846122d0565b88868151811061251c5761251c614296565b6020026020010151604001818152505061253584612256565b88868151811061254757612547614296565b6020026020010151608001906001600160a01b031690816001600160a01b03168152505050505050806001019050612424565b50805f03612589575050612a49565b5f8981612599828c8c8a88613501565b90505f5b858110156127db575f8882815181106125b8576125b8614296565b602002602001015190506125e7848e84815181106125d8576125d8614296565b6020026020010151888661353f565b8883815181106125f9576125f9614296565b602002602001015160600181815250505f61261f8e848151811061035c5761035c614296565b90505f6126458f858151811061263757612637614296565b60200260200101518f6135f8565b8061266e575061266e8f858151811061266057612660614296565b602002602001015183613651565b90505f826001600160a01b031663b235d4686040518163ffffffff1660e01b8152600401602060405180830381865afa1580156126ad573d5f5f3e3d5ffd5b505050506040513d601f19601f820116820180604052508101906126d191906144cc565b60ff16600214905080156127a257838b86815181106126f2576126f2614296565b60200260200101515f018181516127099190614308565b9052506127168489614308565b9750838d868151811061272b5761272b614296565b602002602001018181525050811561276557838b868151811061275057612750614296565b602002602001015160600181815250506127cc565b838b868151811061277857612778614296565b602002602001015160600151101561279d57838b868151811061275057612750614296565b6127cc565b81156127cc575f8b86815181106127bb576127bb614296565b602002602001015160600181815250505b5050505080600101905061259d565b50505080826127ea9190614637565b91505f6127f86064846144ff565b90505f5b6064811015612a38575f61281260016064614637565b821461281e578261283e565b61282a60016064614637565b612834908461431b565b61283e9086614637565b9050805f0361284d5750612a30565b5f5f5f5f5b898110156129c9578a818151811061286c5761286c614296565b602002602001015160600151858e838151811061288b5761288b614296565b602002602001015161289d9190614308565b116129c1575f8b82815181106128b5576128b5614296565b6020026020010151608001516001600160a01b031663c0b36044878e85815181106128e2576128e2614296565b60200260200101515f01516128f79190614308565b8e858151811061290957612909614296565b6020026020010151602001518f868151811061292757612927614296565b6020026020010151604001516040518463ffffffff1660e01b8152600401612962939291909283526020830191909152604082015260600190565b602060405180830381865afa15801561297d573d5f5f3e3d5ffd5b505050506040513d601f19601f820116820180604052508101906129a191906142f1565b90508215806129af57508481115b156129bf57809450819350600192505b505b600101612852565b508015612a2b57838c83815181106129e3576129e3614296565b602002602001018181516129f79190614308565b905250895184908b9084908110612a1057612a10614296565b60200260200101515f01818151612a279190614308565b9052505b505050505b6001016127fc565b50612a448786856136c6565b505050505b9450945094915050565b82515f9081805b82811015612c4d57848181518110612a7457612a74614296565b6020026020010151868281518110612a8e57612a8e614296565b60200260200101510315612c45575f858281518110612aaf57612aaf614296565b6020026020010151878381518110612ac957612ac9614296565b60200260200101511190505f81612b1d57878381518110612aec57612aec614296565b6020026020010151878481518110612b0657612b06614296565b6020026020010151612b189190614637565b612b5b565b868381518110612b2f57612b2f614296565b6020026020010151888481518110612b4957612b49614296565b6020026020010151612b5b9190614637565b9050888381518110612b6f57612b6f614296565b60200260200101516001600160a01b031663c6e6f592826040518263ffffffff1660e01b8152600401612ba491815260200190565b602060405180830381865afa158015612bbf573d5f5f3e3d5ffd5b505050506040513d601f19601f82011682018060405250810190612be391906142f1565b5f03612c425781612bf45780612bfd565b612bfd816144e5565b612c07908561464a565b9350868381518110612c1b57612c1b614296565b6020026020010151888481518110612c3557612c35614296565b6020026020010181815250505b50505b600101612a5a565b50801561301f575f5f8213612c6a57612c65826144e5565b612c6c565b815b90505f82135b811561301c575f5f1981805b87811015612db057898181518110612c9857612c98614296565b60200260200101518b8281518110612cb257612cb2614296565b60200260200101510315612da8575f8a8281518110612cd357612cd3614296565b60200260200101518c8381518110612ced57612ced614296565b602002602001015111905085151581151514612d095750612da8565b5f81612d52578c8381518110612d2157612d21614296565b60200260200101518c8481518110612d3b57612d3b614296565b6020026020010151612d4d9190614637565b612d90565b8b8381518110612d6457612d64614296565b60200260200101518d8481518110612d7e57612d7e614296565b6020026020010151612d909190614637565b905084811015612da557809450829550600193505b50505b600101612c7e565b5080612e08575f5b87811015612dff57898181518110612dd257612dd2614296565b60200260200101518b8281518110612dec57612dec614296565b6020908102919091010152600101612db8565b5050505061301c565b818510612e5757888381518110612e2157612e21614296565b60200260200101518a8481518110612e3b57612e3b614296565b6020908102919091010152612e508286614637565b9450613014565b8315612e8c57848a8481518110612e7057612e70614296565b60200260200101818151612e849190614637565b905250612eb7565b848a8481518110612e9f57612e9f614296565b60200260200101818151612eb39190614308565b9052505b5f84612f00578a8481518110612ecf57612ecf614296565b60200260200101518a8581518110612ee957612ee9614296565b6020026020010151612efb9190614637565b612f3e565b898481518110612f1257612f12614296565b60200260200101518b8581518110612f2c57612f2c614296565b6020026020010151612f3e9190614637565b90508b8481518110612f5257612f52614296565b60200260200101516001600160a01b031663c6e6f592826040518263ffffffff1660e01b8152600401612f8791815260200190565b602060405180830381865afa158015612fa2573d5f5f3e3d5ffd5b505050506040513d601f19601f82011682018060405250810190612fc691906142f1565b5f0361300e57898481518110612fde57612fde614296565b60200260200101518b8581518110612ff857612ff8614296565b6020908102919091010152945092159284613012565b5f95505b505b505050612c72565b50505b5f5b828110156130765784818151811061303b5761303b614296565b602002602001015186828151811061305557613055614296565b60200260200101511461306e576001935050505061120c565b600101613021565b505f9695505050505050565b5f5b87518110156133945785818151811061309f5761309f614296565b60200260200101518782815181106130b9576130b9614296565b6020026020010151111561315d5760405180604001604052808983815181106130e4576130e4614296565b60200260200101516001600160a01b0316815260200187838151811061310c5761310c614296565b602002602001015189848151811061312657613126614296565b60200260200101516131389190614637565b81525083828151811061314d5761314d614296565b6020026020010181905250613266565b86818151811061316f5761316f614296565b602002602001015186828151811061318957613189614296565b602002602001015111156132115760405180604001604052808983815181106131b4576131b4614296565b60200260200101516001600160a01b031681526020018883815181106131dc576131dc614296565b60200260200101518884815181106131f6576131f6614296565b60200260200101516132089190614637565b613138906144e5565b604051806040016040528089838151811061322e5761322e614296565b60200260200101516001600160a01b031681526020015f81525083828151811061325a5761325a614296565b60200260200101819052505b841561332f575f61329388838151811061328257613282614296565b602002602001015161271088611eb1565b905060405180606001604052808a84815181106132b2576132b2614296565b60200260200101516001600160a01b031681526020018683116132d5575f6132df565b6132df8784614637565b81526020016127106132f18885614308565b11613305576133008784614308565b613309565b6127105b81525083838151811061331e5761331e614296565b60200260200101819052505061338c565b604051806060016040528089838151811061334c5761334c614296565b60200260200101516001600160a01b031681526020015f815260200161271081525082828151811061338057613380614296565b60200260200101819052505b600101613084565b5050505050505050565b5f8515806133ac5750838310155b156133b857505f613404565b5f8483106133c657846133c8565b825b90508381116133da575f915050613404565b6134006133e78583614637565b6133f1908961431b565b87670de0b6b3a7640000611eb1565b9150505b95945050505050565b5f825f19048411830215820261342a5763ad251c275f526004601cfd5b50910281810615159190040190565b5f613445848484613465565b9050818385091561120c576001018061120c5763ae47f7025f526004601cfd5b8282025f198385098181108201900380613494578261348b5763ae47f7025f526004601cfd5b5081900461120c565b8083116134a85763ae47f7025f526004601cfd5b828486095f84810385169485900494848311909303908390038390046001010292030417600260038302811880840282030280840282030280840282030280840282030280840282030280840290910302029392505050565b5f60055b6135138787878787866139a6565b1561351f579050613404565b805f0361352f575f915050613404565b61353881614669565b9050613505565b60405163f4c4a61360e01b81526001600160a01b0384811660048301525f91829187169063f4c4a61390602401602060405180830381865afa158015613587573d5f5f3e3d5ffd5b505050506040513d601f19601f820116820180604052508101906135ab91906142f1565b90505f6135be84655af3107a400061431b565b90508082116135d1575f9250505061224e565b6135ed856135df8385614637565b670de0b6b3a7640000611eb1565b979650505050505050565b5f5f5b825181101561364857836001600160a01b031683828151811061362057613620614296565b60200260200101516001600160a01b0316036136405760019150506115ff565b6001016135fb565b505f9392505050565b60405163699ba8b360e01b81526001600160a01b0383811660048301525f919083169063699ba8b390602401606060405180830381865afa158015613698573d5f5f3e3d5ffd5b505050506040513d601f19601f820116820180604052508101906136bc919061467e565b5090949350505050565b5f5f5b8451811015613701578481815181106136e4576136e4614296565b6020026020010151826136f79190614308565b91506001016136c9565b5081811061370f5750505050565b5f61371a8284614637565b90505b801561397f575f5f5f5f5f5b89518110156139015788818151811061374457613744614296565b6020026020010151606001518a828151811061376257613762614296565b602002602001015110156138f9575f8a828151811061378357613783614296565b60200260200101518a838151811061379d5761379d614296565b6020026020010151606001516137b39190614637565b90505f8782106137c357876137c5565b815b9050805f036137d55750506138f9565b5f8b84815181106137e8576137e8614296565b6020026020010151608001516001600160a01b031663c0b36044838e878151811061381557613815614296565b60200260200101515f015161382a9190614308565b8e878151811061383c5761383c614296565b6020026020010151602001518f888151811061385a5761385a614296565b6020026020010151604001516040518463ffffffff1660e01b8152600401613895939291909283526020830191909152604082015260600190565b602060405180830381865afa1580156138b0573d5f5f3e3d5ffd5b505050506040513d601f19601f820116820180604052508101906138d491906142f1565b90508415806138e257508781115b156138f557809750839650819550600194505b5050505b600101613729565b5080613910575050505061397f565b8189848151811061392357613923614296565b602002602001018181516139379190614308565b9052508751829089908590811061395057613950614296565b60200260200101515f018181516139679190614308565b9052506139748286614637565b94505050505061371d565b5f8111801561398f575084518111155b1561399f5761399f858583613b0f565b5050505050565b5f5f5f5b8751811015613b01575f6139c989838151811061035c5761035c614296565b90505f6139ef8a84815181106139e1576139e1614296565b60200260200101518a6135f8565b80613a0a5750613a0a8a848151811061266057612660614296565b90505f826001600160a01b031663b235d4686040518163ffffffff1660e01b8152600401602060405180830381865afa158015613a49573d5f5f3e3d5ffd5b505050506040513d601f19601f82011682018060405250810190613a6d91906144cc565b60ff1660021490508015613aa757888481518110613a8d57613a8d614296565b602002602001015185613aa09190614308565b9450613ade565b81613ade57613ad18c8c8681518110613ac257613ac2614296565b60200260200101518a8a61353f565b613adb9086614308565b94505b878510613af357600195505050505050611466565b5050508060010190506139aa565b505f98975050505050505050565b5f5f5f5f5b8651811015613c43575f868281518110613b3057613b30614296565b6020026020010151608001516001600160a01b031663c0b3604487898581518110613b5d57613b5d614296565b60200260200101515f0151613b729190614308565b898581518110613b8457613b84614296565b6020026020010151602001518a8681518110613ba257613ba2614296565b6020026020010151604001516040518463ffffffff1660e01b8152600401613bdd939291909283526020830191909152604082015260600190565b602060405180830381865afa158015613bf8573d5f5f3e3d5ffd5b505050506040513d601f19601f82011682018060405250810190613c1c91906142f1565b9050821580613c2a57508481115b15613c3a57809450819350600192505b50600101613b14565b508015613ca55783868381518110613c5d57613c5d614296565b60200260200101818151613c719190614308565b90525084518490869084908110613c8a57613c8a614296565b60200260200101515f01818151613ca19190614308565b9052505b505050505050565b6001600160a01b0381168114613cc1575f5ffd5b50565b5f60208284031215613cd4575f5ffd5b813561120c81613cad565b602080825282518282018190525f918401906040840190835b81811015613d1f5783516001600160a01b0316835260209384019390920191600101613cf8565b509095945050505050565b5f5f83601f840112613d3a575f5ffd5b5081356001600160401b03811115613d50575f5ffd5b6020830191508360208260051b8501011115613d6a575f5ffd5b9250929050565b5f5f60208385031215613d82575f5ffd5b82356001600160401b03811115613d97575f5ffd5b61072885828601613d2a565b5f602082016020835280845180835260408501915060408160051b8601019250602086015f5b82811015613e2c57868503603f19018452815180518087526020918201918701905f5b81811015613e135783516001600160a01b0316835260209384019390920191600101613dec565b5090965050506020938401939190910190600101613dc9565b50929695505050505050565b5f5f5f60608486031215613e4a575f5ffd5b8335613e5581613cad565b95602085013595506040909401359392505050565b604080825283519082018190525f9060208501906060840190835b81811015613eb857835180516001600160a01b031684526020908101518185015290930192604090920191600101613e85565b5050838103602080860191909152855180835291810192508501905f5b81811015613f1b57613f0584845180516001600160a01b0316825260208082015190830152604090810151910152565b6060939093019260209290920191600101613ed5565b50919695505050505050565b5f8151808452602084019350602083015f5b82811015613f8d57815180516001600160a01b031687526020808201518189015260408083015190890152606080830151908901526080918201519188019190915260a09096019590910190600101613f39565b5093949350505050565b5f602082016020835280845180835260408501915060408160051b8601019250602086015f5b82811015613e2c57868503603f19018452815180516001600160a01b031686526020810151613ff760208801826001600160a01b03169052565b50604081015160408701526060810151610140606088015261401d610140880182613f27565b90506080820151608088015260a082015160a088015260c082015160c088015260e082015160e08801526101008201516101008801526101208201516101208801528096505050602082019150602084019350600181019050613fbd565b5f5f5f6040848603121561408d575f5ffd5b83356001600160401b038111156140a2575f5ffd5b6140ae86828701613d2a565b90945092505060208401356140c281613cad565b809150509250925092565b602080825282518282018190525f918401906040840190835b81811015613d1f5761411683855180516001600160a01b0316825260208082015190830152604090810151910152565b60209390930192606092909201916001016140e6565b5f5f5f6060848603121561413e575f5ffd5b833561414981613cad565b9250602084013561415981613cad565b929592945050506040919091013590565b5f5f6040838503121561417b575f5ffd5b823561418681613cad565b946020939093013593505050565b5f602082840312156141a4575f5ffd5b5035919050565b634e487b7160e01b5f52604160045260245ffd5b604051601f8201601f191681016001600160401b03811182821017156141e7576141e76141ab565b604052919050565b5f602082840312156141ff575f5ffd5b81516001600160401b03811115614214575f5ffd5b8201601f81018413614224575f5ffd5b80516001600160401b0381111561423d5761423d6141ab565b8060051b61424d602082016141bf565b91825260208184018101929081019087841115614268575f5ffd5b6020850194505b838510156135ed578451925061428483613cad565b8282526020948501949091019061426f565b634e487b7160e01b5f52603260045260245ffd5b5f602082840312156142ba575f5ffd5b815161120c81613cad565b634e487b7160e01b5f52601160045260245ffd5b5f600182016142ea576142ea6142c5565b5060010190565b5f60208284031215614301575f5ffd5b5051919050565b808201808211156115ff576115ff6142c5565b80820281158282048414176115ff576115ff6142c5565b80518015158114614341575f5ffd5b919050565b5f60208284031215614356575f5ffd5b61120c82614332565b805160ff81168114614341575f5ffd5b5f5f5f5f60808587031215614382575f5ffd5b61438b85614332565b9350602085015161439b81613cad565b92506143a96040860161435f565b9150606085015162ffffff811681146143c0575f5ffd5b939692955090935050565b805169ffffffffffffffffffff81168114614341575f5ffd5b5f5f5f5f5f60a086880312156143f8575f5ffd5b614401866143cb565b60208701516040880151606089015192975090955093509150614426608087016143cb565b90509295509295909350565b634e487b7160e01b5f52601260045260245ffd5b5f6060828403128015614457575f5ffd5b50604051606081016001600160401b038111828210171561447a5761447a6141ab565b6040528251815261448d60208401614332565b602082015261449e60408401614332565b60408201529392505050565b5f5f604083850312156144bb575f5ffd5b505080516020909101519092909150565b5f602082840312156144dc575f5ffd5b61120c8261435f565b5f600160ff1b82016144f9576144f96142c5565b505f0390565b5f8261451957634e487b7160e01b5f52601260045260245ffd5b500490565b6001815b6001841115611ddd5780850481111561453d5761453d6142c5565b600184161561454b57908102905b60019390931c928002614522565b5f82614567575060016115ff565b8161457357505f6115ff565b81600181146145895760028114614593576145af565b60019150506115ff565b60ff8411156145a4576145a46142c5565b50506001821b6115ff565b5060208310610133831016604e8410600b84101617156145d2575081810a6115ff565b6145de5f19848461451e565b805f19048211156145f1576145f16142c5565b029392505050565b5f61120c8383614559565b5f5f5f5f60808587031215614617575f5ffd5b505082516020840151604085015160609095015191969095509092509050565b818103818111156115ff576115ff6142c5565b8082018281125f831280158216821582161715610712576107126142c5565b5f81614677576146776142c5565b505f190190565b5f5f5f60608486031215614690575f5ffd5b61469984614332565b92506146a760208501614332565b91506146b560408501614332565b9050925092509256fea264697066735822122047723c1143a91c1cd7331b85e725b1e532f65a0375e8f3f244a21f6da3ef985464736f6c634300081c0033","linkReferences":{}},"methodIdentifiers":{"CAP_BUFFER_BPS()":"45a7a9b3","ORACLE_MANAGER()":"d24bc1a4","REBALANCE_CHUNKS()":"137c1b9f","USD_THRESHOLD()":"c1a0a952","assetsAtTimestamp(address,address,uint256)":"77518b44","centralRegistry()":"8f73dcfa","getOptimizerAPY(address)":"9e26ba99","getOptimizerMarketData(address[])":"4be8ed5a","getOptimizerUserData(address[],address)":"6197cadb","isBad(address)":"07600536","multiIsBadCheck(address[])":"17c39e16","optimalRebalance(address,uint256)":"bd5ee7f2","optimalRebalanceAt(address,uint256,uint256)":"3efa4d72","setStalenessMultiplier(uint256)":"c04fe890","stalenessMultiplierBps()":"acc77ad3"},"id":131}