{"abi":[{"type":"constructor","inputs":[{"name":"_centralRegistry","type":"address","internalType":"contract ICentralRegistry"},{"name":"_stalenessMultiplier","type":"uint256","internalType":"uint256"}],"stateMutability":"nonpayable"},{"type":"function","name":"CAP_BUFFER_BPS","inputs":[],"outputs":[{"name":"","type":"uint256","internalType":"uint256"}],"stateMutability":"view"},{"type":"function","name":"ORACLE_MANAGER","inputs":[],"outputs":[{"name":"","type":"address","internalType":"contract IOracleManager"}],"stateMutability":"view"},{"type":"function","name":"USD_THRESHOLD","inputs":[],"outputs":[{"name":"","type":"uint256","internalType":"uint256"}],"stateMutability":"view"},{"type":"function","name":"centralRegistry","inputs":[],"outputs":[{"name":"","type":"address","internalType":"contract ICentralRegistry"}],"stateMutability":"view"},{"type":"function","name":"getOptimizerAPY","inputs":[{"name":"optimizer","type":"address","internalType":"address"}],"outputs":[{"name":"apy","type":"uint256","internalType":"uint256"}],"stateMutability":"nonpayable"},{"type":"function","name":"getOptimizerMarketData","inputs":[{"name":"optimizers","type":"address[]","internalType":"address[]"}],"outputs":[{"name":"data","type":"tuple[]","internalType":"struct OptimizerReader.OptimizerMarketData[]","components":[{"name":"_address","type":"address","internalType":"address"},{"name":"asset","type":"address","internalType":"address"},{"name":"totalAssets","type":"uint256","internalType":"uint256"},{"name":"markets","type":"tuple[]","internalType":"struct OptimizerReader.OptimizerCTokenData[]","components":[{"name":"_address","type":"address","internalType":"address"},{"name":"allocatedAssets","type":"uint256","internalType":"uint256"},{"name":"liquidity","type":"uint256","internalType":"uint256"},{"name":"allocationCap","type":"uint256","internalType":"uint256"},{"name":"allocationCapUtilizationBps","type":"uint256","internalType":"uint256"}]},{"name":"totalLiquidity","type":"uint256","internalType":"uint256"},{"name":"sharePrice","type":"uint256","internalType":"uint256"},{"name":"exchangeRateHighWatermark","type":"uint256","internalType":"uint256"},{"name":"performanceFee","type":"uint256","internalType":"uint256"},{"name":"numApprovedMarkets","type":"uint256","internalType":"uint256"},{"name":"apy","type":"uint256","internalType":"uint256"}]}],"stateMutability":"nonpayable"},{"type":"function","name":"getOptimizerUserData","inputs":[{"name":"optimizers","type":"address[]","internalType":"address[]"},{"name":"account","type":"address","internalType":"address"}],"outputs":[{"name":"data","type":"tuple[]","internalType":"struct OptimizerReader.OptimizerUserData[]","components":[{"name":"_address","type":"address","internalType":"address"},{"name":"shareBalance","type":"uint256","internalType":"uint256"},{"name":"redeemable","type":"uint256","internalType":"uint256"}]}],"stateMutability":"nonpayable"},{"type":"function","name":"isBad","inputs":[{"name":"optimizer","type":"address","internalType":"address"}],"outputs":[{"name":"bad","type":"address[]","internalType":"address[]"}],"stateMutability":"view"},{"type":"function","name":"multiIsBadCheck","inputs":[{"name":"optimizers","type":"address[]","internalType":"address[]"}],"outputs":[{"name":"badOptimizers","type":"address[][]","internalType":"address[][]"}],"stateMutability":"view"},{"type":"function","name":"optimalRebalance","inputs":[{"name":"optimizer","type":"address","internalType":"address"},{"name":"slippageBps","type":"uint256","internalType":"uint256"},{"name":"rebalanceChunks","type":"uint256","internalType":"uint256"}],"outputs":[{"name":"actions","type":"tuple[]","internalType":"struct LendingOptimizer.ReallocationAction[]","components":[{"name":"cToken","type":"address","internalType":"contract IBorrowableCToken"},{"name":"assetsOrBps","type":"int256","internalType":"int256"}]},{"name":"bounds","type":"tuple[]","internalType":"struct LendingOptimizer.AllocationBound[]","components":[{"name":"cToken","type":"address","internalType":"address"},{"name":"minBps","type":"uint256","internalType":"uint256"},{"name":"maxBps","type":"uint256","internalType":"uint256"}]}],"stateMutability":"nonpayable"},{"type":"function","name":"setStalenessMultiplier","inputs":[{"name":"newMultiplierBps","type":"uint256","internalType":"uint256"}],"outputs":[],"stateMutability":"nonpayable"},{"type":"function","name":"stalenessMultiplierBps","inputs":[],"outputs":[{"name":"","type":"uint256","internalType":"uint256"}],"stateMutability":"view"},{"type":"event","name":"StalenessMultiplierUpdated","inputs":[{"name":"oldMultiplier","type":"uint256","indexed":false,"internalType":"uint256"},{"name":"newMultiplier","type":"uint256","indexed":false,"internalType":"uint256"}],"anonymous":false},{"type":"error","name":"OptimizerReader__InvalidMultiplier","inputs":[]},{"type":"error","name":"OptimizerReader__InvalidRebalanceChunks","inputs":[]},{"type":"error","name":"OptimizerReader__Unauthorized","inputs":[]}],"bytecode":{"object":"0x60c060405234801561000f575f5ffd5b5060405161432e38038061432e83398101604081905261002e916100c5565b6001600160a01b03821660a08190526040805163159761e360e21b8152905163565d878c916004808201926020929091908290030181865afa158015610076573d5f5f3e3d5ffd5b505050506040513d601f19601f8201168201806040525081019061009a91906100f1565b6001600160a01b03166080525f5550610113565b6001600160a01b03811681146100c2575f5ffd5b50565b5f5f604083850312156100d6575f5ffd5b82516100e1816100ae565b6020939093015192949293505050565b5f60208284031215610101575f5ffd5b815161010c816100ae565b9392505050565b60805160a0516141de6101505f395f8181610159015261114e01525f81816101d80152818161135b015281816115100152611c5701526141de5ff3fe608060405234801561000f575f5ffd5b50600436106100b1575f3560e01c80639e26ba991161006e5780639e26ba9914610193578063acc77ad3146101a6578063c04fe890146101ae578063c1a0a952146101c3578063d24bc1a4146101d3578063d2f00c88146101fa575f5ffd5b806307600536146100b557806317c39e16146100de57806345a7a9b3146100fe5780634be8ed5a146101145780636197cadb146101345780638f73dcfa14610154575b5f5ffd5b6100c86100c3366004613832565b61021b565b6040516100d5919061384d565b60405180910390f35b6100f16100ec3660046138df565b610590565b6040516100d5919061391d565b610106600581565b6040519081526020016100d5565b6101276101223660046138df565b6106ad565b6040516100d59190613a22565b610147610142366004613b06565b610e95565b6040516100d59190613b58565b61017b7f000000000000000000000000000000000000000000000000000000000000000081565b6040516001600160a01b0390911681526020016100d5565b6101066101a1366004613832565b6110db565b6101065f5481565b6101c16101bc366004613bb7565b611139565b005b61010668056bc75e2d6310000081565b61017b7f000000000000000000000000000000000000000000000000000000000000000081565b61020d610208366004613bce565b61124e565b6040516100d5929190613c00565b60605f826001600160a01b031663686126e06040518163ffffffff1660e01b81526004015f60405180830381865afa158015610259573d5f5f3e3d5ffd5b505050506040513d5f823e601f3d908101601f191682016040526102809190810190613d01565b80519091505f816001600160401b0381111561029e5761029e613cbd565b6040519080825280602002602001820160405280156102c7578160200160208202803683370190505b505f805491925090815b848110156104ea575f6102fc8783815181106102ef576102ef613db3565b60200260200101516112d7565b90505f816001600160a01b031663afbe407a6040518163ffffffff1660e01b81526004015f60405180830381865afa15801561033a573d5f5f3e3d5ffd5b505050506040513d5f823e601f3d908101601f191682016040526103619190810190613d01565b90505f5f5b825181101561047c5789858151811061038157610381613db3565b60200260200101516001600160a01b03168382815181106103a4576103a4613db3565b60200260200101516001600160a01b03160315610474575f8382815181106103ce576103ce613db3565b60200260200101516001600160a01b03166338d52e0f6040518163ffffffff1660e01b8152600401602060405180830381865afa158015610411573d5f5f3e3d5ffd5b505050506040513d601f19601f820116820180604052508101906104359190613dc7565b90505f8711801561044b575061044b8188611338565b1561045a57600192505061047c565b610463816114ed565b1561047257600192505061047c565b505b600101610366565b5080156104dc5788848151811061049557610495613db3565b60200260200101518787806104a990613df6565b9850815181106104bb576104bb613db3565b60200260200101906001600160a01b031690816001600160a01b0316815250505b5050508060010190506102d1565b50816001600160401b0381111561050357610503613cbd565b60405190808252806020026020018201604052801561052c578160200160208202803683370190505b5095505f5b828110156105855783818151811061054b5761054b613db3565b602002602001015187828151811061056557610565613db3565b6001600160a01b0390921660209283029190910190910152600101610531565b505050505050919050565b606081806001600160401b038111156105ab576105ab613cbd565b6040519080825280602002602001820160405280156105de57816020015b60608152602001906001900390816105c95790505b5091505f5b818110156106a55730630760053686868481811061060357610603613db3565b90506020020160208101906106189190613832565b6040516001600160e01b031960e084901b1681526001600160a01b0390911660048201526024015f60405180830381865afa158015610659573d5f5f3e3d5ffd5b505050506040513d5f823e601f3d908101601f191682016040526106809190810190613d01565b83828151811061069257610692613db3565b60209081029190910101526001016105e3565b505092915050565b606081806001600160401b038111156106c8576106c8613cbd565b60405190808252806020026020018201604052801561075857816020015b6107456040518061014001604052805f6001600160a01b031681526020015f6001600160a01b031681526020015f8152602001606081526020015f81526020015f81526020015f81526020015f81526020015f81526020015f81525090565b8152602001906001900390816106e65790505b5091505f5b818110156106a5575f85858381811061077857610778613db3565b905060200201602081019061078d9190613832565b90508585838181106107a1576107a1613db3565b90506020020160208101906107b69190613832565b8483815181106107c8576107c8613db3565b60200260200101515f01906001600160a01b031690816001600160a01b031681525050806001600160a01b03166338d52e0f6040518163ffffffff1660e01b8152600401602060405180830381865afa158015610827573d5f5f3e3d5ffd5b505050506040513d601f19601f8201168201806040525081019061084b9190613dc7565b84838151811061085d5761085d613db3565b6020026020010151602001906001600160a01b031690816001600160a01b031681525050806001600160a01b031663f41102916040518163ffffffff1660e01b81526004016020604051808303815f875af11580156108be573d5f5f3e3d5ffd5b505050506040513d601f19601f820116820180604052508101906108e29190613e0e565b8483815181106108f4576108f4613db3565b602002602001015160a0018181525050806001600160a01b03166301e1d1146040518163ffffffff1660e01b8152600401602060405180830381865afa158015610940573d5f5f3e3d5ffd5b505050506040513d601f19601f820116820180604052508101906109649190613e0e565b84838151811061097657610976613db3565b60200260200101516040018181525050806001600160a01b031663974ad22e6040518163ffffffff1660e01b8152600401602060405180830381865afa1580156109c2573d5f5f3e3d5ffd5b505050506040513d601f19601f820116820180604052508101906109e69190613e0e565b8483815181106109f8576109f8613db3565b602002602001015160c0018181525050806001600160a01b031663ddca3f436040518163ffffffff1660e01b8152600401602060405180830381865afa158015610a44573d5f5f3e3d5ffd5b505050506040513d601f19601f82011682018060405250810190610a689190613e0e565b848381518110610a7a57610a7a613db3565b602002602001015160e0018181525050610ab9868684818110610a9f57610a9f613db3565b9050602002016020810190610ab49190613832565b61161c565b848381518110610acb57610acb613db3565b60200260200101516101200181815250505f816001600160a01b031663686126e06040518163ffffffff1660e01b81526004015f60405180830381865afa158015610b18573d5f5f3e3d5ffd5b505050506040513d5f823e601f3d908101601f19168201604052610b3f9190810190613d01565b90505f8151905080868581518110610b5957610b59613db3565b6020026020010151610100018181525050806001600160401b03811115610b8257610b82613cbd565b604051908082528060200260200182016040528015610be957816020015b610bd66040518060a001604052805f6001600160a01b031681526020015f81526020015f81526020015f81526020015f81525090565b815260200190600190039081610ba05790505b50868581518110610bfc57610bfc613db3565b6020026020010151606001819052505f5b81811015610e86575f838281518110610c2857610c28613db3565b602002602001015190505f816001600160a01b03166307a2d13a610c72848e8e8c818110610c5857610c58613db3565b9050602002016020810190610c6d9190613832565b611879565b6040518263ffffffff1660e01b8152600401610c9091815260200190565b602060405180830381865afa158015610cab573d5f5f3e3d5ffd5b505050506040513d601f19601f82011682018060405250810190610ccf9190613e0e565b90505f610cdb836118eb565b90505f876001600160a01b031663f4c4a613888781518110610cff57610cff613db3565b60200260200101516040518263ffffffff1660e01b8152600401610d3291906001600160a01b0391909116815260200190565b602060405180830381865afa158015610d4d573d5f5f3e3d5ffd5b505050506040513d601f19601f82011682018060405250810190610d719190613e0e565b90505f610da48c8b81518110610d8957610d89613db3565b60200260200101516040015183670de0b6b3a764000061194c565b90505f8115610dbf57610dba856127108461194c565b610dc1565b5f5b90506040518060a001604052808a8981518110610de057610de0613db3565b60200260200101516001600160a01b03168152602001868152602001858152602001848152602001828152508d8c81518110610e1e57610e1e613db3565b6020026020010151606001518881518110610e3b57610e3b613db3565b6020026020010181905250838d8c81518110610e5957610e59613db3565b6020026020010151608001818151610e719190613e25565b9052505060019095019450610c0d9350505050565b5050505080600101905061075d565b606082806001600160401b03811115610eb057610eb0613cbd565b604051908082528060200260200182016040528015610f0b57816020015b610ef860405180606001604052805f6001600160a01b031681526020015f81526020015f81525090565b815260200190600190039081610ece5790505b5091505f5b818110156110d2575f868683818110610f2b57610f2b613db3565b9050602002016020810190610f409190613832565b9050806001600160a01b031663775a814a6040518163ffffffff1660e01b81526004015f604051808303815f87803b158015610f7a575f5ffd5b505af1158015610f8c573d5f5f3e3d5ffd5b505050505f610fc1888885818110610fa657610fa6613db3565b9050602002016020810190610fbb9190613832565b87611879565b9050878784818110610fd557610fd5613db3565b9050602002016020810190610fea9190613832565b858481518110610ffc57610ffc613db3565b60200260200101515f01906001600160a01b031690816001600160a01b0316815250508085848151811061103257611032613db3565b60209081029190910181015101526040516303d1689d60e11b8152600481018290526001600160a01b038316906307a2d13a90602401602060405180830381865afa158015611083573d5f5f3e3d5ffd5b505050506040513d601f19601f820116820180604052508101906110a79190613e0e565b8584815181106110b9576110b9613db3565b6020908102919091010151604001525050600101610f10565b50509392505050565b5f816001600160a01b031663775a814a6040518163ffffffff1660e01b81526004015f604051808303815f87803b158015611114575f5ffd5b505af1158015611126573d5f5f3e3d5ffd5b505050506111338261161c565b92915050565b60405163de0c7a7160e01b81523360048201527f00000000000000000000000000000000000000000000000000000000000000006001600160a01b03169063de0c7a7190602401602060405180830381865afa15801561119b573d5f5f3e3d5ffd5b505050506040513d601f19601f820116820180604052508101906111bf9190613e4c565b6111dc576040516348b7eb3b60e11b815260040160405180910390fd5b80158015906111ec575061271081105b1561120a5760405163014576d960e11b815260040160405180910390fd5b5f80549082905560408051828152602081018490527f45743f1778a40227cb785331fb7d115a568ee8655b31f131a8b62decdb93f249910160405180910390a15050565b606080825f0361127157604051631e25928160e21b815260040160405180910390fd5b846001600160a01b031663775a814a6040518163ffffffff1660e01b81526004015f604051808303815f87803b1580156112a9575f5ffd5b505af11580156112bb573d5f5f3e3d5ffd5b505050506112ca858585611970565b915091505b935093915050565b5f816001600160a01b03166341ed2c126040518163ffffffff1660e01b8152600401602060405180830381865afa158015611314573d5f5f3e3d5ffd5b505050506040513d601f19601f820116820180604052508101906111339190613dc7565b6040516346b7ddcf60e11b81526001600160a01b0383811660048301525f9182917f00000000000000000000000000000000000000000000000000000000000000001690638d6fbb9e906024015f60405180830381865afa15801561139f573d5f5f3e3d5ffd5b505050506040513d5f823e601f3d908101601f191682016040526113c69190810190613d01565b90505f5f825f815181106113dc576113dc613db3565b60209081029190910101516040516305145fb560e31b81526001600160a01b03888116600483015260016024830152909116906328a2fda890604401608060405180830381865afa158015611433573d5f5f3e3d5ffd5b505050506040513d601f19601f820116820180604052508101906114579190613e75565b9350509250505f826001600160a01b031663feaf968c6040518163ffffffff1660e01b815260040160a060405180830381865afa15801561149a573d5f5f3e3d5ffd5b505050506040513d601f19601f820116820180604052508101906114be9190613eea565b509350505050612710868362ffffff1602816114dc576114dc613f38565b048142031194505050505092915050565b6040516346b7ddcf60e11b81526001600160a01b0382811660048301525f9182917f00000000000000000000000000000000000000000000000000000000000000001690638d6fbb9e906024015f60405180830381865afa158015611554573d5f5f3e3d5ffd5b505050506040513d5f823e601f3d908101601f1916820160405261157b9190810190613d01565b90505f815f8151811061159057611590613db3565b6020908102919091010151604051635ae6916360e01b81526001600160a01b038681166004830152600160248301819052604483015290911690635ae6916390606401606060405180830381865afa1580156115ee573d5f5f3e3d5ffd5b505050506040513d601f19601f820116820180604052508101906116129190613f4c565b5115949350505050565b5f5f8290505f816001600160a01b03166301e1d1146040518163ffffffff1660e01b8152600401602060405180830381865afa15801561165e573d5f5f3e3d5ffd5b505050506040513d601f19601f820116820180604052508101906116829190613e0e565b9050805f0361169457505f9392505050565b5f826001600160a01b031663686126e06040518163ffffffff1660e01b81526004015f60405180830381865afa1580156116d0573d5f5f3e3d5ffd5b505050506040513d5f823e601f3d908101601f191682016040526116f79190810190613d01565b90505f5f5b8251811015611860575f83828151811061171857611718613db3565b602002602001015190505f816001600160a01b03166307a2d13a61173c848c611879565b6040518263ffffffff1660e01b815260040161175a91815260200190565b602060405180830381865afa158015611775573d5f5f3e3d5ffd5b505050506040513d601f19601f820116820180604052508101906117999190613e0e565b90505f6117a583611e83565b6001600160a01b031663c0b360446117bc856118eb565b6117c586611ec0565b6117ce87611efd565b6040516001600160e01b031960e086901b168152600481019390935260248301919091526044820152606401602060405180830381865afa158015611815573d5f5f3e3d5ffd5b505050506040513d601f19601f820116820180604052508101906118399190613e0e565b905061184682828961194c565b6118509086613e25565b94505050508060010190506116fc565b5061186f816301e13380613fb0565b9695505050505050565b6040516370a0823160e01b81526001600160a01b0382811660048301525f91908416906370a0823190602401602060405180830381865afa1580156118c0573d5f5f3e3d5ffd5b505050506040513d601f19601f820116820180604052508101906118e49190613e0e565b9392505050565b5f816001600160a01b03166387367d716040518163ffffffff1660e01b8152600401602060405180830381865afa158015611928573d5f5f3e3d5ffd5b505050506040513d601f19601f820116820180604052508101906111339190613e0e565b5f825f1904841183021582026119695763ad251c275f526004601cfd5b5091020490565b6060805f856001600160a01b031663686126e06040518163ffffffff1660e01b81526004015f60405180830381865afa1580156119af573d5f5f3e3d5ffd5b505050506040513d5f823e601f3d908101601f191682016040526119d69190810190613d01565b905080515f036119e657506112cf565b6040516303b0029b60e11b81526001600160a01b03871660048201525f9030906307600536906024015f60405180830381865afa158015611a29573d5f5f3e3d5ffd5b505050506040513d5f823e601f3d908101601f19168201604052611a509190810190613d01565b90506060805f611a628a86868b611f3a565b5090935091505f5b8251811015611aa257828181518110611a8557611a85613db3565b602002602001015182611a989190613e25565b9150600101611a6a565b50611aad83826126d2565b611abb5750505050506112cf565b611ac6858484612719565b611ad45750505050506112cf565b84516001600160401b03811115611aed57611aed613cbd565b604051908082528060200260200182016040528015611b3157816020015b604080518082019091525f8082526020820152815260200190600190039081611b0b5790505b50965084516001600160401b03811115611b4d57611b4d613cbd565b604051908082528060200260200182016040528015611ba857816020015b611b9560405180606001604052805f6001600160a01b031681526020015f81526020015f81525090565b815260200190600190039081611b6b5790505b509550611bba858484848d8c8c612d48565b83515f03611e76575f8a6001600160a01b03166338d52e0f6040518163ffffffff1660e01b8152600401602060405180830381865afa158015611bff573d5f5f3e3d5ffd5b505050506040513d601f19601f82011682018060405250810190611c239190613dc7565b604051635ae6916360e01b81526001600160a01b03828116600483015260016024830181905260448301529192505f9182917f000000000000000000000000000000000000000000000000000000000000000090911690635ae69163906064016040805180830381865afa158015611c9d573d5f5f3e3d5ffd5b505050506040513d601f19601f82011682018060405250810190611cc19190613fc7565b91509150805f148015611cd357505f82115b15611e72575f836001600160a01b031663313ce5676040518163ffffffff1660e01b8152600401602060405180830381865afa158015611d15573d5f5f3e3d5ffd5b505050506040513d601f19601f82011682018060405250810190611d399190613fe9565b60ff1690505f5f5b8c51811015611d97575f8d8281518110611d5d57611d5d613db3565b60200260200101516020015190505f8113611d8057611d7b81614002565b611d82565b805b611d8c9084613e25565b925050600101611d41565b505f611db8611da760028461401c565b86611db386600a614116565b61194c565b905068056bc75e2d63100000811015611e6e57604080515f8082526020820190925290611e06565b604080518082019091525f8082526020820152815260200190600190039081611de05790505b50604080515f8082526020820190925290611e59565b611e4660405180606001604052805f6001600160a01b031681526020015f81526020015f81525090565b815260200190600190039081611e1c5790505b509c509c5050505050505050505050506112cf565b5050505b5050505b5050505050935093915050565b5f816001600160a01b0316631e75db166040518163ffffffff1660e01b8152600401602060405180830381865afa158015611314573d5f5f3e3d5ffd5b5f816001600160a01b031663635d97716040518163ffffffff1660e01b8152600401602060405180830381865afa158015611928573d5f5f3e3d5ffd5b5f816001600160a01b031663a75df4986040518163ffffffff1660e01b8152600401602060405180830381865afa158015611928573d5f5f3e3d5ffd5b60608060605f86519050806001600160401b03811115611f5c57611f5c613cbd565b604051908082528060200260200182016040528015611f85578160200160208202803683370190505b509350806001600160401b03811115611fa057611fa0613cbd565b604051908082528060200260200182016040528015611fc9578160200160208202803683370190505b509250806001600160401b03811115611fe457611fe4613cbd565b60405190808252806020026020018201604052801561204b57816020015b6120386040518060a001604052805f81526020015f81526020015f81526020015f81526020015f6001600160a01b031681525090565b8152602001906001900390816120025790505b5091505f5f5b828110156121fd575f89828151811061206c5761206c613db3565b602002602001015190505f816001600160a01b03166307a2d13a612090848f611879565b6040518263ffffffff1660e01b81526004016120ae91815260200190565b602060405180830381865afa1580156120c9573d5f5f3e3d5ffd5b505050506040513d601f19601f820116820180604052508101906120ed9190613e0e565b90508087848151811061210257612102613db3565b60209081029190910101526121178185613e25565b93505f612123836118eb565b9050818111612132575f61213c565b61213c8282614121565b87858151811061214e5761214e613db3565b60209081029190910101515261216383611ec0565b87858151811061217557612175613db3565b6020026020010151602001818152505061218e83611efd565b8785815181106121a0576121a0613db3565b602002602001015160400181815250506121b983611e83565b8785815181106121cb576121cb613db3565b6020026020010151608001906001600160a01b031690816001600160a01b031681525050505050806001019050612051565b50805f0361220c5750506126c8565b5f898161221c828c8c8a88613064565b90505f5b8581101561245e575f88828151811061223b5761223b613db3565b6020026020010151905061226a848e848151811061225b5761225b613db3565b602002602001015188866130ab565b88838151811061227c5761227c613db3565b602002602001015160600181815250505f6122a28e84815181106102ef576102ef613db3565b90505f6122c88f85815181106122ba576122ba613db3565b60200260200101518f613166565b806122f157506122f18f85815181106122e3576122e3613db3565b6020026020010151836131bf565b90505f826001600160a01b031663b235d4686040518163ffffffff1660e01b8152600401602060405180830381865afa158015612330573d5f5f3e3d5ffd5b505050506040513d601f19601f820116820180604052508101906123549190613fe9565b60ff166002149050801561242557838b868151811061237557612375613db3565b60200260200101515f0181815161238c9190613e25565b9052506123998489613e25565b9750838d86815181106123ae576123ae613db3565b60200260200101818152505081156123e857838b86815181106123d3576123d3613db3565b6020026020010151606001818152505061244f565b838b86815181106123fb576123fb613db3565b602002602001015160600151101561242057838b86815181106123d3576123d3613db3565b61244f565b811561244f575f8b868151811061243e5761243e613db3565b602002602001015160600181815250505b50505050806001019050612220565b505050808261246d9190614121565b91505f61247a888461401c565b90505f5b888110156126b7575f61249260018b614121565b821461249e57826124bd565b6124a960018b614121565b6124b39084613fb0565b6124bd9086614121565b9050805f036124cc57506126af565b5f5f5f5f5b89811015612648578a81815181106124eb576124eb613db3565b602002602001015160600151858e838151811061250a5761250a613db3565b602002602001015161251c9190613e25565b11612640575f8b828151811061253457612534613db3565b6020026020010151608001516001600160a01b031663c0b36044878e858151811061256157612561613db3565b60200260200101515f01516125769190613e25565b8e858151811061258857612588613db3565b6020026020010151602001518f86815181106125a6576125a6613db3565b6020026020010151604001516040518463ffffffff1660e01b81526004016125e1939291909283526020830191909152604082015260600190565b602060405180830381865afa1580156125fc573d5f5f3e3d5ffd5b505050506040513d601f19601f820116820180604052508101906126209190613e0e565b905082158061262e57508481115b1561263e57809450819350600192505b505b6001016124d1565b5080156126aa57838c838151811061266257612662613db3565b602002602001018181516126769190613e25565b905250895184908b908490811061268f5761268f613db3565b60200260200101515f018181516126a69190613e25565b9052505b505050505b60010161247e565b506126c3878685613234565b505050505b9450945094915050565b5f5f5f5b845181101561270e578481815181106126f1576126f1613db3565b6020026020010151826127049190613e25565b91506001016126d6565b509091111592915050565b82515f9081805b828110156129135784818151811061273a5761273a613db3565b602002602001015186828151811061275457612754613db3565b6020026020010151031561290b575f85828151811061277557612775613db3565b602002602001015187838151811061278f5761278f613db3565b60200260200101511190505f816127e3578783815181106127b2576127b2613db3565b60200260200101518784815181106127cc576127cc613db3565b60200260200101516127de9190614121565b612821565b8683815181106127f5576127f5613db3565b602002602001015188848151811061280f5761280f613db3565b60200260200101516128219190614121565b905088838151811061283557612835613db3565b60200260200101516001600160a01b031663c6e6f592826040518263ffffffff1660e01b815260040161286a91815260200190565b602060405180830381865afa158015612885573d5f5f3e3d5ffd5b505050506040513d601f19601f820116820180604052508101906128a99190613e0e565b5f0361290857816128ba57806128c3565b6128c381614002565b6128cd9085614134565b93508683815181106128e1576128e1613db3565b60200260200101518884815181106128fb576128fb613db3565b6020026020010181815250505b50505b600101612720565b508015612ce5575f5f82136129305761292b82614002565b612932565b815b90505f82135b8115612ce2575f5f1981805b87811015612a765789818151811061295e5761295e613db3565b60200260200101518b828151811061297857612978613db3565b60200260200101510315612a6e575f8a828151811061299957612999613db3565b60200260200101518c83815181106129b3576129b3613db3565b6020026020010151119050851515811515146129cf5750612a6e565b5f81612a18578c83815181106129e7576129e7613db3565b60200260200101518c8481518110612a0157612a01613db3565b6020026020010151612a139190614121565b612a56565b8b8381518110612a2a57612a2a613db3565b60200260200101518d8481518110612a4457612a44613db3565b6020026020010151612a569190614121565b905084811015612a6b57809450829550600193505b50505b600101612944565b5080612ace575f5b87811015612ac557898181518110612a9857612a98613db3565b60200260200101518b8281518110612ab257612ab2613db3565b6020908102919091010152600101612a7e565b50505050612ce2565b818510612b1d57888381518110612ae757612ae7613db3565b60200260200101518a8481518110612b0157612b01613db3565b6020908102919091010152612b168286614121565b9450612cda565b8315612b5257848a8481518110612b3657612b36613db3565b60200260200101818151612b4a9190614121565b905250612b7d565b848a8481518110612b6557612b65613db3565b60200260200101818151612b799190613e25565b9052505b5f84612bc6578a8481518110612b9557612b95613db3565b60200260200101518a8581518110612baf57612baf613db3565b6020026020010151612bc19190614121565b612c04565b898481518110612bd857612bd8613db3565b60200260200101518b8581518110612bf257612bf2613db3565b6020026020010151612c049190614121565b90508b8481518110612c1857612c18613db3565b60200260200101516001600160a01b031663c6e6f592826040518263ffffffff1660e01b8152600401612c4d91815260200190565b602060405180830381865afa158015612c68573d5f5f3e3d5ffd5b505050506040513d601f19601f82011682018060405250810190612c8c9190613e0e565b5f03612cd457898481518110612ca457612ca4613db3565b60200260200101518b8581518110612cbe57612cbe613db3565b6020908102919091010152945092159284612cd8565b5f95505b505b505050612938565b50505b5f5b82811015612d3c57848181518110612d0157612d01613db3565b6020026020010151868281518110612d1b57612d1b613db3565b602002602001015114612d3457600193505050506118e4565b600101612ce7565b505f9695505050505050565b5f5b875181101561305a57858181518110612d6557612d65613db3565b6020026020010151878281518110612d7f57612d7f613db3565b60200260200101511115612e23576040518060400160405280898381518110612daa57612daa613db3565b60200260200101516001600160a01b03168152602001878381518110612dd257612dd2613db3565b6020026020010151898481518110612dec57612dec613db3565b6020026020010151612dfe9190614121565b815250838281518110612e1357612e13613db3565b6020026020010181905250612f2c565b868181518110612e3557612e35613db3565b6020026020010151868281518110612e4f57612e4f613db3565b60200260200101511115612ed7576040518060400160405280898381518110612e7a57612e7a613db3565b60200260200101516001600160a01b03168152602001888381518110612ea257612ea2613db3565b6020026020010151888481518110612ebc57612ebc613db3565b6020026020010151612ece9190614121565b612dfe90614002565b6040518060400160405280898381518110612ef457612ef4613db3565b60200260200101516001600160a01b031681526020015f815250838281518110612f2057612f20613db3565b60200260200101819052505b8415612ff5575f612f59888381518110612f4857612f48613db3565b60200260200101516127108861194c565b905060405180606001604052808a8481518110612f7857612f78613db3565b60200260200101516001600160a01b03168152602001868311612f9b575f612fa5565b612fa58784614121565b8152602001612710612fb78885613e25565b11612fcb57612fc68784613e25565b612fcf565b6127105b815250838381518110612fe457612fe4613db3565b602002602001018190525050613052565b604051806060016040528089838151811061301257613012613db3565b60200260200101516001600160a01b031681526020015f815260200161271081525082828151811061304657613046613db3565b60200260200101819052505b600101612d4a565b5050505050505050565b5f60055b613076878787878786613514565b156130825790506130a2565b805f03613092575f9150506130a2565b61309b81614153565b9050613068565b95945050505050565b60405163f4c4a61360e01b81526001600160a01b0384811660048301525f91829187169063f4c4a61390602401602060405180830381865afa1580156130f3573d5f5f3e3d5ffd5b505050506040513d601f19601f820116820180604052508101906131179190613e0e565b90505f61312a84655af3107a4000613fb0565b905080821161313d575f9250505061315e565b6131598561314b8385614121565b670de0b6b3a764000061194c565b925050505b949350505050565b5f5f5b82518110156131b657836001600160a01b031683828151811061318e5761318e613db3565b60200260200101516001600160a01b0316036131ae576001915050611133565b600101613169565b505f9392505050565b60405163699ba8b360e01b81526001600160a01b0383811660048301525f919083169063699ba8b390602401606060405180830381865afa158015613206573d5f5f3e3d5ffd5b505050506040513d601f19601f8201168201806040525081019061322a9190614168565b5090949350505050565b5f5f5b845181101561326f5784818151811061325257613252613db3565b6020026020010151826132659190613e25565b9150600101613237565b5081811061327d5750505050565b5f6132888284614121565b90505b80156134ed575f5f5f5f5f5b895181101561346f578881815181106132b2576132b2613db3565b6020026020010151606001518a82815181106132d0576132d0613db3565b60200260200101511015613467575f8a82815181106132f1576132f1613db3565b60200260200101518a838151811061330b5761330b613db3565b6020026020010151606001516133219190614121565b90505f8782106133315787613333565b815b9050805f03613343575050613467565b5f8b848151811061335657613356613db3565b6020026020010151608001516001600160a01b031663c0b36044838e878151811061338357613383613db3565b60200260200101515f01516133989190613e25565b8e87815181106133aa576133aa613db3565b6020026020010151602001518f88815181106133c8576133c8613db3565b6020026020010151604001516040518463ffffffff1660e01b8152600401613403939291909283526020830191909152604082015260600190565b602060405180830381865afa15801561341e573d5f5f3e3d5ffd5b505050506040513d601f19601f820116820180604052508101906134429190613e0e565b905084158061345057508781115b1561346357809750839650819550600194505b5050505b600101613297565b508061347e57505050506134ed565b8189848151811061349157613491613db3565b602002602001018181516134a59190613e25565b905250875182908990859081106134be576134be613db3565b60200260200101515f018181516134d59190613e25565b9052506134e28286614121565b94505050505061328b565b5f811180156134fd575084518111155b1561350d5761350d85858361367d565b5050505050565b5f5f5f5b875181101561366f575f6135378983815181106102ef576102ef613db3565b90505f61355d8a848151811061354f5761354f613db3565b60200260200101518a613166565b8061357857506135788a84815181106122e3576122e3613db3565b90505f826001600160a01b031663b235d4686040518163ffffffff1660e01b8152600401602060405180830381865afa1580156135b7573d5f5f3e3d5ffd5b505050506040513d601f19601f820116820180604052508101906135db9190613fe9565b60ff1660021490508015613615578884815181106135fb576135fb613db3565b60200260200101518561360e9190613e25565b945061364c565b8161364c5761363f8c8c868151811061363057613630613db3565b60200260200101518a8a6130ab565b6136499086613e25565b94505b8785106136615760019550505050505061186f565b505050806001019050613518565b505f98975050505050505050565b5f5f5f5f5b86518110156137b1575f86828151811061369e5761369e613db3565b6020026020010151608001516001600160a01b031663c0b36044878985815181106136cb576136cb613db3565b60200260200101515f01516136e09190613e25565b8985815181106136f2576136f2613db3565b6020026020010151602001518a868151811061371057613710613db3565b6020026020010151604001516040518463ffffffff1660e01b815260040161374b939291909283526020830191909152604082015260600190565b602060405180830381865afa158015613766573d5f5f3e3d5ffd5b505050506040513d601f19601f8201168201806040525081019061378a9190613e0e565b905082158061379857508481115b156137a857809450819350600192505b50600101613682565b50801561381357838683815181106137cb576137cb613db3565b602002602001018181516137df9190613e25565b905250845184908690849081106137f8576137f8613db3565b60200260200101515f0181815161380f9190613e25565b9052505b505050505050565b6001600160a01b038116811461382f575f5ffd5b50565b5f60208284031215613842575f5ffd5b81356118e48161381b565b602080825282518282018190525f918401906040840190835b8181101561388d5783516001600160a01b0316835260209384019390920191600101613866565b509095945050505050565b5f5f83601f8401126138a8575f5ffd5b5081356001600160401b038111156138be575f5ffd5b6020830191508360208260051b85010111156138d8575f5ffd5b9250929050565b5f5f602083850312156138f0575f5ffd5b82356001600160401b03811115613905575f5ffd5b61391185828601613898565b90969095509350505050565b5f602082016020835280845180835260408501915060408160051b8601019250602086015f5b828110156139a657868503603f19018452815180518087526020918201918701905f5b8181101561398d5783516001600160a01b0316835260209384019390920191600101613966565b5090965050506020938401939190910190600101613943565b50929695505050505050565b5f8151808452602084019350602083015f5b82811015613a1857815180516001600160a01b031687526020808201518189015260408083015190890152606080830151908901526080918201519188019190915260a090960195909101906001016139c4565b5093949350505050565b5f602082016020835280845180835260408501915060408160051b8601019250602086015f5b828110156139a657868503603f19018452815180516001600160a01b031686526020810151613a8260208801826001600160a01b03169052565b506040810151604087015260608101516101406060880152613aa86101408801826139b2565b90506080820151608088015260a082015160a088015260c082015160c088015260e082015160e08801526101008201516101008801526101208201516101208801528096505050602082019150602084019350600181019050613a48565b5f5f5f60408486031215613b18575f5ffd5b83356001600160401b03811115613b2d575f5ffd5b613b3986828701613898565b9094509250506020840135613b4d8161381b565b809150509250925092565b602080825282518282018190525f918401906040840190835b8181101561388d57613ba183855180516001600160a01b0316825260208082015190830152604090810151910152565b6020939093019260609290920191600101613b71565b5f60208284031215613bc7575f5ffd5b5035919050565b5f5f5f60608486031215613be0575f5ffd5b8335613beb8161381b565b95602085013595506040909401359392505050565b604080825283519082018190525f9060208501906060840190835b81811015613c4e57835180516001600160a01b031684526020908101518185015290930192604090920191600101613c1b565b5050838103602080860191909152855180835291810192508501905f5b81811015613cb157613c9b84845180516001600160a01b0316825260208082015190830152604090810151910152565b6060939093019260209290920191600101613c6b565b50919695505050505050565b634e487b7160e01b5f52604160045260245ffd5b604051601f8201601f191681016001600160401b0381118282101715613cf957613cf9613cbd565b604052919050565b5f60208284031215613d11575f5ffd5b81516001600160401b03811115613d26575f5ffd5b8201601f81018413613d36575f5ffd5b80516001600160401b03811115613d4f57613d4f613cbd565b8060051b613d5f60208201613cd1565b91825260208184018101929081019087841115613d7a575f5ffd5b6020850194505b83851015613da85784519250613d968361381b565b82825260209485019490910190613d81565b979650505050505050565b634e487b7160e01b5f52603260045260245ffd5b5f60208284031215613dd7575f5ffd5b81516118e48161381b565b634e487b7160e01b5f52601160045260245ffd5b5f60018201613e0757613e07613de2565b5060010190565b5f60208284031215613e1e575f5ffd5b5051919050565b8082018082111561113357611133613de2565b80518015158114613e47575f5ffd5b919050565b5f60208284031215613e5c575f5ffd5b6118e482613e38565b805160ff81168114613e47575f5ffd5b5f5f5f5f60808587031215613e88575f5ffd5b613e9185613e38565b93506020850151613ea18161381b565b9250613eaf60408601613e65565b9150606085015162ffffff81168114613ec6575f5ffd5b939692955090935050565b805169ffffffffffffffffffff81168114613e47575f5ffd5b5f5f5f5f5f60a08688031215613efe575f5ffd5b613f0786613ed1565b60208701516040880151606089015192975090955093509150613f2c60808701613ed1565b90509295509295909350565b634e487b7160e01b5f52601260045260245ffd5b5f6060828403128015613f5d575f5ffd5b50604051606081016001600160401b0381118282101715613f8057613f80613cbd565b60405282518152613f9360208401613e38565b6020820152613fa460408401613e38565b60408201529392505050565b808202811582820484141761113357611133613de2565b5f5f60408385031215613fd8575f5ffd5b505080516020909101519092909150565b5f60208284031215613ff9575f5ffd5b6118e482613e65565b5f600160ff1b820161401657614016613de2565b505f0390565b5f8261403657634e487b7160e01b5f52601260045260245ffd5b500490565b6001815b60018411156112cf5780850481111561405a5761405a613de2565b600184161561406857908102905b60019390931c92800261403f565b5f8261408457506001611133565b8161409057505f611133565b81600181146140a657600281146140b0576140cc565b6001915050611133565b60ff8411156140c1576140c1613de2565b50506001821b611133565b5060208310610133831016604e8410600b84101617156140ef575081810a611133565b6140fb5f19848461403b565b805f190482111561410e5761410e613de2565b029392505050565b5f6118e48383614076565b8181038181111561113357611133613de2565b8082018281125f8312801582168215821617156106a5576106a5613de2565b5f8161416157614161613de2565b505f190190565b5f5f5f6060848603121561417a575f5ffd5b61418384613e38565b925061419160208501613e38565b915061419f60408501613e38565b9050925092509256fea2646970667358221220b5e726fb03807869193c5c6b680d94bd52327f74cf300b0bbab8d77d34f0537d64736f6c634300081c0033","linkReferences":{}},"methodIdentifiers":{"CAP_BUFFER_BPS()":"45a7a9b3","ORACLE_MANAGER()":"d24bc1a4","USD_THRESHOLD()":"c1a0a952","centralRegistry()":"8f73dcfa","getOptimizerAPY(address)":"9e26ba99","getOptimizerMarketData(address[])":"4be8ed5a","getOptimizerUserData(address[],address)":"6197cadb","isBad(address)":"07600536","multiIsBadCheck(address[])":"17c39e16","optimalRebalance(address,uint256,uint256)":"d2f00c88","setStalenessMultiplier(uint256)":"c04fe890","stalenessMultiplierBps()":"acc77ad3"},"id":131}