{"abi":[{"type":"constructor","inputs":[{"name":"_centralRegistry","type":"address","internalType":"contract ICentralRegistry"},{"name":"_stalenessMultiplier","type":"uint256","internalType":"uint256"}],"stateMutability":"nonpayable"},{"type":"function","name":"CAP_BUFFER_BPS","inputs":[],"outputs":[{"name":"","type":"uint256","internalType":"uint256"}],"stateMutability":"view"},{"type":"function","name":"MAX_INCENTIVE_APY_BPS","inputs":[],"outputs":[{"name":"","type":"uint256","internalType":"uint256"}],"stateMutability":"view"},{"type":"function","name":"ORACLE_MANAGER","inputs":[],"outputs":[{"name":"","type":"address","internalType":"contract IOracleManager"}],"stateMutability":"view"},{"type":"function","name":"USD_THRESHOLD","inputs":[],"outputs":[{"name":"","type":"uint256","internalType":"uint256"}],"stateMutability":"view"},{"type":"function","name":"centralRegistry","inputs":[],"outputs":[{"name":"","type":"address","internalType":"contract ICentralRegistry"}],"stateMutability":"view"},{"type":"function","name":"getOptimizerAPY","inputs":[{"name":"optimizer","type":"address","internalType":"address"}],"outputs":[{"name":"apy","type":"uint256","internalType":"uint256"}],"stateMutability":"nonpayable"},{"type":"function","name":"getOptimizerMarketData","inputs":[{"name":"optimizers","type":"address[]","internalType":"address[]"}],"outputs":[{"name":"data","type":"tuple[]","internalType":"struct OptimizerReader.OptimizerMarketData[]","components":[{"name":"_address","type":"address","internalType":"address"},{"name":"asset","type":"address","internalType":"address"},{"name":"totalAssets","type":"uint256","internalType":"uint256"},{"name":"markets","type":"tuple[]","internalType":"struct OptimizerReader.OptimizerCTokenData[]","components":[{"name":"_address","type":"address","internalType":"address"},{"name":"allocatedAssets","type":"uint256","internalType":"uint256"},{"name":"liquidity","type":"uint256","internalType":"uint256"},{"name":"allocationCap","type":"uint256","internalType":"uint256"},{"name":"allocationCapUtilizationBps","type":"uint256","internalType":"uint256"}]},{"name":"totalLiquidity","type":"uint256","internalType":"uint256"},{"name":"sharePrice","type":"uint256","internalType":"uint256"},{"name":"exchangeRateHighWatermark","type":"uint256","internalType":"uint256"},{"name":"performanceFee","type":"uint256","internalType":"uint256"},{"name":"numApprovedMarkets","type":"uint256","internalType":"uint256"},{"name":"apy","type":"uint256","internalType":"uint256"}]}],"stateMutability":"nonpayable"},{"type":"function","name":"getOptimizerUserData","inputs":[{"name":"optimizers","type":"address[]","internalType":"address[]"},{"name":"account","type":"address","internalType":"address"}],"outputs":[{"name":"data","type":"tuple[]","internalType":"struct OptimizerReader.OptimizerUserData[]","components":[{"name":"_address","type":"address","internalType":"address"},{"name":"shareBalance","type":"uint256","internalType":"uint256"},{"name":"redeemable","type":"uint256","internalType":"uint256"}]}],"stateMutability":"nonpayable"},{"type":"function","name":"isBad","inputs":[{"name":"optimizer","type":"address","internalType":"address"}],"outputs":[{"name":"bad","type":"address[]","internalType":"address[]"}],"stateMutability":"view"},{"type":"function","name":"multiIsBadCheck","inputs":[{"name":"optimizers","type":"address[]","internalType":"address[]"}],"outputs":[{"name":"badOptimizers","type":"address[][]","internalType":"address[][]"}],"stateMutability":"view"},{"type":"function","name":"optimalRebalance","inputs":[{"name":"optimizer","type":"address","internalType":"address"},{"name":"slippageBps","type":"uint256","internalType":"uint256"},{"name":"rebalanceChunks","type":"uint256","internalType":"uint256"}],"outputs":[{"name":"actions","type":"tuple[]","internalType":"struct LendingOptimizer.ReallocationAction[]","components":[{"name":"cToken","type":"address","internalType":"contract IBorrowableCToken"},{"name":"assetsOrBps","type":"int256","internalType":"int256"}]},{"name":"bounds","type":"tuple[]","internalType":"struct LendingOptimizer.AllocationBound[]","components":[{"name":"cToken","type":"address","internalType":"address"},{"name":"minBps","type":"uint256","internalType":"uint256"},{"name":"maxBps","type":"uint256","internalType":"uint256"}]}],"stateMutability":"nonpayable"},{"type":"function","name":"optimalRebalanceWithIncentives","inputs":[{"name":"optimizer","type":"address","internalType":"address"},{"name":"slippageBps","type":"uint256","internalType":"uint256"},{"name":"rebalanceChunks","type":"uint256","internalType":"uint256"},{"name":"marketIncentives","type":"tuple[]","internalType":"struct OptimizerReader.MarketIncentiveAPYBps[]","components":[{"name":"cToken","type":"address","internalType":"address"},{"name":"incentiveAPYBps","type":"uint256","internalType":"uint256"}]}],"outputs":[{"name":"actions","type":"tuple[]","internalType":"struct LendingOptimizer.ReallocationAction[]","components":[{"name":"cToken","type":"address","internalType":"contract IBorrowableCToken"},{"name":"assetsOrBps","type":"int256","internalType":"int256"}]},{"name":"bounds","type":"tuple[]","internalType":"struct LendingOptimizer.AllocationBound[]","components":[{"name":"cToken","type":"address","internalType":"address"},{"name":"minBps","type":"uint256","internalType":"uint256"},{"name":"maxBps","type":"uint256","internalType":"uint256"}]}],"stateMutability":"nonpayable"},{"type":"function","name":"setStalenessMultiplier","inputs":[{"name":"newMultiplierBps","type":"uint256","internalType":"uint256"}],"outputs":[],"stateMutability":"nonpayable"},{"type":"function","name":"stalenessMultiplierBps","inputs":[],"outputs":[{"name":"","type":"uint256","internalType":"uint256"}],"stateMutability":"view"},{"type":"event","name":"StalenessMultiplierUpdated","inputs":[{"name":"oldMultiplier","type":"uint256","indexed":false,"internalType":"uint256"},{"name":"newMultiplier","type":"uint256","indexed":false,"internalType":"uint256"}],"anonymous":false},{"type":"error","name":"OptimizerReader__DuplicateIncentiveMarket","inputs":[{"name":"cToken","type":"address","internalType":"address"}]},{"type":"error","name":"OptimizerReader__InvalidIncentiveAPYBps","inputs":[{"name":"cToken","type":"address","internalType":"address"},{"name":"incentiveAPYBps","type":"uint256","internalType":"uint256"}]},{"type":"error","name":"OptimizerReader__InvalidIncentiveData","inputs":[]},{"type":"error","name":"OptimizerReader__InvalidIncentiveMarket","inputs":[{"name":"cToken","type":"address","internalType":"address"}]},{"type":"error","name":"OptimizerReader__InvalidMultiplier","inputs":[]},{"type":"error","name":"OptimizerReader__InvalidRebalanceChunks","inputs":[]},{"type":"error","name":"OptimizerReader__Unauthorized","inputs":[]}],"bytecode":{"object":"0x60c060405234801561000f575f5ffd5b506040516146c93803806146c983398101604081905261002e916100c5565b6001600160a01b03821660a08190526040805163159761e360e21b8152905163565d878c916004808201926020929091908290030181865afa158015610076573d5f5f3e3d5ffd5b505050506040513d601f19601f8201168201806040525081019061009a91906100f1565b6001600160a01b03166080525f5550610113565b6001600160a01b03811681146100c2575f5ffd5b50565b5f5f604083850312156100d6575f5ffd5b82516100e1816100ae565b6020939093015192949293505050565b5f60208284031215610101575f5ffd5b815161010c816100ae565b9392505050565b60805160a0516145796101505f395f818161018d015261119e01525f81816102150152818161153f015281816116f40152611dff01526145795ff3fe608060405234801561000f575f5ffd5b50600436106100e5575f3560e01c8063a648335a11610088578063c1a0a95211610063578063c1a0a95214610200578063d24bc1a414610210578063d2f00c8814610237578063d5b479ac14610258575f5ffd5b8063a648335a146101da578063acc77ad3146101e3578063c04fe890146101eb575f5ffd5b80634be8ed5a116100c35780634be8ed5a146101485780636197cadb146101685780638f73dcfa146101885780639e26ba99146101c7575f5ffd5b806307600536146100e957806317c39e161461011257806345a7a9b314610132575b5f5ffd5b6100fc6100f7366004613b3c565b61026b565b6040516101099190613b57565b60405180910390f35b610125610120366004613be9565b6105e0565b6040516101099190613c27565b61013a600581565b604051908152602001610109565b61015b610156366004613be9565b6106fd565b6040516101099190613d2c565b61017b610176366004613e10565b610ee5565b6040516101099190613e62565b6101af7f000000000000000000000000000000000000000000000000000000000000000081565b6040516001600160a01b039091168152602001610109565b61013a6101d5366004613b3c565b61112b565b61013a6103e881565b61013a5f5481565b6101fe6101f9366004613ec1565b611189565b005b61013a68056bc75e2d6310000081565b6101af7f000000000000000000000000000000000000000000000000000000000000000081565b61024a610245366004613ed8565b61129e565b604051610109929190613f0a565b61024a610266366004613fc7565b6113b9565b60605f826001600160a01b031663686126e06040518163ffffffff1660e01b81526004015f60405180830381865afa1580156102a9573d5f5f3e3d5ffd5b505050506040513d5f823e601f3d908101601f191682016040526102d0919081019061409c565b80519091505f816001600160401b038111156102ee576102ee614058565b604051908082528060200260200182016040528015610317578160200160208202803683370190505b505f805491925090815b8481101561053a575f61034c87838151811061033f5761033f61414e565b60200260200101516114bb565b90505f816001600160a01b031663afbe407a6040518163ffffffff1660e01b81526004015f60405180830381865afa15801561038a573d5f5f3e3d5ffd5b505050506040513d5f823e601f3d908101601f191682016040526103b1919081019061409c565b90505f5f5b82518110156104cc578985815181106103d1576103d161414e565b60200260200101516001600160a01b03168382815181106103f4576103f461414e565b60200260200101516001600160a01b031603156104c4575f83828151811061041e5761041e61414e565b60200260200101516001600160a01b03166338d52e0f6040518163ffffffff1660e01b8152600401602060405180830381865afa158015610461573d5f5f3e3d5ffd5b505050506040513d601f19601f820116820180604052508101906104859190614162565b90505f8711801561049b575061049b818861151c565b156104aa5760019250506104cc565b6104b3816116d1565b156104c25760019250506104cc565b505b6001016103b6565b50801561052c578884815181106104e5576104e561414e565b60200260200101518787806104f990614191565b98508151811061050b5761050b61414e565b60200260200101906001600160a01b031690816001600160a01b0316815250505b505050806001019050610321565b50816001600160401b0381111561055357610553614058565b60405190808252806020026020018201604052801561057c578160200160208202803683370190505b5095505f5b828110156105d55783818151811061059b5761059b61414e565b60200260200101518782815181106105b5576105b561414e565b6001600160a01b0390921660209283029190910190910152600101610581565b505050505050919050565b606081806001600160401b038111156105fb576105fb614058565b60405190808252806020026020018201604052801561062e57816020015b60608152602001906001900390816106195790505b5091505f5b818110156106f5573063076005368686848181106106535761065361414e565b90506020020160208101906106689190613b3c565b6040516001600160e01b031960e084901b1681526001600160a01b0390911660048201526024015f60405180830381865afa1580156106a9573d5f5f3e3d5ffd5b505050506040513d5f823e601f3d908101601f191682016040526106d0919081019061409c565b8382815181106106e2576106e261414e565b6020908102919091010152600101610633565b505092915050565b606081806001600160401b0381111561071857610718614058565b6040519080825280602002602001820160405280156107a857816020015b6107956040518061014001604052805f6001600160a01b031681526020015f6001600160a01b031681526020015f8152602001606081526020015f81526020015f81526020015f81526020015f81526020015f81526020015f81525090565b8152602001906001900390816107365790505b5091505f5b818110156106f5575f8585838181106107c8576107c861414e565b90506020020160208101906107dd9190613b3c565b90508585838181106107f1576107f161414e565b90506020020160208101906108069190613b3c565b8483815181106108185761081861414e565b60200260200101515f01906001600160a01b031690816001600160a01b031681525050806001600160a01b03166338d52e0f6040518163ffffffff1660e01b8152600401602060405180830381865afa158015610877573d5f5f3e3d5ffd5b505050506040513d601f19601f8201168201806040525081019061089b9190614162565b8483815181106108ad576108ad61414e565b6020026020010151602001906001600160a01b031690816001600160a01b031681525050806001600160a01b031663f41102916040518163ffffffff1660e01b81526004016020604051808303815f875af115801561090e573d5f5f3e3d5ffd5b505050506040513d601f19601f8201168201806040525081019061093291906141a9565b8483815181106109445761094461414e565b602002602001015160a0018181525050806001600160a01b03166301e1d1146040518163ffffffff1660e01b8152600401602060405180830381865afa158015610990573d5f5f3e3d5ffd5b505050506040513d601f19601f820116820180604052508101906109b491906141a9565b8483815181106109c6576109c661414e565b60200260200101516040018181525050806001600160a01b031663974ad22e6040518163ffffffff1660e01b8152600401602060405180830381865afa158015610a12573d5f5f3e3d5ffd5b505050506040513d601f19601f82011682018060405250810190610a3691906141a9565b848381518110610a4857610a4861414e565b602002602001015160c0018181525050806001600160a01b031663ddca3f436040518163ffffffff1660e01b8152600401602060405180830381865afa158015610a94573d5f5f3e3d5ffd5b505050506040513d601f19601f82011682018060405250810190610ab891906141a9565b848381518110610aca57610aca61414e565b602002602001015160e0018181525050610b09868684818110610aef57610aef61414e565b9050602002016020810190610b049190613b3c565b611800565b848381518110610b1b57610b1b61414e565b60200260200101516101200181815250505f816001600160a01b031663686126e06040518163ffffffff1660e01b81526004015f60405180830381865afa158015610b68573d5f5f3e3d5ffd5b505050506040513d5f823e601f3d908101601f19168201604052610b8f919081019061409c565b90505f8151905080868581518110610ba957610ba961414e565b6020026020010151610100018181525050806001600160401b03811115610bd257610bd2614058565b604051908082528060200260200182016040528015610c3957816020015b610c266040518060a001604052805f6001600160a01b031681526020015f81526020015f81526020015f81526020015f81525090565b815260200190600190039081610bf05790505b50868581518110610c4c57610c4c61414e565b6020026020010151606001819052505f5b81811015610ed6575f838281518110610c7857610c7861414e565b602002602001015190505f816001600160a01b03166307a2d13a610cc2848e8e8c818110610ca857610ca861414e565b9050602002016020810190610cbd9190613b3c565b611a5d565b6040518263ffffffff1660e01b8152600401610ce091815260200190565b602060405180830381865afa158015610cfb573d5f5f3e3d5ffd5b505050506040513d601f19601f82011682018060405250810190610d1f91906141a9565b90505f610d2b83611acf565b90505f876001600160a01b031663f4c4a613888781518110610d4f57610d4f61414e565b60200260200101516040518263ffffffff1660e01b8152600401610d8291906001600160a01b0391909116815260200190565b602060405180830381865afa158015610d9d573d5f5f3e3d5ffd5b505050506040513d601f19601f82011682018060405250810190610dc191906141a9565b90505f610df48c8b81518110610dd957610dd961414e565b60200260200101516040015183670de0b6b3a7640000611b30565b90505f8115610e0f57610e0a8561271084611b30565b610e11565b5f5b90506040518060a001604052808a8981518110610e3057610e3061414e565b60200260200101516001600160a01b03168152602001868152602001858152602001848152602001828152508d8c81518110610e6e57610e6e61414e565b6020026020010151606001518881518110610e8b57610e8b61414e565b6020026020010181905250838d8c81518110610ea957610ea961414e565b6020026020010151608001818151610ec191906141c0565b9052505060019095019450610c5d9350505050565b505050508060010190506107ad565b606082806001600160401b03811115610f0057610f00614058565b604051908082528060200260200182016040528015610f5b57816020015b610f4860405180606001604052805f6001600160a01b031681526020015f81526020015f81525090565b815260200190600190039081610f1e5790505b5091505f5b81811015611122575f868683818110610f7b57610f7b61414e565b9050602002016020810190610f909190613b3c565b9050806001600160a01b031663775a814a6040518163ffffffff1660e01b81526004015f604051808303815f87803b158015610fca575f5ffd5b505af1158015610fdc573d5f5f3e3d5ffd5b505050505f611011888885818110610ff657610ff661414e565b905060200201602081019061100b9190613b3c565b87611a5d565b90508787848181106110255761102561414e565b905060200201602081019061103a9190613b3c565b85848151811061104c5761104c61414e565b60200260200101515f01906001600160a01b031690816001600160a01b031681525050808584815181106110825761108261414e565b60209081029190910181015101526040516303d1689d60e11b8152600481018290526001600160a01b038316906307a2d13a90602401602060405180830381865afa1580156110d3573d5f5f3e3d5ffd5b505050506040513d601f19601f820116820180604052508101906110f791906141a9565b8584815181106111095761110961414e565b6020908102919091010151604001525050600101610f60565b50509392505050565b5f816001600160a01b031663775a814a6040518163ffffffff1660e01b81526004015f604051808303815f87803b158015611164575f5ffd5b505af1158015611176573d5f5f3e3d5ffd5b5050505061118382611800565b92915050565b60405163de0c7a7160e01b81523360048201527f00000000000000000000000000000000000000000000000000000000000000006001600160a01b03169063de0c7a7190602401602060405180830381865afa1580156111eb573d5f5f3e3d5ffd5b505050506040513d601f19601f8201168201806040525081019061120f91906141e7565b61122c576040516348b7eb3b60e11b815260040160405180910390fd5b801580159061123c575061271081105b1561125a5760405163014576d960e11b815260040160405180910390fd5b5f80549082905560408051828152602081018490527f45743f1778a40227cb785331fb7d115a568ee8655b31f131a8b62decdb93f249910160405180910390a15050565b606080825f036112c157604051631e25928160e21b815260040160405180910390fd5b846001600160a01b031663775a814a6040518163ffffffff1660e01b81526004015f604051808303815f87803b1580156112f9575f5ffd5b505af115801561130b573d5f5f3e3d5ffd5b505050505f856001600160a01b031663686126e06040518163ffffffff1660e01b81526004015f60405180830381865afa15801561134b573d5f5f3e3d5ffd5b505050506040513d5f823e601f3d908101601f19168201604052611372919081019061409c565b90506113ab868686845f6040519080825280602002602001820160405280156113a5578160200160208202803683370190505b50611b54565b92509250505b935093915050565b606080845f036113dc57604051631e25928160e21b815260040160405180910390fd5b866001600160a01b031663775a814a6040518163ffffffff1660e01b81526004015f604051808303815f87803b158015611414575f5ffd5b505af1158015611426573d5f5f3e3d5ffd5b505050505f876001600160a01b031663686126e06040518163ffffffff1660e01b81526004015f60405180830381865afa158015611466573d5f5f3e3d5ffd5b505050506040513d5f823e601f3d908101601f1916820160405261148d919081019061409c565b90505f61149b82878761202b565b90506114aa8989898585611b54565b9350935050505b9550959350505050565b5f816001600160a01b03166341ed2c126040518163ffffffff1660e01b8152600401602060405180830381865afa1580156114f8573d5f5f3e3d5ffd5b505050506040513d601f19601f820116820180604052508101906111839190614162565b6040516346b7ddcf60e11b81526001600160a01b0383811660048301525f9182917f00000000000000000000000000000000000000000000000000000000000000001690638d6fbb9e906024015f60405180830381865afa158015611583573d5f5f3e3d5ffd5b505050506040513d5f823e601f3d908101601f191682016040526115aa919081019061409c565b90505f5f825f815181106115c0576115c061414e565b60209081029190910101516040516305145fb560e31b81526001600160a01b03888116600483015260016024830152909116906328a2fda890604401608060405180830381865afa158015611617573d5f5f3e3d5ffd5b505050506040513d601f19601f8201168201806040525081019061163b9190614210565b9350509250505f826001600160a01b031663feaf968c6040518163ffffffff1660e01b815260040160a060405180830381865afa15801561167e573d5f5f3e3d5ffd5b505050506040513d601f19601f820116820180604052508101906116a29190614285565b509350505050612710868362ffffff1602816116c0576116c06142d3565b048142031194505050505092915050565b6040516346b7ddcf60e11b81526001600160a01b0382811660048301525f9182917f00000000000000000000000000000000000000000000000000000000000000001690638d6fbb9e906024015f60405180830381865afa158015611738573d5f5f3e3d5ffd5b505050506040513d5f823e601f3d908101601f1916820160405261175f919081019061409c565b90505f815f815181106117745761177461414e565b6020908102919091010151604051635ae6916360e01b81526001600160a01b038681166004830152600160248301819052604483015290911690635ae6916390606401606060405180830381865afa1580156117d2573d5f5f3e3d5ffd5b505050506040513d601f19601f820116820180604052508101906117f691906142e7565b5115949350505050565b5f5f8290505f816001600160a01b03166301e1d1146040518163ffffffff1660e01b8152600401602060405180830381865afa158015611842573d5f5f3e3d5ffd5b505050506040513d601f19601f8201168201806040525081019061186691906141a9565b9050805f0361187857505f9392505050565b5f826001600160a01b031663686126e06040518163ffffffff1660e01b81526004015f60405180830381865afa1580156118b4573d5f5f3e3d5ffd5b505050506040513d5f823e601f3d908101601f191682016040526118db919081019061409c565b90505f5f5b8251811015611a44575f8382815181106118fc576118fc61414e565b602002602001015190505f816001600160a01b03166307a2d13a611920848c611a5d565b6040518263ffffffff1660e01b815260040161193e91815260200190565b602060405180830381865afa158015611959573d5f5f3e3d5ffd5b505050506040513d601f19601f8201168201806040525081019061197d91906141a9565b90505f61198983612255565b6001600160a01b031663c0b360446119a085611acf565b6119a986612292565b6119b2876122cf565b6040516001600160e01b031960e086901b168152600481019390935260248301919091526044820152606401602060405180830381865afa1580156119f9573d5f5f3e3d5ffd5b505050506040513d601f19601f82011682018060405250810190611a1d91906141a9565b9050611a2a828289611b30565b611a3490866141c0565b94505050508060010190506118e0565b50611a536301e133808261434b565b9695505050505050565b6040516370a0823160e01b81526001600160a01b0382811660048301525f91908416906370a0823190602401602060405180830381865afa158015611aa4573d5f5f3e3d5ffd5b505050506040513d601f19601f82011682018060405250810190611ac891906141a9565b9392505050565b5f816001600160a01b03166387367d716040518163ffffffff1660e01b8152600401602060405180830381865afa158015611b0c573d5f5f3e3d5ffd5b505050506040513d601f19601f8201168201806040525081019061118391906141a9565b5f825f190484118302158202611b4d5763ad251c275f526004601cfd5b5091020490565b60608082515f14158015611b6a57508351835114155b15611b885760405163e6713d9960e01b815260040160405180910390fd5b8351156114b1576040516303b0029b60e11b81526001600160a01b03881660048201525f9030906307600536906024015f60405180830381865afa158015611bd2573d5f5f3e3d5ffd5b505050506040513d5f823e601f3d908101601f19168201604052611bf9919081019061409c565b90506060805f611c0c8b89868c8b61230c565b5090935091505f5b8251811015611c4c57828181518110611c2f57611c2f61414e565b602002602001015182611c4291906141c0565b9150600101611c14565b50611c578382612612565b611c6457505050506114b1565b611c6f888484612659565b611c7c57505050506114b1565b87516001600160401b03811115611c9557611c95614058565b604051908082528060200260200182016040528015611cd957816020015b604080518082019091525f8082526020820152815260200190600190039081611cb35790505b50955087516001600160401b03811115611cf557611cf5614058565b604051908082528060200260200182016040528015611d5057816020015b611d3d60405180606001604052805f6001600160a01b031681526020015f81526020015f81525090565b815260200190600190039081611d135790505b509450611d62888484848e8b8b612c88565b83515f0361201d575f8b6001600160a01b03166338d52e0f6040518163ffffffff1660e01b8152600401602060405180830381865afa158015611da7573d5f5f3e3d5ffd5b505050506040513d601f19601f82011682018060405250810190611dcb9190614162565b604051635ae6916360e01b81526001600160a01b03828116600483015260016024830181905260448301529192505f9182917f000000000000000000000000000000000000000000000000000000000000000090911690635ae69163906064016040805180830381865afa158015611e45573d5f5f3e3d5ffd5b505050506040513d601f19601f82011682018060405250810190611e699190614362565b91509150805f148015611e7b57505f82115b15612019575f836001600160a01b031663313ce5676040518163ffffffff1660e01b8152600401602060405180830381865afa158015611ebd573d5f5f3e3d5ffd5b505050506040513d601f19601f82011682018060405250810190611ee19190614384565b60ff1690505f5f5b8b51811015611f3f575f8c8281518110611f0557611f0561414e565b60200260200101516020015190505f8113611f2857611f238161439d565b611f2a565b805b611f3490846141c0565b925050600101611ee9565b505f611f60611f4f6002846143b7565b86611f5b86600a6144b1565b611b30565b905068056bc75e2d6310000081101561201557604080515f8082526020820190925290611fae565b604080518082019091525f8082526020820152815260200190600190039081611f885790505b50604080515f8082526020820190925290612001565b611fee60405180606001604052805f6001600160a01b031681526020015f81526020015f81525090565b815260200190600190039081611fc45790505b509b509b50505050505050505050506114b1565b5050505b5050505b505050509550959350505050565b606083516001600160401b0381111561204657612046614058565b60405190808252806020026020018201604052801561206f578160200160208202803683370190505b5090505f84516001600160401b0381111561208c5761208c614058565b6040519080825280602002602001820160405280156120b5578160200160208202803683370190505b5090505f5b83811015611122575f8585838181106120d5576120d561414e565b6120eb9260206040909202019081019150613b3c565b90505f8686848181106121005761210061414e565b9050604002016020013590505f5f5b895181101561221d5789818151811061212a5761212a61414e565b60200260200101516001600160a01b0316846001600160a01b0316036122155785818151811061215c5761215c61414e565b602002602001015115612192576040516349377bbb60e01b81526001600160a01b03851660048201526024015b60405180910390fd5b6103e88311156121c75760405163573c9d6360e01b81526001600160a01b038516600482015260248101849052604401612189565b60018682815181106121db576121db61414e565b602002602001019015159081151581525050828782815181106122005761220061414e565b6020026020010181815250506001915061221d565b60010161210f565b5080612247576040516395d915f360e01b81526001600160a01b0384166004820152602401612189565b5050508060010190506120ba565b5f816001600160a01b0316631e75db166040518163ffffffff1660e01b8152600401602060405180830381865afa1580156114f8573d5f5f3e3d5ffd5b5f816001600160a01b031663635d97716040518163ffffffff1660e01b8152600401602060405180830381865afa158015611b0c573d5f5f3e3d5ffd5b5f816001600160a01b031663a75df4986040518163ffffffff1660e01b8152600401602060405180830381865afa158015611b0c573d5f5f3e3d5ffd5b60608060605f87519050806001600160401b0381111561232e5761232e614058565b604051908082528060200260200182016040528015612357578160200160208202803683370190505b509350806001600160401b0381111561237257612372614058565b60405190808252806020026020018201604052801561239b578160200160208202803683370190505b509250806001600160401b038111156123b6576123b6614058565b60405190808252806020026020018201604052801561242357816020015b6124106040518060c001604052805f81526020015f81526020015f81526020015f81526020015f81526020015f6001600160a01b031681525090565b8152602001906001900390816123d45790505b5091505f6124348a8a888787612fa4565b9050805f03612444575050612607565b5f6124548b8b8b88868b8a6131bb565b905061246081836144bc565b91505f61246d89846143b7565b90505f5b898110156125f6575f61248560018c6144bc565b821461249157826124b0565b61249c60018c6144bc565b6124a6908461434b565b6124b090866144bc565b9050805f036124bf57506125ee565b5f5f5f5f5b89811015612587578a81815181106124de576124de61414e565b602002602001015160600151858e83815181106124fd576124fd61414e565b602002602001015161250f91906141c0565b1161257f575f61255f8c838151811061252a5761252a61414e565b6020026020010151878e85815181106125455761254561414e565b60200260200101515f015161255a91906141c0565b61341a565b905082158061256d57508481115b1561257d57809450819350600192505b505b6001016124c4565b5080156125e957838c83815181106125a1576125a161414e565b602002602001018181516125b591906141c0565b905250895184908b90849081106125ce576125ce61414e565b60200260200101515f018181516125e591906141c0565b9052505b505050505b600101612471565b506126028786856134e9565b505050505b955095509592505050565b5f5f5f5b845181101561264e578481815181106126315761263161414e565b60200260200101518261264491906141c0565b9150600101612616565b509091111592915050565b82515f9081805b828110156128535784818151811061267a5761267a61414e565b60200260200101518682815181106126945761269461414e565b6020026020010151031561284b575f8582815181106126b5576126b561414e565b60200260200101518783815181106126cf576126cf61414e565b60200260200101511190505f81612723578783815181106126f2576126f261414e565b602002602001015187848151811061270c5761270c61414e565b602002602001015161271e91906144bc565b612761565b8683815181106127355761273561414e565b602002602001015188848151811061274f5761274f61414e565b602002602001015161276191906144bc565b90508883815181106127755761277561414e565b60200260200101516001600160a01b031663c6e6f592826040518263ffffffff1660e01b81526004016127aa91815260200190565b602060405180830381865afa1580156127c5573d5f5f3e3d5ffd5b505050506040513d601f19601f820116820180604052508101906127e991906141a9565b5f0361284857816127fa5780612803565b6128038161439d565b61280d90856144cf565b93508683815181106128215761282161414e565b602002602001015188848151811061283b5761283b61414e565b6020026020010181815250505b50505b600101612660565b508015612c25575f5f82136128705761286b8261439d565b612872565b815b90505f82135b8115612c22575f5f1981805b878110156129b65789818151811061289e5761289e61414e565b60200260200101518b82815181106128b8576128b861414e565b602002602001015103156129ae575f8a82815181106128d9576128d961414e565b60200260200101518c83815181106128f3576128f361414e565b60200260200101511190508515158115151461290f57506129ae565b5f81612958578c83815181106129275761292761414e565b60200260200101518c84815181106129415761294161414e565b602002602001015161295391906144bc565b612996565b8b838151811061296a5761296a61414e565b60200260200101518d84815181106129845761298461414e565b602002602001015161299691906144bc565b9050848110156129ab57809450829550600193505b50505b600101612884565b5080612a0e575f5b87811015612a05578981815181106129d8576129d861414e565b60200260200101518b82815181106129f2576129f261414e565b60209081029190910101526001016129be565b50505050612c22565b818510612a5d57888381518110612a2757612a2761414e565b60200260200101518a8481518110612a4157612a4161414e565b6020908102919091010152612a5682866144bc565b9450612c1a565b8315612a9257848a8481518110612a7657612a7661414e565b60200260200101818151612a8a91906144bc565b905250612abd565b848a8481518110612aa557612aa561414e565b60200260200101818151612ab991906141c0565b9052505b5f84612b06578a8481518110612ad557612ad561414e565b60200260200101518a8581518110612aef57612aef61414e565b6020026020010151612b0191906144bc565b612b44565b898481518110612b1857612b1861414e565b60200260200101518b8581518110612b3257612b3261414e565b6020026020010151612b4491906144bc565b90508b8481518110612b5857612b5861414e565b60200260200101516001600160a01b031663c6e6f592826040518263ffffffff1660e01b8152600401612b8d91815260200190565b602060405180830381865afa158015612ba8573d5f5f3e3d5ffd5b505050506040513d601f19601f82011682018060405250810190612bcc91906141a9565b5f03612c1457898481518110612be457612be461414e565b60200260200101518b8581518110612bfe57612bfe61414e565b6020908102919091010152945092159284612c18565b5f95505b505b505050612878565b50505b5f5b82811015612c7c57848181518110612c4157612c4161414e565b6020026020010151868281518110612c5b57612c5b61414e565b602002602001015114612c745760019350505050611ac8565b600101612c27565b505f9695505050505050565b5f5b8751811015612f9a57858181518110612ca557612ca561414e565b6020026020010151878281518110612cbf57612cbf61414e565b60200260200101511115612d63576040518060400160405280898381518110612cea57612cea61414e565b60200260200101516001600160a01b03168152602001878381518110612d1257612d1261414e565b6020026020010151898481518110612d2c57612d2c61414e565b6020026020010151612d3e91906144bc565b815250838281518110612d5357612d5361414e565b6020026020010181905250612e6c565b868181518110612d7557612d7561414e565b6020026020010151868281518110612d8f57612d8f61414e565b60200260200101511115612e17576040518060400160405280898381518110612dba57612dba61414e565b60200260200101516001600160a01b03168152602001888381518110612de257612de261414e565b6020026020010151888481518110612dfc57612dfc61414e565b6020026020010151612e0e91906144bc565b612d3e9061439d565b6040518060400160405280898381518110612e3457612e3461414e565b60200260200101516001600160a01b031681526020015f815250838281518110612e6057612e6061414e565b60200260200101819052505b8415612f35575f612e99888381518110612e8857612e8861414e565b602002602001015161271088611b30565b905060405180606001604052808a8481518110612eb857612eb861414e565b60200260200101516001600160a01b03168152602001868311612edb575f612ee5565b612ee587846144bc565b8152602001612710612ef788856141c0565b11612f0b57612f0687846141c0565b612f0f565b6127105b815250838381518110612f2457612f2461414e565b602002602001018190525050612f92565b6040518060600160405280898381518110612f5257612f5261414e565b60200260200101516001600160a01b031681526020015f8152602001612710815250828281518110612f8657612f8661414e565b60200260200101819052505b600101612c8a565b5050505050505050565b82515f901515815b86518110156131b0575f878281518110612fc857612fc861414e565b602002602001015190505f816001600160a01b03166307a2d13a612fec848d611a5d565b6040518263ffffffff1660e01b815260040161300a91815260200190565b602060405180830381865afa158015613025573d5f5f3e3d5ffd5b505050506040513d601f19601f8201168201806040525081019061304991906141a9565b90508087848151811061305e5761305e61414e565b602090810291909101015261307381866141c0565b94505f61307f83611acf565b905081811161308e575f613098565b61309882826144bc565b8785815181106130aa576130aa61414e565b6020908102919091010151526130bf83612292565b8785815181106130d1576130d161414e565b602002602001015160200181815250506130ea836122cf565b8785815181106130fc576130fc61414e565b6020026020010151604001818152505061311583612255565b8785815181106131275761312761414e565b602002602001015160a001906001600160a01b031690816001600160a01b03168152505084156131a25761317f8985815181106131665761316661414e565b6020026020010151670de0b6b3a7640000612710611b30565b8785815181106131915761319161414e565b602002602001015160800181815250505b505050806001019050612fac565b505095945050505050565b5f5f6131ca89898989896136fb565b90505f5b885181101561340d575f8782815181106131ea576131ea61414e565b602002602001015190506132198b8b848151811061320a5761320a61414e565b60200260200101518986613739565b85838151811061322b5761322b61414e565b602002602001015160600181815250505f6132518b848151811061033f5761033f61414e565b90505f6132778c85815181106132695761326961414e565b60200260200101518c6137f4565b806132a057506132a08c85815181106132925761329261414e565b60200260200101518361384d565b90505f826001600160a01b031663b235d4686040518163ffffffff1660e01b8152600401602060405180830381865afa1580156132df573d5f5f3e3d5ffd5b505050506040513d601f19601f820116820180604052508101906133039190614384565b60ff16600214905080156133d457838886815181106133245761332461414e565b60200260200101515f0181815161333b91906141c0565b90525061334884886141c0565b96508389868151811061335d5761335d61414e565b602002602001018181525050811561339757838886815181106133825761338261414e565b602002602001015160600181815250506133fe565b838886815181106133aa576133aa61414e565b60200260200101516060015110156133cf57838886815181106133825761338261414e565b6133fe565b81156133fe575f8886815181106133ed576133ed61414e565b602002602001015160600181815250505b505050508060010190506131ce565b5050979650505050505050565b60a08201516020830151604080850151905163302cd81160e21b815260048101859052602481019290925260448201525f9182916001600160a01b039091169063c0b3604490606401602060405180830381865afa15801561347e573d5f5f3e3d5ffd5b505050506040513d601f19601f820116820180604052508101906134a291906141a9565b90505f6134b46301e133805f196143b7565b82116134cd576134c86301e133808361434b565b6134d0565b5f195b90506134e08186608001516138c2565b95945050505050565b5f5f5b8451811015613524578481815181106135075761350761414e565b60200260200101518261351a91906141c0565b91506001016134ec565b508181106135325750505050565b5f61353d82846144bc565b90505b80156136d4575f5f5f5f5f5b8951811015613656578881815181106135675761356761414e565b6020026020010151606001518a82815181106135855761358561414e565b6020026020010151101561364e575f8a82815181106135a6576135a661414e565b60200260200101518a83815181106135c0576135c061414e565b6020026020010151606001516135d691906144bc565b90505f8782106135e657876135e8565b815b9050805f036135f857505061364e565b5f6136298c858151811061360e5761360e61414e565b6020026020010151838e87815181106125455761254561414e565b905084158061363757508781115b1561364a57809750839650819550600194505b5050505b60010161354c565b508061366557505050506136d4565b818984815181106136785761367861414e565b6020026020010181815161368c91906141c0565b905250875182908990859081106136a5576136a561414e565b60200260200101515f018181516136bc91906141c0565b9052506136c982866144bc565b945050505050613540565b5f811180156136e4575084518111155b156136f4576136f48585836138ec565b5050505050565b5f60055b61370d8787878787866139bc565b156137195790506134e0565b805f03613729575f9150506134e0565b613732816144ee565b90506136ff565b60405163f4c4a61360e01b81526001600160a01b0384811660048301525f91829187169063f4c4a61390602401602060405180830381865afa158015613781573d5f5f3e3d5ffd5b505050506040513d601f19601f820116820180604052508101906137a591906141a9565b90505f6137b884655af3107a400061434b565b90508082116137cb575f925050506137ec565b6137e7856137d983856144bc565b670de0b6b3a7640000611b30565b925050505b949350505050565b5f5f5b825181101561384457836001600160a01b031683828151811061381c5761381c61414e565b60200260200101516001600160a01b03160361383c576001915050611183565b6001016137f7565b505f9392505050565b60405163699ba8b360e01b81526001600160a01b0383811660048301525f919083169063699ba8b390602401606060405180830381865afa158015613894573d5f5f3e3d5ffd5b505050506040513d601f19601f820116820180604052508101906138b89190614503565b5090949350505050565b5f6138ce825f196144bc565b83116138e3576138de82846141c0565b611ac8565b505f1992915050565b5f5f5f5f5b8651811015613952575f61392b8783815181106139105761391061414e565b6020026020010151878985815181106125455761254561414e565b905082158061393957508481115b1561394957809450819350600192505b506001016138f1565b5080156139b4578386838151811061396c5761396c61414e565b6020026020010181815161398091906141c0565b905250845184908690849081106139995761399961414e565b60200260200101515f018181516139b091906141c0565b9052505b505050505050565b5f5f5f5b8751811015613b17575f6139df89838151811061033f5761033f61414e565b90505f613a058a84815181106139f7576139f761414e565b60200260200101518a6137f4565b80613a205750613a208a84815181106132925761329261414e565b90505f826001600160a01b031663b235d4686040518163ffffffff1660e01b8152600401602060405180830381865afa158015613a5f573d5f5f3e3d5ffd5b505050506040513d601f19601f82011682018060405250810190613a839190614384565b60ff1660021490508015613abd57888481518110613aa357613aa361414e565b602002602001015185613ab691906141c0565b9450613af4565b81613af457613ae78c8c8681518110613ad857613ad861414e565b60200260200101518a8a613739565b613af190866141c0565b94505b878510613b0957600195505050505050611a53565b5050508060010190506139c0565b505f98975050505050505050565b6001600160a01b0381168114613b39575f5ffd5b50565b5f60208284031215613b4c575f5ffd5b8135611ac881613b25565b602080825282518282018190525f918401906040840190835b81811015613b975783516001600160a01b0316835260209384019390920191600101613b70565b509095945050505050565b5f5f83601f840112613bb2575f5ffd5b5081356001600160401b03811115613bc8575f5ffd5b6020830191508360208260051b8501011115613be2575f5ffd5b9250929050565b5f5f60208385031215613bfa575f5ffd5b82356001600160401b03811115613c0f575f5ffd5b613c1b85828601613ba2565b90969095509350505050565b5f602082016020835280845180835260408501915060408160051b8601019250602086015f5b82811015613cb057868503603f19018452815180518087526020918201918701905f5b81811015613c975783516001600160a01b0316835260209384019390920191600101613c70565b5090965050506020938401939190910190600101613c4d565b50929695505050505050565b5f8151808452602084019350602083015f5b82811015613d2257815180516001600160a01b031687526020808201518189015260408083015190890152606080830151908901526080918201519188019190915260a09096019590910190600101613cce565b5093949350505050565b5f602082016020835280845180835260408501915060408160051b8601019250602086015f5b82811015613cb057868503603f19018452815180516001600160a01b031686526020810151613d8c60208801826001600160a01b03169052565b506040810151604087015260608101516101406060880152613db2610140880182613cbc565b90506080820151608088015260a082015160a088015260c082015160c088015260e082015160e08801526101008201516101008801526101208201516101208801528096505050602082019150602084019350600181019050613d52565b5f5f5f60408486031215613e22575f5ffd5b83356001600160401b03811115613e37575f5ffd5b613e4386828701613ba2565b9094509250506020840135613e5781613b25565b809150509250925092565b602080825282518282018190525f918401906040840190835b81811015613b9757613eab83855180516001600160a01b0316825260208082015190830152604090810151910152565b6020939093019260609290920191600101613e7b565b5f60208284031215613ed1575f5ffd5b5035919050565b5f5f5f60608486031215613eea575f5ffd5b8335613ef581613b25565b95602085013595506040909401359392505050565b604080825283519082018190525f9060208501906060840190835b81811015613f5857835180516001600160a01b031684526020908101518185015290930192604090920191600101613f25565b5050838103602080860191909152855180835291810192508501905f5b81811015613fbb57613fa584845180516001600160a01b0316825260208082015190830152604090810151910152565b6060939093019260209290920191600101613f75565b50919695505050505050565b5f5f5f5f5f60808688031215613fdb575f5ffd5b8535613fe681613b25565b9450602086013593506040860135925060608601356001600160401b0381111561400e575f5ffd5b8601601f8101881361401e575f5ffd5b80356001600160401b03811115614033575f5ffd5b8860208260061b8401011115614047575f5ffd5b959894975092955050506020019190565b634e487b7160e01b5f52604160045260245ffd5b604051601f8201601f191681016001600160401b038111828210171561409457614094614058565b604052919050565b5f602082840312156140ac575f5ffd5b81516001600160401b038111156140c1575f5ffd5b8201601f810184136140d1575f5ffd5b80516001600160401b038111156140ea576140ea614058565b8060051b6140fa6020820161406c565b91825260208184018101929081019087841115614115575f5ffd5b6020850194505b83851015614143578451925061413183613b25565b8282526020948501949091019061411c565b979650505050505050565b634e487b7160e01b5f52603260045260245ffd5b5f60208284031215614172575f5ffd5b8151611ac881613b25565b634e487b7160e01b5f52601160045260245ffd5b5f600182016141a2576141a261417d565b5060010190565b5f602082840312156141b9575f5ffd5b5051919050565b808201808211156111835761118361417d565b805180151581146141e2575f5ffd5b919050565b5f602082840312156141f7575f5ffd5b611ac8826141d3565b805160ff811681146141e2575f5ffd5b5f5f5f5f60808587031215614223575f5ffd5b61422c856141d3565b9350602085015161423c81613b25565b925061424a60408601614200565b9150606085015162ffffff81168114614261575f5ffd5b939692955090935050565b805169ffffffffffffffffffff811681146141e2575f5ffd5b5f5f5f5f5f60a08688031215614299575f5ffd5b6142a28661426c565b602087015160408801516060890151929750909550935091506142c76080870161426c565b90509295509295909350565b634e487b7160e01b5f52601260045260245ffd5b5f60608284031280156142f8575f5ffd5b50604051606081016001600160401b038111828210171561431b5761431b614058565b6040528251815261432e602084016141d3565b602082015261433f604084016141d3565b60408201529392505050565b80820281158282048414176111835761118361417d565b5f5f60408385031215614373575f5ffd5b505080516020909101519092909150565b5f60208284031215614394575f5ffd5b611ac882614200565b5f600160ff1b82016143b1576143b161417d565b505f0390565b5f826143d157634e487b7160e01b5f52601260045260245ffd5b500490565b6001815b60018411156113b1578085048111156143f5576143f561417d565b600184161561440357908102905b60019390931c9280026143da565b5f8261441f57506001611183565b8161442b57505f611183565b8160018114614441576002811461444b57614467565b6001915050611183565b60ff84111561445c5761445c61417d565b50506001821b611183565b5060208310610133831016604e8410600b841016171561448a575081810a611183565b6144965f1984846143d6565b805f19048211156144a9576144a961417d565b029392505050565b5f611ac88383614411565b818103818111156111835761118361417d565b8082018281125f8312801582168215821617156106f5576106f561417d565b5f816144fc576144fc61417d565b505f190190565b5f5f5f60608486031215614515575f5ffd5b61451e846141d3565b925061452c602085016141d3565b915061453a604085016141d3565b9050925092509256fea2646970667358221220d8d300d32c91bddeaef794ede520fda19785cd4f261d831f8a70a849b3ffde4464736f6c634300081c0033","linkReferences":{}},"methodIdentifiers":{"CAP_BUFFER_BPS()":"45a7a9b3","MAX_INCENTIVE_APY_BPS()":"a648335a","ORACLE_MANAGER()":"d24bc1a4","USD_THRESHOLD()":"c1a0a952","centralRegistry()":"8f73dcfa","getOptimizerAPY(address)":"9e26ba99","getOptimizerMarketData(address[])":"4be8ed5a","getOptimizerUserData(address[],address)":"6197cadb","isBad(address)":"07600536","multiIsBadCheck(address[])":"17c39e16","optimalRebalance(address,uint256,uint256)":"d2f00c88","optimalRebalanceWithIncentives(address,uint256,uint256,(address,uint256)[])":"d5b479ac","setStalenessMultiplier(uint256)":"c04fe890","stalenessMultiplierBps()":"acc77ad3"},"id":131}